:020000040800F2
:10C00000482C0020BDEC0008ED1C0108EF1C0108C5
:10C010000000000000000000000000000000000020
:10C02000000000000000000000000000F71C0108F4
:10C030000000000000000000F91C0108FB1C0108C2
:10C04000EDEC0008EDEC000855480108EDEC0008A7
:10C05000EDEC00087D450108EDEC0008AD45010858
:10C06000EDEC0008EDEC0008EDEC0008EDEC00084C
:10C07000EDEC0008EDEC0008EDEC0008EDEC00083C
:10C08000EDEC0008EDEC0008EDEC00084153010870
:10C09000EDEC0008EDEC0008EDEC0008EDEC00081C
:10C0A000EDEC0008EDEC0008EDEC00081F55010870
:10C0B00013570108EDEC0008EDEC0008EDEC00086A
:10C0C000034885460DF026FA004800470B2E01086C
:10C0D000482C0020864910B5884208D1441501211A
:10C0E000204601F07AF80021204601F076F810BDD4
:10C0F00030B5C2687F4B8C681A400B680D792343BA
:10C10000CC686D032C4323430C69496923430B43DB
:10C110001343C36030BD0021016001718160C160C3
:10C120000161416170470029816801D0012200E06E
:10C13000022211438160704701617047002A026941
:10C1400001D00A4300E08A43026170470122D20312
:10C150000029C16801D0114300E09143C1607047DC
:10C16000012292030029C16801D0114300E09143EC
:10C17000C16070470122D2050029C16801D0114376
:10C1800000E09143C16070470904114301627047A8
:10C19000C2681F239B069A430A43C260704701226C
:10C1A00092050029C16801D0114300E09143C160AC
:10C1B000704701225049D2050028886801D01043F9
:10C1C00000E090438860704701224B4992050028A7
:10C1D000886801D0104300E09043886070470122D6
:10C1E000454912060028886801D0104300E09043BA
:10C1F00088607047836A0B43836242617047012203
:10C2000052030029C16801D0114300E09143C1608D
:10C210007047012212040029C16801D0114300E0D7
:10C220009143C1607047012212030029C16801D007
:10C23000114300E09143C1607047826800210123EF
:10C24000DB071A4382600F231B038268491CD20F4D
:10C25000D207994201D0002AF7D18168002901DB79
:10C26000006C704700207047816810221143816084
:10C27000704781680422114381607047006C80B26E
:10C2800070470029C16802D00122114301E049082A
:10C290004900C1607047C26802239A43C260C26805
:10C2A0000A43C2607047002A426801D00A4300E096
:10C2B0008A434260704702460020CB0104D5926851
:10C2C00001231B069A4300E012680A4200D00120B5
:10C2D00070470160704702465368002012680B40A7
:10C2E0000A4202D0002B00D0012070470160704745
:10C2F0000024014003D2FFFF00270140F0B5016890
:10C300006A4A114001600021016041608160C160A2
:10C310006749674A08390F2390422DD0644AF024B8
:10C32000143290422FD0624A1D022832904231D0FE
:10C330005F4E1A033C36B04203D1486815E04860AE
:10C34000F0BD5B4F0F2650373604B8422DD0584F02
:10C350006437B84202D14868320106E0544F78375A
:10C36000B84204D148680F2212061043E7E751494A
:10C37000504F0839B84202D148681843DFE74D4BA7
:10C380001433984202D148682043D8E7494B2833F8
:10C39000984202D148682843D1E7464B3C33984243
:10C3A000CBD0444A50329042CAD148683043C6E7A5
:10C3B00030B50368404A0C6A13408A684D692243CD
:10C3C0000C692C4322438C692243CC6922434C6A7A
:10C3D00022438C6A22431A430260CA6842600A6898
:10C3E00082604968C16030BD0021016041608160A8
:10C3F000C160016141618161C1610162416281622B
:10C4000070470029016802D00122114301E0274A48
:10C4100011400160704710B58030826A0B0F9C009C
:10C420000F23A3409A438262826A090109090A43E1
:10C43000826210BD41607047406880B27047002A38
:10C44000026801D00A4300E08A4302607047024656
:10C450000020D10002D51749083901E014490839F4
:10C460000968114200D001207047C10002D511496E
:10C47000083901E00E49083948607047024600203B
:10C48000D10002D50B49083901E00949083909688A
:10C49000114200D001207047C10002D5054908397A
:10C4A00001E003490839486070470000FEFF0000C2
:10C4B00008000240080402400F80FFFF30482F4967
:10C4C0000160002141608160C1602E494161704777
:10C4D00010B583792A490268002B26D00B68934354
:10C4E0000B604A6803689A434A60027952181368DD
:10C4F0000468234313608A6803689A438A60CA68A1
:10C5000003689A43CA604279102A05D051180A6814
:10C51000006802430A6010BD8A6803681A438A6093
:10C52000CA6800680243CA6010BD007940180168FB
:10C530009143016010BD0021016001710C22427124
:10C54000817170470E490A6902430A6170470C4ABB
:10C550000146526900200A4200D001207047084974
:10C5600048617047064A0146526900200A4200D0DD
:10C570000120704702494861704700000000940F95
:10C5800000040140FFFF6B00FE4A116849084900A2
:10C59000014311607047FB4910220028086801D050
:10C5A000104300E0904308607047F6490020096896
:10C5B000890600D501207047F2480169090603D5B4
:10C5C000F1494160F14941607047EE4801698022BC
:10C5D000114301617047EB490420CA68D20701D0BA
:10C5E00001207047CA68D20601D502207047C96889
:10C5F0004907FBD50320704700B50346FFF7EBFF63
:10C6000002E0FFF7E8FF5B1E012803D0002B00D1FA
:10C61000052000BD002BF4D1FAE7F0B50B27064644
:10C620003F043846FFF7E8FF04280FD1D54C2069B6
:10C63000022528432061666120694021084320616A
:10C640003846FFF7D9FF2169A9432161F0BD70B5D4
:10C650000B252D042846FFF7CFFF04280ED1C94C27
:10C66000206904263043206120694021084320616D
:10C670002846FFF7C1FF2169B143216170BDF8B5BC
:10C68000064600200B273F0400900D463846FFF772
:10C69000B3FF042815D1BB4C206901210843206158
:10C6A00035803846FFF7A8FF042806D1B61C290CB0
:10C6B000009631803846FFF79FFF216949084900FD
:10C6C0002161F8BDF0B50B2706463F040D463846FC
:10C6D000FFF792FF04280CD1AA4C206901210843DE
:10C6E000206135803846FFF787FF216949084900F6
:10C6F0002161F0BDA3480169890503D4A249816085
:10C70000A249816070479F480169421591430161C8
:10C7100070479C480169012252031143016170472F
:10C7200098490020C9694907890F00D00120704746
:10C73000F0B5AA24FFF7F4FF002800D000240B274F
:10C740003F043846FFF758FF042813D18D4D286960
:10C750002026304328612869402108432861384653
:10C76000FFF74AFF1021042805D0052802D02A69C6
:10C770008A432A61F0BD2869B043286128690E46C2
:10C7800030432861824804803846FFF735FF05288A
:10C79000F0D02969B1432961F0BDF0B5C04301046F
:10C7A0000E0E0102C7B2040E0B200D0E0004FFF79F
:10C7B00023FF042831D173490A6910231A430A61FF
:10C7C000FF2F07D0724807810B200004FFF714FFEA
:10C7D00004281BD1FF2E07D06D4846810B20000492
:10C7E000FFF70AFF042811D1FF2D07D06848858183
:10C7F0000B200004FFF700FF042807D1FF2C07D00F
:10C800006348C4810B200004FFF7F6FE052804D01E
:10C810005C490B69102293430B61F0BDF0B50B2707
:10C8200006463F043846FFF7E7FE04281ED1554C64
:10C830002069202528432061206940210843206188
:10C840003846FFF7D9FE04280BD12069A8432061A0
:10C8500020691025284320614D4806803846FFF79F
:10C86000CBFE052802D02169A9432161F0BDF0B5B6
:10C8700006460B2094460F460004FFF7BDFE042831
:10C8800014D1404C20691025284320613E43604666
:10C890000643F82006433E4846800B200004FFF77D
:10C8A000ABFE052802D02169A9432161F0BDF0B596
:10C8B0000B2706463F043846FFF79EFE042810D19A
:10C8C000304C2069102528432061EF200643304872
:10C8D00046803846FFF790FE052802D02169A9431B
:10C8E0002161F0BDF0B50B2706463F043846FFF73F
:10C8F00083FE042810D1234C206910252843206191
:10C90000F7200643224846803846FFF775FE052883
:10C9100002D02169A9432161F0BDF0B50B2706467D
:10C920003F043846FFF768FE042810D1154C2069F3
:10C930001025284320617F2006431548468038464D
:10C94000FFF75AFE052802D02169A9432161F0BDF5
:10C95000F0B50B2706463F043846FFF74DFE042886
:10C9600019D1084C2069102528432061DF20064397
:10C97000074846803846FFF73FFE05280BD021695F
:10C98000A94307E00020024023016745AB89EFCDB2
:10C9900000F8FF1F2161F0BDF0B50B2706463F04EC
:10C9A0003846FFF729FE042810D1304C20691025A5
:10C9B00028432061BF2006432D4846803846FFF7B4
:10C9C0001BFE052802D02169A9432161F0BDF0B505
:10C9D0000B2706463F043846FFF70EFE04280ED10B
:10C9E000224C206910252843206121484680384682
:10C9F000FFF702FE052802D02169A9432161F0BD9D
:10CA0000F0B507460B200E460004FFF7F5FD04289D
:10CA10000ED1164C20691025284320613E800B2042
:10CA20000004FFF7E9FD052802D02169A94321612F
:10CA3000F0BD0E48C0690004000E70470B48006A44
:10CA400070470A4A0029116901D0014300E081437F
:10CA500011617047054A0146D26800200A4200D0A1
:10CA6000012070470149C860704700000020024063
:10CA700000F8FF1F092110B5C906884202D1012123
:10CA80004C0404E05049884209D1012104022046A7
:10CA900000F09AFB0021204600F096FB10BD4B49A8
:10CAA000884202D101210402F1E74949884202D1BA
:10CAB00001210C05EBE74749884202D101214402DC
:10CAC000E5E745498842E9D101218C05DFE7F0B56A
:10CAD0000022032501230C6893401C409C422AD16C
:10CAE0000C79012C01D0022C12D1876854002E46FB
:10CAF000A640B74387604E79A64084682643866087
:10CB000084889C43848084888B7993401C438480F0
:10CB1000066853002C469C40A64306600E790768C1
:10CB20009E403E430660C668A643C660CC799C40E2
:10CB3000C3681C43C460521C102ACBD3F0BD2749E4
:10CB4000016000210171012242718171C171704740
:10CB5000012208B512040A430092C261C161009922
:10CB6000C161C169C069009008BD0246128A0020F7
:10CB70000A4200D001207047008A70470246928A1C
:10CB800000200A4200D001207047808A70478161EE
:10CB9000704701857047002A01D081617047018587
:10CBA0007047818270474B07DB0E9A40C90810B569
:10CBB00089000818016A0F249C40A1430162016AA0
:10CBC0001143016210BD0000000400480008004845
:10CBD000000C00480010004800140048FFFF00004F
:10CBE00030B5827801240178002A15D08B08174AC5
:10CBF0009B009A1813688907C90EFF258D40AB4327
:10CC00004578AD072D0E8D401D4315600078C00698
:10CC1000C00E84400E4804E0C806C00E84400C4894
:10CC20008030046030BD0B4A0029116901D00143F6
:10CC300000E0814311617047042207490428086914
:10CC400002D09043086170471043FBE700E400E026
:10CC500000E100E000ED00E000E000E010B501219F
:10CC60000C07204600F0C2FA0021204600F0BEFA70
:10CC700010BD32498A150028086801D0104300E031
:10CC80009043086070472D4A1168E023994301439F
:10CC900011607047294910220028086801D010430C
:10CCA00000E0904308607047244A0029516801D091
:10CCB000014300E081435160704721490A69042320
:10CCC0009A430A61012803D040BF20BF20BF7047AC
:10CCD00030BF7047194B1A689208920002431A60DD
:10CCE00017480369042213430361012906D002296E
:10CCF00006D00169022211430161704730BF00E094
:10CD000020BF01699143F7E70C48016802221143F3
:10CD100001600B48016904221143016130BF704773
:10CD2000064A0146526800200A4200D0012070479E
:10CD300002490A68800002430A60704700700040A0
:10CD400000ED00E0F94801680122114301604168EB
:10CD5000F74A114041600168F64A114001600168DC
:10CD6000012292049143016041683F2212049143E1
:10CD70004160C16A09090901C162016BEE4A1140B3
:10CD80000163416B4908490041630021816070479C
:10CD9000E64900228A708870704703460020E34A03
:10CDA00059090CD001290CD002290CD0516BDA069C
:10CDB000D20E012393400B4200D00120704711682E
:10CDC000F5E7116AF3E7516AF1E718B50020052489
:10CDD000240300901120FFF7E0FF0099491C009107
:10CDE000A14201D00028F5D01120FFF7D6FF00287E
:10CDF00000D0012018BDCD4A1168F8239943C00026
:10CE0000084310607047C9490028086802D0012211
:10CE1000104301E04008400008607047C34A516B6E
:10CE2000F8239943C000084350637047BF49002866
:10CE3000486B02D00122104301E0400840004863E3
:10CE40007047BA4904220028486B01D0904300E0A3
:10CE5000104348637047B5490A6A520852000A6293
:10CE60000A6A04239A430A620A6A02430A62704702
:10CE7000AE490A6A18239A430A620A6A02430A629E
:10CE80007047AA490028486A02D00122104301E0F5
:10CE9000400840004862704710B5A44A53687B249C
:10CEA000E403A3435360536808430343536010BD36
:10CEB00001229E4912060028086801D0104300E0B4
:10CEC0009043086070470122984912040028486B7B
:10CED00001D0104300E0904348637047934AD16A01
:10CEE000090909010143D162704701228F49D20427
:10CEF0000028086801D0104300E0904308607047A4
:10CF00008A4B5A681202120A0006084310435860FE
:10CF10007047864A5168890889000143516070470B
:10CF2000824840680C2108407047804A5168F023CD
:10CF300099430143516070477C4A516807231B02A3
:10CF4000994301435160704778494A6801239B0324
:10CF50009A434A604A6883B21A434A600A6B8B1547
:10CF60009A430A630A6B000C02430A6370476F49D5
:10CF70000A6B40239A430A630A6B02430A637047B1
:10CF80006A490A6B10239A430A630A6B02430A63D5
:10CF90007047010F654A01290AD00229116B0BD095
:10CFA00003239B0499431163116B01431163704781
:10CFB000116B89088900F6E703231B04F2E75B493C
:10CFC0000A6B80239A430A630A6B02430A63704721
:10CFD000F8B5564E0446706800210C22574D10409B
:10CFE00006D0574A042805D0082805D00C281CD0A4
:10CFF00025601CE022601AE07168706803238902D2
:10D00000DB030F0F1840BF1C00280AD0F06A01078D
:10D01000090F1046491C0BF0F1FD784301462160D1
:10D0200005E0484839464143F9E7474820607068C1
:10D03000464F0006000F3B5C20680246DA40626003
:10D0400073685B055B0FFB5CDA40A260336BDB054A
:10D0500001D43F4B05E073685B0401D4530800E042
:10D060009308E360336B5F063A4B03D4394F1237B2
:10D07000276100E02361376BFF0601D4656100E0A2
:10D080006061376BBF070ED0376BBF07BF0F012F33
:10D090000BD0376BBF07BF0F022F08D0376BFF4392
:10D0A000BF0706D006E0A26104E0A06102E0A36130
:10D0B00000E0A561376BBF03BF0F0FD0376BBF0315
:10D0C000BF0F012F0CD0376BBF03BF0F022F09D04A
:10D0D000376BBF03BF0F032F06D006E0E26104E009
:10D0E000E06102E0E36100E0E561376B3F03BF0F01
:10D0F0000FD0326B1203920F012A0CD0306B000359
:10D10000800F022809D0306B0003800F032806D05F
:10D1100006E0226204E0206202E0236200E0256271
:10D12000306B000618D408486062F8BD0010024059
:10D130000CB8FF08FFFFF6FEACFEF0FF00127A000D
:10D1400080BA8C0100093D00006CDC02C0000020A8
:10D15000809FD500008000006162E6E735490A6AD9
:10D1600002430A62704701223249D2030028086A4A
:10D1700001D0104300E090430862704701222D491E
:10D1800012040028086A01D0104300E090430862AE
:10D190007047284A0029516901D0014300E08143CA
:10D1A00051617047234A0029916901D0014300E091
:10D1B0008143916170471F4A0029D16901D0014321
:10D1C00000E08143D16170471A4A0029916A01D079
:10D1D000014300E0814391627047164A0029D168FB
:10D1E00001D0014300E08143D1607047114A00291A
:10D1F000116901D0014300E08143116170470D4A7C
:10D200000029517A01D0014300E0814351727047F7
:10D210000848416A01221206114341627047054ADB
:10D220000146926800200A4200D00120704701495F
:10D23000887270470010024018B50020FA4B009029
:10D240009868800601D5012018BDCA205862532075
:10D250005862D868A0218843D86020218C02D86801
:10D26000009A0840521C0092A24201D00028F6D039
:10D27000D868800601D5012000E00020FF21596216
:10D2800018BD18B50020E84B0090D868400612D4AD
:10D290000020C043D86040210C02D868009A0840A2
:10D2A000521C0092A24201D00028F6D0D868400655
:10D2B00001D4002018BD012018BD30B50025DA4C7E
:10D2C000CA20606253206062FFF7DBFF002816D09F
:10D2D00000212160D5486061D5486060A068A160E8
:10D2E000D4482061E161E162E163CF4840304160B0
:10D2F000E1600160FFF7A0FF002800D00125FF20BA
:10D300006062284630BDC848C16880229143C16030
:10D31000704770B505460026C34CCA206062532092
:10D320006062FFF7AEFF002811D0A068402188435B
:10D33000A060A06829680843A060A86820612069EF
:10D34000A988090408432061FFF7DDFF0126FF20BB
:10D350006062304670BD002101607F214160FF2185
:10D3600081607047B049002801D0FF2002E0CA2048
:10D37000486253204862704770B506460025AA4CA3
:10D38000CA20606253206062FFF77BFF00280AD04A
:10D390001021A068002E01D0084300E08843A0605F
:10D3A000FFF7B1FF0125FF206062284670BD9E494E
:10D3B000CA224A6253224A620028886802D0202288
:10D3C000104301E0DF2210408860FF204862704770
:10D3D000F8B50C460026011E934F2078B9683246F6
:10D3E00004D049062DD500F085FB2BE0490600D47A
:10D3F000E27000F073FB0504607800F06FFB000240
:10D400000543A07800F06AFB0543E078000405437B
:10D41000CA20786253207862FFF733FF00280CD0CF
:10D42000854805403D60FFF76EFFB868800603D46D
:10D43000FFF702FF002800D00126FF207862304667
:10D44000F8BDE2702078A578000405436078E178A3
:10D45000000209040843DAE70021C170017041703D
:10D460008170704770B503466F480C460268724879
:10D470001146014088024D04800E20706D0E490651
:10D480006570490EA1705102490E40221140E170B1
:10D49000002B0AD100F02EFB2070607800F02AFBF0
:10D4A0006070A07800F026FBA07070BD5E49886AAD
:10D4B0004968704770B50C460026010060780ED0B0
:10D4C00000F018FBA07800F015FBE078A5780004C8
:10D4D00005436078217800024903084314E0C1063F
:10D4E00003D5EF2108400A306070E07800F0F6FACA
:10D4F0000504607800F0F2FA00020543A07800F01D
:10D50000EDFA0543207840030543474CCA2060628A
:10D5100053206062FFF7B5FE00280CD04748054055
:10D520006560FFF7F0FEA068800603D4FFF784FE75
:10D53000002800D00126FF206062304670BD012126
:10D540000170817041700021C1707047024610B5B2
:10D5500035480C464068C021C94301400002000E16
:10D56000CB04E070DB0E63708B069B0E0904490F41
:10D57000A3702170002A0AD100F0BCFAE070607834
:10D5800000F0B8FA6070A07800F0B4FAA07010BD96
:10D5900070B50021244E0028B068144620D0400603
:10D5A00035D5207800F0A6FA207B00F0A3FA207889
:10D5B000A578000405436078E17800020904084377
:10D5C0000543207B00060543A068054360680543CA
:10D5D000CA20706253207062F561FF20706270BDD6
:10D5E000400600D4E170207800F078FA05046078F5
:10D5F00000F074FA00020543A07800F06FFA0543CA
:10D60000E07800040543207B00F068FADAE7E17077
:10D61000CAE70021C17001704170817001228160F0
:10D62000027341607047000000280040FFFF0000C7
:10D6300001210000FF007F007F7F7F003FFFFF0090
:10D6400070B514460246FE48C16940258802800E26
:10D650004B0420705B0E63704B065B0EA3700B0CCB
:10D660002B40E3708B009B0E23732B060B40A360B3
:10D67000F44B19406160002A0ED100F03BFA207093
:10D68000607800F037FA6070A07800F033FAA0708C
:10D69000207B00F02FFA207370BD18B50022009295
:10D6A000E74BCA225A6253225A620029996802D073
:10D6B0000143996012E081439960000A0124A403A8
:10D6C000D968009A0140521C0092A24201D0002960
:10D6D000F6D0D968014201D1002000E00120FF21ED
:10D6E000596218BDD648CA234362532343621206C7
:10D6F0000A43D34940314A60FF21416292E7D04852
:10D70000403040684004400C8CE7CD49CA224A6250
:10D7100053224A628A68D208D2008A608A68024329
:10D720008A60FF2048627DE7C549CA224A625322C7
:10D730004A624861FF20486274E7C148406980B28C
:10D7400070E718B500210091BD4ACA2151625321EA
:10D75000516211150028906802D00843906011E0D2
:10D760008843906004231C03D06800991840491C2A
:10D770000091A14201D00028F6D0D068400701D422
:10D78000002000E00120FF21516218BD10B5AC4A15
:10D79000CA2353625323536293680124A404A3430E
:10D7A00093609368084303439360FF20506210BD69
:10D7B000A348806801218904084033E710B5A04AD6
:10D7C000CA23536253235362936807242405A34357
:10D7D00093609368084303439360FF20506210BD39
:10D7E0009749CA224A6253224A620122D20500287E
:10D7F000886801D0104300E090438860FF204862B1
:10D8000010E78F49CA224A6253224A628A6801237A
:10D81000DB049A438A608A6802438A60FF20486278
:10D8200000E770B50023864CCA2565625325656202
:10D83000E568ED0307D5A514E668F60303D5AB420A
:10D8400001D05B1CF8E7E368DB0304D40843104312
:10D85000E063012000E00020FF21616270BD10B58F
:10D86000774B9A68784C2240002901D00243D814A3
:10D870000243CA205862532058629A60FF205862BF
:10D8800010BD70B50D466E4914460B6B6F4A496B5F
:10D890001A40C026F64331409602B60E2E7056044A
:10D8A000760E52066E70520EAA705A02520E402325
:10D8B0001A40EA700022E270CA04D20E62708A0630
:10D8C000920E0904490FA2702170002817D1287800
:10D8D00000F010F92870687800F00CF96870A878EA
:10D8E00000F008F9A870607800F004F96070A07882
:10D8F00000F000F9A070207800F0FCF8207070BDF6
:10D900004F48806B8EE64E4A400040320029116835
:10D9100002D00143116085E68143FBE7484A40326B
:10D920000029116801D0014300E08143116079E6CC
:10D93000434940310A680323DB029A430A600A68BC
:10D9400002430A606EE63E4940310A6807231B0223
:10D950009A430A600A6802430A6063E63849403124
:10D960000A6803235B039A430A600A6802430A6059
:10D9700058E63349802240310028086801D010431E
:10D9800000E0904308604DE62D494031CA1300285D
:10D99000086801D0904300E01043086042E6284A3E
:10D9A00008B55032800080180090016008BD2449FD
:10D9B00008B55031800040180090006808BD20492B
:10D9C00040310A6801239B049A430A600A680243B3
:10D9D0000A6027E630B50022194CCA23636253233C
:10D9E0006362E3681B0707D5A314E5682D0703D519
:10D9F0009A4201D0521CF8E7E26812070AD4A268E2
:10DA0000D20607D40143E162FFF716FC002802D0DA
:10DA1000012000E00020FF21616230BD30B5084BDD
:10DA2000CA225A6253225A6204250246044CAA436F
:10DA300040342840002999680DD01143996007E0CF
:10DA40000028004080808080F7F7FFFF7F7F7F0005
:10DA50002168014303E0914399602168814321607B
:10DA6000FF20586230BD27490246C9680020264B76
:10DA70001940114200D00120D4E580210843C003A1
:10DA8000C00BC3431F48C2680A401343C360C9E5C3
:10DA900070B51C4A0021403212680423194C1A4008
:10DAA000A368860C0546F540ED0B15400340E2687F
:10DAB0002B4300090240002B03D01004000C00D0BF
:10DAC0000121084670BD00098021084380B20D4A3B
:10DAD000C343D06808400343D360A3E5002103E0BB
:10DAE000491C0A38C9B2C0B20A28F9D20907090E7E
:10DAF000084397E501090A2200075143000F401827
:10DB0000C0B28FE50028004078790100B24910B515
:10DB1000884209D1841401212046FFF75EFB0021D1
:10DB20002046FFF75AFB10BDAC498842FBD10414D4
:10DB300001212046FFF75AFB00212046FFF756FB44
:10DB400010BD002101800722418012028280C18025
:10DB5000018141818181C18107210182704730B5F6
:10DB60000388C122920113400A88CC890D8922437F
:10DB7000CC882C4322434C8922438C8922431A436C
:10DB800002808288964B1A408B88134383800A8ACE
:10DB900002820288042349889A4311430180818BC1
:10DBA000904A1140818330BD0021018041808180F5
:10DBB000C1800222826081817047F0B505460C4623
:10DBC00002200021AA8B8BB00126854BBF3B1A4057
:10DBD000AA832884AF8BA268022A1FD0A0880028BD
:10DBE00000D002266846FFF7F3F9E1880098CA1FC3
:10DBF000FF3AFA3A29D071010BF000F80A214843A4
:10DC0000A1680AF0FBFF401D80B20A210AF0F6FF6E
:10DC1000C107C90F401AC003000C0902821EFE2A68
:10DC200001D302200021E288084302432A8420888D
:10DC30006188A2890843A188114308430121384320
:10DC4000C9020843A8830BB0F0BD000A0A22504362
:10DC5000A168D6E740220029018801D0114300E0E5
:10DC600091430180704710220029818801D011431F
:10DC700000E09143818070470029818B03D001220D
:10DC80009202114301E0584A114081837047828813
:10DC9000534B1A400A43828070478288534B1A4084
:10DCA000828082880A4382807047012292039142D7
:10DCB000018801D1114301E04D4A114001807047B4
:10DCC0004C4A9142018803D0FF220132114300E007
:10DCD00011400180704704220029818801D011433E
:10DCE00000E091438180704708220029818801D09B
:10DCF000114300E091438180704701737047818137
:10DD00007047007B7047808970470288354B1A4006
:10DD1000028002880A43028070470029018803D0EC
:10DD200001225203114301E0334A11400180704740
:10DD3000018801221203114301807047012901D09B
:10DD4000008B7047808A7047008A7047002A82885B
:10DD500001D00A4300E08A43828070478288274BC3
:10DD60001A40828082880A43828070470909012311
:10DD70008B40002A828899B201D00A4300E08A438E
:10DD80008280704700890321C902084070470089DA
:10DD900003214902084070470246128900200A42C6
:10DDA00000D001207047C9430181704730B50D078D
:10DDB00001242D0F2346AB400246002009098C4068
:10DDC00091889BB2A4B2128921401A4202D0002944
:10DDD00000D0012030BD000000300140003800407C
:10DDE000FFF00000FFF70000FFFB0000FFEF000066
:10DDF000FFBF0000FFFE0000FFDF0000FF9F0000EC
:10DE00002E4801688907890F016000218160C16087
:10DE10000161416181698215114381617047274A1F
:10DE2000116889088900014311607047234A00295D
:10DE3000116801D0014300E08143116070471F4A1F
:10DE40000029116801D0014300E08143116070474F
:10DE50001A490A68C0239A430A600A6802430A60A2
:10DE600070478A0710B5120F0F2393408C0813498F
:10DE7000A40061188C689C438C608B6890400343BD
:10DE80008B6010BD0D4A010E890080328918096827
:10DE90000002000A0840704708498A6902438A6103
:10DEA0007047064900208969C90500D501207047DF
:10DEB00002498A6902438A617047000000000140FC
:10DEC000F94910B5884202D10121C4143AE0012178
:10DED0008907884206D101210846FFF787F900210A
:10DEE000012008E0F149884208D101210220FFF712
:10DEF0007DF900210220FFF779F910BDEC49884235
:10DF000006D101211020FFF771F900211020F2E75E
:10DF1000E849884206D101212020FFF767F9002156
:10DF20002020E8E7E449884207D1841501212046F2
:10DF3000FFF75CF900212046DDE7E049884209D17E
:10DF400001210C042046FFF748F900212046FFF785
:10DF500044F910BDDA49884202D101214C04F1E7AD
:10DF6000D8498842F5D101218C04EBE710B502882D
:10DF7000CD4B984206D00124A407A04202D0CB4C3E
:10DF8000A04203D17024A2434C882243C84CA04233
:10DF900003D0CD4C22400C89224302804A68C262E1
:10DFA0000A880285984208D0C44A904205D0C44AE3
:10DFB000904202D0C34A904201D1897A0186012160
:10DFC000818210BD0021C94341600021018001818F
:10DFD0004180817270470185828270470288702378
:10DFE0009A430A430280704741627047C16270479A
:10DFF000406A7047008D704702220029018801D0D5
:10E00000114300E0914301807047042200290188F8
:10E0100001D0114300E09143018070478022002924
:10E02000018801D0114300E09143018070470288CC
:10E0300008239A43028002880A43028070470288BC
:10E04000A14B1A40028002880A43028070470029CF
:10E05000018802D00122114301E0490849000180F2
:10E06000704710B50A884B88CC881A438B882343A5
:10E070001A430B891A434B8989891A430A43403052
:10E08000828010BD0021018041808180C18001819A
:10E0900041818181704740300029818803D001226D
:10E0A000D203114301E04904490C8180704770B5E7
:10E0B000028C520852000284048C8288038B7025E3
:10E0C000AB439B080D889B001D4302239C438E8914
:10E0D0004B882643744C3343A04208D0774CA0426F
:10E0E00005D0774CA04202D0764CA0420DD1082436
:10E0F000A343CC891C4304239C438B882343724C49
:10E1000022400C8A14434A8A22438280058389680C
:10E110004163038470BD70B5028C10239A4302845E
:10E12000048C8288038B694D2B400D782D062D0CB5
:10E130001D4320239C438B891B051E0C4B882643C3
:10E140001B051B0C584C3343A04202D05B4EB0421F
:10E1500019D15F4E32400E8AB604360C3243A042CB
:10E1600011D18024A343CC892405240C1C434023D3
:10E170009C438B881B051B0C2343564C22404C8A26
:10E18000A404240C2243828005838968816303846C
:10E1900070BD30B5028C504B1A400284038C8288CB
:10E1A000848B7025AC43A4080D88A40025434B4CF8
:10E1B00023400C7B2406240C1C438B781B061B0C71
:10E1C0002343394CA04215D1424C23408C7B24067A
:10E1D000240C1C433E4B1C400B791B061B0C234399
:10E1E0003F4C22400C8A2405240C14434A8A120511
:10E1F000120C2243828085838968C163038430BD09
:10E2000030B5028C374B1A400284058C8288838B90
:10E210002E4C23400C782406240C1C43324B1D400A
:10E220000B7B1B071B0C2B438D782D072D0C1D43DF
:10E230001D4B984205D12D4B13400A8A9205120CB2
:10E240001A438280848389680164058430BD00217B
:10E2500001804180818081608181C1810182418210
:10E26000704730B5034618330124058C8C40A54314
:10E270000584002910D008290ED0091F0804400C7D
:10E28000C018016807231B03994301600168120647
:10E29000120C1143016030BD4808C018016870239A
:10E2A000994301600168F4E7002C0140000400403C
:10E2B00000100040001400400020004000400140D9
:10E2C0000044014000480140FFFC0000FF8C0000BA
:10E2D000FFFB0000FFF70000FFFE0000FFFD000055
:10E2E000FFCF0000FFEF0000FFDF0000FFBF0000D6
:10E2F0004163704781637047C16370470164704731
:10E30000028B70239A430A4302837047028BF64BB9
:10E3100009021A40114301837047828B70239A438C
:10E320000A4382837047828BEF4B09021A401143E4
:10E33000818370470029818802D00122114301E0C6
:10E340004908490081807047028B08239A430A4399
:10E3500002837047028BE54B09021A401143018387
:10E360007047828B08239A430A4382837047828BCB
:10E37000DE4B09021A40114381837047028B04234C
:10E380009A430A4302837047028BD94B09021A4011
:10E39000114301837047828B04239A430A4382838B
:10E3A0007047828BD24B09021A4011438183704718
:10E3B000028B80239A430A4302837047028B5204E4
:10E3C000520C0902114301837047828B80239A43C8
:10E3D0000A4382837047828B5204520C0902114314
:10E3E00081837047028C02239A430A430284704758
:10E3F000028C08239A430A4302847047028C20232C
:10E400009A430901114301847047028C80239A4387
:10E410000901114301847047028CB64B09021A406E
:10E42000114301847047028CB04B09021A4011431A
:10E4300001847047028CB04B09031A4011430184D8
:10E440007047028908239A43028102890A430281A4
:10E45000704710B50123048C8B409C430484038CCB
:10E460008A401343038410BD10B50423048C8B40F1
:10E470009C430484038C8A401343038410BD04220C
:10E480000029818801D0114300E0914381807047C9
:10E49000828B9A4B1A408283828B09020A438283C1
:10E4A0007047828B0C239A438283828B0A43828338
:10E4B0007047028B914B1A400283028B09020A4378
:10E4C00002837047F0B5048C1026B4430484058B96
:10E4D000048C8B4F1B0309013D402B4312021A434E
:10E4E000A0239C430C43344302830484F0BD028B7D
:10E4F0000C239A430283028B0A430283704770B550
:10E50000048C640864000484058B048C1B01134391
:10E51000F3260A22B54394432B430C4301210C43B9
:10E520000383048470BDF8B5054608884E888A8840
:10E530000B890C4600281DD0042824D00828288CDC
:10E540002AD0704908402884A88B2F8C31036C4E48
:10E55000120230400243180310436B4AA88317404D
:10E560000F43012109030F432F84E1882846FFF759
:10E570008FFFF8BD31462846FFF7C1FFE1882846E6
:10E58000FFF7B5FFF8BD31462846FFF79BFFE1884E
:10E590002846FFF78EFFF8BD5C4908402884A98B08
:10E5A000288C3702F3261B01B14313430B43584910
:10E5B000AB830840FF213843013108432884E188B8
:10E5C0002846FFF76EFFF8BD00210180418001223F
:10E5D0008280C18001817047F8B50C4649880026C9
:10E5E00001250746002900D10226A288012A00D170
:10E5F0000225208823890028384610D0FFF762FFC3
:10E60000E1883846FFF755FF23892A4631463846C8
:10E61000FFF775FFE1883846FFF769FFF8BDFFF7A0
:10E620006EFFE1883846FFF762FF23892A463146AC
:10E630003846FFF747FFE1883846FFF73AFFF8BD55
:10E64000406B7047806B7047C06B7047006C7047C1
:10E65000002A828901D00A4300E08A438281704700
:10E66000818270470246128A00200A4200D00120AF
:10E670007047C943018270470246138A002092897D
:10E680000B400A40002B02D0002A00D00120704726
:10E69000C943018270471143403001817047002A0D
:10E6A000828901D00A4300E08A43828170470822B0
:10E6B0000029818801D0114300E091438180704797
:10E6C0000189C908C90001817047028970239A43F2
:10E6D0000A430281704710B50446FFF7F6FF208910
:10E6E00007210843208110BDFF8F0000FFF70000C5
:10E6F000FFFB0000FFFD0000FFDF0000FFF3000054
:10E70000FF0C0000FFEF0000FF5F0000FFFE0000B5
:10E71000FFF5000070B516460D46044660290CD082
:10E7200001223146FFF7EBFE29462046FFF7CDFFD9
:10E73000208907210843208170BD01223146FFF75F
:10E74000C1FEF1E710B504891B021343E4B20B4389
:10E750002343038110BD10B50446FFF7F3FF208962
:10E76000C108C90007200143702081430143218172
:10E7700010BD10B50446FFF7E5FF2089012189038C
:10E780000843208110BD828870239A43828082884A
:10E790000A43828070470289D208D200028102892E
:10E7A0000A4302817047028980239A4302810289C9
:10E7B0000A430281704770B50589048B068CED0809
:10E7C000ED000D430C4905810C40FF2102310C4343
:10E7D000AA218E431901114331430483018470BD82
:10E7E00080220029818801D0114300E0914381807B
:10E7F0007047403001827047FCFC0000F74910B5BB
:10E80000884207D101218C032046FEF7E6FC002157
:10E81000204627E0F249884202D101214C0404E05D
:10E82000F049884209D101218C042046FEF7DEFC24
:10E8300000212046FEF7DAFC10BDEB49884202D1E8
:10E840000121CC04F1E7E949884202D101210C05FC
:10E85000EBE7E749884208D101212020FEF7BDFC03
:10E8600000212020FEF7B9FC10BDE249884206D104
:10E8700001214020FEF7B1FC00214020F2E7DE49F3
:10E880008842F1D101218020FEF7A7FC00218020E1
:10E89000E8E730B5044600688BB00D4640084000FC
:10E8A00020606068032109038843A968014361600F
:10E8B0002068D249EA680840696811432A6902431E
:10E8C00011432160A068032109028843696901435B
:10E8D000A1606846FEF77CFBC048844201D10698DF
:10E8E0000AE0BF48844201D1079805E0BD48844250
:10E8F00001D1089800E0029821680904296800D530
:10E9000040000AF07BF92A6852088A4200D8401C6D
:10E910002168090404D50107B94A490F104008438A
:10E92000A0810BB030BD4B21C901016000214160C5
:10E9300081600C22C16002614161704710B543687B
:10E940000F221202934314C922430C6849680C43F6
:10E9500022431A43426010BD002101604160816082
:10E96000C16070470029016802D00122114301E013
:10E970004908490001607047002A026801D00A4333
:10E9800000E08A43026070470122D2030029016837
:10E9900001D0114300E09143016070470122D2028F
:10E9A0000029816801D0114300E0914381607047E4
:10E9B0000122D2040029416801D0114300E09143B3
:10E9C00041607047012292040029416801D011433F
:10E9D00000E0914341607047002A426801D00A4339
:10E9E00000E08A43426070470122D2030029416857
:10E9F00001D0114300E09143416070470122D205EC
:10EA00000029416801D0114300E091434160704703
:10EA10004269120E1206426142690A43426170471E
:10EA2000028A120A12020282028A0A430282704792
:10EA300002220029016801D0114300E091430160E6
:10EA40007047826803231B059A43826082680A43E9
:10EA500082607047012212050029416801D01143EC
:10EA600000E0914341607047426803235B059A438D
:10EA7000426042680A4342607047C905C90D01857A
:10EA80007047808CC005C00D704742681202120AA0
:10EA90004260426809060A434260704701225203FD
:10EAA0000029016801D0114300E0914301607047E3
:10EAB00002680123DB029A43026002680A43026093
:10EAC0007047426810239A43426042680A4342609A
:10EAD0007047426820239A43426042680A4342607A
:10EAE0007047012292030029416801D0114300E0E0
:10EAF00091434160704708220029816801D0114389
:10EB000000E0914381607047028AD2B20282028A99
:10EB100009020A430282704720220029816801D03D
:10EB2000114300E091438160704710220029816801
:10EB300001D0114300E09143816070478268072350
:10EB40005B049A438260826849040A43826070478A
:10EB500042691202120A4261426909060A4342618D
:10EB60007047826804239A43826082680A43826005
:10EB7000704702220029816801D0114300E09143CF
:10EB800081607047012292030029816801D01143FE
:10EB900000E091438160704782680123DB039A4360
:10EBA000826082680A438260704702681F235B05A7
:10EBB0009A430260026849050A430260704702688E
:10EBC0001F231B049A430260026809040A4302607F
:10EBD0007047002A826815D00A4314E000380140CB
:10EBE0000044004000480040004C004000500040FD
:10EBF0000014014000180140001C0140F3E9FFFF30
:10EC0000F0FF00008A4382607047826801235B0343
:10EC10009A43826082680A438260704710B50B0491
:10EC20001C0E01238B40022C02D0032C02D002E0E8
:10EC3000001D00E008300168002A01D0194300E0FF
:10EC40009943016010BD002A028B01D00A4300E005
:10EC50008A4302837047826801231B039A438260C0
:10EC600082680A43826070470246D26900200A42E5
:10EC700000D0012070470162704730B50A04130EBE
:10EC800001252A4600248A40012B0ED0022B0ED0EB
:10EC90008368090C1340C0698D402840002B02D0C6
:10ECA000002800D00124204630BD0368F1E7436806
:10ECB000EFE7090C01228A40026270470C4880F39A
:10ECC00008880C480168090E0B4A914205D10B488F
:10ECD0000B4901600B480C4901600C4880470C4807
:10ECE0000047FEE7FEE7FEE7FEE7FEE7FEE700007F
:10ECF000482C0020040000001F00000018100240F3
:10ED0000010000000000014000000000A34D0108C8
:10ED1000C1C0000870B505465E24FEA006F0ACF840
:10ED20002A462146FC4807F072F8041E07D0FB492A
:10ED3000601809D0012807D0022803D104E0F8A008
:10ED400006F09AF8204670BDF7A0F9E7FEB54179C4
:10ED500006460127BF0780790B000AF0A6FC0A06C9
:10ED600011242F3A45505B66711F0AF0E3F9024601
:10ED70000B46002039460BF06DFA0022ED4B09E0FE
:10ED80000AF0D8F902460B46002039460BF062FA29
:10ED90000022E94B0AF02CF904460D46307A00288F
:10EDA00059D0012258E00AF0C5F902460B4600206E
:10EDB00039460BF04FFA0022E04BEBE70AF0BAF9C4
:10EDC00002460B46002039460BF044FA0022DC4B89
:10EDD000E0E70AF0AFF902460B46002039460BF097
:10EDE00039FA0022D74BD5E70AF0A4F902460B46C0
:10EDF000002039460BF02EFA0022D34BCAE70AF066
:10EE000099F902460B46002039460BF023FA0022FE
:10EE1000CE4BBFE70AF08EF902460B46002039467A
:10EE20000BF018FA0022CA4BB4E70AF083F9024645
:10EE30000B46002039460BF00DFA0022C54BA9E71E
:10EE40000AF078F902460B46002039460BF002FA28
:10EE50000022C14B9EE70022707A002800D00120DA
:10EE6000317F002900D00121B779337EBC46DB0019
:10EE7000BF00DB1B12019A1814235843101A1C30D0
:10EE8000019067464800381A80000AF053F9074697
:10EE9000009101980AF04EF93A46009B0AF0A8F852
:10EEA0000BF014F90AF078F9F7793F1D4743708B9E
:10EEB00008370AF03FF90022A84B09F07FFF2246ED
:10EEC0002B460AF02DF80022A54B0AF029F8064639
:10EED000384600910AF02EF922462B460AF020F817
:10EEE00000229F4B0AF01CF802460B463046009960
:10EEF00009F064FF0BF0EAF800229A4B09F05EFF7C
:10EF00000AF04AF9FEBD10B503F052FF964C206896
:10EF100000688047206880688047002010BD70B579
:10EF2000924D00242868002802D00BF033F92C60A1
:10EF30008F4D2868002802D00BF02CF92C6070BD92
:10EF4000F8B500252E468B4FAC003859002810D05C
:10EF50000BF020F93E51284604F01AFF864F38592D
:10EF60000BF018F9854800590BF014F983483E510D
:10EF700006516D1CEDB2202DE5D38148067004F0DA
:10EF8000D4FEF8BDFFF7DCFFFFF7C9FF05F03FFA3D
:10EF90007C4801680268521AC82AFBD302F0E0FAE2
:10EFA00010B57948006801280FD17848007800280A
:10EFB0000CD00020704A034681005158002900D02F
:10EFC0008B72401CC0B22028F6D310BD6748006881
:10EFD0000028FAD006F027F810BDFEB56C4D287851
:10EFE00000246C4F6C4E002815D06C48FF21046043
:10EFF00001316B4809F057FE33686AA20721684661
:10F000000AF026FB68A005F037FF684605F034FFDC
:10F0100040A005F031FF3C7034602C70FEBDF8B5A7
:10F020000F46054616461C4664A1184609F04DFEDB
:10F03000002807D063A1204609F047FE002803D02E
:10F040000020F8BD012400E0002460480570012084
:10F0500008F026FA384608F051FE304608F018FE4F
:10F060005B4D0020EC7208F018FF2846FFF76EFE9B
:10F0700068612861286808F03BFD3B4800688068AB
:10F0800080470120F8BDF8B5154602460020514ED4
:10F09000514B0C460870217850785F5CB84205D01F
:10F0A000491CC8B220700428F5D330E0C8B2042847
:10F0B0002DD2D01DF93009F073FE80B22880464968
:10F0C0002278091D002A04D10F2820D84000085AB0
:10F0D00028802078012805D128880F2817D84000DB
:10F0E000085A28802078022809D1288802460D3A3B
:10F0F000022A0CD8400040184038C08C2880207864
:10F1000003286FD12888002869D0012867D03046AD
:10F11000F8BD67E00D0A0000DC0000201000FFFFD2
:10F120000D0A4F4B0D0A00000D0A4552524F520D69
:10F130000A0000000078BE400050C4400078CE4075
:10F140000050D4408084DE40805CE4408084EE4007
:10F150008084FE4080840E4180841E410000114066
:10F1600000408F4000007940600500200406002028
:10F1700008060020FC0A00207C0B0020FC0B00206D
:10F18000FC05002044050020480500204D05002016
:10F19000710500207205002074050020580500202C
:10F1A00040070020256400004C6F726150565F5488
:10F1B00058726573756C743D00000000486F704FA5
:10F1C0006E000000486F704F666600006405002006
:10F1D000080E0020F2FF000034AD0108FFE74000F8
:10F1E000085A2880002093E70020704710B5007867
:10F1F000002801D0FE4810BD02F0B2F97FB50446E8
:10F200000078FB4D03282ED1FA48006802282AD145
:10F2100003AA02A92046FFF736FF002823D1E01DEC
:10F22000FF30F93009F0BCFD0006000E01D00128C6
:10F2300019D16B4699890091002199710322D971E6
:10F240005A71002802D0012802D00CE0197101E0A7
:10F2500001201871187A002808D001280ED0022841
:10F2600016D003281BD0284604B070BD01214804E5
:10F27000FDF78FFF09206946C00605E001218804DB
:10F28000FDF787FF6946DC48FDF721FC0020EBE72E
:10F290000121C804FDF77DFF6946D848F4E7012144
:10F2A0008805FDF776FF6946D548EDE77CB504464D
:10F2B0000078CF4D03281ED1CE48006802281AD10D
:10F2C0006A4601A92046FFF7DEFE002813D1E01DA3
:10F2D000FF30F93009F064FD0206120E01D0012A58
:10F2E00009D168460079002807D001280AD00228F1
:10F2F0000FD0032811D028467CBD6846018809201C
:10F30000C00602E068460188BB48FDF744FC0020C7
:10F310007CBD68460188B948F7E768460188B84867
:10F32000F3E73EB504460078B14D022814D1B14848
:10F330000068022810D16A4601A92046FFF7A3FE03
:10F34000002809D168460079002807D001280AD092
:10F3500002282BD003282DD028463EBD68460188C0
:10F360000920C00602E068460188A348FDF7FDFBBE
:10F370000346A4A2042102A80AF06AF9A2A005F09B
:10F380007BFD601C05F078FDA2A005F075FDE01D79
:10F39000F93005F071FD9FA005F06EFD02A805F0A3
:10F3A0006BFD9DA005F068FD00203EBD684601880C
:10F3B0009248DBE7684601889148D7E710B50078A6
:10F3C000002801D08A4810BD05F02EFF002010BD96
:10F3D00070B50178864800292FD1904C21780029FA
:10F3E0002BD18F490978002927D18E490978002926
:10F3F00023D18D4E0925FF2101318C48356009F05C
:10F4000052FC2A468AA1894809F034FC012008F000
:10F4100047F807F083FC894800210170007807F065
:10F4200047FC07F073FD308881B2854800680269A7
:10F430007E48904701202070002070BD70B5017893
:10F440006B48002926D1754C2178002922D07549B6
:10F45000097800291ED17249097800291AD1724809
:10F460000025FF2105600131704809F01CFC0120D6
:10F4700007F026FD07F052FC70480121017000786A
:10F4800007F016FC08F032F86D4800688068804785
:10F490002570002070BD70B50178554D01290CD143
:10F4A0005E490978002908D0401C09F079FC04461F
:10F4B000644865492018884201D3284670BD012060
:10F4C00007F0FEFC6148046007F028FC07F01EFD11
:10F4D0005548008881B25A480068026953489047ED
:10F4E000002070BD7CB501784148002928D14B49E6
:10F4F0000978002924D14A4E3178002920D0494981
:10F50000097800291CD148480024FF2104600131FA
:10F51000464809F0C8FB4E4D2B683AA207216846C1
:10F520000AF096F84B4805F0A7FC684605F0A4FCE5
:10F5300039A005F0A1FC484804702C60347000200C
:10F540007CBDF8B507460078294C022827D8012849
:10F5500025D032490978002921D13249097800297A
:10F560001DD12F490978002919D13B4901262E4D7B
:10F57000002816D000200870781C09F011FC014604
:10F58000364801600068002809D0F81DF930009065
:10F5900009F094FB2860071E01D0FF2F0CD92046EC
:10F5A000B6E50E700924FF21013120482C6009F0D6
:10F5B0007AFB22461EA106E0FF2101311B4809F01B
:10F5C00072FB00993A46194809F054FB012007F0F4
:10F5D00067FF287808F0ACFC2148FFF7B7FB20490B
:10F5E000486108611A49002008600D48067039E03A
:10F5F000F2FF000048050020000400480008004811
:10F6000000140048256400004750494F5F5265616F
:10F61000643D00002C0000000D0A0000D000002016
:10F6200071050020700500205805002040070020CB
:10F63000416373697057696E000000000C0600207A
:10F6400060050020C08BD5F7C182A1344806002098
:10F6500074050020A8F1000872050020780500203C
:10F66000080E0020FD4800688068804700204FE5B4
:10F670007CB50178FA48002926D1FA490978002991
:10F6800022D1F94E317800291ED0F8490978002995
:10F690001AD1F7480024FF2104600131F54809F030
:10F6A00002FBF54D2B68F5A20721684609F0D0FF53
:10F6B000F3A005F0E1FB684605F0DEFBF5A005F0E0
:10F6C000DBFB2C60347000207CBDF8B5044600786C
:10F6D000E34E012825D8E4480078002821D1E148EC
:10F6E000007800281DD1E1480078002819D1E04DAC
:10F6F0000027FF210131DF482F6009F0D4FA20787C
:10F70000002802D0012804D012E00922E2492A6030
:10F710000BE0601C09F0D2FA2860002801D0FF2815
:10F7200001D93046F4E40246611CD24809F0A2FA3D
:10F73000012007F0B5FE287808F0FAFBD748FFF75C
:10F7400005FBD64948610861CB480760C6480121DE
:10F750000170C2480068806880470020D8E43EB548
:10F7600004460078BE4D012836D1CD4800680128F6
:10F7700009D1CC480078002805D0601C09F09EFA19
:10F78000062814D106E0C8A005F076FBCEA005F04F
:10F7900073FB21E0D4480078202801D3D3A0F6E7FA
:10F7A00010220021601C09F0C3FA010E01D0D4A080
:10F7B000EDE76A461072010A5172000C9072002047
:10F7C00000900146019002ABA522012004F0C8F987
:10F7D000002801D000203EBD28463EBD10B504F0F3
:10F7E00016FB04F003FB10BD30B5044600789C4DB9
:10F7F00085B0012802D0284605B030BDA848006871
:10F8000001280AD1A7480078002806D0601C09F01A
:10F8100055FA062806D0BAA023E0A3A005F02CFBD9
:10F82000A9A01EE0B0480078202801D3AFA018E0BE
:10F8300010220021601C09F07BFA010EEBD16A4610
:10F840001074010A5174000C907404A806F01CFE98
:10F850000346102808D0B0A21021684609F0F8FE2F
:10F86000684605F009FBC6E7FFF7B8FF0020C3E7CD
:10F87000FEB5054600787A4C012845D188480068D5
:10F88000012809D187480078002805D0681C09F0B4
:10F8900015FA062838D104E083A005F0EDFA8AA015
:10F8A00035E010220021681C09F042FA010E2BD12C
:10F8B000C5B269460D7201040B0E00026946060EC0
:10F8C0004B728E72974800218A008258002A08D015
:10F8D0001778AF4205D157789F4202D19278B24251
:10F8E00004D0491CC9B22029EED30FE020290DD243
:10F8F00000200090019002ABB022012004F030F90A
:10F90000002801D00020FEBD2046FEBD86A005F0E7
:10F91000B3FAF9E738B504460078514D01281CD1F7
:10F920005F48006801280CD15E480078002808D0A4
:10F93000601C09F0C3F9062808D071A005F09CFAF4
:10F940000BE059A005F098FA5FA0F7E7102200211C
:10F95000601C09F0EDF9010E01D0284638BD6A4659
:10F960001070010A5170000C9070684606F0B4FDEA
:10F97000002803D0FFF732FF002038BD73A0DDE779
:10F98000F0B5064685B00020039045480068012880
:10F9900061D14448007800285DD030780028FBD041
:10F9A000701C09F08BF90628F2D110220021701C7E
:10F9B00009F0BEF90246000EEAD100255948AC0014
:10F9C000005900280ED08178437809041B020B43AC
:10F9D00001786F460B433972417879728078B8723A
:10F9E0009A4204D06D1CADB2202DE7D33FE1202D0B
:10F9F000FCD24C48A90040580028F7D030780128A4
:10FA000007D0F11DF9310191022816D00328BFD18A
:10FA1000D1E000270097E9B202ABB522012001979F
:10FA200004F09EF80028B7D03E4D20212859001D33
:10FA300009F039F92859878406E10F46084609F08C
:10FA40003DF93978C0B2222906D038182038C07F55
:10FA5000222802D0DDE008E18AE0D2E06005002043
:10FA6000F2FF0000D000002070050020710500208A
:10FA700058050020400700206C0500202564000088
:10FA80004C6F726150565F5258726573756C743D5D
:10FA9000000000000D0A000030F60008080E0020EB
:10FAA000480500204D05002053797374656D204E84
:10FAB0004F5420696E204E6F726D616C206D6F64C3
:10FAC000652C0D0A000000004F72204C6F726120FF
:10FAD0006D6F64756C65204E4F54204D6173746575
:10FAE000722E0D0A00000000FC0500204E6F6465B8
:10FAF000206E756D6265722066756C6C2E0D0A0045
:10FB00004164647220666F726D6174206572726FF9
:10FB1000722E0D0A000000004572726F722025647B
:10FB20000D0A0000FC0A00204E4F542074686973CF
:10FB3000204E4F444520696E2041635369704C6FDD
:10FB400072614E65742E0D0A0000000054686973DE
:10FB5000206E6F6465204E4F5420696E20416353C0
:10FB600069704C6F72614E65742E0D0A00000000C2
:10FB700039182039C97F222943D1851E042D11DB74
:10FB8000FE4820210059001D09F08DF8FB48009522
:10FB900000597B1C03AA2021001D01F076FF0028DC
:10FBA0002FD154E002282CD1F44820210059001D07
:10FBB00009F079F84BE0F71DFF37F937384609F0BF
:10FBC0007DF83978C0B222291BD139182039C97F74
:10FBD000222916D1811E0091042910DBE74820213B
:10FBE0000059001D09F05FF8E4487B1C005903AA86
:10FBF0002021001D01F049FF002802D109E0022860
:10FC000001D0DFA034E0DD4820210059001D09F0BB
:10FC10004AF8019809F0C4F8D8490027095902ABFD
:10FC200088840097E9B2B5220120019703F098FF7C
:10FC300000281AD0D1480059808C002804D0D5481B
:10FC400005210059818002E0D2480059878004F0E4
:10FC5000DDF9D1A005F010F9701C05F00DF9D0A068
:10FC600005F00AF9002005B0F0BDD348FBE7D3A0AA
:10FC700005F002F9F9E7F0B5054695B000201390BC
:10FC8000D7480068012813D1D648007800280FD043
:10FC9000287801280CD1681C09F010F8062807D133
:10FCA00010220021681C09F043F80146000E02D022
:10FCB000C14815B0F0BDB14F00208600BC59002CE2
:10FCC00008D0A2781304627812021A4323781343EF
:10FCD000994204D0401C80B22028EED33FE0202877
:10FCE0003DD280003858002839D0402101A808F0C2
:10FCF000DAFF201D08F0E2FF0006000E0BD0009096
:10FD0000BB5913AA282101A81B1D01F04BFE002896
:10FD100001D09BA024E0B859B3A2838C062111A87E
:10FD200009F096FC9CA005F0A7F8681C05F0A4F863
:10FD3000AEA005F0A1F811A805F09EF8AEA005F060
:10FD40009BF81399002901D001A801E00121AAA084
:10FD500005F08EF8A9A005F08FF80020A9E797A07C
:10FD600005F08AF8A4E7F0B59D4985B00A68054614
:10FD70009C4800260078012A01D1002803D0096898
:10FD800001293AD08FE02878012807D09CA005F0FF
:10FD900073F8A3A005F070F8A7A009E0AC480068CC
:10FDA000002804D0AB4C2078002878D103E0AAA02A
:10FDB00005F062F873E00821AC4808F074FF6F1C8E
:10FDC000681C08F07BFFC0B200903B4604AA0821E3
:10FDD000A64801F05AFEA54DAD1E002806D0082108
:10FDE000A24808F060FF6E70267058E0049808285A
:10FDF000F5D86870012020704FE0002853D0287893
:10FE0000022807D07EA005F037F899A005F034F855
:10FE10009EA0CDE7681C08F051FF062801D0A1A0E4
:10FE2000C6E710220021681C08F082FF0146000E80
:10FE300035D1524F0024A0003858002808D08278CD
:10FE4000437812041B02007813431843814204D004
:10FE5000641CE4B2202CEED323E0202C21D2E81D38
:10FE6000F930054608F02AFFC0B2009002962B46F2
:10FE700004AA0821039602A801F007FE00280ED16B
:10FE800004A902A801910090A0003B58AF2221468E
:10FE9000012003F065FE002801D00020E3E646487B
:10FEA000E1E646A084E78B4882E77CB5054602245C
:10FEB0002B5D89A20821684609F0CAFB684604F058
:10FEC000DBFF641E64B2002CF2DA7CBD7CB50178E5
:10FED00000243948002933D14149096801292FD12B
:10FEE0004049097800292BD0244D00208100695811
:10FEF000002901D0641CE4B2401CC0B22028F5D314
:10FF000077A004F0B9FF234677A20821684609F0DC
:10FF10009FFB684604F0B0FF002C0DD00024A00029
:10FF20002858002804D0FFF7C0FF33A004F0A4FF36
:10FF3000641CE4B2202CF2D330A004F09DFF00201A
:10FF40007CBD10B501781C48002915D124490968E9
:10FF5000012911D12349097800290DD13C4C206891
:10FF600000280AD061A004F087FF2068FFF79DFFFA
:10FF700022A004F081FFC3E0C3E0C3E0FC0A00203C
:10FF8000416C6961736573206572726F722E0D0A20
:10FF9000000000007C0B00204E6F64653D000000F7
:10FFA0002073657474696E672053554343455353FA
:10FFB0004544210D0A000000F2FF000054686973F7
:10FFC000204E4F4445204E4F5420696E20416353CC
:10FFD00069704C6F72614E65742E0D0A000000004E
:10FFE000480500204D050020257500002045565489
:10FFF0003D4765744E6F6465200000000D0A0000E7
:020000040801F1
:100000005468697320436F6D6D616E6420696E2062
:100010004E6F726D616C204D6F64652E0D0A00008D
:100020004C6F7261206D6F64756C6520697320532D
:100030006C6176652E0D0A004E656564206F6E65F5
:1000400020706172616D657465722E0D0A0000008A
:1000500004060020540500204E4F204C6F7261476B
:100060006174655761792E0D0A000000D2000020EE
:100070004C6F7261206D6F64756C65206973204DE3
:1000800061737465722E0D0A000000004E65656490
:100090002074776F20706172616D657465722E0DCA
:1000A0000A0000004C6F7261206E6F64652061640D
:1000B0006472657373206C656E677468204E4F546C
:1000C00020455155414C203642797465732E0D0AF6
:1000D00000000000A8FA0008253032780000000077
:1000E0004E6F6465733D0000257520004C6F726192
:1000F00047617465576179416464723D0000000096
:10010000002010BDF5A004F0B7FE31E710B501786E
:10011000F84800290AD1F8490968012906D1F749A8
:100120000978002902D104F0EAF8002010BD10B5CA
:1001300001780024EF4800290FD1EF49096801290F
:100140000BD1EE490978002907D104F046F9EC48B3
:1001500000BF641C8442FBD3002010BD10B50078A2
:10016000002801D0E34810BD06F002F80446E5A0DF
:1001700004F082FE2046FFF798FEE5A004F07CFE26
:10018000002010BD1CB50178DA4800291BD1DA49DE
:100190000968012917D1D9490978002913D1DD4807
:1001A0000068002810D0838CDBA20621684609F085
:1001B0004FFADAA004F060FE684604F05DFED4A0B9
:1001C00004F05AFE00201CBDD8A004F055FEDCA0AF
:1001D000F6E730B5007887B0002802D0C54807B0F0
:1001E00030BD03A803F030F8DAA004F045FE022485
:1001F00003ADA0002B58D9A20921684609F028FABE
:10020000684604F039FE641E64B2002CF1DAC0A026
:1002100004F032FE0020E2E710B50078002801D09B
:10022000B44810BDCFA004F027FED3A004F024FEF4
:10023000D5A004F021FED6A004F01EFEB4A004F068
:100240001BFE002010BD10B50178AA48002910D16E
:10025000A9490A68012A0DD00A68022A0CD00A6846
:10026000002A0BD00968032903D1CBA004F004FEB7
:10027000002010BDD0A0F9E7D7A0F7E7E1A0F5E78F
:1002800010B50078002801D09A4810BD9B4800782E
:10029000002801D0E5A000E0E9A004F0EDFD002079
:1002A00010BD3EB50078002801D092483EBD07F051
:1002B0003BFC0346E7A20B21684609F0C9F9E6A01A
:1002C00004F0DAFD684604F0D7FDE7A004F0D4FDA1
:1002D00007F0F4FC0346DFA20B21684609F0B8F9E9
:1002E000E2A004F0C9FD684604F0C6FDDEA004F0FB
:1002F000C3FD07F02FFD0346D6A20B21684609F087
:10030000A7F9DBA004F0B8FD684604F0B5FDD6A05F
:1003100004F0B2FD07F041FD0346CEA20B21684672
:1003200009F096F9D3A004F0A7FD684604F0A4FDF7
:10033000CDA004F0A1FD07F082FC0346C5A20B216D
:10034000684609F085F9CFA004F096FD684604F0F0
:1003500093FDC5A004F090FDCD48C47ACDA004F073
:100360008BFD002C0CD007F0A5FD0346B9A20B2194
:10037000684609F06DF9CAA004F07EFD684600E009
:10038000C9A004F079FDB8A004F076FD07F071FD76
:100390000446C7A004F070FD002C01D0C8A000E006
:1003A000CAA004F069FDB0A004F066FD07F03FFDAF
:1003B0000446C9A004F060FD002C01D0C8A000E0F4
:1003C000C8A004F059FDA8A004F056FD07F01DFDDB
:1003D000C3B2A0A20B21684609F03AF9C2A004F00A
:1003E0004BFD684604F048FD9FA004F045FD07F072
:1003F000ACFD034697A20B21684609F029F9BEA07F
:1004000004F03AFD684604F037FD97A004F034FD8F
:1004100007F081FD03468FA20B21684609F018F909
:10042000B9A004F029FD684604F026FD8EA004F072
:1004300023FD07F05AFD034686A20B21684609F00A
:1004400007F9B6A004F018FD684604F015FD86A073
:1004500004F012FD07F04FFD03467EA20B21684613
:1004600009F0F6F8B2A004F007FD684604F004FDB8
:1004700027A004F001FD00203EBD10B500781D4C02
:10048000002801D0204610BD8148417F002905D0B9
:10049000012905D0ABA004F0EFFCF3E7AFA000E02A
:1004A000B4A004F0E9FC002010BD0EB500780028CF
:1004B00001D010480EBD07F037FB034665A20B21A3
:1004C000684609F0C5F864A004F0D6FC684604F05C
:1004D000D3FC0FA004F0D0FC00200EBD4C6F726165
:1004E00047617465576179416464723D4E554C4C67
:1004F00000000000F2FF0000480500204D0500202C
:10050000400D03004C6F72614D79416464723D008F
:100510000D0A000004060020257500004C6F726172
:100520004D79496E74657276616C3D004C6F7261F5
:10053000476174655761793D4E554C4C2000000071
:100540004C6F72614D79496E74657276616C3D30A5
:100550000D0A0000555549443D000000253038780B
:10056000000000004669726D7761726556657273AE
:10057000696F6E3D00000000312E392E3230313768
:100580002E3035323700000020666F7220000000E8
:10059000535831323736000053797374656D4F709C
:1005A00065726174696F6E4D6F64653D496E496433
:1005B0006C650D0A0000000053797374656D4F700F
:1005C00065726174696F6E4D6F64653D496E4E6F03
:1005D000726D616C0D0A000053797374656D4F7014
:1005E00065726174696F6E4D6F64653D496E5072DE
:1005F0006F64756374566572696669636174696F67
:100600006E0D0A0053797374656D4F706572617475
:10061000696F6E4D6F64653D496E50696E67506FCE
:10062000676E546573740D0A000000004C6F7261B0
:100630004D6F64653D4D41535445520D0A00000015
:100640004C6F72614D6F64653D534C4156450D0AC8
:100650000000000025640000524646726571756511
:100660006E63793D000000002020000042573D00ED
:1006700053463D004572726F72436F64696E673D09
:10068000000000005246506F7765723D0000000088
:10069000080E002046726571486F704F6E3D000075
:1006A000747275650000000066616C73650000007F
:1006B0004865616465725374617475733D00000030
:1006C000496D706C69636974000000004578706C56
:1006D00069636974000000004352433D000000005C
:1006E0004F4E00004F464600507265616D626C656A
:1006F0004C656E6774683D005061796C6F61644C45
:10070000656E6774683D00004D61785061796C6F6B
:1007100061644C656E6774683D00000054785061F8
:10072000636B657454696D656F75743D00000000FE
:1007300052785061636B657454696D656F75743D73
:100740000000000052464F7363696C6C61746F72F5
:100750003D556E4B6E6F776E0000000052464F7332
:1007600063696C6C61746F723D4372797374616C10
:100770000000000052464F7363696C6C61746F72C5
:100780003D5443584F0000000EB50078002801D0BA
:10079000FD480EBD07F0AFFB0346FCA20A216846E8
:1007A00008F056FFFA4804F067FB684604F064FB63
:1007B000F8A004F061FB00200EBD0EB50078002803
:1007C00001D0F1480EBD07F090FB0346EFA20A21CD
:1007D000684608F03DFFEE48143804F04DFB6846CB
:1007E00004F04AFBEBA004F047FB00200EBD08B567
:1007F0000078002801D0E44808BD07F020FA03463D
:10080000E2A20421684608F023FFE148AC3804F076
:1008100033FB684604F030FBDEA004F02DFB002023
:1008200008BD1CB50078002801D0D7481CBD07F0D2
:10083000ECFAC3B2D5A20621684608F009FFD448F5
:10084000483804F019FB684604F016FBD1A004F008
:1008500013FB00201CBD00B5007889B0002802D031
:10086000C94809B000BD07F070FB0346CAA22021A9
:10087000684608F0EDFE684604F0FEFA07F04BFB10
:100880000346CAA22021684608F0E2FE684604F04A
:10089000F3FA0020E5E710B50078002801D0BA4847
:1008A00010BD07F0C4FA0446B948583804F0E4FA19
:1008B000002C01D0C3A001E0B5484C3804F0DCFAAC
:1008C000B4A004F0D9FA002010BD10B500780028BB
:1008D00001D0AD4810BD07F0CCFA0446AC488038D2
:1008E00004F0CAFA002C02D0A948703801E0A848E8
:1008F000643804F0C1FAA7A004F0BEFA002010BDCD
:100900001CB50078002801D09F481CBD07F045FAAF
:1009100003469EA20621684608F09AFE9C48BC3811
:1009200004F0AAFA684604F0A7FA9AA004F0A4FA20
:1009300000201CBD1CB50078002801D092481CBDC9
:1009400007F008FA034691A20621684608F080FEE7
:100950008F48C03804F090FA684604F08DFA8DA0F4
:1009600004F08AFA00201CBD1CB50078002801D0D4
:1009700085481CBD07F0A2F9034684A206216846FB
:1009800008F066FE8248C43804F076FA684604F03F
:1009900073FA80A004F070FA00201CBD1CB500782A
:1009A000002801D078481CBD06F034FE034677A22B
:1009B0000621684608F04CFE83A004F05DFA684604
:1009C00004F05AFA73A004F057FA00201CBD1CB5BD
:1009D0000078002801D06C481CBD06F01EFE0346BE
:1009E0006AA20521684608F033FE79A004F044FAB3
:1009F000684604F041FA67A004F03EFA00201CBDEE
:100A00001FB50078002802D05F4804B010BD06F082
:100A100008FE0191009070A2082102A808F018FEBB
:100A20006FA004F029FA02A804F026FA59A004F0F5
:100A300023FA0020E9E710B50078002801D05248D9
:100A400010BDFEF79FFAF8B50446007801281AD1C8
:100A500065A1601C08F039F9664E674D002814D076
:100A600066A1601C08F031F9092700281DD065A196
:100A7000601C08F02AF9002821D064A1601C08F04D
:100A800024F900282CD04048F8BD01203060132004
:100A9000287660480078002802D003F007FB17E0B2
:100AA00003F061FA03F0B8FB10E0FEF749FAFEF735
:100AB00036FA022030602F760020E87206E0FEF75A
:100AC0003FFAFEF72CFA002030602F7604F0ABFAE4
:100AD000FEF766FA4848FEF739F96861286107E0D1
:100AE000FEF72EFAFEF71BFA0320306004F09BFAA3
:100AF0000020F8BD10B50178234C01290BD1431C0F
:100B0000082207210120FEF78AFA002803D0FEF709
:100B100065FE002010BD204610BD10B501781A4CAE
:100B200001290BD1431C072211460220FEF777FA58
:100B3000002803D0FEF752FE002010BD204610BD55
:100B400010B50178104C01290BD1431C0922082152
:100B50000320FEF764FA002803D0FEF73FFE0020D2
:100B600010BD204610BD10B50178074C012953D1A6
:100B7000431C082211460420FEF751FA00284BD0EE
:100B8000FEF72CFE002010BDF2FF000025640000DF
:100B9000300701080D0A00005061796C6F61644CE8
:100BA000656E6774683D2025642C20004D61785087
:100BB00061796C6F61644C656E6774683D20256473
:100BC0000D0A00004F4E000052784761696E3D00EB
:100BD000534E523D0000000025332E3266000000C7
:100BE000525353493D000000696E4E6F726D616C47
:100BF0000000000048050020080E0020696E5056D5
:100C000000000000696E544400000000696E4964F1
:100C10006C6500004D0500202046B4E710B5017852
:100C2000FE4C01290BD1431C072208210520FEF7A9
:100C3000F6F9002803D0FEF7D1FD0020A3E72046F7
:100C4000A1E710B50178F54C01290BD1431C09220D
:100C500011460620FEF7E3F9002803D0FEF7BEFD9B
:100C6000002090E720468EE710B50178EB4C012973
:100C70000BD1431C082209210720FEF7D0F90028D8
:100C800003D0FEF7ABFD00207DE720467BE710B5E3
:100C90000178E24C01290BD1431C072209210820CD
:100CA000FEF7BDF9002803D0FEF798FD00206AE7A3
:100CB000204668E710B50178D84C01290BD1431CB8
:100CC00009220A211046FEF7AAF9002803D0FEF7F0
:100CD00085FD002057E7204655E710B50178CF4C39
:100CE00001290BD1431C0A2108220846FEF797F977
:100CF000002803D0FEF772FD002044E7204642E7BB
:100D000010B50178C54C01290BD1431C07220A21DB
:100D10000B20FEF784F9002803D0FEF75FFD0020CA
:100D200031E720462FE710B50178BC4C01290BD1E3
:100D3000431C08220B210C20FEF771F9002803D078
:100D4000FEF74CFD00201EE720461CE710B5017899
:100D5000B24C01290BD1431C07220B210D20FEF7B9
:100D60005EF9002803D0FEF739FD00200BE720468E
:100D700009E710B50178A94C01290BD1431C0822C1
:100D80000C210E20FEF74BF9002803D0FEF726FDBC
:100D90000020F8E62046F6E610B501789F4C0129C0
:100DA0000BD1431C07220C210F20FEF738F9002835
:100DB00003D0FEF713FD0020E5E62046E3E670B51C
:100DC0000178964D012908D1401C07F0E9FF04463F
:100DD000934894492018884201D3284670BD0120C9
:100DE00006F05EFB204606F083FE8F4804608F48C5
:100DF000006880688047FEF7F1FC002070BD10B5E8
:100E00000178012901D08548BDE6401C07F0C8FFE4
:100E1000C4B2092C00D90924012006F041FB204668
:100E200006F036FF8048FDF791FF7F494861086171
:100E30007E484C71006880688047FEF7CFFC002038
:100E4000A1E610B50178012901D074489BE6401C49
:100E500007F0A6FFC4B20C2C01D90C2402E0062C2A
:100E600000D20624012006F01BFB204606F046FFB8
:100E70006D48FDF76BFF6C49486108616B488C71E8
:100E8000006880688047FEF7A9FC00207BE610B56B
:100E90000178012901D0614875E6401C07F080FF08
:100EA000C4B2042C01D9042402E0002C00D1012496
:100EB000012006F0F5FA204606F059FF5A48FDF7E2
:100EC00045FF5949486108615848CC7100688068FD
:100ED0008047FEF783FC002055E670B50446007895
:100EE0004E4D01280ED106F0DBFA51A1601C07F02F
:100EF000ECFE4D4E002807D04E49601C07F0E5FE81
:100F0000002802D0284670BD0120F0724A4806F041
:100F1000EFFDFEF745F8FEF761FC44480068806885
:100F20008047002070BD70B5044600783B4E012814
:100F30000ED106F0B5FA41A1601C07F0C6FE3A4D8D
:100F4000002807D03FA1601C07F0BFFE002806D094
:100F5000304670BD012006F078FF012003E000203C
:100F600006F073FF002068722F48FDF7EFFE6861FE
:100F700028612E48006880688047FEF72FFC00201B
:100F800070BD70B504460078244E01280ED106F0DD
:100F900087FA2AA1601C07F098FE234D002807D08D
:100FA00028A1601C07F091FE002806D0304670BDD5
:100FB000012006F000FF012003E0002006F0FBFE08
:100FC000002028721848FDF7C1FE686128611748A3
:100FD000006880688047FEF701FC002070BD10B5F6
:100FE0000178012901D00D48CDE5401C07F0D8FE5D
:100FF0000406240E00D10124012006F051FA2046F7
:1010000006F096FF0848FDF7A1FE07494861086110
:101010000C76FEF7E3FB0548006817E0F2FF0000DE
:10102000C08BD5F7C182A134080E002060050020D6
:101030004F4E0000E4060108C0CA8936454E4142C1
:101040004C45000044495341424C4500806880476C
:10105000002098E510B50178012901D0FA4892E501
:10106000401C07F09DFE0406240E00D1012401203F
:1010700006F016FA204606F041FFF448FDF766FE3A
:10108000F249486108614C76FEF7A8FBF048006819
:1010900080688047002076E510B50178012901D0ED
:1010A000E94870E5401C07F07BFE84B2062C00D2B4
:1010B0000624012006F0F4F9204606F091FEE348EC
:1010C000FDF744FEE14948610861E1484C8300684E
:1010D00080688047FEF782FB002054E5F8B504469F
:1010E0000078D94E012827D1DA480068012823D199
:1010F000D9A1601C07F0E9FDD94D002804D128785A
:10110000002801D00020F8BDD6A1601C07F0DDFD4D
:1011100029780843F7D002F07AFE02F077FFCEA1DB
:10112000601C07F0D2FD0027002807D0CDA1601C6D
:1011300007F0CBFD002808D03046F8BD012028700C
:10114000FDF7EDFE02F0B2FF08E02F70FDF7F8FEAC
:1011500002F009FF03F060F803F065FFC348078061
:1011600002F044FEFDF71CFFCCE770B504460078A2
:10117000B54D01280DD1BE49601C07F0A6FDBD4E3E
:10118000002808D0BA49601C083107F09EFD0028ED
:1011900002D0284670BD01203070FDF701FF00200D
:1011A00070BD70B50178A84D012906D1401C07F02B
:1011B000F7FDC4B2601F102801D3284670BD01207E
:1011C00006F06EF9112C01D9012000E0002006F094
:1011D000C9FE60B2044606F0CCFC9C4804719C48F1
:1011E000006880688047FEF7F9FA002070BD00783B
:1011F000002801D0944870479F49012008700020C2
:1012000070470078002801D08F4870479A49002025
:101210000870704710B503F02EFF0020B3E410B53E
:101220000078002801D08848ADE403F001FF0020D9
:10123000A9E410B50178844C01290FD1401C07F0B6
:10124000AFFD8E498E4A4118914207D203F043FF09
:10125000002803D0FEF7C2FA002094E4204692E46E
:1012600000B589B000F004FE86490346088086A2D6
:101270002021684608F0ECF9684603F0FDFD0020E7
:1012800009B000BD10B5017888B0012902D06E48C0
:1012900008B078E4401C07F083FD7A4C00B220804F
:1012A00000F0E8FD002801D00020F1E70023E35E14
:1012B00079A22021684608F0CBF9684603F0DCFDEE
:1012C000F2E700B589B07CA003F0D6FD00F0D0FDB8
:1012D00003467DA22021684608F0BAF9684603F06B
:1012E000CBFD0020CCE710B57BA003F0C5FD0020AE
:1012F00049E410B50178012901D0534843E4401C6A
:1013000007F04EFD0006000E00D0012000F0B5FAF7
:10131000002038E410B50178012901D04A4832E4B0
:10132000401C07F03DFDC4B22146012000F0D1FA77
:10133000204603F0F0FD002025E408B501780129DE
:1013400001D0414808BD401C07F02AFD69460880CD
:10135000684603F026FB002008BD08B50178012986
:1013600001D0394808BD401C07F01AFD69460880C5
:10137000684603F080FB002008BD00B5A1B06946B7
:10138000002000F0CBFA00A96F220120013100F00B
:10139000A6FA55A003F070FD7021684603F076FDB3
:1013A000002021B000BD10B5FF24C8B01134224682
:1013B0006946544800F02FFD53A003F05DFD21461F
:1013C000684603F063FD002048B026E438B50446C3
:1013D0000078022801D01C4838BD601C07F0E0FCF2
:1013E000C5B2E01DF93007F0DBFC694608704548DE
:1013F0000122281800F0A6FC002038BD00B591B0ED
:1014000001F030FF034646A24021684608F020F96B
:10141000684603F031FD01F037FF034646A2402144
:10142000684608F015F9684603F026FD01F03AFF1A
:10143000034646A24021684608F00AF9684603F0D0
:101440001BFD002011B000BDF2FF0000080E0020BF
:1014500060050020480500204D41535445520000CE
:101460004D050020534C415645000000BC050020AE
:101470003C1001084C050020D9050020C08BD5F791
:10148000C182A1346605002043575F4F66667365CD
:10149000743D2025640D0A00536176652043572072
:1014A0004F66667365743D20256420676F742066FF
:1014B00061696C210D0A00000D0A74657374507225
:1014C000696E74310D0A00005854414C204F666615
:1014D0007365743D202564000D0A74657374507241
:1014E000696E74320D0A00000D0A2044756D706932
:1014F0006E67204C6F726120526567736973746503
:10150000720D0A000078FF1F0D0A2044756D706986
:101510006E67204F5450204275666665720D0A0052
:101520000D0A4465766963652049443A3078253070
:1015300038580D0A00000000446576696365205242
:1015400044503A3078253038580D0A0044657669A1
:101550006365205752503A3078253038580D0A00CC
:10156000BFF34F8F03490248C860BFF34F8FFEE7B8
:101570000400FA0500ED00E0254910B5401E884240
:1015800001D9012010BD2349486123480722C369BE
:101590001B021B0A4C042343C361002088610A61BB
:1015A00010BD10B51D487D21C900006807F026FB5D
:1015B000FFF7E2FF002800D0FEE700F035F8FF203B
:1015C000083004F08CFB1648FAF753FE10BD10B536
:1015D00012481421006807F011FBFFF7CDFF002827
:1015E00000D0FEE704F070FB00F07CF810BD0D4960
:1015F0000A680B689B1A8342FBD370477D21C900A0
:10160000484308490A680B689B1A8342FBD370471A
:10161000FFFFFF0000E000E004ED00E0C405002053
:101620000024014044050020F0B54E4E87B0002153
:101630003046FCF70FFB351400212846FBF7BBFDB5
:101640003046FCF763FA01218804FBF7A2FD012173
:101650002846FBF7B0FD444F00220D213846FBF72A
:10166000A2FA00220F213846FBF79DFA00220E2134
:101670003846FBF798FA0320694648760220087638
:1016800000248C76C8760003059005A93846FBF740
:101690001EFA6800059005A93846FBF718FA05A957
:1016A00038460595FBF713FA6946FF200C80053094
:1016B0004880072000028880CC800C816811488116
:1016C00018208881CC81072008823046FCF747FA31
:1016D000A9103046FCF7E1FA01213046FCF7BAFACE
:1016E00007B0F0BD7CB51F4D00212846FCF7B2FACB
:1016F0002C1400212046FBF75EFD2846FCF706FA75
:1017000003216A4651711171012191710020D0713C
:101710004803154D009069462846FBF7D8F960004C
:10172000009069462846FBF7D2F96946284600949E
:10173000FBF7CDF97CBD70B50A4C05460221204669
:10174000FCF72AFB0028F9D029462046FCF7D5FAF9
:1017500001212046FCF720FB0028F9D02046FCF7A9
:10176000D0FA70BD00380040000400487CB501216B
:101770008804FBF70EFD01206A461071002191716B
:10178000D07151710403854D694628460094FBF7DA
:101790009EF9012221462846FBF7FDF964006946BF
:1017A00028460094FBF793F9012221462846FBF7CF
:1017B000F2F96400694628460094FBF788F9012293
:1017C00021462846FBF7E7F964006946284600945D
:1017D000FBF77DF9012221462846FBF7DCF97CBDA9
:1017E000FEB5072001214004FBF7D3FC0120694628
:1017F000087100268E71C87103274F7100020925F8
:10180000ED0600902846FBF762F90124240369469F
:1018100062480094FBF75BF9012221465F48FBF721
:10182000BAF90420009069465C48FBF750F9694614
:101830000E714F71202000905848FBF748F9A41012
:10184000694628460094FBF742F96010009069460B
:101850002846FBF73CF9694650480094FBF737F9F6
:101860000220009069464D48FBF731F9E0000090F6
:1018700069464B48FBF72BF9FEBDFF21092310B544
:101880000131DB06012804D000221846FBF783F95A
:1018900010BD0122F9E7F8B5012715460E460446AA
:1018A0003F03002239463D48FBF775F9802020436D
:1018B000FFF741FF002404E0305DFFF73CFF641CAC
:1018C000E4B2AC42F8D3012239463448FBF763F95D
:1018D000F8BD13B5012201A9FFF7DDFF1CBDF8B566
:1018E000012715460E4604463F03002239462B4881
:1018F000FBF751F96006400EFFF71DFF002405E0DD
:101900000020FFF718FF3055641CE4B2AC42F7D357
:10191000012239462148FBF73EF9F8BD0122DEE7F6
:101920000A4601460020B6E70A4601460020D6E7EF
:1019300010B520211948FBF718F910BD10B5012189
:1019400009208902C006FBF710F910BD10B501216E
:1019500009204902C006FBF708F910BD10B50121A6
:1019600089020E48FBF701F910BD10B502210B48A2
:10197000FBF7FBF810BD10B5012149030848FBF740
:10198000F4F810BD10B5054B002801D0002200E08E
:10199000012204211846FBF7FEF810BD00040048A0
:1019A00000080048FFB581B00A981C460D46002883
:1019B0000DD0032107F022F9002900D0012142189F
:1019C000994B2921C9439A4205D98A1107E0039905
:1019D0000020086057E09200521C954204D2039800
:1019E0000260084605B0F0BD410040188446002161
:1019F0008E4E01981BE0237865781F06BF0EA278F3
:101A0000F75D07701B012F11DB199B069B0EF35C22
:101A10004370AB0095115B199B069B0EF35C92061D
:101A20008370920EB25CC270001DC91CE41C61453B
:101A3000E1D30A9A914220D22378491C641C914236
:101A400001D2227800E000221C06A40E345D04704E
:101A50001B0114111B199B069B0EF35C43700A9C1F
:101A60003D23801CA14204D21107890E715C0170D4
:101A700000E00370401C0370401C0199421A039956
:101A80000A60002101700020ACE7FFB500219646F6
:101A90000D462B2284462E46D243099C2FE000207F
:101AA00001E0401C491CA14202D25F5C202FF8D00B
:101AB000A14226D0671A022F02D35F5C0D2F01D0FE
:101AC0005F5C01E05F187F780A2F17D000280DD1E6
