:020000040800F2
:10C00000F85A0020A1EA0008C5EA0008C7EA0008BB
:10C01000CFEA0008D7EA0008DFEA000800000000C5
:10C02000000000000000000000000000E7EA000837
:10C03000E9EA000800000000EBEA0008EDEA000869
:10C04000BBEA0008BBEA0008BBEA0008BBEA00083C
:10C05000BBEA0008BBEA0008474801086748010836
:10C06000BBEA0008BBEA000889480108BBEA0008EF
:10C07000BBEA0008BBEA0008BBEA0008BBEA00080C
:10C08000BBEA0008BBEA0008BBEA000800000000A9
:10C09000000000000000000000000000BBEA0008F3
:10C0A000454B0108BBEA0008BBEA0008BBEA0008F0
:10C0B000BBEA0008BBEA000863580108BBEA0008B5
:10C0C000BBEA0008BBEA0008BBEA0008BBEA0008BC
:10C0D000BBEA0008A75C01087D5A010800000000C7
:10C0E000BBEA0008434E0108BBEA0008000000005C
:10C0F000000000000000000000000000BBEA000893
:10C1000000000000BBEA0008BBEA0008BBEA000828
:10C11000000000000000000000000000000000001F
:10C12000BBEA0008BBEA0008BBEA0008BBEA00085B
:10C13000BBEA000800000000000000000000000052
:10C14000000000000000000000000000BBEA000842
:10C15000BBEA0008BBEA0008BBEA0008BBEA00082B
:10C16000BBEA0008BBEA0008000000000000000075
:10C1700000000000000000000000000000000000BF
:10C1800000000000BBEA0008000000000000000002
:10C19000BBEA0008DFF80CD00CF0E6FF00480047CF
:10C1A000B72D0108F85A002028490843284908609B
:10C1B000704730B50F23C27801780125FAB1244ABF
:10C1C000126801F1E02102F4E062C2F5E062C2F31C
:10C1D0000722C2F10404D3404278A24084781C4074
:10C1E0001443220181F80024007800F01F018D40E3
:10C1F0004009800000F1E020C0F8005130BD01F09E
:10C200001F0085404809800000F1E020C0F88051FF
:10C2100030BD104A114001430D48001F01607047B6
:10C220000B4A121D0029116801D0014300E081432F
:10C23000116070474FF0E0210428086903D020F016
:10C2400004000861704740F00400FAE70000FA05B6
:10C250000CED00E080FFFF1F354900200860091D3C
:10C260000860091D0860091D086031493148143112
:10C270000860704730B52E4A8379016853B313685C
:10C280008B431360111D0B680468A3430B60017995
:10C2900011440B68046823430B60254B083319686D
:10C2A0000468A14319601C1D21680568A943216029
:10C2B0004179102905D011440A68006802430A60D8
:10C2C00030BD196802681143196021680068014394
:10C2D000216030BD0079104402688A43026030BD9D
:10C2E0000021016001710C22427181717047104977
:10C2F00010310A6802430A60704701460C4A002068
:10C30000143212680A4200D00120704708491431E3
:10C31000086070470146064A0020143212680A423B
:10C3200000D00120704702491431086070470000B6
:10C33000003C0140FFFF7F00F94908707047F84951
:10C340000028086802D040F4807001E020F480707A
:10C3500008607047F2490028086802D040F4007075
:10C3600001E020F4007008607047ED49002808687B
:10C3700002D040F4806001E020F4806008607047E3
:10C38000E748016841F4006101607047E4480168D2
:10C3900041F4805101607047E14810300068002886
:10C3A00005DADF48DF49001D0160DF4901607047A1
:10C3B000DB481030016841F0004101607047D84906
:10C3C00009200C310A68D20301D5012070470A68A0
:10C3D000D20601D5062070470A68D20501D5022091
:10C3E00070470A6812F0E00F01D007207047096813
:10C3F0008907FBD50820704708B509208DF8000093
:10C40000FFF7DDFF8DF800009DF800000128F7D050
:10C410009DF8000008BD70B50646002529B1012928
:10C4200028D0022929D04FF44075FFF7E5FF0928ED
:10C430001FD1BB4C1034206820F44070206020686D
:10C4400028432060206820F0F8002060206846F033
:10C45000020108432060206840F480302060FFF72C
:10C46000CBFF216821F002012160216821F0F80151
:10C47000216070BD4FF48075D7E74FF40075D4E7A5
:10C4800030B504460025FFF7B7FF2CB1012C1DD0B5
:10C49000022C1ED04FF44075092816D1A04C103440
:10C4A000206820F4407020602068284320602068C5
:10C4B00040F004002060206840F480302060FFF7E6
:10C4C0009BFF216821F00401216030BD4FF480758D
:10C4D000E2E74FF40075DFE730B504460025FFF7CB
:10C4E0008BFF2CB1012C1DD0022C1ED04FF44075B7
:10C4F000092816D18A4C1034206820F4407020603E
:10C50000206828432060206840F0040020602068F4
:10C5100040F480302060FFF76FFF216821F00401B4
:10C52000216030BD4FF48075E2E74FF40075DFE71E
:10C5300030B504460025FFF75FFF2CB1012C1DD05C
:10C54000022C1ED04FF44075092816D1744C1034BB
:10C55000206820F440702060206828432060206814
:10C5600040F400402060206840F480302060FFF7F5
:10C5700043FF216821F40041216030BD4FF48075F4
:10C58000E2E74FF40075DFE7F0B516461F460546B3
:10C59000FFF732FF092815D1614C1034206820F4D0
:10C5A00040702060206840F440702060206840F0B7
:10C5B000010020602E606F60FFF71EFF216821F0F0
:10C5C00001012160F0BD70B50D460646FFF714FF6E
:10C5D000092814D1524C1034206820F44070206097
:10C5E000206840F400702060206840F00100206066
:10C5F0003560FFF701FF216821F00101216070BD66
:10C6000070B50D460646FFF7F7FE092814D1444CD5
:10C610001034206820F440702060206840F480705E
:10C620002060206840F0010020603580FFF7E4FEC4
:10C63000216821F00101216070BD70B50D460646EC
:10C64000FFF7DAFE092812D1354C1034206820F4A7
:10C650004070206020682060206840F00100206069
:10C660003570FFF7C9FE216821F00101216070BD1E
:10C670002B4814300068C00705D029482B490830E2
:10C6800001602B490160704725481430016841F072
:10C6900001010160704730B50D460446FFF7ACFE5E
:10C6A000092807D11E48163001880DB1A14300E0CA
:10C6B0002143018030BD30B50D460446FFF79CFE96
:10C6C000092807D116481A3001880DB1A14300E0AE
:10C6D0002143018030BD124A1732117801F07F01E9
:10C6E00008431070704730B50D460446FFF784FECE
:10C6F000092807D10A4A163210880DB1204300E0FC
:10C70000A043108030BD30B50D460446FFF774FEDF
:10C71000092811D1024A1A3210885DB120430AE07B
:10C72000003C024023016745AB89EFCD3B2A190845
:10C730007F6E5D4CA043108030BD10B50446FFF7FE
:10C740005BFE092801D13548047010BD70B515464F
:10C750000C460646FFF750FE092808D12F49491E0E
:10C76000087800F00F0004432C4334430C7070BD74
:10C770002A49491E0A7822F010020A700A780243F8
:10C780000A7070472549491E0A7822F00C020A7087
:10C790000A7802430A7070472048401E017841F031
:10C7A0000201017028E61D48401E0068C0F34710D2
:10C7B00070471A48401C008870471848401D008880
:10C7C00070471648401C008870471448401D008878
:10C7D0007047124900200978AA2900D0012070472B
:10C7E0000E48401E007800F00C0070470B4A521FA4
:10C7F0000029116801D0014300E0814311607047B6
:10C800000146064A0020093A12680A4200D0012077
:10C81000704702490939086070470000153C024022
:10C82000774910B5884206D10121084600F010FB77
:10C83000002101205BE07349884206D101210220DA
:10C8400000F006FB0021022051E06F49884206D12A
:10C850000121042000F0FCFA0021042047E06B498C
:10C86000884206D10121082000F0F2FA00210820B8
:10C870003DE06749884206D10121102000F0E8FA26
:10C880000021102033E06349884206D10121202095
:10C8900000F0DEFA0021202029E05F49884206D11D
:10C8A0000121402000F0D4FA002140201FE05B4924
:10C8B000884206D10121802000F0CAFA00218020A0
:10C8C00015E05749884202D1012184150AE05549F3
:10C8D000884202D10121441504E0534988420AD11B
:10C8E00001210415204600F0B3FA00212046BDE8DE
:10C8F000104000F0ADBA10BDF0B5002201274FF096
:10C90000030C0B6807FA02F52B40AB422CD10668EA
:10C9100053000CFA03F4A64306600E79D0F800E049
:10C920009E4046EA0E0606600E79012E01D0022EC8
:10C9300012D18668A64386604E79D0F808E09E4002
:10C9400046EA0E0686604668AE43466045688E79C4
:10C950009640B6B235434560C568A543C560CC79FD
:10C960009C40C3681C43C460521C102AC9D3F0BD4C
:10C970004FF6FF7101600021017141718171C17138
:10C98000704708B541F480320092C261C1610099DC
:10C99000C161C169C069009008BD024600201269EA
:10C9A0000A4200D001207047006980B270470246F9
:10C9B000002052690A4200D001207047406980B2CD
:10C9C000704701837047418370470AB10183704704
:10C9D000418370474161704742694A4042617047F4
:10C9E0004B07DB0E9A40C90810B500EB8100016AC5
:10C9F0000F249C40A1430162016A1143016210BDF2
:10CA0000000002400004024000080240000C024006
:10CA1000001002400014024000180240001C0240B6
:10CA200000200240002402400028024010B50121ED
:10CA30000C07204600F020FA2046BDE810400021F7
:10CA400000F01ABA404908627047404A116821F064
:10CA5000E0010143116070473B49086170473A4962
:10CA6000C1F8A00070473849C1F8A4007047374AA0
:10CA7000116821F440410143116070473249086454
:10CA8000704731494864704730490028086802D02F
:10CA900040F4402001E020F44020086070472A491B
:10CAA00000B10120C8627047274900B101208862A7
:10CAB0007047254948627047244B10B51A6840F604
:10CAC0000344A24302431A602148026842F0040270
:10CAD0000260012905D020BF016821F00401016036
:10CAE00010BD30BFF8E7194B10B51A6840F6034483
:10CAF000A24302431A601648026842F00402026030
:10CB0000012905D020BF016821F00401016010BD9A
:10CB100030BFF8E70D48016841F0020101600C48A0
:10CB2000016841F00401016030BF7047074A0146C7
:10CB3000002052680A4200D00120704703490A6869
:10CB400042EA80000860704700000E42007000401A
:10CB500010ED00E0F948016841F001010160F74A79
:10CB60000021083211600268F54B1A400260031D73
:10CB7000F44A1A60F14BF44A84331A60026822F4D2
:10CB800080220260ED480C300160EC488C3001607E
:10CB90007047EA490022891C0A70087070470246F3
:10CBA0000020510901290CD002290CD0E34974312D
:10CBB000096802F01F02012393400B4200D00120BC
:10CBC0007047DE49F4E7DD497031F1E718B5002020
:10CBD0004FF4A04400903120FFF7E1FF0099491C79
:10CBE0000091A14201D00028F5D03120FFF7D7FFF6
:10CBF000002800D0012018BDD04A116821F0F801AA
:10CC000041EAC00010607047D04908607047CB49C6
:10CC1000002270310A700A70012802D0042801D164
:10CC2000052008707047CA490860704741EA8211C0
:10CC30005A0810B5C74B029C03EB02421143014353
:10CC400041EA0460BD49091D086010BDBF4908667E
:10CC50007047800140EA0170B8498431086070472C
:10CC6000BA4988667047800140EA0160B34940EAEA
:10CC70000270883108607047B44908677047B3494B
:10CC8000C8647047AD4B08331A68084322F0EC6261
:10CC9000104318607047A94B08331A68084322F004
:10CCA0007842104318607047A44A0832116821F096
:10CCB0000301014311607047A0480830006800F08C
:10CCC0000C0070479D4A0832116821F0F0010143C1
:10CCD00011607047994A0832116821F4E05101430C
:10CCE00011607047954A0832116821F4604141EAA9
:10CCF000C0001060704770B5904B08331968964CAF
:10CD000011F00C0104D0954E042903D0082903D05A
:10CD100004601BE0066019E0884A121D1168C1F327
:10CD20008055116801F03F0115B1B6FBF1F101E04A
:10CD3000B4FBF1F114681268C4F388146143C2F3C0
:10CD40000142521C5200B1FBF2F1016019680F223E
:10CD500002EA1111824A545C0168E14041601C689A
:10CD6000072505EA9424145D21FA04F484601B6805
:10CD700005EA5333D25CD140C16070BDC0F30121DC
:10CD8000032908D16D4B08331968764A21F4F8114C
:10CD900002400A431A60694970310A68C0F30B0007
:10CDA00002430A6070476A4944390860704768491D
:10CDB0004039086070476549C1F85C0170475F4AB7
:10CDC0008C321168401E21F01F0101431160704731
:10CDD0005A4A8C3211686FF0FF0321F4F85103EBCB
:10CDE0000020084310607047544A8C32116821F4C7
:10CDF00040310143116070475B49C1F8E001704761
:10CE00004E4A30320029116801D0014300E08143CD
:10CE100011607047494A34320029116801D001433A
:10CE200000E0814311607047444A40320029116894
:10CE300001D0014300E08143116070473F4A443212
:10CE40000029116801D0014300E08143116070475F
:10CE50003A4A10320029116801D0014300E08143B1
:10CE600011607047354A14320029116801D001431E
:10CE700000E0814311607047304A20320029116878
:10CE800001D0014300E08143116070472B4A2432F6
:10CE90000029116801D0014300E08143116070470F
:10CEA000264A50320029116801D0014300E0814335
:10CEB00011607047214A54320029116801D00143A2
:10CEC00000E08143116070471C4A603200291168FC
:10CED00001D0014300E0814311607047174A64327A
:10CEE0000029116801D0014300E0814311607047BF
:10CEF000124970310128086803D020F0080008604A
:10CF0000704740F00800FAE70C4A0D32002911780A
:10CF100001D0014300E0814311707047074874302D
:10CF2000016841F08071016070470146034A0020AA
:10CF30000C3212680A4200D00120704700380240CB
:10CF4000FFFFF6EA103000240030002000004742C6
:10CF5000800E47420000FFFF0024F40080BA8C01DD
:10CF600000000020FFFCFF0F00104742014908703D
:10CF7000E3E700000E38024018B50020FA4B00909D
:10CF8000CA20186053201860F7491839086820F043
:10CF9000A00008604FF400340868009A00F02000F8
:10CFA000521C0092A24201D00028F5D008688006E9
:10CFB00001D5012000E00020FF21196018BD08B54F
:10CFC000E9490020183900900868400612D44FF053
:10CFD000FF3008608B130868009A00F04000521C74
:10CFE00000929A4201D00028F5D00868400601D48A
:10CFF000002008BD012008BD78B50024DA4ECA2003
:10D0000000942546306053203060FFF7D8FFE0B32E
:10D01000D54824380460D44942F201102039086010
:10D020000B1D186800F0070018608D131A1D10689A
:10D03000009900F00400491C0091A94201D0002889
:10D04000F5D01068400729D518681C60C6494FF60E
:10D05000FF7010390860091FC4480860C2480C38C6
:10D060000460001D0460001D0460BF4808300460B7
:10D07000BD4818300460BC4820300460001D0460C6
:10D080001460B9481C30046000E003E0FFF774FF4F
:10D0900020B10125FF203060284678BD0025F9E742
:10D0A000B1481838016821F080010160704770B5FF
:10D0B000AD4E04460025CA20306053203060FFF793
:10D0C0007EFFA8B1A8481C38016821F0400101602A
:10D0D0000168226811430160A348A1681438016007
:10D0E0000168A28841EA02410160FFF7D9FF0125EA
:10D0F000FF203060284670BD002101607F21416023
:10D10000FF2181607047984908B1FF2002E0CA20E2
:10D11000086053200860704770B5934E05460024A0
:10D12000CA20306053203060FFF749FF60B18E485D
:10D130001C38016815B141F0100101E021F0100127
:10D140000160FFF7ADFF0124FF203060204670BD75
:10D15000854ACA2111605321116083491C39002876
:10D16000086802D040F0200001E000F0DF00086015
:10D17000FF20106070472DE9F0410C4600267C4FDF
:10D1800001002078396832464FEA416104D0002915
:10D190002FDA00F008FC2DE0002900DBE27000F03F
:10D1A000F6FB0504607800F0F2FB45EA0025A07864
:10D1B00000F0EDFB0543E07845EA00456A4CCA20E3
:10D1C000206053202060FFF7FAFE68B169480540EF
:10D1D000674808380560FFF763FF3868800602D4A7
:10D1E000FFF7CAFE00B10126FF2020603046BDE8EF
:10D1F000F081E270A078217840EA01456078E1781A
:10D20000000240EA01400543D8E70021C1700170E7
:10D21000417081707047020010B557480C46016894
:10D22000544801EA0001C1F305402070C1F3062310
:10D23000637001F07F03A3704FF0400303EA1141D4
:10D24000E1700AD100F0AFFB2070607800F0ABFB1A
:10D250006070A07800F0A7FBA07010BD4248001DD0
:10D2600000684349091F0968704770B50C460026DD
:10D27000010060780FD000F096FBA07800F093FBDF
:10D28000A078E17840EA014560782178000240EA20
:10D290004130054315E0C10603D520F010000A30E7
:10D2A0006070E07800F073FB0504607800F06FFBBD
:10D2B00045EA0025A07800F06AFB0543207845EA9E
:10D2C0004035294CCA20206053202060FFF777FEAC
:10D2D00070B12A4805402648001F0560FFF7E0FEB0
:10D2E00023480068800602D4FFF746FE00B10126FD
:10D2F000FF202060304670BD0121017081704170B7
:10D300000021C1707047020010B51D480C4601682D
:10D310001A4801EA00014FEA1140E070C1F304230A
:10D32000637001F03F03A370C1F3423121700AD151
:10D3300000F039FBE070607800F035FB6070A07899
:10D3400000F031FBA07010BD70B514460D46084AC0
:10D350000021002810684FEA406013D000282ADA24
:10D36000207800F020FB27E024280040FF007F0009
:10D37000082800407F7F7F00002800403FFFFF001B
:10D3800004280040002800DBE170207800F0FFFA5C
:10D390000604607800F0FBFA46EA0026A07800F068
:10D3A000F6FA0643E07846EA0046207B00F0EFFA02
:10D3B00046EA006010E0E170207B00F0F4FAA0780B
:10D3C0002178E27840EA01406178090241EA0241AD
:10D3D0000843217B40EA0160A16808436168084373
:10D3E000F849CA220A6053220A60B5F5807F04D04A
:10D3F0000A1F1060FF20086070BDF24A083AF8E783
:10D400000021C1700170417081700122816002733E
:10D410004160704710B514460246B1F5807F2AD0AE
:10D42000E848001F0168C1F305402070C1F30623DE
:10D43000637001F07F03A370402303EA1143E3709C
:10D44000C1F30563237301F0804301F08031C4E927
:10D450000113002A0ED100F0A6FA2070607800F0C7
:10D46000A2FA6070A07800F09EFAA070207B00F015
:10D470009AFA207310BDD3480838D3E738B5002294
:10D48000D04C0092CA22226053222260CD4A1C3A1C
:10D490000029116802D00143116012E0814311603C
:10D4A000C84A183A95131168009B01EA10215B1CC9
:10D4B0000093AB4201D00029F5D0116811EA102089
:10D4C00000D00120FF21216038BD10B5BD4BCA241A
:10D4D0001C6053241C601143B0F5807F05D0B9480F
:10D4E00024300160FF20186010BDB6482030F8E7F6
:10D4F000B0F5807F05D0B34824300068C0F30E003B
:10D500007047B0482030F8E7AE4ACA211160532175
:10D510001160AC491C390B6823F007030B600B68E2
:10D5200003430B60FF2010607047A649CA220A60BF
:10D5300053220A60A34A103A1060FF200860704727
:10D54000A0481038006880B2704718B500219D4B84
:10D550000091CA211960532119609A491C39002889
:10D56000086803D040F48060086014E020F4806014
:10D570000860944918398C130868009A00F0040078
:10D58000521C0092A24201D00028F5D00868400742
:10D5900001D4002000E00120FF21196018BD894B53
:10D5A00010B5CA221A6053221A60864A1C3A1468BF
:10D5B00024F4802414601468084304431460FF209A
:10D5C000186010BD7F481C38006800F48020704748
:10D5D0007C4B10B5CA221A6053221A60794A1C3A51
:10D5E000146824F4E00414601468084304431460CD
:10D5F000FF20186010BDF0B5724D06460024CA2009
:10D600000F46286053202860FFF7D9FC30B16D48E1
:10D610003E430C380660FFF743FD0124FF202860DD
:10D620002046F0BD70B5674E05460024CA20306024
:10D6300053203060FFF7C3FC60B162481C380168BA
:10D6400015B141F0800101E021F080010160FFF798
:10D6500027FD0124FF203060204670BD594ACA21B1
:10D6600011605321116057491C390028086802D005
:10D6700040F4000001E020F400000860FF2010608A
:10D680007047504ACA211160532111604D491C391D
:10D690000B6823F400230B600B6803430B60FF202F
:10D6A00010607047F0B5474D0023CA242C60532406
:10D6B0002C60444C183C2668F60308D54FF400361D
:10D6C0002768FF0303D5B34201D05B1CF8E723684A
:10D6D000DB0306D408433B4910431831086001209E
:10D6E00000E00020FF212960F0BD364B10B51C3B47
:10D6F0001A6840F60804A24342EA000209B142F463
:10D7000000623048CA210160532101601A60FF2184
:10D71000016010BD70B50D462A4914460C310968E8
:10D72000294A1140274A103212684FF63F731A40B7
:10D73000C1F305432B70C1F306236B7001F07F0327
:10D74000AB70402303EA1141E9700021E170C2F39C
:10D750000421617002F03F01A170C2F342312170D7
:10D76000002817D1287800F01EF92870687800F09A
:10D770001AF96870A87800F016F9A870607800F0BF
:10D7800012F96070A07800F00EF9A070207800F017
:10D790000AF9207070BD0B48143000687047094AC0
:10D7A0001C320029116803D041EA40001060704724
:10D7B00021EA4000FAE7034A1C320029116805D02B
:10D7C000014304E0242800407F7F7F0081431160F3
:10D7D000704779490A6822F4C0520A600A68024315
:10D7E0000A60704774490A6822F4E0620A600A68B5
:10D7F00002430A60704770490A6822F4C0420A6016
:10D800000A6802430A6070476B490028086802D022
:10D8100040F0800001E020F0800008607047664919
:10D820000028086802D020F4004001E040F40040E5
:10D8300008607047604A08B5103202EB8000009023
:10D84000016008BD5C4908B5103101EB8000009013
:10D85000006808BD58490A6822F480320A600A68E4
:10D8600002430A60704754490A6822F400320A6091
:10D870000A6802430A6070474F490A6822F480220E
:10D880000A600A6802430A60704770B54A4C002279
:10D89000CA231C3C236053232360474B343B1D6841
:10D8A0002D0707D59E141D682D0703D5B24201D060
:10D8B000521CF8E71A6812070DD43F4A383A12682A
:10D8C000D20608D401433C4814380160FFF754FBEA
:10D8D00010B1012000E00020FF21216070BD30B5B3
:10D8E000354DCA221C3D2A6053222A60324C20F05A
:10D8F0000402383C0029304B216800F0040004D0B9
:10D90000114321601968014303E0914321601968C4
:10D9100081431960FF20286030BD0246264900205F
:10D9200034390968254B1940114200D00120704755
:10D9300080B240F08000C1431F483438026802F0D2
:10D9400080021143016070471B4A0021126802F0F7
:10D950000403194A383A126803EAD03302401A43E2
:10D96000174B1B6803EA101003D00004000C00D012
:10D97000012108467047C0F30F1040F08000C143FA
:10D980000F48026802F080021143016070470021D5
:10D9900003E0491C0A38C9B2C0B20A28F9D2090703
:10D9A00040EA11607047010901EB810100F00F00AE
:10D9B00000EB4100C0B27047402800407F3F0100AB
:10D9C0000C280040C14910B5884202D101218414BD
:10D9D00024E0BF49884202D10121041404E0BD497A
:10D9E00088420AD10121C4132046FFF745FA204698
:10D9F000BDE810400021FFF73FBAB749884202D185
:10DA0000012144140AE0B549884202D101210C05E4
:10DA100004E0B34988420AD101214C052046FFF7B2
:10DA200035FA2046BDE810400021FFF72FBA10BD9F
:10DA300030B502884C8802F441530A88CD882243CD
:10DA40008C882C4322430C8922434C8922438C89A5
:10DA50002243CC8922431A430280828B22F4006243
:10DA60008283098A018230BDF0B502220023858BB2
:10DA700001244FF24006354085830284868B8D68F1
:10DA8000022D3DD08A8802B10224964A13681B02F7
:10DA900003D5136823F400031360924A7C321368A1
:10DAA0001268C3F388138F4FC2F302723F1F3D68A1
:10DAB0003F6805F03F057F0201D58B4F00E08B4F9B
:10DAC000B7FBF5F55D43B5FBF2F2CB88B3F5007F0C
:10DAD0002BD06301B2FBF3F202EB82028B6852009F
:10DAE000B2FBF3F2521D92B20A23B2FBF3F202F040
:10DAF0000103D21A4FF6FF74C2F34F0204EA032364
:10DB0000941EFE2C01D302220023CC881A43144316
:10DB100004840A884B881A438B8889890B431A43EB
:10DB2000324342F400618183F0BD120AD4E7002140
:10DB3000018041808180C180018141818181C181D9
:10DB40000721018270470021018041808180C180CE
:10DB500002228260818170470029018802D041F051
:10DB6000400101E021F04001018070470029818BD4
:10DB700002D041F4806101E021F48061818370472B
:10DB8000028822F40062028002880A430280704701
:10DB9000B1F5804F018803D021F4804101807047A6
:10DBA00041F48041FAE7A1F57E420188FF3A02D0B4
:10DBB00041F4807101E021F48071018070470029F7
:10DBC000818802D041F0040101E021F0040181804C
:10DBD00070470029818802D041F0100101E021F056
:10DBE00010018180704730B5828B00234FF24004D2
:10DBF0002240828302220284848B0A884FF480753B
:10DC0000B2F5007F00D002B92B464A888D888989F9
:10DC10002A4319430A43224342F40061818330BD01
:10DC200080897047818170470029018802D041F4C2
:10DC3000005101E021F4005101807047018841F456
:10DC4000805101807047012901D0008B7047808A84
:10DC50007047008A7047002A828801D00A4300E09A
:10DC60008A4382807047090901238B40002A8288F9
:10DC700099B201D00A4300E08A438280704702468D
:10DC8000002012890A4200D001207047C943018157
:10DC9000704730B501F00F030125024605FA03F481
:10DCA0000020A3B2090905FA01F49188A4B21289EF
:10DCB00021401A4202D0002900D0012030BD01F0DD
:10DCC0000F0201219140C94301817047003001409A
:10DCD00000380040003C004000340140005001404A
:10DCE000005401400838024080BA8C010024F4003E
:10DCF00010B501218C032046FFF7C8F82046BDE887
:10DD000010400021FFF7C2B8144908607047144959
:10DD10000862704710B58A0721F003041149120FF9
:10DD200021440F23D1F8084893409C43C1F8084888
:10DD3000D1F8083890400343C1F8083810BD0849AD
:10DD4000C1F8DC00704708490860704703490020AB
:10DD500020310968C90500D501207047003801400D
:10DD6000000027420030014000042742FE4910B560
:10DD7000884206D101210846FFF788F800210120DA
:10DD80005BE0B0F1804F09D0F84988420DD1012104
:10DD90000220FFF771F80021022070E001210846FF
:10DDA000FFF76AF80021012069E0F149884206D1B5
:10DDB00001210420FFF760F8002104205FE0ED4915
:10DDC000884206D101210820FFF756F800210820DB
:10DDD00055E0E949884206D101211020FFF74CF8AF
:10DDE000002110204BE0E549884206D10121202086
:10DDF000FFF742F80021202041E0E149884206D1A6
:10DE000001210220FFF742F80021022015E0DD4940
:10DE1000884202D101210C040AE0DB49884202D188
:10DE200001214C0404E0D94988420AD101218C0423
:10DE30002046FFF72BF800212046BDE81040FFF7F1
:10DE400025B8D349884206D101214020FFF714F8B4
:10DE50000021402013E0CF49884206D101218020D3
:10DE6000FFF70AF80021802009E0CB4988420AD157
:10DE7000841501212046FEF7FFFF00212046BDE862
:10DE80001040FEF7F9BF10BD30B50288B64CBC4D4E
:10DE9000A0420DD0A8420BD0B0F1804F08D0B34BB8
:10DEA000984205D0B24B984202D0B24B984203D16F
:10DEB00022F070034A881A43AF4B984206D0AF4B0A
:10DEC000984203D022F440730A891A4302804A68B8
:10DED000C2620A880285A04201D0A84201D1897A93
:10DEE00001860121818230BD4FF0FF314160002168
:10DEF0000180018141808172704701858282704773
:10DF0000028822F070020A43028070474162704723
:10DF1000C1627047406A7047008D704700290188D0
:10DF200002D041F0020101E021F0020101807047BE
:10DF30000029018802D041F0040101E021F0040130
:10DF4000018070470029018802D041F0800101E082
:10DF500021F0800101807047028822F008020280CF
:10DF600002880A4302807047028822F440720280CD
:10DF700002880A43028070470029018802D041F0DC
:10DF8000010101E021F001010180704730B5028CF0
:10DF900022F001020284028C8388048B22F00202A8
:10DFA00024F073050C882C438D8915434A882A4335
:10DFB0006D4DA84202D0724DA8420DD122F0080545
:10DFC000CA8923F440732A4322F004058A882A432D
:10DFD0000D8A1D434B8A2B438380048389684163E8
:10DFE000028430BD70B5028C22F010020284028CD3
:10DFF0008388048B0D8824F4E6464FF6FF7404EA08
:10E00000052535438E8922F0200204EA06161643C0
:10E010004A8804EA02123243534EB04202D0584EAC
:10E02000B04215D122F08006CA8923F4406304EA85
:10E030000212324322F040068A8804EA0212324376
:10E040000E8A04EA86061E434B8A04EA830333439E
:10E050008380058389688163028470BD70B5028CFA
:10E0600022F480720284028C8388848B0D8824F0D1
:10E07000730425438E894FF6FF7422F4007204EA7C
:10E08000062616434A8804EA02223243364EB0423C
:10E0900002D03B4EB04215D122F40066CA8923F467
:10E0A000405304EA0222324322F480668A8804EA5A
:10E0B000022232430E8A04EA06161E434B8A04EA01
:10E0C00003133343838085838968C163028470BDF1
:10E0D00070B5028C22F480520284058C8288838B76
:10E0E0000C8823F4E6464FF6FF7303EA0424344316
:10E0F00025F400568D8903EA053535434E8803EA39
:10E1000006362E43184DA84202D01D4DA84205D117
:10E1100022F480450A8A03EA82122A438280848399
:10E1200089680164068470BD00210180418081807E
:10E1300081608181C18101824182704730B50124B3
:10E14000058C00F118038C40A543058431B30829E0
:10E150002CD0091FC1F34E001844016848F6FF7324
:10E160001940016001681AE000000140000400400D
:10E1700000080040000C0040001000400014004067
:10E1800000040140004001400044014000480140BB
:10E1900000180040001C00400020004006E04FF640
:10E1A000FF7303EA02221143016030BD03EB51000B
:10E1B00001684FF68F73194001600168F3E741630E
:10E1C000704781637047C163704701647047028B79
:10E1D00022F070020A4302837047028B4FF6FF73EE
:10E1E00022F4E04203EA0121114301837047828B4C
:10E1F00022F070020A4382837047828B4FF6FF73CE
:10E2000022F4E04203EA0121114381837047028B2B
:10E2100022F008020A4302837047028B4FF6FF7315
:10E2200022F4006203EA0121114301837047828BCB
:10E2300022F008020A4382837047828B4FF6FF73F5
:10E2400022F4006203EA0121114381837047028BAB
:10E2500022F004020A4302837047028B4FF6FF73D9
:10E2600022F4806203EA0121114301837047828B0B
:10E2700022F004020A4382837047828B4FF6FF73B9
:10E2800022F4806203EA0121114381837047028BEB
:10E2900022F080020A4302837047028B4FF6FF731D
:10E2A000C2F30E0203EA0121114301837047828BFE
:10E2B00022F080020A4382837047828B4FF6FF73FD
:10E2C000C2F30E0203EA0121114381837047028CDD
:10E2D00022F002020A4302847047028C22F00802F4
:10E2E0000A4302847047028C4FF6FF7322F020022B
:10E2F00003EA0111114301847047028C4FF6FF734A
:10E3000022F0800203EA0111114301847047028C5C
:10E310004FF6FF7322F4007203EA012111430184D6
:10E320007047028C4FF6FF7322F4006203EA01216A
:10E33000114301847047028C4FF6FF7322F40052A0
:10E3400003EA013111430184704710B50123048CA5
:10E350008B409C430484038C8A401343038410BD88
:10E3600010B50423048C8B409C430484038C8A40A6
:10E370001343038410BD828B22F440628283828B1C
:10E380004FF6FF7303EA01210A4382837047828BB1
:10E3900022F00C028283828B0A4382837047028BB5
:10E3A00022F440620283028B4FF6FF7303EA0121DD
:10E3B0000A4302837047F0B5048C24F010040484EF
:10E3C000078B068C4FF6FF7404EA011527F4734798
:10E3D00004EA0331394304EA02220A4326F0A00189
:10E3E000294341F0100102830184F0BD028B22F029
:10E3F0000C020283028B0A43028370472DE9F0412D
:10E400000C460E884988A288238905460EB3042E3F
:10E4100026D0082E2E8C4FF6FF7028D026F480567A
:10E420002E84AF8B2E8C00EA022200EA013127F401
:10E4300073473A4300EA0330104326F420420A436C
:10E4400042F48051A8832984E1882846BDE8F04140
:10E4500091E700F062F9E1882846BDE8F041C5E7A0
:10E46000FFF7A9FFE1882846BDE8F04197E726F4C9
:10E4700080762E84AF8B2E8C00EA012100EA0310F7
:10E48000104327F0F307384326F420620A4342F48E
:10E490008071A8832984E1882846BDE8F04176E7A9
:10E4A00000210180418001228280C180018170476A
:10E4B0002DE9F0410C46002649880746012501B99F
:10E4C0000226A288012A00D102252088238900285B
:10E4D000384610D0FFF76FFFE1883846FFF75FFF3F
:10E4E00023892A463146384600F017F9E188384634
:10E4F000BDE8F0417AE700F010F9E1883846FFF70F
:10E5000075FF23892A4631463846FFF754FFE188D4
:10E510003846BDE8F04142E7406B7047806B70477A
:10E52000C06B7047006C704710B50A884B88CC8868
:10E530001A438B8823431A430B891A434B898989D1
:10E540001A430A43A0F8442010BD002101804180F5
:10E550008180C1800181418181817047002930F82B
:10E56000441F02D041F4004101E0C1F30E010180DB
:10E5700070470029818802D041F0040101E021F0B8
:10E580000401818070470029818802D041F0010197
:10E5900001E021F0010181807047002A828901D0C9
:10E5A0000A4300E08A4382817047818270470246B5
:10E5B0000020128A0A4200D001207047C94301821C
:10E5C000704702460020138A92890B4202EA010238
:10E5D00002D0002A00D001207047C9430182704751
:10E5E0001143A0F848107047002A828901D00A43DD
:10E5F00000E08A43828170470029818802D041F07F
:10E60000080101E021F0080181807047018921F0B3
:10E61000070101817047028922F070020A430281DA
:10E62000704700B50346FFF7F6FF188940F0070072
:10E63000188100BD70B516460D46602904464FF09E
:10E64000010231460AD000F068F829462046FFF75B
:10E65000E2FF208940F00700208170BDFFF7ABFE8C
:10E66000F3E730B504894FF6FF7505EA032313433A
:10E67000E4B20B432343038130BD10B50446FFF7DA
:10E68000F0FF208940F07700208110BD10B50446CE
:10E69000FFF7E7FF208940F48040208110BD828889
:10E6A00022F07002828082880A4382807047028949
:10E6B00022F00702028102890A430281704702891F
:10E6C00022F08002028102890A430281704770B5FC
:10E6D0000589048B068C25F007050D434FF6FC4198
:10E6E0000C4040F201110C434FF6FF7101EA031197
:10E6F00026F022061143314305810483018470BD55
:10E700000029818802D041F0800101E021F08001E0
:10E7100081807047A0F85010704770B5048C24F0C9
:10E7200001040484058B048C4FF6FF7606EA03137C
:10E73000134325F0F3052B4324F00A020A4342F069
:10E7400001010383018470BDCD4910B5884206D113
:10E7500001211020FEF79AFB0021102020E0C9497A
:10E76000884202D101214C0429E0C749884202D1E4
:10E7700001218C0423E0C549884202D10121CC0447
:10E780001DE0C349884202D101210C0517E0C149AF
:10E79000884209D101212020FEF778FB00212020AA
:10E7A000BDE81040FEF772BBBB49884202D101218F
:10E7B0008C0704E0B94988420AD10121440520466A
:10E7C000FEF75AFB2046BDE810400021FEF754BB7F
:10E7D00010BD7FB50446008A0D46C98820F440501C
:10E7E00001432182A08941F20C618843A9882A89CA
:10E7F00011436A8902431143A181A08A20F4407128
:10E80000A8890843A0826846FEF775FA9C488442AE
:10E8100002D0A048844201D1039800E00298A18967
:10E82000090400EBC00101EB0010296801D5490083
:10E8300000E08900B0FBF1F06422B0FBF2F10901C5
:10E840000B096FF018056B4300EB8300A3891D04CF
:10E850004FF0320306D503EBC000B0FBF2F000F03E
:10E86000070005E003EB0010B0FBF2F000F00F0032
:10E87000084320817FBD4FF4165101600021818043
:10E88000C18001810C2242818181704710B5028ACA
:10E890004C8822F470630A8822438C88C9880C4310
:10E8A00022431A43028210BD0021018041808180F1
:10E8B000C18070470029818902D041F4005101E0F4
:10E8C00021F4005181817047028B02F47F42028360
:10E8D000028B0A43028370470029818902D041F4E8
:10E8E000004101E0C1F30E01818170470029818A56
:10E8F00002D041F4006101E021F40061818270479F
:10E90000C1F30801818070478088C0F30800704718
:10E91000028A22F00F020282028A0A4302827047B0
:10E920000029818902D041F0020101E021F00201B9
:10E9300081817047828922F40062828182890A4340
:10E9400082817047028A22F020020282028A0A43F0
:10E95000028270470029018A02D041F4804101E01F
:10E9600021F4804101827047818941F00101818158
:10E9700070470029818A02D041F0080101E021F0AE
:10E98000080181827047028BD2B20283028B42EA75
:10E990000121018370470029818A02D041F02001C2
:10E9A00001E021F02001818270470029818A02D094
:10E9B00041F0100101E021F0100181827047828A4C
:10E9C00022F004028282828A0A43828270470029EE
:10E9D000818A02D041F0020101E021F0020181822E
:10E9E0007047002A828A01D00A4300E08A4382826B
:10E9F000704710B5C1F3421301F01F040121A1407B
:10EA0000012B07D0022B07D01430002A026805D052
:10EA10000A4304E00C30F8E71030F6E78A4302605E
:10EA200010BD0246002012880A4200D00120704723
:10EA3000C9430180704770B501F01F05012600240D
:10EA4000C1F3421306FA05F2012B0FD0022B0FD0AF
:10EA5000838A4FEA11210088134206FA01F600EA80
:10EA6000060001D000B10124204670BD8389F0E783
:10EA7000038AEEE70A0A01219140C94301807047E9
:10EA8000001001400044004000480040004C00409D
:10EA9000005000400014014000780040007C00401D
:10EAA0000648804706480047FEE7FEE7FEE7FEE728
:10EAB000FEE7FEE7FEE7FEE7FEE7FEE7B3530108E9
:10EAC00095C1000870470CA006F0E6FCFBE70DA01E
:10EAD00006F0E2FCFBE70EA006F0DEFCFBE70FA071
:10EAE00006F0DAFCFBE77047704770470F48016893
:10EAF000491C016070470000486172644661756C92
:10EB0000740D0A004D656D4D616E6167650D0A00FB
:10EB10004275734661756C740D0A00005573616728
:10EB2000654661756C740D0A000000004404002005
:10EB300010B50146FC4807F062F9041E08D0A4F5A0
:10EB40007F40F03809D0012807D0022803D104E023
:10EB5000F6A006F0A1FC204610BDF6A0F9E770B5BE
:10EB600004462DED068B41799FEDF59B80790A29AE
:10EB700027D2DFE801F0051295A4B1BECBD8E5F3AA
:10EB80000AF0E0F841EC110BB0EE490AF0EE690A28
:10EB90000AF04EFC9FEDEC1B0BE00AF0D3F841ECC1
:10EBA000110BB0EE490AF0EE690A0AF041FC9FED44
:10EBB000E81B51EC100B53EC112B0AF043F841EC1D
:10EBC000180B207A012878D00022607A012875D0AD
:10EBD0000021207F012800D00020237E4942DD0053
:10EBE000A37901EB81015E4205EB860505EB02127C
:10EBF000404202EB810503EB400080001C350AF027
:10EC0000A1F841EC190B28460AF09CF853EC192B9B
:10EC10000AF018F841EC100B0AF072FB51EC100BE3
:10EC20000AF0BCF8E5792D1D4543608B08350AF0E4
:10EC300089F89FEDC91B53EC112B09F0EAFE53EC48
:10EC4000182B09F08DFF9FEDC6AB53EC1A2B09F082
:10EC500087FF41EC190B28460AF074F853EC182B87
:10EC600009F07EFF53EC1A2B09F07AFF41EC100BF0
:10EC700051EC190B53EC102B09F0CBFE41EC100BAF
:10EC80000AF03EFB9FEDB81B51EC100B53EC112B1F
:10EC900009F0BFFEBDEC068BBDE870400AF07EB8FF
:10ECA0000AF050F841EC110BB0EE490AF0EE690A97
:10ECB0000AF0BEFB9FEDAE1B7BE75CE05DE00AF077
:10ECC00041F841EC110BB0EE490AF0EE690A0AF086
:10ECD000AFFB9FEDA91B6CE70AF034F841EC110B78
:10ECE000B0EE490AF0EE690A0AF0A2FB9FEDA41B00
:10ECF0005FE70AF027F841EC110BB0EE490AF0EE9D
:10ED0000690A0AF095FB9FEDA01B52E70AF01AF87A
:10ED100041EC110BB0EE490AF0EE690A0AF088FBEB
:10ED20009FED9B1B45E70AF00DF841EC110BB0EE8F
:10ED3000490AF0EE690A0AF07BFB9FED971B38E762
:10ED40000AF000F841EC110BB0EE490AF0EE690A46
:10ED50000AF06EFB9FED921B2BE7FFE709F0F2FF35
:10ED600041EC110BB0EE490AF0EE690A0AF060FBC3
:10ED70009FED8D1B1DE7012227E7012129E710B533
:10ED800003F0EDFF8A4C20680068804720688068A7
:10ED90008047002010BD70B5864D0024286810B152
:10EDA0000BF024FF2C60844D2868002802D00BF063
:10EDB0001DFF2C6070BD2DE9F0410024DFF8FC81BF
:10EDC0002546464658F82400A0B10BF00FFF46F840
:10EDD0002450204605F039F9794E56F824000BF0FE
:10EDE00005FF784F57F824000BF000FF46F8245039
:10EDF00047F82450641CE4B2202CE2D3724805701A
:10EE0000BDE8F04105F08DB8FFF7D5FFFFF7C3FF70
:10EE100005F055FC6D4801680268521AC82AFBD3F8
:10EE200002F0E7FC6A48006801280DD169480078C3
:10EE300058B10020624A034652F8201001B18B728B
:10EE4000401CC0B22028F7D370475A4800680028F9
:10EE5000FAD006F007BC2DE9FC415F4D28785F4FE2
:10EE60005F4E0024A8B15F484FF4807104605E4893
:10EE700009F045FD33685DA2072168460AF010FAE3
:10EE80005BA006F009FB684606F006FB28A006F02A
:10EE900003FB3C7034602C70BDE8FC8110B5594A0E
:10EEA000012104461170084608F0C8FA072008F04E
:10EEB0002EFF082008F0F6FE204608F0F2FF05209D
:10EEC00008F0F5FF5048FFF74AFE4F4948610861D6
:10EED0004E4808F01DFE364800688068BDE81040C6
:10EEE000004710B5474A044602211170012008F07E
:10EEF000A5FA072008F00BFF072008F0D3FE2046F4
:10EF000008F0CFFF052008F0D2FF3F48FFF727FEAB
:10EF10003D49486108613D4808F0FAFD2448006811
:10EF20008068BDE810400047140000200D0A4F4BD8
:10EF30000D0A00000D0A4552524F520D0A00000002
:10EF40000000000000000040000000000078BE400B
:10EF5000000000000050C44000000000000011400C
:10EF60000000000000408F400000000000007940D9
:10EF7000000000000078CE40000000000050D440A7
:10EF8000000000008084DE4000000000805CE4405F
:10EF9000000000008084EE40000000008084FE40FD
:10EFA0000000000080840E410000000080841E41AB
:10EFB000600400209C050020A0050020D016002041
:10EFC00050170020D0170020940500204404002092
:10EFD00050040020550400206D0400206E04002021
:10EFE0007004002058040020B407002025640000AD
:10EFF0004C6F726150565F5458726573756C743DF6
:10F000000000000064040020D819002080A1031C27
:10F0100010B5FF4A044603211170012008F00EFAD2
:10F02000082008F074FE092008F03CFE204608F095
:10F0300038FF052008F03BFFF648FFF790FDF54943
:10F0400048610861F44808F063FDF448006880688E
:10F05000BDE81040004710B5ED4A04460421117088
:10F06000012008F0EBF9082008F051FE082008F014
:10F0700019FE204608F015FF052008F018FFE548A6
:10F08000FFF76DFDE34948610861E34808F040FD82
:10F09000E24800688068BDE81040004710B5DC4ACF
:10F0A000044605211170012008F0C8F9082008F075
:10F0B0002EFE072008F0F6FD204608F0F2FE05209F
:10F0C00008F0F5FED348FFF74AFDD24948610861D0
:10F0D000D14808F01DFDD14800688068BDE81040A7
:10F0E000004710B5CA4A044606211170012008F0F5
:10F0F000A5F9092008F00BFE092008F0D3FD2046F1
:10F1000008F0CFFE052008F0D2FEC248FFF727FD29
:10F11000C04948610861C04808F0FAFCBF4800686F
:10F120008068BDE81040004710B5B94A0446072181
:10F130001170012008F082F9092008F0E8FD08208C
:10F1400008F0B0FD204608F0ACFE052008F0AFFE48
:10F15000B048FFF704FDAF4948610861AE4808F0C8
:10F16000D7FCAE4800688068BDE81040004710B585
:10F17000A74A044608211170012008F05FF9092010
:10F1800008F0C5FD072008F08DFD204608F089FE37
:10F19000052008F08CFE9F48FFF7E1FC9D4948617F
:10F1A00008619D4808F0B4FC9C4800688068BDE890
:10F1B0001040004710B5964A0446092111700120FD
:10F1C00008F03CF90A2008F0A2FD092008F06AFDC9
:10F1D000204608F066FE052008F069FE8D48FFF71E
:10F1E000BEFC8C49486108618B4808F091FC8B4853
:10F1F00000688068BDE81040004710B5844A0446A6
:10F200000A211170012008F019F90A2008F07FFD89
:10F21000082008F047FD204608F043FE052008F0CE
:10F2200046FE7C48FFF79BFC7A49486108617A48B2
:10F2300008F06EFC794800688068BDE8104000471F
:10F2400010B5734A04460B211170012008F0F6F83E
:10F250000A2008F05CFD072008F024FD204608F095
:10F2600020FE052008F023FE6A48FFF778FC694974
:10F2700048610861684808F04BFC6848006880688D
:10F28000BDE81040004710B5614A04460C211170DA
:10F29000012008F0D3F80B2008F039FD082008F011
:10F2A00001FD204608F0FDFD052008F000FE59484C
:10F2B000FFF755FC574948610861574808F028FC9A
:10F2C000564800688068BDE81040004710B5504AB5
:10F2D00004460D211170012008F0B0F80B2008F051
:10F2E00016FD072008F0DEFC204608F0DAFD0520B8
:10F2F00008F0DDFD4748FFF732FC464948610861E8
:10F30000454808F005FC454800688068BDE81040A5
:10F31000004710B53E4A04460E211170012008F046
:10F320008DF80C2008F0F3FC082008F0BBFC204608
:10F3300008F0B7FD052008F0BAFD3648FFF70FFCCE
:10F34000344948610861344808F0E2FB33480068FA
:10F350008068BDE81040004710B52D4A04460F21D3
:10F360001170012008F06AF80C2008F0D0FC07208A
:10F3700008F098FC204608F094FD052008F097FD61
:10F380002448FFF7ECFB234948610861224808F054
:10F39000BFFB224800688068BDE8104000472DE9A7
:10F3A000F0411546024600201D4B0C4608704FF6F2
:10F3B000F276217850785F5CB84205D0491CC8B21B
:10F3C00020700428F5D33BE0C8B2042838D202F5F7
:10F3D000807009F011FB80B2288011492278091D44
:10F3E00022B90F282CD831F8100028802078012865
:10F3F00007D128880F2823D80B2821D031F81000F6
:10F4000028802078022814D12888A0F10D0209E074
:10F4100064040020D819002080A1031C600400208F
:10F4200016AD0108022A0BD801EB400030F81A0C87
:10F4300028802078032809D1288820B1012802D00B
:10F440003046BDE8F08131F8100028800020F8E750
:10F4500000B58DB000210C910091007818B14FF6E5
:10F46000F2700DB000BDFE48018840F6E442514301
:10F47000FF22B1FBF2F141F268020C91514340F6D8
:10F48000E442B1FBF2F100910088CDE90001F5A260
:10F49000282102A80C9B09F003FF02A805F0FCFF3D
:10F4A0000020DEE710B5007810B14FF6F27010BD05
:10F4B00002F09FF97FB5044600784FF6F2750328F5
:10F4C00030D1F048006802282CD103AA02A92046B6
:10F4D000FFF765FF30BB04F2FF1009F08DFA10F062
:10F4E000FF0001D001281DD1BDF80C1000910021B2
:10F4F0008DF806108DF8071002228DF8052010B146
:10F50000012803D00EE08DF8041002E001208DF8F0
:10F5100004009DF8080040B101280DD0022815D044
:10F5200003281AD0284604B070BD01210846FDF713
:10F5300067FC6946D44805E001210220FDF760FC24
:10F540006946D248FDF7D8F90020ECE701210420F4
:10F55000FDF756FC6946CE48F4E701218020FDF70F
:10F560004FFC6946CB48EDE77CB5044600784FF682
:10F57000F27503281BD1C3480068022817D16A46D8
:10F5800001A92046FFF70BFF88B904F2FF1009F02C
:10F5900033FA10F0FF0201D0012A08D19DF80400CF
:10F5A00038B1012809D002280ED0032810D02846EF
:10F5B0007CBDBDF80010B44802E0BDF80010B348AF
:10F5C000FDF703FA00207CBDBDF80010B048F7E756
:10F5D000BDF80010AF48F3E73EB5044600784FF69B
:10F5E000F275022812D1A748006802280ED16A4697
:10F5F00001A92046FFF7D3FE40B99DF8040038B1B9
:10F60000012809D002282CD003282ED028463EBD40
:10F61000BDF800109C4802E0BDF800109B48FDF7C3
:10F62000BCF90346AFF23C62042102A809F038FE9F
:10F6300099A005F031FF601C05F02EFF99A005F0A0
:10F640002BFF04F5807005F027FF96A005F024FF3E
:10F6500002A805F021FFAFF2287005F01DFF002081
:10F660003EBDBDF800108A48D9E7BDF800108948B2
:10F67000D5E710B5007810B14FF6F27010BD06F066
:10F6800061F8002010BD70B501784FF6F2700029C6
:10F690002FD1854C217800292BD184490978002964
:10F6A00027D183490978002923D1824E09254FF4B7
:10F6B00080718148356009F022F92A467FA17E4891
:10F6C00009F004F9012007F0B9FE07F00BFB7E48B2
:10F6D00000210170007807F0CFFA07F0BAFB3088FC
:10F6E00081B27A480068026973489047012020700F
:10F6F000002070BD70B501784FF6F270002926D158
:10F70000694C2178002922D06949097800291ED145
:10F710006649097800291AD1664800254FF480719E
:10F720000560654809F0EBF8012007F071FB07F070
:10F73000D9FA654801210170007807F09DFA07F0B9
:10F740009EFE62480068806880472570002070BD7A
:10F7500070B501784FF6F27501290BD1524909783D
:10F7600041B1401C09F048F9044659485949204420
:10F77000884201D3284670BD012007F049FB564856
:10F78000046007F0AFFA07F064FB4A48008881B2D2
:10F790004E480068026948489047002070BD7CB51B
:10F7A00001784FF6F27000292BD13F4909780029E2
:10F7B00027D13E4E3178002923D03D4909780029D0
:10F7C0001FD13C4800244FF4807104603A4809F08E
:10F7D00096F8424D2B68AFF2EC720721684609F0AB
:10F7E0005FFDAFF2F47005F057FE684605F054FE79
:10F7F000AFF6C40005F050FE394804702C60347038
:10F8000000207CBD2DE9F05F074600784FF6F274CA
:10F8100002286ED801286CD023490978F1B924490F
:10F820000978D9B9214E3178C1B92D49214D4FF40C
:10F83000807A4FF001084FF0000980B181F8009004
:10F84000781C09F0D9F8014626480160006828B103
:10F8500007F58070834609F05DF845E049E04BE02C
:10F8600048040020565F5042303D25642C2041441E
:10F87000435F5042303D25642C205642543D256460
:10F880000A0D000050040020000002400004024065
:10F8900000080240001C02404750494F5F5265611A
:10F8A000643D00002C000000100000206D040020CA
:10F8B0006C04002058040020B407002041637369E1
:10F8C0007057696E00000000A4050020600400204D
:10F8D000C08BD5F701692017E005002070040020D7
:10F8E0006E040020740400202860071E01D0FF2F42
:10F8F0000ED92046BDE8F09F81F8008009245146CA
:10F90000F7482C6008F0FBFF2246AFF2500105E0FB
:10F910005146F34808F0F3FF3A465946F04808F0DC
:10F92000D5FF012007F08AFD287808F00BFBED4891
:10F93000FFF715F9EB4948610861EB49C1F8009000
:10F9400086F80080E9480068806880470020D1E799
:10F950007CB501784FF6F270002928D1E449097886
:10F96000002924D1E34E3178002920D0E2490978DA
:10F9700000291CD1E14800244FF480710460D8486C
:10F9800008F0BDFFDE4D2B68AFF6A01207216846D8
:10F9900009F086FCDBA005F07FFD684605F07CFDE4
:10F9A000AFF6742005F078FD2C60347000207CBD2B
:10F9B0002DE9F041044600784FF6F276012823D86D
:10F9C000DFF8308398F80000F0B9C9480078D8B95A
:10F9D000C9480078C0B9C94D00274FF48071C048AC
:10F9E0002F6008F08CFF207810B1012805D012E0BC
:10F9F0000922AFF238112A600AE0601C08F08AFF81
:10FA0000286008B1FF2801D930461AE50246611C7A
:10FA1000B34808F05BFF012007F010FD287808F0DC
:10FA200091FAB048FFF79BF8AE4948610861B448C5
:10FA30000760012188F80010AC48006880688047A2
:10FA40000020FEE43EB5044600784FF6F27501282A
:10FA500036D1B1480068012808D1B048007828B1F3
:10FA6000601C08F057FF062814D106E0ACA005F092
:10FA700013FDB3A005F010FD22E0B948007820285E
:10FA800001D3B8A0F6E710220021601C08F07CFF2B
:10FA9000010E01D0B8A0EDE78DF80800010A8DF83D
:10FAA0000910000C8DF80A0000200090014601901A
:10FAB00002ABA522012004F0B1F808B100203EBD40
:10FAC00028463EBD30B50446007885B04FF6F27545
:10FAD000012802D0284605B030BD8F4800680128B3
:10FAE00009D18E48007830B1601C08F013FF062859
:10FAF00006D0A1A025E08AA005F0CEFC90A020E0D1
:10FB000097480078202801D396A01AE010220021FF
:10FB1000601C08F039FF010EEBD18DF81000010ACE
:10FB20008DF81110000C8DF8120004A806F0AEFC40
:10FB30000346102808D096A21021684609F0B0FBB1
:10FB4000684605F0A9FCC5E704F0D5FA04F0C0FA50
:10FB50000020C0E7FEB5054600784FF6F274012894
:10FB600042D16D480068012808D16C48007828B15E
:10FB7000681C08F0CFFE062836D104E068A005F026
:10FB80008BFC6FA033E010220021681C08F0FCFE03
:10FB9000010E29D1C5B2C0F307238DF80850C0F378
:10FBA00007468DF809307D488DF80A6050F821200D
:10FBB00042B11778AF4205D157789F4202D192786F
:10FBC000B24204D0491CC9B22029EFD30EE020294B
:10FBD0000CD200200090019002ABB022012004F072
:10FBE0001DF808B10020FEBD2046FEBD6CA005F04A
:10FBF00053FCF9E738B5044600784FF6F275012852
:10FC00001BD14548006801280BD14448007840B119
:10FC1000601C08F07FFE062808D057A005F03CFCC9
:10FC20000BE03FA005F038FC45A0F7E710220021CB
:10FC3000601C08F0A9FE010E01D0284638BD8DF8E1
:10FC40000000010A8DF80110000C8DF802006846D2
:10FC500006F043FC28B104F04EFA04F039FA002013
:10FC600038BD58A0DAE72DE9FF5F05462A484FF076
:10FC70000008CDF80C80006801282ED127480078B4
:10FC800000282AD028780028FBD0681C08F042FE03
:10FC90000628F2D110220021681C08F075FE0246E9
:10FCA000000EEAD13D4E002456F8240080B1817840
:10FCB0004378090441EA032301788DF808100B43C7
:10FCC00041788DF8091080788DF80A009A4205D0A5
:10FCD000641CA4B2202CE7D344E107E184E00000D7
:10FCE000B4070020D8190020700400206004002010
:10FCF000100000206C0400206D0400205804002037
:10FD0000680400204C6F726150565F5258726573E0
:10FD1000756C743D00000000500400205504002064
:10FD200053797374656D204E4F5420696E204E6F69
:10FD3000726D616C206D6F64652C0D0A000000000F
:10FD40004F72204C6F7261206D6F64756C65204E30
:10FD50004F54204D61737465722E0D0A000000002F
:10FD6000940500204E6F6465206E756D626572208B
:10FD700066756C6C2E0D0A004164647220666F72A9
:10FD80006D6174206572726F722E0D0A00000000A2
:10FD90004572726F722025640D0A0000D016002093
:10FDA0004E4F542074686973204E4F444520696E4D
:10FDB0002041635369704C6F72614E65742E0D0A59
:10FDC0000000000054686973206E6F6465204E4F18
:10FDD0005420696E2041635369704C6F72614E65A7
:10FDE000742E0D0A00000000202C7DD256F824004D
:10FDF000002879D02878DFF8EC94012807D005F5A1
:10FE000080718B46022819D003286FD148E04746FD
:10FE1000CDF80080E1B202ABB5220120CDF804801C
:10FE200003F0FCFE002861D056F824002021001DBC
:10FE300008F065FD56F8240087847DE00F463846BB
:10FE400008F068FD3978C0B2222905D0384410F88E
:10FE5000010C22284DD054E0391811F8011C222938
:10FE600047D1811E8846042911DB56F82400202141
:10FE7000001D08F044FDCDF8008056F824007B1CDE
:10FE800003AA2021001D01F08AFF70BB57E0022861
:10FE90002FD156F824002021001D08F030FD4EE03F
:10FEA00005F2FF17384608F035FD3978C0B222292F
:10FEB0001FD1391811F8011C22291AD1811E8A4636
:10FEC000042914DB56F824002021001D08F017FD3A
:10FED000CDF800A056F824007B1C03AA2021001DA9
:10FEE00001F05DFF08B90CE03CE002E037E00228D9
:10FEF00001D0FDA037E056F824002021001D08F0B5
:10FF0000FEFC584608F078FD56F82410474602AB30
:10FF10008884CDF80080E1B2B5220120CDF80480BC
:10FF200003F07CFED8B156F82400808C20B159F83B
:10FF300024000521818002E059F82400878004F024
:10FF4000DAF804F0C5F8EDA005F0A6FA681C05F093
:10FF5000A3FAECA005F0A0FA002004B0CAE44FF622
:10FF6000F270FAE7EDA005F097FAF8E72DE9F04115
:10FF700094B0064600201390F14800684FF6F278DE
:10FF8000012811D1EF48007870B1307801280BD1E9
:10FF9000701C08F0BFFC062806D110220021701C3E
:10FFA00008F0F2FC010E02D0404614B02DE5E64FF9
:10FFB000002457F8245045B1A9786A78090441EA29
:10FFC00002212A780A43904204D0641CA4B2202C57
:10FFD000EFD33EE0202C3CD2002D3AD0402101A8A6
:10FFE00008F08DFC281D08F095FC10F0FF000BD0E8
:10FFF000009057F8243013AA282101A81B1D01F0F6
:020000040801F1
:1000000049FE08B1B8A025E057F82400CFA2062188
:10001000838C11A809F044F9B8A005F03DFA701CD2
:1000200005F03AFACAA005F037FA11A805F034FA3B
:10003000CAA005F031FA139909B101A801E0012124
:10004000C6A005F027FAAFF2B02005F025FA00208F
:10005000ABE7B2A005F020FAA6E72DE9F041B849D8
:10006000C0B005460A68B7484FF6F278012A007812
:1000700000D118B10968012938D08DE0287801280D
:1000800007D0B7A005F008FABDA005F005FAC2A098
:1000900008E0C748006820B1C64C2078002877D116
:1000A00003E0C5A005F0F8F972E0F421C74808F0B4
:1000B00026FC6E1C681C08F02DFCC0B20090334674
:1000C0003FAAF421C14801F06AFEC14D002630B1BB
:1000D000F421BE4808F013FC6E70267058E03F987B
:1000E000F428F5D86870012020704EE0002853D025
:1000F0002878022807D09AA005F0CEF9B5A005F01F
:10010000CBF9BBA0CEE7681C08F004FC062801D0A0
:10011000BDA0C7E710220021681C08F035FC01468D
:10012000000E35D1884E002456F8240040B1827864
:1001300043781204007842EA03221043814204D03B
:10014000641CE4B2202CEFD324E0202C22D205F54D
:100150008070054608F0DEFBC7B2F42102A808F063
:10016000CEFB2B463FAAF42102A8009701F017FE10
:1001700070B93FA902A8CDE9000156F82430AF229A
:100180002146012003F04AFD10B1002040B03CE4BC
:100190004046FBE761A085E7AFF27C4082E77CB593
:1001A000017800244FF6F270002941D164490968B2
:1001B00001293DD163490978002939D0624E0020D8
:1001C00056F8201009B1641CE4B2401CC0B22028CB
:1001D000F6D399A005F060F923465CA20521684694
:1001E00009F05EF8684605F057F95CA005F054F98F
:1001F000D4B1002556F8250090B1022456F8250008
:100200008FA20521035D684609F04AF8684605F0AB
:1002100043F9641E64B2002CF0DA50A005F03CF9FA
:100220006D1CEDB2202DE5D354A005F035F900206A
:100230007CBD7CB501784FF6F270002922D140498F
:10024000096801291ED13F49097800291AD1584D62
:100250002868C0B17CA005F01FF90324286878A2A3
:100260002044052110F8013C684609F019F8684659
:1002700005F012F9641E64B2002CEFDC3FA005F01B
:100280000BF900207CBD75A005F006F9F6E710B566
:1002900001784FF6F27000290AD12949096801292D
:1002A00006D128490978002902D104F07AF9002002
:1002B00010BD10B5017800244FF6F27000290FD15F
:1002C0001F49096801290BD11E490978002907D166
:1002D00004F0E5F9674800BF641C8442FBD30020AA
:1002E00010BD000050170020416C696173657320D8
:1002F0006572726F722E0D0A000000004E6F646509
:100300003D0000002073657474696E672053554387
:10031000434553534544210D0A0000005468697356
:10032000204E4F4445204E4F5420696E2041635368
:1003300069704C6F72614E65742E0D0A00000000EA
:100340005004002055040020D01600202575000020
:10035000204556543D4765744E6F6465200000008B
:100360005468697320436F6D6D616E6420696E20FF
:100370004E6F726D616C204D6F64652E0D0A00002A
:100380004C6F7261206D6F64756C652069732053CA
:100390006C6176652E0D0A004E656564206F6E6592
:1003A00020706172616D657465722E0D0A00000027
:1003B0009C050020570400204E4F204C6F7261476F
:1003C0006174655761792E0D0A0000003006002027
:1003D000100000204C6F7261206D6F64756C652099
:1003E0006973204D61737465722E0D0A0000000060
:1003F0004E6565642074776F20706172616D6574FD
:1004000065722E0D0A0000004C6F7261206E6F64E1
:10041000652061646472657373206C656E677468CF
:10042000204E4F5420455155414C20364279746539
:10043000732E0D0A000000004E6F6465733D0000CE
:1004400025303278000000004C6F7261476174659E
:10045000576179416464723D000000004C6F726125
:1004600047617465576179416464723D4E554C4CE7
:1004700000000000400D03007CB5007810B14FF67D
:10048000F2707CBD05F066FE0546FBA005F004F8A1
:100490000324281910F8013CAFF25C0205216846DC
:1004A00008F0FEFE684604F0F7FF641E64B2002CFC
:1004B000EFDCAFF2381004F0EFFF00207CBD1CB57C
:1004C00001784FF6F27000291CD1EE490968012924
:1004D00018D1ED490978002914D1EC48006890B191
:1004E000838CAFF298120621684608F0D9FEE8A086
:1004F00004F0D2FF684604F0CFFFAFF2801004F0A2
:10050000CBFF00201CBDE6A004F0C6FFE9A0F6E783
:1005100030B5007887B018B14FF6F27007B030BD33
:1005200003A802F059FEE8A004F0B6FF022403ADD0
:10053000E7A255F824300921684608F0B1FE684664
:1005400004F0AAFF641E64B2002CF1DADDA004F00E
:10055000A3FF0020E2E710B5007810B14FF6F2706B
:10056000BEE6DDA004F098FFE0A004F095FFE3A054
:1005700004F092FFE3A004F08FFFD2A004F08CFF00
:100580000020ADE610B501784FF6F27000290FD1CA
:10059000BC490A68012A0CD00A68022A0BD00A68F2
:1005A0005AB10968032903D1D8A004F075FF0020CF
:1005B00096E6DEA0F9E7E5A0F7E7EFA0F5E710B5CE
:1005C000007810B14FF6F2708AE6AF48007808B1B3
:1005D000F3A000E0F7A004F05FFF002080E63EB546
:1005E000007810B14FF6F2703EBD07F0ACFA03464A
:1005F000F5A20B21684608F053FEF4A004F04CFF6E
:10060000684604F049FFF5A004F046FF07F05EFBE2
:100610000346EDA20B21684608F042FEF0A004F06C
:100620003BFF684604F038FFECA004F035FF07F00C
:1006300099FB0346E4A20B21684608F031FEE9A0CD
:1006400004F02AFF684604F027FFE4A004F024FF2A
:1006500007F0ABFB0346DCA20B21684608F020FE46
:10066000E1A004F019FF684604F016FFDBA004F0D7
:1006700013FF07F0F1FA0346D3A20B21684608F0F6
:100680000FFEDDA004F008FF684604F005FFD3A0CC
:1006900004F002FF07F008FC0446DAA004F0FCFEB8
:1006A00064B107F011FC0346C7A20B21684608F0AD
:1006B000F7FDD7A004F0F0FE684600E0D6A004F0F5
:1006C000EBFEC6A004F0E8FE07F0D7FB0446D4A07A
:1006D00004F0E2FE0CB1D6A000E0D8A004F0DCFEED
:1006E000BEA004F0D9FE07F0A6FB0446D6A004F095
:1006F000D3FE0CB1D6A000E0D6A004F0CDFEB7A08A
:1007000004F0CAFE07F089FBC3B2AFA20B21684612
:1007100008F0C6FDD0A004F0BFFE684604F0BCFEA1
:10072000AEA004F0B9FE07F01AFC0346A6A20B2106
:10073000684608F0B5FDCCA004F0AEFE684604F0B3
:10074000ABFEA6A004F0A8FE07F0EFFB03469EA2B6
:100750000B21684608F0A4FDC7A004F09DFE684682
:1007600004F09AFE9DA004F097FE07F0BDFB03463F
:1007700095A20B21684608F093FDC4A004F08CFEFE
:10078000684604F089FE95A004F086FE07F0BDFBE4
:1007900003468DA20B21684608F082FDC0A004F03C
:1007A0007BFE684604F078FE46A004F075FE00204B
:1007B0003EBD10B500784FF6F27408B120468FE5C3
:1007C000BC48417F29B1012905D0BBA004F064FEDB
:1007D000F4E7BFA000E0C4A004F05EFE00207FE5C7
:1007E0000EB5007810B14FF6F2700EBD07F0ABF900
:1007F000034675A20B21684608F052FD73A004F071
:100800004BFE684604F048FE2EA004F045FE002092
:100810000EBD0EB5007810B14FF6F2700EBD07F0A8
:1008200074FB034668A20A21684608F039FD9CA0C3
:1008300004F032FE684604F02FFE22A004F02CFEE5
:1008400000200EBD0EB5007810B14FF6F2700EBD4F
:1008500007F04AFB03465CA20A21684608F020FD27
:100860008AA004F019FE684604F016FE15A004F0F4
:1008700013FE00200EBD00004C6F72614D79416483
:1008800064723D0050040020550400209C050020A7
:100890004C6F72614D79496E74657276616C3D0082
:1008A0004C6F7261476174655761793D4E554C4C90
:1008B000200000004C6F72614D79496E746572764C
:1008C000616C3D300D0A0000555549443D00000063
:1008D00025303878000000004669726D77617265D6
:1008E00056657273696F6E3D00000000312E332E25
:1008F000323031372E3031303500000020666F72D3
:100900002000000053583132373800005379737497
:10091000656D4F7065726174696F6E4D6F64653D92
:10092000496E49646C650D0A0000000053797374C8
:10093000656D4F7065726174696F6E4D6F64653D72
:10094000496E4E6F726D616C0D0A000053797374BD
:10095000656D4F7065726174696F6E4D6F64653D52
:10096000496E50726F647563745665726966696327
:100970006174696F6E0D0A0053797374656D4F7001
:1009800065726174696F6E4D6F64653D496E506943
:100990006E67506F676E546573740D0A0000000037
:1009A0004C6F72614D6F64653D4D41535445520D1E
:1009B0000A0000004C6F72614D6F64653D534C41FD
:1009C00056450D0A0000000025640000524646729C
:1009D000657175656E63793D0000000020200000A0
:1009E00042573D0053463D004572726F72436F643B
:1009F000696E673D000000005246506F7765723D9A
:100A00000000000046726571486F704F6E3D000037
:100A1000747275650000000066616C73650000000B
:100A20004865616465725374617475733D000000BC
:100A3000496D706C69636974000000004578706CE2
:100A400069636974000000004352433D00000000E8
:100A50004F4E00004F464600507265616D626C65F6
:100A60004C656E6774683D005061796C6F61644CD1
:100A7000656E6774683D00004D61785061796C6FF8
:100A800061644C656E6774683D0000005478506185
:100A9000636B657454696D656F75743D000000008B
:100AA00052785061636B657454696D656F75743D00
:100AB00000000000D819002052464F7363696C6C27
:100AC00061746F723D556E4B6E6F776E0000000063
:100AD00052464F7363696C6C61746F723D437279F7
:100AE0007374616C0000000052464F7363696C6C54
:100AF00061746F723D5443584F00000008B5007890
:100B000010B14FF6F27008BD07F0A6F80346AFF239
:100B100048120421684608F0C3FBAFF2241004F029
:100B2000BBFC684604F0B8FCAFF2682004F0B4FCEB
:100B3000002008BD1CB5007810B14FF6F2701CBD46
:100B400007F06BF9C3B2AFF280120621684608F0D5
:100B5000A7FBAFF2FC0004F09FFC684604F09CFC8D
:100B6000AFF2A02004F098FC00201CBD00B5007876
:100B700089B018B14FF6F27009B000BD07F0EFF977
:100B80000346FAA22021684608F08AFB684604F072
:100B900083FC07F0CAF90346F9A22021684608F051
:100BA0007FFB684604F078FC0020E5E710B500788C
:100BB00010B14FF6F270D3E407F03DF90446AFF2FE
:100BC000781004F069FC14B1AFF27C1001E0AFF2D0
:100BD0007C1004F061FCEFA004F05EFC0020BFE498
:100BE00010B5007810B14FF6F270B9E407F045F98E
:100BF0000446AFF2D41004F04FFC14B1AFF2D010A1
:100C000001E0AFF2C81004F047FCE2A004F044FC9D
:100C10000020A5E438B5007810B14FF6F27038BD69
:100C200007F042F90446AFF2242004F035FC74B119
:100C300007F04AF90346AFF270220421684608F033
:100C40002FFBAFF2342004F027FC684601E0AFF23E
:100C5000382004F021FCCFA004F01EFC002038BD99
:100C60001CB5007810B14FF6F2701CBD07F09DF86E
:100C70000346AFF2AC220621684608F011FBAFF242
:100C8000982004F009FC684604F006FCC1A004F0BA
:100C900003FC00201CBD1CB5007810B14FF6F270AB
:100CA0001CBD07F05FF80346AFF2E4220621684658
:100CB00008F0F6FAAFF2D42004F0EEFB684604F038
:100CC000EBFBB4A004F0E8FB00201CBD1CB50078D1
:100CD00010B14FF6F2701CBD06F0F8FF0346AFF2FC
:100CE00018320621684608F0DBFAAFF20C3004F047
:100CF000D3FB684604F0D0FBA6A004F0CDFB002097
:100D00001CBD1CB5007810B14FF6F2701CBD06F08A
:100D10005EFC0346AFF250320621684608F0C0FA86
:100D20009DA004F0B9FB684604F0B6FB99A004F05E
:100D3000B3FB00201CBD1CB5007810B14FF6F2705B
:100D40001CBD06F047FC0346AFF28432052168461D
:100D500008F0A6FA92A004F09FFB684604F09CFB02
:100D60008CA004F099FB00201CBD1FB5007818B1C1
:100D70004FF6F27004B004E406F030FC8DED000B89
:100D800089A2082102A808F08BFA89A004F084FB4C
:100D900002A804F081FB7FA004F07EFB0020E9E7BD
:100DA00010B5007810B14FF6F2700DE4FEF72CF894
:100DB0002DE9F047044600784FF6F279012818D162
:100DC0007DA1601C07F0ADFD7E4E7F4DA0B17FA1DF
:100DD000601C07F0A6FD4FF000080927D8B17DA1DF
:100DE000601C07F09EFD00B37CA1601C07F099FD1C
:100DF00060B34846BDE8F08701203060FF202876C8
:100E00007848007810B103F0C8FA17E003F074FADC
:100E100003F06CFB10E0FDF7CEFFFDF7BCFF0220F6
:100E200030602F7685F80B8006E0FDF7C4FFFDF7F4
:100E3000B2FFC6F800802F7604F014FCFDF7F2FF35
:100E40006148FDF78CFE6861286107E0FDF7B3FF9C
:100E5000FDF7A1FF0320306004F004FC0020C9E787
:100E600070B5044600784FF6F275012809D15EA1ED
:100E7000601C07F056FD30B15DA1601C07F051FD0C
:100E800010B1284670BD0120FEF708F803F033F9D1
:100E900003F01EF9002070BD70B5044600784FF6CF
:100EA000F275012809D150A1601C07F03AFD30B15C
:100EB0004FA1601C07F035FD10B1284670BD012020
:100EC000FEF70FF803F017F903F002F9002070BDE8
:100ED00070B5044600784FF6F275012809D142A199
:100EE000601C07F01EFD30B141A1601C07F019FD28
:100EF00010B1284670BD0120FEF78AF803F0FBF818
:100F000003F0E6F8002070BD70B5044600784FF697
:100F1000F275012809D134A1601C07F002FD30B13F
:100F200033A1601C07F0FDFC10B1284670BD012004
:100F3000FEF791F803F0DFF803F0CAF8002070BD67
:100F400070B5044600784FF6F275012809D126A144
:100F5000601C07F0E6FC30B125A1601C07F0E1FC45
:100F600010B1284670BD47E047E000005061796C41
:100F70006F61644C656E6774683D2025642C2000A9
:100F80004D61785061796C6F61644C656E6774680F
:100F90003D2025640D0A000052784761696E3D00CE
:100FA000534E523D0000000025332E3266000000F3
:100FB000525353493D000000696E4E6F726D616C73
:100FC0000000000050040020D8190020696E50561F
:100FD00000000000696E544400000000696E49641E
:100FE0006C65000055040020486F704F6E000000D3
:100FF000486F704F666600000120FEF74FF803F05F
:101000007AF803F065F80020ACE770B50446007884
:101010004FF6F27501280BD1AFF23401601C07F0D6
:1010200080FC38B1AFF23801601C07F07AFC10B1D7
:10103000284697E70120FEF754F803F05CF803F028
:1010400047F800208EE770B5044600784FF6F27539
:1010500001280BD1AFF27001601C07F062FC38B1BF
:10106000AFF27401601C07F05CFC10B1284679E710
:101070000120FEF759F803F03EF803F029F80020AC
:1010800070E770B5044600784FF6F27501280BD171
:10109000AFF2AC01601C07F044FC38B1AFF2B00114
:1010A000601C07F03EFC10B128465BE70120FEF70C
:1010B0005EF803F020F803F00BF8002052E770B55B
:1010C000044600784FF6F27501280BD1AFF2E80123
:1010D000601C07F026FC38B1AFF2EC01601C07F091
:1010E00020FC10B128463DE70120FEF763F803F02D
:1010F00002F802F0EDFF002034E770B504460078F6
:101100004FF6F27501280BD1AFF22411601C07F0E5
:1011100008FC38B1AFF22811601C07F002FC10B1D6
:1011200028461FE70120FEF768F802F0E4FF02F00E
:10113000CFFF002016E770B5044600784FF6F27531
:1011400001280BD1AFF26011601C07F0EAFB38B147
:10115000AFF26411601C07F0E4FB10B1284601E710
:101160000120FEF76DF802F0C6FF02F0B1FF00208B
:10117000F8E670B5044600784FF6F27501280BD1F9
:10118000AFF29C11601C07F0CCFB38B1AFF2A0119C
:10119000601C07F0C6FB10B12846E3E60120FEF70D
:1011A00072F802F0A8FF02F093FF0020DAE670B5B3
:1011B000044600784FF6F27501280BD1AFF2D81132
:1011C000601C07F0AEFB38B1AFF2DC11601C07F019
:1011D000A8FB10B12846C5E60120FEF777F802F01B
:1011E0008AFF02F075FF0020BCE670B50446007867
:1011F0004FF6F27501280BD1AFF21421601C07F0F5
:1012000090FB38B1AFF21821601C07F08AFB10B1D7
:101210002846A7E60120FEF77CF802F06CFF02F0FA
:1012200057FF00209EE670B5044600784FF6F27531
:1012300001280BD1AFF25021601C07F072FB38B1CE
:10124000AFF25421601C07F06CFB10B1284689E610
:101250000120FEF781F802F04EFF02F039FF002076
:1012600080E670B501784FF6F275012908D1401C6F
:1012700007F0C2FB0446FB48FB492044884201D3E7
:1012800028466FE6012006F0D9F8204606F040FC1B
:10129000F648006880688047002063E610B5017852
:1012A000012902D04FF6F27085E4401C07F0A4FB40
:1012B000C4B2092C00D90924012006F0BFF8204649
:1012C00006F0F0FCEA48FDF74AFCE949486108618C
:1012D000E64800688068804700206CE410B501781B
:1012E000012902D04FF6F27065E4401C07F084FB40
:1012F000C4B20C2C01D90C2402E0062C00D2062426
:10130000012006F09BF8204606F001FDD848FDF7C5
:1013100026FCD74948610861D44800688068804746
:10132000002048E410B50178012902D04FF6F27090
:1013300041E4401C07F060FBC4B2042C01D9042432
:1013400001E004B90124012006F078F8204606F0F7
:1013500016FDC748FDF703FCC54948610861C3484D
:10136000006880688047002025E470B50446007856
:101370004FF6F27501280DD106F060F8AFF6301186
:10138000601C07F0CEFA38B1AFF63811601C07F0D8
:10139000C8FA10B12846E5E5012006F082FDB548FF
:1013A00006F0B6FBFDF73EFD02F0A5FE02F090FE52
:1013B000AE480068806880470020D3E570B50178AA
:1013C0004FF6F275012905D1401C07F015FB84B2D8
:1013D000FF2C01D92846C5E5012006F02FF884B17D
:1013E000012006F05EFDE0B206F061FDA14806F0C6
:1013F0008FFBFDF717FD9D4800688068804700203F
:10140000B0E5002006F04DFDF0E770B50446007829
:101410004FF6F27501280BD106F010F896A1601C6A
:1014200007F07FFA30B196A1601C07F07AFA10B18C
:10143000284697E5012006F00CFD8D48FDF78FFB4F
:101440008B494861086189480068806880470020AE
:1014500088E570B5044600784FF6F27501280BD187
:1014600005F0ECFF84A1601C07F05BFA30B184A1A9
:10147000601C07F056FA10B1284673E5012006F00B
:10148000A2FC7B48FDF76BFB79494861086177480E
:10149000006880688047002064E510B50178012964
:1014A00002D04FF6F27080E4401C07F0A5FA10F06D
:1014B000FF0400D10124012005F0C0FF204606F002
:1014C00041FD6B48FDF74BFB69494861086102F03B
:1014D00012FE6648006880688047002065E410B509
:1014E0000178012902D04FF6F2705EE4401C07F04B
:1014F00083FA10F0FF0400D10124012005F09EFFC3
:10150000204606F005FD5A48FDF729FB5849486179
:10151000086102F0F0FD55480068806880470020AF
:1015200043E410B50178012902D04FF6F2703CE493
:10153000401C07F061FA84B2062C00D20624012078
:1015400005F07CFF204606F053FC4948FDF707FBF9
:101550004749486108614548006880688047002025
:1015600023E42DE9F041044600784FF6F276012895
:1015700022D14548006801281ED144A1601C07F013
:10158000D0F9444D20B9287810B10020BDE8F08191
:1015900041A1601C07F0C5F929780843F6D002F094
:1015A000AAFD3AA1601C07F0BCF9002730B13AA1AE
:1015B000601C07F0B6F940B13046E7E7012028701B
:1015C000FDF7E9FB02F0E9FE08E02F70FDF7F3FB01
:1015D00002F092FE02F08AFF04F044F830480780DF
:1015E00002F076FDFDF71EFCCFE770B504460078EB
:1015F0004FF6F27501280AD11FA1601C07F091F97E
:10160000284E30B11EA1601C07F08BF910B128469E
:10161000A8E401203070FDF705FC0020A2E470B5BD
:1016200001784FF6F275012906D1401C07F0E4F964
:10163000C4B2601F102801D3284693E4012005F0AE
:10164000FDFE112C01D9012000E0002006F094FCE1
:1016500060B206F09AFA054800688068804700206A
:1016600080E40000C08BD5F70169201760040020DA
:10167000D819002080A1031C454E41424C45000072
:1016800044495341424C4500500400204D415354BD
:101690004552000055040020534C415645000000BF
:1016A000EC04002054040020007810B14FF6F270D2
:1016B000704756490120087000207047007810B12B
:1016C0004FF6F2707047514900200870704710B50E
:1016D0004FA003F0E1FE01F042FB0020E4E510B56D
:1016E0004FA003F0D9FE0020DEE510B501780129F6
:1016F00002D04FF6F270D7E5401C07F07DF910F0EC
:10170000FF0000D0012000F043FA0020CCE510B526
:101710000178012902D04FF6F270C5E5401C07F0B0
:101720006BF9C4B22146012000F05FFA204603F0B5
:1017300004FF0020B8E508B50178012902D04FF672
:10174000F27008BD401C07F057F9ADF8000068467C
:1017500003F020FC002008BD08B50178012902D063
:101760004FF6F27008BD401C07F046F9ADF80000D6
:10177000684603F07CFC002008BD00B5A1B06946B6
:10178000002000F05BFA6F2201200DF1010100F052
:1017900032FA27A003F080FE7021684603F087FE2E
:1017A00021B0002000BD00B591B001F01FFD03463F
:1017B00026A24021684607F073FD684603F06CFEE0
:1017C00001F025FD034627A24021684607F068FD89
:1017D000684603F061FE01F035FD034626A2402174
:1017E000684607F05DFD684603F056FE11B0002024
:1017F00000BDBFF34F8F25480168254A01F4E06121
:1018000011430160BFF34F8FFEE700000905002080
:101810000D0A746573745072696E74310D0A00009C
:101820000D0A746573745072696E74320D0A00008B
:101830000D0A2044756D70696E67204C6F726120CF
:101840005265677369737465720D0A000D0A446509
:10185000766963652049443A3078253038580D0A56
:1018600000000000446576696365205244503A30B8
:1018700078253038580D0A0044657669636520572D
:1018800052503A3078253038580D0A000CED00E0FF
:101890000400FA05401EB0F1807F01D3012070479B
:1018A0004FF0E02148611C4AF02082F8140D00201E
:1018B00088610720086100207047184810B500684B
:1018C0004FF47A71B0FBF1F0FFF7E4FF00B1FEE7EF
:1018D000BDE8104000F026B8104810B5006814218B
:1018E000B0FBF1F0FFF7D6FF00B1FEE7BDE8104016
:1018F00000F07BB80A490A680B689B1A8342FBD345
:1019000070474FF47A7110FB01F2054801680368D3
:101910005B1A9342FBD370470FE000E0F404002011
:1019200044040020F0B5534E87B000213046FCF748
:1019300013F9351400212846FBF776FA3046FCF7F8
:1019400041F801210220FBF75BFA01212846FBF751
:101950006BFA494F05220D213846FBF741F8052265
:101960000F213846FBF73CF805220E213846FBF7DD
:1019700037F802208DF819008DF8180000248DF832
:101980001A408DF81B000003059005A93846FAF7A8
:10199000B3FF6800059005A93846FAF7ADFF05A921
:1019A00038460595FAF7A8FFADF800404FF482706D
:1019B000ADF80200ADF808406811ADF80A00182033
:1019C000ADF80C000720ADF80440ADF81000ADF8FC
:1019D0000640ADF80E4069463046FCF729F8012173
:1019E0003046FCF7B9F807B0F0BD7CB5214D0021B9
:1019F0002846FCF7B1F82C1400212046FBF714FA16
:101A00002846FBF7DFFF02218DF8051003218DF832
:101A1000041001218DF8061000208DF807004803FE
:101A2000154D009069462846FAF766FF6000009061
:101A300069462846FAF760FF694628460094FAF797
:101A40005BFF7CBD70B50B4C054602212046FCF7C0
:101A500016F90028F9D029462046FCF7E3F80121C1
:101A60002046FCF70CF90028F9D02046FCF7D8F8FE
:101A7000C0B270BD00380040000402407CB50121B6
:101A80000220FBF7BDF901208DF8040000218DF83C
:101A900006108DF8070004037B4D8DF8051069468C
:101AA00028460094FAF728FF012221462846FAF733
:101AB0008CFF6400694628460094FAF71DFF012256
:101AC00021462846FAF781FF6400694628460094BB
