:020000040800F2
:10C00000E85A0020A1EA0008C5EA0008C7EA0008CB
:10C01000CFEA0008D7EA0008DFEA000800000000C5
:10C02000000000000000000000000000E7EA000837
:10C03000E9EA000800000000EBEA0008EDEA000869
:10C04000BBEA0008BBEA0008BBEA0008BBEA00083C
:10C05000BBEA0008BBEA0008434701086347010840
:10C06000BBEA0008BBEA000885470108BBEA0008F4
:10C07000BBEA0008BBEA0008BBEA0008BBEA00080C
:10C08000BBEA0008BBEA0008BBEA000800000000A9
:10C09000000000000000000000000000BBEA0008F3
:10C0A000414A0108BBEA0008BBEA0008BBEA0008F5
:10C0B000BBEA0008BBEA000853560108BBEA0008C7
:10C0C000BBEA0008BBEA0008BBEA0008BBEA0008BC
:10C0D000BBEA00086B580108955A010800000000EF
:10C0E000BBEA0008274D0108BBEA00080000000079
:10C0F000000000000000000000000000BBEA000893
:10C1000000000000BBEA0008BBEA0008BBEA000828
:10C11000000000000000000000000000000000001F
:10C12000BBEA0008BBEA0008BBEA0008BBEA00085B
:10C13000BBEA000800000000000000000000000052
:10C14000000000000000000000000000BBEA000842
:10C15000BBEA0008BBEA0008BBEA0008BBEA00082B
:10C16000BBEA0008BBEA0008000000000000000075
:10C1700000000000000000000000000000000000BF
:10C1800000000000BBEA0008000000000000000002
:10C19000BBEA0008DFF80CD00CF004FF00480047B1
:10C1A0009F2C0108E85A00202849084328490860C4
:10C1B000704730B50F23C27801780125FAB1244ABF
:10C1C000126801F1E02102F4E062C2F5E062C2F31C
:10C1D0000722C2F10404D3404278A24084781C4074
:10C1E0001443220181F80024007800F01F018D40E3
:10C1F0004009800000F1E020C0F8005130BD01F09E
:10C200001F0085404809800000F1E020C0F88051FF
:10C2100030BD104A114001430D48001F01607047B6
:10C220000B4A121D0029116801D0014300E081432F
:10C23000116070474FF0E0210428086903D020F016
:10C2400004000861704740F00400FAE70000FA05B6
:10C250000CED00E080FFFF1F354900200860091D3C
:10C260000860091D0860091D086031493148143112
:10C270000860704730B52E4A8379016853B313685C
:10C280008B431360111D0B680468A3430B60017995
:10C2900011440B68046823430B60254B083319686D
:10C2A0000468A14319601C1D21680568A943216029
:10C2B0004179102905D011440A68006802430A60D8
:10C2C00030BD196802681143196021680068014394
:10C2D000216030BD0079104402688A43026030BD9D
:10C2E0000021016001710C22427181717047104977
:10C2F00010310A6802430A60704701460C4A002068
:10C30000143212680A4200D00120704708491431E3
:10C31000086070470146064A0020143212680A423B
:10C3200000D00120704702491431086070470000B6
:10C33000003C0140FFFF7F00F94908707047F84951
:10C340000028086802D040F4807001E020F480707A
:10C3500008607047F2490028086802D040F4007075
:10C3600001E020F4007008607047ED49002808687B
:10C3700002D040F4806001E020F4806008607047E3
:10C38000E748016841F4006101607047E4480168D2
:10C3900041F4805101607047E14810300068002886
:10C3A00005DADF48DF49001D0160DF4901607047A1
:10C3B000DB481030016841F0004101607047D84906
:10C3C00009200C310A68D20301D5012070470A68A0
:10C3D000D20601D5062070470A68D20501D5022091
:10C3E00070470A6812F0E00F01D007207047096813
:10C3F0008907FBD50820704708B509208DF8000093
:10C40000FFF7DDFF8DF800009DF800000128F7D050
:10C410009DF8000008BD70B50646002529B1012928
:10C4200028D0022929D04FF44075FFF7E5FF0928ED
:10C430001FD1BB4C1034206820F44070206020686D
:10C4400028432060206820F0F8002060206846F033
:10C45000020108432060206840F480302060FFF72C
:10C46000CBFF216821F002012160216821F0F80151
:10C47000216070BD4FF48075D7E74FF40075D4E7A5
:10C4800030B504460025FFF7B7FF2CB1012C1DD0B5
:10C49000022C1ED04FF44075092816D1A04C103440
:10C4A000206820F4407020602068284320602068C5
:10C4B00040F004002060206840F480302060FFF7E6
:10C4C0009BFF216821F00401216030BD4FF480758D
:10C4D000E2E74FF40075DFE730B504460025FFF7CB
:10C4E0008BFF2CB1012C1DD0022C1ED04FF44075B7
:10C4F000092816D18A4C1034206820F4407020603E
:10C50000206828432060206840F0040020602068F4
:10C5100040F480302060FFF76FFF216821F00401B4
:10C52000216030BD4FF48075E2E74FF40075DFE71E
:10C5300030B504460025FFF75FFF2CB1012C1DD05C
:10C54000022C1ED04FF44075092816D1744C1034BB
:10C55000206820F440702060206828432060206814
:10C5600040F400402060206840F480302060FFF7F5
:10C5700043FF216821F40041216030BD4FF48075F4
:10C58000E2E74FF40075DFE7F0B516461F460546B3
:10C59000FFF732FF092815D1614C1034206820F4D0
:10C5A00040702060206840F440702060206840F0B7
:10C5B000010020602E606F60FFF71EFF216821F0F0
:10C5C00001012160F0BD70B50D460646FFF714FF6E
:10C5D000092814D1524C1034206820F44070206097
:10C5E000206840F400702060206840F00100206066
:10C5F0003560FFF701FF216821F00101216070BD66
:10C6000070B50D460646FFF7F7FE092814D1444CD5
:10C610001034206820F440702060206840F480705E
:10C620002060206840F0010020603580FFF7E4FEC4
:10C63000216821F00101216070BD70B50D460646EC
:10C64000FFF7DAFE092812D1354C1034206820F4A7
:10C650004070206020682060206840F00100206069
:10C660003570FFF7C9FE216821F00101216070BD1E
:10C670002B4814300068C00705D029482B490830E2
:10C6800001602B490160704725481430016841F072
:10C6900001010160704730B50D460446FFF7ACFE5E
:10C6A000092807D11E48163001880DB1A14300E0CA
:10C6B0002143018030BD30B50D460446FFF79CFE96
:10C6C000092807D116481A3001880DB1A14300E0AE
:10C6D0002143018030BD124A1732117801F07F01E9
:10C6E00008431070704730B50D460446FFF784FECE
:10C6F000092807D10A4A163210880DB1204300E0FC
:10C70000A043108030BD30B50D460446FFF774FEDF
:10C71000092811D1024A1A3210885DB120430AE07B
:10C72000003C024023016745AB89EFCD3B2A190845
:10C730007F6E5D4CA043108030BD10B50446FFF7FE
:10C740005BFE092801D13548047010BD70B515464F
:10C750000C460646FFF750FE092808D12F49491E0E
:10C76000087800F00F0004432C4334430C7070BD74
:10C770002A49491E0A7822F010020A700A780243F8
:10C780000A7070472549491E0A7822F00C020A7087
:10C790000A7802430A7070472048401E017841F031
:10C7A0000201017028E61D48401E0068C0F34710D2
:10C7B00070471A48401C008870471848401D008880
:10C7C00070471648401C008870471448401D008878
:10C7D0007047124900200978AA2900D0012070472B
:10C7E0000E48401E007800F00C0070470B4A521FA4
:10C7F0000029116801D0014300E0814311607047B6
:10C800000146064A0020093A12680A4200D0012077
:10C81000704702490939086070470000153C024022
:10C82000774910B5884206D10121084600F010FB77
:10C83000002101205BE07349884206D101210220DA
:10C8400000F006FB0021022051E06F49884206D12A
:10C850000121042000F0FCFA0021042047E06B498C
:10C86000884206D10121082000F0F2FA00210820B8
:10C870003DE06749884206D10121102000F0E8FA26
:10C880000021102033E06349884206D10121202095
:10C8900000F0DEFA0021202029E05F49884206D11D
:10C8A0000121402000F0D4FA002140201FE05B4924
:10C8B000884206D10121802000F0CAFA00218020A0
:10C8C00015E05749884202D1012184150AE05549F3
:10C8D000884202D10121441504E0534988420AD11B
:10C8E00001210415204600F0B3FA00212046BDE8DE
:10C8F000104000F0ADBA10BDF0B5002201274FF096
:10C90000030C0B6807FA02F52B40AB422CD10668EA
:10C9100053000CFA03F4A64306600E79D0F800E049
:10C920009E4046EA0E0606600E79012E01D0022EC8
:10C9300012D18668A64386604E79D0F808E09E4002
:10C9400046EA0E0686604668AE43466045688E79C4
:10C950009640B6B235434560C568A543C560CC79FD
:10C960009C40C3681C43C460521C102AC9D3F0BD4C
:10C970004FF6FF7101600021017141718171C17138
:10C98000704708B541F480320092C261C1610099DC
:10C99000C161C169C069009008BD024600201269EA
:10C9A0000A4200D001207047006980B270470246F9
:10C9B000002052690A4200D001207047406980B2CD
:10C9C000704701837047418370470AB10183704704
:10C9D000418370474161704742694A4042617047F4
:10C9E0004B07DB0E9A40C90810B500EB8100016AC5
:10C9F0000F249C40A1430162016A1143016210BDF2
:10CA0000000002400004024000080240000C024006
:10CA1000001002400014024000180240001C0240B6
:10CA200000200240002402400028024010B50121ED
:10CA30000C07204600F020FA2046BDE810400021F7
:10CA400000F01ABA404908627047404A116821F064
:10CA5000E0010143116070473B49086170473A4962
:10CA6000C1F8A00070473849C1F8A4007047374AA0
:10CA7000116821F440410143116070473249086454
:10CA8000704731494864704730490028086802D02F
:10CA900040F4402001E020F44020086070472A491B
:10CAA00000B10120C8627047274900B101208862A7
:10CAB0007047254948627047244B10B51A6840F604
:10CAC0000344A24302431A602148026842F0040270
:10CAD0000260012905D020BF016821F00401016036
:10CAE00010BD30BFF8E7194B10B51A6840F6034483
:10CAF000A24302431A601648026842F00402026030
:10CB0000012905D020BF016821F00401016010BD9A
:10CB100030BFF8E70D48016841F0020101600C48A0
:10CB2000016841F00401016030BF7047074A0146C7
:10CB3000002052680A4200D00120704703490A6869
:10CB400042EA80000860704700000E42007000401A
:10CB500010ED00E0F948016841F001010160F74A79
:10CB60000021083211600268F54B1A400260031D73
:10CB7000F44A1A60F14BF44A84331A60026822F4D2
:10CB800080220260ED480C300160EC488C3001607E
:10CB90007047EA490022891C0A70087070470246F3
:10CBA0000020510901290CD002290CD0E34974312D
:10CBB000096802F01F02012393400B4200D00120BC
:10CBC0007047DE49F4E7DD497031F1E718B5002020
:10CBD0004FF4A04400903120FFF7E1FF0099491C79
:10CBE0000091A14201D00028F5D03120FFF7D7FFF6
:10CBF000002800D0012018BDD04A116821F0F801AA
:10CC000041EAC00010607047D04908607047CB49C6
:10CC1000002270310A700A70012802D0042801D164
:10CC2000052008707047CA490860704741EA8211C0
:10CC30005A0810B5C74B029C03EB02421143014353
:10CC400041EA0460BD49091D086010BDBF4908667E
:10CC50007047800140EA0170B8498431086070472C
:10CC6000BA4988667047800140EA0160B34940EAEA
:10CC70000270883108607047B44908677047B3494B
:10CC8000C8647047AD4B08331A68084322F0EC6261
:10CC9000104318607047A94B08331A68084322F004
:10CCA0007842104318607047A44A0832116821F096
:10CCB0000301014311607047A0480830006800F08C
:10CCC0000C0070479D4A0832116821F0F0010143C1
:10CCD00011607047994A0832116821F4E05101430C
:10CCE00011607047954A0832116821F4604141EAA9
:10CCF000C0001060704770B5904B08331968964CAF
:10CD000011F00C0104D0954E042903D0082903D05A
:10CD100004601BE0066019E0884A121D1168C1F327
:10CD20008055116801F03F0115B1B6FBF1F101E04A
:10CD3000B4FBF1F114681268C4F388146143C2F3C0
:10CD40000142521C5200B1FBF2F1016019680F223E
:10CD500002EA1111824A545C0168E14041601C689A
:10CD6000072505EA9424145D21FA04F484601B6805
:10CD700005EA5333D25CD140C16070BDC0F30121DC
:10CD8000032908D16D4B08331968764A21F4F8114C
:10CD900002400A431A60694970310A68C0F30B0007
:10CDA00002430A6070476A4944390860704768491D
:10CDB0004039086070476549C1F85C0170475F4AB7
:10CDC0008C321168401E21F01F0101431160704731
:10CDD0005A4A8C3211686FF0FF0321F4F85103EBCB
:10CDE0000020084310607047544A8C32116821F4C7
:10CDF00040310143116070475B49C1F8E001704761
:10CE00004E4A30320029116801D0014300E08143CD
:10CE100011607047494A34320029116801D001433A
:10CE200000E0814311607047444A40320029116894
:10CE300001D0014300E08143116070473F4A443212
:10CE40000029116801D0014300E08143116070475F
:10CE50003A4A10320029116801D0014300E08143B1
:10CE600011607047354A14320029116801D001431E
:10CE700000E0814311607047304A20320029116878
:10CE800001D0014300E08143116070472B4A2432F6
:10CE90000029116801D0014300E08143116070470F
:10CEA000264A50320029116801D0014300E0814335
:10CEB00011607047214A54320029116801D00143A2
:10CEC00000E08143116070471C4A603200291168FC
:10CED00001D0014300E0814311607047174A64327A
:10CEE0000029116801D0014300E0814311607047BF
:10CEF000124970310128086803D020F0080008604A
:10CF0000704740F00800FAE70C4A0D32002911780A
:10CF100001D0014300E0814311707047074874302D
:10CF2000016841F08071016070470146034A0020AA
:10CF30000C3212680A4200D00120704700380240CB
:10CF4000FFFFF6EA103000240030002000004742C6
:10CF5000800E47420000FFFF0024F40080BA8C01DD
:10CF600000000020FFFCFF0F00104742014908703D
:10CF7000E3E700000E38024018B50020FA4B00909D
:10CF8000CA20186053201860F7491839086820F043
:10CF9000A00008604FF400340868009A00F02000F8
:10CFA000521C0092A24201D00028F5D008688006E9
:10CFB00001D5012000E00020FF21196018BD08B54F
:10CFC000E9490020183900900868400612D44FF053
:10CFD000FF3008608B130868009A00F04000521C74
:10CFE00000929A4201D00028F5D00868400601D48A
:10CFF000002008BD012008BD78B50024DA4ECA2003
:10D0000000942546306053203060FFF7D8FFE0B32E
:10D01000D54824380460D44942F201102039086010
:10D020000B1D186800F0070018608D131A1D10689A
:10D03000009900F00400491C0091A94201D0002889
:10D04000F5D01068400729D518681C60C6494FF60E
:10D05000FF7010390860091FC4480860C2480C38C6
:10D060000460001D0460001D0460BF4808300460B7
:10D07000BD4818300460BC4820300460001D0460C6
:10D080001460B9481C30046000E003E0FFF774FF4F
:10D0900020B10125FF203060284678BD0025F9E742
:10D0A000B1481838016821F080010160704770B5FF
:10D0B000AD4E04460025CA20306053203060FFF793
:10D0C0007EFFA8B1A8481C38016821F0400101602A
:10D0D0000168226811430160A348A1681438016007
:10D0E0000168A28841EA02410160FFF7D9FF0125EA
:10D0F000FF203060284670BD002101607F21416023
:10D10000FF2181607047984908B1FF2002E0CA20E2
:10D11000086053200860704770B5934E05460024A0
:10D12000CA20306053203060FFF749FF60B18E485D
:10D130001C38016815B141F0100101E021F0100127
:10D140000160FFF7ADFF0124FF203060204670BD75
:10D15000854ACA2111605321116083491C39002876
:10D16000086802D040F0200001E000F0DF00086015
:10D17000FF20106070472DE9F0410C4600267C4FDF
:10D1800001002078396832464FEA416104D0002915
:10D190002FDA00F008FC2DE0002900DBE27000F03F
:10D1A000F6FB0504607800F0F2FB45EA0025A07864
:10D1B00000F0EDFB0543E07845EA00456A4CCA20E3
:10D1C000206053202060FFF7FAFE68B169480540EF
:10D1D000674808380560FFF763FF3868800602D4A7
:10D1E000FFF7CAFE00B10126FF2020603046BDE8EF
:10D1F000F081E270A078217840EA01456078E1781A
:10D20000000240EA01400543D8E70021C1700170E7
:10D21000417081707047020010B557480C46016894
:10D22000544801EA0001C1F305402070C1F3062310
:10D23000637001F07F03A3704FF0400303EA1141D4
:10D24000E1700AD100F0AFFB2070607800F0ABFB1A
:10D250006070A07800F0A7FBA07010BD4248001DD0
:10D2600000684349091F0968704770B50C460026DD
:10D27000010060780FD000F096FBA07800F093FBDF
:10D28000A078E17840EA014560782178000240EA20
:10D290004130054315E0C10603D520F010000A30E7
:10D2A0006070E07800F073FB0504607800F06FFBBD
:10D2B00045EA0025A07800F06AFB0543207845EA9E
:10D2C0004035294CCA20206053202060FFF777FEAC
:10D2D00070B12A4805402648001F0560FFF7E0FEB0
:10D2E00023480068800602D4FFF746FE00B10126FD
:10D2F000FF202060304670BD0121017081704170B7
:10D300000021C1707047020010B51D480C4601682D
:10D310001A4801EA00014FEA1140E070C1F304230A
:10D32000637001F03F03A370C1F3423121700AD151
:10D3300000F039FBE070607800F035FB6070A07899
:10D3400000F031FBA07010BD70B514460D46084AC0
:10D350000021002810684FEA406013D000282ADA24
:10D36000207800F020FB27E024280040FF007F0009
:10D37000082800407F7F7F00002800403FFFFF001B
:10D3800004280040002800DBE170207800F0FFFA5C
:10D390000604607800F0FBFA46EA0026A07800F068
:10D3A000F6FA0643E07846EA0046207B00F0EFFA02
:10D3B00046EA006010E0E170207B00F0F4FAA0780B
:10D3C0002178E27840EA01406178090241EA0241AD
:10D3D0000843217B40EA0160A16808436168084373
:10D3E000F849CA220A6053220A60B5F5807F04D04A
:10D3F0000A1F1060FF20086070BDF24A083AF8E783
:10D400000021C1700170417081700122816002733E
:10D410004160704710B514460246B1F5807F2AD0AE
:10D42000E848001F0168C1F305402070C1F30623DE
:10D43000637001F07F03A370402303EA1143E3709C
:10D44000C1F30563237301F0804301F08031C4E927
:10D450000113002A0ED100F0A6FA2070607800F0C7
:10D46000A2FA6070A07800F09EFAA070207B00F015
:10D470009AFA207310BDD3480838D3E738B5002294
:10D48000D04C0092CA22226053222260CD4A1C3A1C
:10D490000029116802D00143116012E0814311603C
:10D4A000C84A183A95131168009B01EA10215B1CC9
:10D4B0000093AB4201D00029F5D0116811EA102089
:10D4C00000D00120FF21216038BD10B5BD4BCA241A
:10D4D0001C6053241C601143B0F5807F05D0B9480F
:10D4E00024300160FF20186010BDB6482030F8E7F6
:10D4F000B0F5807F05D0B34824300068C0F30E003B
:10D500007047B0482030F8E7AE4ACA211160532175
:10D510001160AC491C390B6823F007030B600B68E2
:10D5200003430B60FF2010607047A649CA220A60BF
:10D5300053220A60A34A103A1060FF200860704727
:10D54000A0481038006880B2704718B500219D4B84
:10D550000091CA211960532119609A491C39002889
:10D56000086803D040F48060086014E020F4806014
:10D570000860944918398C130868009A00F0040078
:10D58000521C0092A24201D00028F5D00868400742
:10D5900001D4002000E00120FF21196018BD894B53
:10D5A00010B5CA221A6053221A60864A1C3A1468BF
:10D5B00024F4802414601468084304431460FF209A
:10D5C000186010BD7F481C38006800F48020704748
:10D5D0007C4B10B5CA221A6053221A60794A1C3A51
:10D5E000146824F4E00414601468084304431460CD
:10D5F000FF20186010BDF0B5724D06460024CA2009
:10D600000F46286053202860FFF7D9FC30B16D48E1
:10D610003E430C380660FFF743FD0124FF202860DD
:10D620002046F0BD70B5674E05460024CA20306024
:10D6300053203060FFF7C3FC60B162481C380168BA
:10D6400015B141F0800101E021F080010160FFF798
:10D6500027FD0124FF203060204670BD594ACA21B1
:10D6600011605321116057491C390028086802D005
:10D6700040F4000001E020F400000860FF2010608A
:10D680007047504ACA211160532111604D491C391D
:10D690000B6823F400230B600B6803430B60FF202F
:10D6A00010607047F0B5474D0023CA242C60532406
:10D6B0002C60444C183C2668F60308D54FF400361D
:10D6C0002768FF0303D5B34201D05B1CF8E723684A
:10D6D000DB0306D408433B4910431831086001209E
:10D6E00000E00020FF212960F0BD364B10B51C3B47
:10D6F0001A6840F60804A24342EA000209B142F463
:10D7000000623048CA210160532101601A60FF2184
:10D71000016010BD70B50D462A4914460C310968E8
:10D72000294A1140274A103212684FF63F731A40B7
:10D73000C1F305432B70C1F306236B7001F07F0327
:10D74000AB70402303EA1141E9700021E170C2F39C
:10D750000421617002F03F01A170C2F342312170D7
:10D76000002817D1287800F01EF92870687800F09A
:10D770001AF96870A87800F016F9A870607800F0BF
:10D7800012F96070A07800F00EF9A070207800F017
:10D790000AF9207070BD0B48143000687047094AC0
:10D7A0001C320029116803D041EA40001060704724
:10D7B00021EA4000FAE7034A1C320029116805D02B
:10D7C000014304E0242800407F7F7F0081431160F3
:10D7D000704779490A6822F4C0520A600A68024315
:10D7E0000A60704774490A6822F4E0620A600A68B5
:10D7F00002430A60704770490A6822F4C0420A6016
:10D800000A6802430A6070476B490028086802D022
:10D8100040F0800001E020F0800008607047664919
:10D820000028086802D020F4004001E040F40040E5
:10D8300008607047604A08B5103202EB8000009023
:10D84000016008BD5C4908B5103101EB8000009013
:10D85000006808BD58490A6822F480320A600A68E4
:10D8600002430A60704754490A6822F400320A6091
:10D870000A6802430A6070474F490A6822F480220E
:10D880000A600A6802430A60704770B54A4C002279
:10D89000CA231C3C236053232360474B343B1D6841
:10D8A0002D0707D59E141D682D0703D5B24201D060
:10D8B000521CF8E71A6812070DD43F4A383A12682A
:10D8C000D20608D401433C4814380160FFF754FBEA
:10D8D00010B1012000E00020FF21216070BD30B5B3
:10D8E000354DCA221C3D2A6053222A60324C20F05A
:10D8F0000402383C0029304B216800F0040004D0B9
:10D90000114321601968014303E0914321601968C4
:10D9100081431960FF20286030BD0246264900205F
:10D9200034390968254B1940114200D00120704755
:10D9300080B240F08000C1431F483438026802F0D2
:10D9400080021143016070471B4A0021126802F0F7
:10D950000403194A383A126803EAD03302401A43E2
:10D96000174B1B6803EA101003D00004000C00D012
:10D97000012108467047C0F30F1040F08000C143FA
:10D980000F48026802F080021143016070470021D5
:10D9900003E0491C0A38C9B2C0B20A28F9D2090703
:10D9A00040EA11607047010901EB810100F00F00AE
:10D9B00000EB4100C0B27047402800407F3F0100AB
:10D9C0000C280040C14910B5884202D101218414BD
:10D9D00024E0BF49884202D10121041404E0BD497A
:10D9E00088420AD10121C4132046FFF745FA204698
:10D9F000BDE810400021FFF73FBAB749884202D185
:10DA0000012144140AE0B549884202D101210C05E4
:10DA100004E0B34988420AD101214C052046FFF7B2
:10DA200035FA2046BDE810400021FFF72FBA10BD9F
:10DA300030B502884C8802F441530A88CD882243CD
:10DA40008C882C4322430C8922434C8922438C89A5
:10DA50002243CC8922431A430280828B22F4006243
:10DA60008283098A018230BDF0B502220023858BB2
:10DA700001244FF24006354085830284868B8D68F1
:10DA8000022D3DD08A8802B10224964A13681B02F7
:10DA900003D5136823F400031360924A7C321368A1
:10DAA0001268C3F388138F4FC2F302723F1F3D68A1
:10DAB0003F6805F03F057F0201D58B4F00E08B4F9B
:10DAC000B7FBF5F55D43B5FBF2F2CB88B3F5007F0C
:10DAD0002BD06301B2FBF3F202EB82028B6852009F
:10DAE000B2FBF3F2521D92B20A23B2FBF3F202F040
:10DAF0000103D21A4FF6FF74C2F34F0204EA032364
:10DB0000941EFE2C01D302220023CC881A43144316
:10DB100004840A884B881A438B8889890B431A43EB
:10DB2000324342F400618183F0BD120AD4E7002140
:10DB3000018041808180C180018141818181C181D9
:10DB40000721018270470021018041808180C180CE
:10DB500002228260818170470029018802D041F051
:10DB6000400101E021F04001018070470029818BD4
:10DB700002D041F4806101E021F48061818370472B
:10DB8000028822F40062028002880A430280704701
:10DB9000B1F5804F018803D021F4804101807047A6
:10DBA00041F48041FAE7A1F57E420188FF3A02D0B4
:10DBB00041F4807101E021F48071018070470029F7
:10DBC000818802D041F0040101E021F0040181804C
:10DBD00070470029818802D041F0100101E021F056
:10DBE00010018180704730B5828B00234FF24004D2
:10DBF0002240828302220284848B0A884FF480753B
:10DC0000B2F5007F00D002B92B464A888D888989F9
:10DC10002A4319430A43224342F40061818330BD01
:10DC200080897047818170470029018802D041F4C2
:10DC3000005101E021F4005101807047018841F456
:10DC4000805101807047012901D0008B7047808A84
:10DC50007047008A7047002A828801D00A4300E09A
:10DC60008A4382807047090901238B40002A8288F9
:10DC700099B201D00A4300E08A438280704702468D
:10DC8000002012890A4200D001207047C943018157
:10DC9000704730B501F00F030125024605FA03F481
:10DCA0000020A3B2090905FA01F49188A4B21289EF
:10DCB00021401A4202D0002900D0012030BD01F0DD
:10DCC0000F0201219140C94301817047003001409A
:10DCD00000380040003C004000340140005001404A
:10DCE000005401400838024080BA8C010024F4003E
:10DCF00010B501218C032046FFF7C8F82046BDE887
:10DD000010400021FFF7C2B8144908607047144959
:10DD10000862704710B58A0721F003041149120FF9
:10DD200021440F23D1F8084893409C43C1F8084888
:10DD3000D1F8083890400343C1F8083810BD0849AD
:10DD4000C1F8DC00704708490860704703490020AB
:10DD500020310968C90500D501207047003801400D
:10DD6000000027420030014000042742FE4910B560
:10DD7000884206D101210846FFF788F800210120DA
:10DD80005BE0B0F1804F09D0F84988420DD1012104
:10DD90000220FFF771F80021022070E001210846FF
:10DDA000FFF76AF80021012069E0F149884206D1B5
:10DDB00001210420FFF760F8002104205FE0ED4915
:10DDC000884206D101210820FFF756F800210820DB
:10DDD00055E0E949884206D101211020FFF74CF8AF
:10DDE000002110204BE0E549884206D10121202086
:10DDF000FFF742F80021202041E0E149884206D1A6
:10DE000001210220FFF742F80021022015E0DD4940
:10DE1000884202D101210C040AE0DB49884202D188
:10DE200001214C0404E0D94988420AD101218C0423
:10DE30002046FFF72BF800212046BDE81040FFF7F1
:10DE400025B8D349884206D101214020FFF714F8B4
:10DE50000021402013E0CF49884206D101218020D3
:10DE6000FFF70AF80021802009E0CB4988420AD157
:10DE7000841501212046FEF7FFFF00212046BDE862
:10DE80001040FEF7F9BF10BD30B50288B64CBC4D4E
:10DE9000A0420DD0A8420BD0B0F1804F08D0B34BB8
:10DEA000984205D0B24B984202D0B24B984203D16F
:10DEB00022F070034A881A43AF4B984206D0AF4B0A
:10DEC000984203D022F440730A891A4302804A68B8
:10DED000C2620A880285A04201D0A84201D1897A93
:10DEE00001860121818230BD4FF0FF314160002168
:10DEF0000180018141808172704701858282704773
:10DF0000028822F070020A43028070474162704723
:10DF1000C1627047406A7047008D704700290188D0
:10DF200002D041F0020101E021F0020101807047BE
:10DF30000029018802D041F0040101E021F0040130
:10DF4000018070470029018802D041F0800101E082
:10DF500021F0800101807047028822F008020280CF
:10DF600002880A4302807047028822F440720280CD
:10DF700002880A43028070470029018802D041F0DC
:10DF8000010101E021F001010180704730B5028CF0
:10DF900022F001020284028C8388048B22F00202A8
:10DFA00024F073050C882C438D8915434A882A4335
:10DFB0006D4DA84202D0724DA8420DD122F0080545
:10DFC000CA8923F440732A4322F004058A882A432D
:10DFD0000D8A1D434B8A2B438380048389684163E8
:10DFE000028430BD70B5028C22F010020284028CD3
:10DFF0008388048B0D8824F4E6464FF6FF7404EA08
:10E00000052535438E8922F0200204EA06161643C0
:10E010004A8804EA02123243534EB04202D0584EAC
:10E02000B04215D122F08006CA8923F4406304EA85
:10E030000212324322F040068A8804EA0212324376
:10E040000E8A04EA86061E434B8A04EA830333439E
:10E050008380058389688163028470BD70B5028CFA
:10E0600022F480720284028C8388848B0D8824F0D1
:10E07000730425438E894FF6FF7422F4007204EA7C
:10E08000062616434A8804EA02223243364EB0423C
:10E0900002D03B4EB04215D122F40066CA8923F467
:10E0A000405304EA0222324322F480668A8804EA5A
:10E0B000022232430E8A04EA06161E434B8A04EA01
:10E0C00003133343838085838968C163028470BDF1
:10E0D00070B5028C22F480520284058C8288838B76
:10E0E0000C8823F4E6464FF6FF7303EA0424344316
:10E0F00025F400568D8903EA053535434E8803EA39
:10E1000006362E43184DA84202D01D4DA84205D117
:10E1100022F480450A8A03EA82122A438280848399
:10E1200089680164068470BD00210180418081807E
:10E1300081608181C18101824182704730B50124B3
:10E14000058C00F118038C40A543058431B30829E0
:10E150002CD0091FC1F34E001844016848F6FF7324
:10E160001940016001681AE000000140000400400D
:10E1700000080040000C0040001000400014004067
:10E1800000040140004001400044014000480140BB
:10E1900000180040001C00400020004006E04FF640
:10E1A000FF7303EA02221143016030BD03EB51000B
:10E1B00001684FF68F73194001600168F3E741630E
:10E1C000704781637047C163704701647047028B79
:10E1D00022F070020A4302837047028B4FF6FF73EE
:10E1E00022F4E04203EA0121114301837047828B4C
:10E1F00022F070020A4382837047828B4FF6FF73CE
:10E2000022F4E04203EA0121114381837047028B2B
:10E2100022F008020A4302837047028B4FF6FF7315
:10E2200022F4006203EA0121114301837047828BCB
:10E2300022F008020A4382837047828B4FF6FF73F5
:10E2400022F4006203EA0121114381837047028BAB
:10E2500022F004020A4302837047028B4FF6FF73D9
:10E2600022F4806203EA0121114301837047828B0B
:10E2700022F004020A4382837047828B4FF6FF73B9
:10E2800022F4806203EA0121114381837047028BEB
:10E2900022F080020A4302837047028B4FF6FF731D
:10E2A000C2F30E0203EA0121114301837047828BFE
:10E2B00022F080020A4382837047828B4FF6FF73FD
:10E2C000C2F30E0203EA0121114381837047028CDD
:10E2D00022F002020A4302847047028C22F00802F4
:10E2E0000A4302847047028C4FF6FF7322F020022B
:10E2F00003EA0111114301847047028C4FF6FF734A
:10E3000022F0800203EA0111114301847047028C5C
:10E310004FF6FF7322F4007203EA012111430184D6
:10E320007047028C4FF6FF7322F4006203EA01216A
:10E33000114301847047028C4FF6FF7322F40052A0
:10E3400003EA013111430184704710B50123048CA5
:10E350008B409C430484038C8A401343038410BD88
:10E3600010B50423048C8B409C430484038C8A40A6
:10E370001343038410BD828B22F440628283828B1C
:10E380004FF6FF7303EA01210A4382837047828BB1
:10E3900022F00C028283828B0A4382837047028BB5
:10E3A00022F440620283028B4FF6FF7303EA0121DD
:10E3B0000A4302837047F0B5048C24F010040484EF
:10E3C000078B068C4FF6FF7404EA011527F4734798
:10E3D00004EA0331394304EA02220A4326F0A00189
:10E3E000294341F0100102830184F0BD028B22F029
:10E3F0000C020283028B0A43028370472DE9F0412D
:10E400000C460E884988A288238905460EB3042E3F
:10E4100026D0082E2E8C4FF6FF7028D026F480567A
:10E420002E84AF8B2E8C00EA022200EA013127F401
:10E4300073473A4300EA0330104326F420420A436C
:10E4400042F48051A8832984E1882846BDE8F04140
:10E4500091E700F062F9E1882846BDE8F041C5E7A0
:10E46000FFF7A9FFE1882846BDE8F04197E726F4C9
:10E4700080762E84AF8B2E8C00EA012100EA0310F7
:10E48000104327F0F307384326F420620A4342F48E
:10E490008071A8832984E1882846BDE8F04176E7A9
:10E4A00000210180418001228280C180018170476A
:10E4B0002DE9F0410C46002649880746012501B99F
:10E4C0000226A288012A00D102252088238900285B
:10E4D000384610D0FFF76FFFE1883846FFF75FFF3F
:10E4E00023892A463146384600F017F9E188384634
:10E4F000BDE8F0417AE700F010F9E1883846FFF70F
:10E5000075FF23892A4631463846FFF754FFE188D4
:10E510003846BDE8F04142E7406B7047806B70477A
:10E52000C06B7047006C704710B50A884B88CC8868
:10E530001A438B8823431A430B891A434B898989D1
:10E540001A430A43A0F8442010BD002101804180F5
:10E550008180C1800181418181817047002930F82B
:10E56000441F02D041F4004101E0C1F30E010180DB
:10E5700070470029818802D041F0040101E021F0B8
:10E580000401818070470029818802D041F0010197
:10E5900001E021F0010181807047002A828901D0C9
:10E5A0000A4300E08A4382817047818270470246B5
:10E5B0000020128A0A4200D001207047C94301821C
:10E5C000704702460020138A92890B4202EA010238
:10E5D00002D0002A00D001207047C9430182704751
:10E5E0001143A0F848107047002A828901D00A43DD
:10E5F00000E08A43828170470029818802D041F07F
:10E60000080101E021F0080181807047018921F0B3
:10E61000070101817047028922F070020A430281DA
:10E62000704700B50346FFF7F6FF188940F0070072
:10E63000188100BD70B516460D46602904464FF09E
:10E64000010231460AD000F068F829462046FFF75B
:10E65000E2FF208940F00700208170BDFFF7ABFE8C
:10E66000F3E730B504894FF6FF7505EA032313433A
:10E67000E4B20B432343038130BD10B50446FFF7DA
:10E68000F0FF208940F07700208110BD10B50446CE
:10E69000FFF7E7FF208940F48040208110BD828889
:10E6A00022F07002828082880A4382807047028949
:10E6B00022F00702028102890A430281704702891F
:10E6C00022F08002028102890A430281704770B5FC
:10E6D0000589048B068C25F007050D434FF6FC4198
:10E6E0000C4040F201110C434FF6FF7101EA031197
:10E6F00026F022061143314305810483018470BD55
:10E700000029818802D041F0800101E021F08001E0
:10E7100081807047A0F85010704770B5048C24F0C9
:10E7200001040484058B048C4FF6FF7606EA03137C
:10E73000134325F0F3052B4324F00A020A4342F069
:10E7400001010383018470BDCD4910B5884206D113
:10E7500001211020FEF79AFB0021102020E0C9497A
:10E76000884202D101214C0429E0C749884202D1E4
:10E7700001218C0423E0C549884202D10121CC0447
:10E780001DE0C349884202D101210C0517E0C149AF
:10E79000884209D101212020FEF778FB00212020AA
:10E7A000BDE81040FEF772BBBB49884202D101218F
:10E7B0008C0704E0B94988420AD10121440520466A
:10E7C000FEF75AFB2046BDE810400021FEF754BB7F
:10E7D00010BD7FB50446008A0D46C98820F440501C
:10E7E00001432182A08941F20C618843A9882A89CA
:10E7F00011436A8902431143A181A08A20F4407128
:10E80000A8890843A0826846FEF775FA9C488442AE
:10E8100002D0A048844201D1039800E00298A18967
:10E82000090400EBC00101EB0010296801D5490083
:10E8300000E08900B0FBF1F06422B0FBF2F10901C5
:10E840000B096FF018056B4300EB8300A3891D04CF
:10E850004FF0320306D503EBC000B0FBF2F000F03E
:10E86000070005E003EB0010B0FBF2F000F00F0032
:10E87000084320817FBD4FF4165101600021818043
:10E88000C18001810C2242818181704710B5028ACA
:10E890004C8822F470630A8822438C88C9880C4310
:10E8A00022431A43028210BD0021018041808180F1
:10E8B000C18070470029818902D041F4005101E0F4
:10E8C00021F4005181817047028B02F47F42028360
:10E8D000028B0A43028370470029818902D041F4E8
:10E8E000004101E0C1F30E01818170470029818A56
:10E8F00002D041F4006101E021F40061818270479F
:10E90000C1F30801818070478088C0F30800704718
:10E91000028A22F00F020282028A0A4302827047B0
:10E920000029818902D041F0020101E021F00201B9
:10E9300081817047828922F40062828182890A4340
:10E9400082817047028A22F020020282028A0A43F0
:10E95000028270470029018A02D041F4804101E01F
:10E9600021F4804101827047818941F00101818158
:10E9700070470029818A02D041F0080101E021F0AE
:10E98000080181827047028BD2B20283028B42EA75
:10E990000121018370470029818A02D041F02001C2
:10E9A00001E021F02001818270470029818A02D094
:10E9B00041F0100101E021F0100181827047828A4C
:10E9C00022F004028282828A0A43828270470029EE
:10E9D000818A02D041F0020101E021F0020181822E
:10E9E0007047002A828A01D00A4300E08A4382826B
:10E9F000704710B5C1F3421301F01F040121A1407B
:10EA0000012B07D0022B07D01430002A026805D052
:10EA10000A4304E00C30F8E71030F6E78A4302605E
:10EA200010BD0246002012880A4200D00120704723
:10EA3000C9430180704770B501F01F05012600240D
:10EA4000C1F3421306FA05F2012B0FD0022B0FD0AF
:10EA5000838A4FEA11210088134206FA01F600EA80
:10EA6000060001D000B10124204670BD8389F0E783
:10EA7000038AEEE70A0A01219140C94301807047E9
:10EA8000001001400044004000480040004C00409D
:10EA9000005000400014014000780040007C00401D
:10EAA0000648804706480047FEE7FEE7FEE7FEE728
:10EAB000FEE7FEE7FEE7FEE7FEE7FEE79752010806
:10EAC00095C1000870470CA006F058FCFBE70DA0AC
:10EAD00006F054FCFBE70EA006F050FCFBE70FA08D
:10EAE00006F04CFCFBE77047704770470F48016821
:10EAF000491C016070470000486172644661756C92
:10EB0000740D0A004D656D4D616E6167650D0A00FB
:10EB10004275734661756C740D0A00005573616728
:10EB2000654661756C740D0A000000002C0400201D
:10EB300010B50146FC4807F0D4F8041E08D0A4F52F
:10EB40007F40F03809D0012807D0022803D104E023
:10EB5000F6A006F013FC204610BDF6A0F9E770B54C
:10EB600004462DED068B41799FEDF59B80790A29AE
:10EB700027D2DFE801F0051295A4B1BECBD8E5F3AA
:10EB800009F0FEFF41EC110BB0EE490AF0EE690A04
:10EB90000AF06EFB9FEDEC1B0BE009F0F1FF41EC7E
:10EBA000110BB0EE490AF0EE690A0AF061FB9FED25
:10EBB000E81B51EC100B53EC112B09F061FF41ECF9
:10EBC000180B207A012878D00022607A012875D0AD
:10EBD0000021207F012800D00020237E4942DD0053
:10EBE000A37901EB81015E4205EB860505EB02127C
:10EBF000404202EB810503EB400080001C3509F028
:10EC0000BFFF41EC190B284609F0BAFF53EC192B52
:10EC100009F036FF41EC100B0AF092FA51EC100BA0
:10EC200009F0DAFFE5792D1D4543608B083509F0C1
:10EC3000A7FF9FEDC91B53EC112B09F008FE53EC05
:10EC4000182B09F0ABFE9FEDC6AB53EC1A2B09F065
:10EC5000A5FE41EC190B284609F092FF53EC182B46
:10EC600009F09CFE53EC1A2B09F098FE41EC100BB6
:10EC700051EC190B53EC102B09F0E9FD41EC100B92
:10EC80000AF05EFA9FEDB81B51EC100B53EC112B00
:10EC900009F0DDFDBDEC068BBDE8704009F09CBFBE
:10ECA00009F06EFF41EC110BB0EE490AF0EE690A73
:10ECB0000AF0DEFA9FEDAE1B7BE75CE05DE009F059
:10ECC0005FFF41EC110BB0EE490AF0EE690A0AF061
:10ECD000CFFA9FEDA91B6CE709F052FF41EC110B35
:10ECE000B0EE490AF0EE690A0AF0C2FA9FEDA41BE1
:10ECF0005FE709F045FF41EC110BB0EE490AF0EE79
:10ED0000690A0AF0B5FA9FEDA01B52E709F038FF37
:10ED100041EC110BB0EE490AF0EE690A0AF0A8FACC
:10ED20009FED9B1B45E709F02BFF41EC110BB0EE6B
:10ED3000490AF0EE690A0AF09BFA9FED971B38E743
:10ED400009F01EFF41EC110BB0EE490AF0EE690A22
:10ED50000AF08EFA9FED921B2BE7FFE709F010FFF8
:10ED600041EC110BB0EE490AF0EE690A0AF080FAA4
:10ED70009FED8D1B1DE7012227E7012129E710B533
:10ED800003F061FF8A4C2068006880472068806833
:10ED90008047002010BD70B5864D0024286810B152
:10EDA0000BF044FE2C60844D2868002802D00BF044
:10EDB0003DFE2C6070BD2DE9F0410024DFF8FC81A0
:10EDC0002546464658F82400A0B10BF02FFE46F821
:10EDD0002450204605F0ADF8794E56F824000BF08B
:10EDE00025FE784F57F824000BF020FE46F82450FB
:10EDF00047F82450641CE4B2202CE2D3724805701A
:10EE0000BDE8F04105F001B8FFF7D5FFFFF7C3FFFC
:10EE100005F0D3FB6D4801680268521AC82AFBD37B
:10EE200002F05BFC6A48006801280DD1694800784F
:10EE300058B10020624A034652F8201001B18B728B
:10EE4000401CC0B22028F7D370475A4800680028F9
:10EE5000FAD006F079BB2DE9FC415F4D28785F4F71
:10EE60005F4E0024A8B15F484FF4807104605E4893
:10EE700009F063FC33685DA2072168460AF02EF9A9
:10EE80005BA006F07BFA684606F078FA28A006F048
:10EE900075FA3C7034602C70BDE8FC8110B5594A9D
:10EEA000012104461170084608F0E6F9072008F031
:10EEB0004CFE082008F014FE204608F010FF052044
:10EEC00008F013FF5048FFF74AFE4F4948610861B8
:10EED0004E4808F03BFD364800688068BDE81040A9
:10EEE000004710B5474A044602211170012008F07E
:10EEF000C3F9072008F029FE072008F0F1FD20469D
:10EF000008F0EDFE052008F0F0FE3F48FFF727FE71
:10EF10003D49486108613D4808F018FD24480068F3
:10EF20008068BDE810400047140000200D0A4F4BD8
:10EF30000D0A00000D0A4552524F520D0A00000002
:10EF40000000000000000040000000000078BE400B
:10EF5000000000000050C44000000000000011400C
:10EF60000000000000408F400000000000007940D9
:10EF7000000000000078CE40000000000050D440A7
:10EF8000000000008084DE4000000000805CE4405F
:10EF9000000000008084EE40000000008084FE40FD
:10EFA0000000000080840E410000000080841E41AB
:10EFB000480400208C05002090050020C016002089
:10EFC00040170020C0170020840500202C040020DA
:10EFD000380400203D040020550400205604002081
:10EFE0005804002040040020A407002025640000ED
:10EFF0004C6F726150565F5458726573756C743DF6
:10F00000000000004C040020C8190020C0CA893646
:10F0100010B5FF4A044603211170012008F02CF9B5
:10F02000082008F092FD092008F05AFD204608F05B
:10F0300056FE052008F059FEF648FFF790FDF54909
:10F0400048610861F44808F081FCF4480068806871
:10F05000BDE81040004710B5ED4A04460421117088
:10F06000012008F009F9082008F06FFD082008F0D9
:10F0700037FD204608F033FE052008F036FEE5484F
:10F08000FFF76DFDE34948610861E34808F05EFC65
:10F09000E24800688068BDE81040004710B5DC4ACF
:10F0A000044605211170012008F0E6F8082008F058
:10F0B0004CFD072008F014FD204608F010FE052046
:10F0C00008F013FED348FFF74AFDD24948610861B2
:10F0D000D14808F03BFCD14800688068BDE810408A
:10F0E000004710B5CA4A044606211170012008F0F5
:10F0F000C3F8092008F029FD092008F0F1FC20469A
:10F1000008F0EDFD052008F0F0FDC248FFF727FDEF
:10F11000C04948610861C04808F018FCBF48006851
:10F120008068BDE81040004710B5B94A0446072181
:10F130001170012008F0A0F8092008F006FD082051
:10F1400008F0CEFC204608F0CAFD052008F0CDFDF1
:10F15000B048FFF704FDAF4948610861AE4808F0C8
:10F16000F5FBAE4800688068BDE81040004710B568
:10F17000A74A044608211170012008F07DF80920F3
:10F1800008F0E3FC072008F0ABFC204608F0A7FDE0
:10F19000052008F0AAFD9F48FFF7E1FC9D49486162
:10F1A00008619D4808F0D2FB9C4800688068BDE873
:10F1B0001040004710B5964A0446092111700120FD
:10F1C00008F05AF80A2008F0C0FC092008F088FC72
:10F1D000204608F084FD052008F087FD8D48FFF7E4
:10F1E000BEFC8C49486108618B4808F0AFFB8B4836
:10F1F00000688068BDE81040004710B5844A0446A6
:10F200000A211170012008F037F80A2008F09DFC4F
:10F21000082008F065FC204608F061FD052008F094
:10F2200064FD7C48FFF79BFC7A49486108617A4895
:10F2300008F08CFB794800688068BDE81040004702
:10F2400010B5734A04460B211170012008F014F820
:10F250000A2008F07AFC072008F042FC204608F05B
:10F260003EFD052008F041FD6A48FFF778FC69493A
:10F2700048610861684808F069FB68480068806870
:10F28000BDE81040004710B5614A04460C211170DA
:10F29000012007F0F1FF0B2008F057FC082008F0D0
:10F2A0001FFC204608F01BFD052008F01EFD5948F4
:10F2B000FFF755FC574948610861574808F046FB7D
:10F2C000564800688068BDE81040004710B5504AB5
:10F2D00004460D211170012007F0CEFF0B2008F02D
:10F2E00034FC072008F0FCFB204608F0F8FC052061
:10F2F00008F0FBFC4748FFF732FC464948610861CB
:10F30000454808F023FB454800688068BDE8104088
:10F31000004710B53E4A04460E211170012007F047
:10F32000ABFF0C2008F011FC082008F0D9FB2046A8
:10F3300008F0D5FC052008F0D8FC3648FFF70FFC94
:10F34000344948610861344808F000FB33480068DC
:10F350008068BDE81040004710B52D4A04460F21D3
:10F360001170012007F088FF0C2008F0EEFB072049
:10F3700008F0B6FB204608F0B2FC052008F0B5FC0A
:10F380002448FFF7ECFB234948610861224808F054
:10F39000DDFA224800688068BDE8104000472DE98A
:10F3A000F0411546024600201D4B0C4608704FF6F2
:10F3B000F276217850785F5CB84205D0491CC8B21B
:10F3C00020700428F5D33BE0C8B2042838D202F5F7
:10F3D000807009F02FFA80B2288011492278091D27
:10F3E00022B90F282CD831F8100028802078012865
:10F3F00007D128880F2823D80B2821D031F81000F6
:10F4000028802078022814D12888A0F10D0209E074
:10F410004C040020C8190020C0CA893648040020C6
:10F4200056AB0108022A0BD801EB400030F81A0C49
:10F4300028802078032809D1288820B1012802D00B
:10F440003046BDE8F08131F8100028800020F8E750
:10F4500000B58DB000210C910091007818B14FF6E5
:10F46000F2700DB000BDFE48018840F6E442514301
:10F47000FF22B1FBF2F141F268020C91514340F6D8
:10F48000E442B1FBF2F100910088CDE90001F5A260
:10F49000282102A80C9B09F021FE02A805F06EFFAE
:10F4A0000020DEE710B5007810B14FF6F27010BD05
:10F4B00002F013F97FB5044600784FF6F275032881
:10F4C00030D1F048006802282CD103AA02A92046B6
:10F4D000FFF765FF30BB04F2FF1009F0ABF910F045
:10F4E000FF0001D001281DD1BDF80C1000910021B2
:10F4F0008DF806108DF8071002228DF8052010B146
:10F50000012803D00EE08DF8041002E001208DF8F0
:10F5100004009DF8080040B101280DD0022815D044
:10F5200003281AD0284604B070BD01210846FDF713
:10F5300067FC6946D44805E001210220FDF760FC24
:10F540006946D248FDF7D8F90020ECE701210420F4
:10F55000FDF756FC6946CE48F4E701218020FDF70F
:10F560004FFC6946CB48EDE77CB5044600784FF682
:10F57000F27503281BD1C3480068022817D16A46D8
:10F5800001A92046FFF70BFF88B904F2FF1009F02C
:10F5900051F910F0FF0201D0012A08D19DF80400B2
:10F5A00038B1012809D002280ED0032810D02846EF
:10F5B0007CBDBDF80010B44802E0BDF80010B348AF
:10F5C000FDF703FA00207CBDBDF80010B048F7E756
:10F5D000BDF80010AF48F3E73EB5044600784FF69B
:10F5E000F275022812D1A748006802280ED16A4697
:10F5F00001A92046FFF7D3FE40B99DF8040038B1B9
:10F60000012809D002282CD003282ED028463EBD40
:10F61000BDF800109C4802E0BDF800109B48FDF7C3
:10F62000BCF90346AFF23C62042102A809F056FD82
:10F6300099A005F0A3FE601C05F0A0FE99A005F0BE
:10F640009DFE04F5807005F099FE96A005F096FEEB
:10F6500002A805F093FEAFF2287005F08FFE00209F
:10F660003EBDBDF800108A48D9E7BDF800108948B2
:10F67000D5E710B5007810B14FF6F27010BD06F066
:10F680009BFA002010BD70B501784FF6F27000298A
:10F690002FD1854C217800292BD184490978002964
:10F6A00027D183490978002923D1824E09254FF4B7
:10F6B00080718148356009F040F82A467FA17E4874
:10F6C00009F022F8012007F0D7FD07F029FA7E485B
:10F6D00000210170007807F0EDF907F0D8FA3088C2
:10F6E00081B27A480068026973489047012020700F
:10F6F000002070BD70B501784FF6F270002926D158
:10F70000694C2178002922D06949097800291ED145
:10F710006649097800291AD1664800254FF480719E
:10F720000560654809F009F8012007F08FFA07F035
:10F73000F7F9654801210170007807F0BBF907F07F
:10F74000BCFD62480068806880472570002070BD5D
:10F7500070B501784FF6F27501290BD1524909783D
:10F7600041B1401C09F066F8044659485949204403
:10F77000884201D3284670BD012007F067FA564839
:10F78000046007F0CDF907F082FA4A48008881B298
:10F790004E480068026948489047002070BD7CB51B
:10F7A00001784FF6F27000292BD13F4909780029E2
:10F7B00027D13E4E3178002923D03D4909780029D0
:10F7C0001FD13C4800244FF4807104603A4808F08F
:10F7D000B4FF424D2B68AFF2EC720721684609F086
:10F7E0007DFCAFF2F47005F0C9FD684605F0C6FD7A
:10F7F000AFF6C40005F0C2FD394804702C603470C7
:10F8000000207CBD2DE9F05F074600784FF6F274CA
:10F8100002286ED801286CD023490978F1B924490F
:10F820000978D9B9214E3178C1B92D49214D4FF40C
:10F83000807A4FF001084FF0000980B181F8009004
:10F84000781C08F0F7FF014626480160006828B1DF
:10F8500007F58070834608F07BFF45E049E04BE008
:10F8600030040020565F5042303D25642C20414436
:10F87000435F5042303D25642C205642543D256460
:10F880000A0D00003804002000000240000402407D
:10F8900000080240001C02404750494F5F5265611A
:10F8A000643D00002C0000001000002055040020E2
:10F8B0005404002040040020A40700204163736921
:10F8C0007057696E00000000940500204804002075
:10F8D000C08BD5F7C182A134D00500205804002088
:10F8E000560400205C0400202860071E01D0FF2F72
:10F8F0000ED92046BDE8F09F81F8008009245146CA
:10F90000F7482C6008F019FF2246AFF2500105E0DD
:10F910005146F34808F011FF3A465946F04808F0BE
:10F92000F3FE012007F0A8FC287808F029FAED483A
:10F93000FFF715F9EB4948610861EB49C1F8009000
:10F9400086F80080E9480068806880470020D1E799
:10F950007CB501784FF6F270002928D1E449097886
:10F96000002924D1E34E3178002920D0E2490978DA
:10F9700000291CD1E14800244FF480710460D8486C
:10F9800008F0DBFEDE4D2B68AFF6A01207216846BB
:10F9900009F0A4FBDBA005F0F1FC684605F0EEFCE5
:10F9A000AFF6742005F0EAFC2C60347000207CBDBA
:10F9B0002DE9F041044600784FF6F276012823D86D
:10F9C000DFF8308398F80000F0B9C9480078D8B95A
:10F9D000C9480078C0B9C94D00274FF48071C048AC
:10F9E0002F6008F0AAFE207810B1012805D012E09F
:10F9F0000922AFF238112A600AE0601C08F0A8FE64
:10FA0000286008B1FF2801D930461AE50246611C7A
:10FA1000B34808F079FE012007F02EFC287808F0A2
:10FA2000AFF9B048FFF79BF8AE4948610861B448A8
:10FA30000760012188F80010AC48006880688047A2
:10FA40000020FEE43EB5044600784FF6F27501282A
:10FA500036D1B1480068012808D1B048007828B1F3
:10FA6000601C08F075FE062814D106E0ACA005F075
:10FA700085FCB3A005F082FC22E0B948007820287C
:10FA800001D3B8A0F6E710220021601C08F09AFE0E
:10FA9000010E01D0B8A0EDE78DF80800010A8DF83D
:10FAA0000910000C8DF80A0000200090014601901A
:10FAB00002ABA522012004F025F808B100203EBDCC
:10FAC00028463EBDFEB5054600784FF6F274012883
:10FAD00042D191480068012808D19048007828B1A7
:10FAE000681C08F035FE062836D104E08CA005F02D
:10FAF00045FC93A033E010220021681C08F062FE50
:10FB0000010E29D1C5B2C0F307238DF80850C0F308
:10FB100007468DF809309E488DF80A6050F821207C
:10FB200042B11778AF4205D157789F4202D19278FF
:10FB3000B24204D0491CC9B22029EFD30EE02029DB
:10FB40000CD200200090019002ABB022012003F003
:10FB5000D9FF08B10020FEBD2046FEBD8DA005F0F6
:10FB60000DFCF9E72DE9FF5F05466B484FF00008F3
:10FB7000CDF80C80006801287ED168480078002804
:10FB80007AD028780028FBD0681C08F0E1FD062810
:10FB9000F2D110220021681C08F014FE0246000E6B
:10FBA000EAD17B4E002456F8240080B18178437856
:10FBB000090441EA032301788DF808100B434178CA
:10FBC0008DF8091080788DF80A009A4204D0641CE0
:10FBD000A4B2202CE7D336E1202CFCD256F8240026
:10FBE0000028F8D02878DFF8D091012807D005F553
:10FBF00080718B46022819D00328BDD14AE04746C0
:10FC0000CDF80080E1B202ABB5220120CDF804802E
:10FC100003F078FF0028B3D056F824002021001DFF
:10FC200008F08BFD56F824008784F6E00F4638462E
:10FC300008F08EFD3978C0B2222905D0384410F87A
:10FC4000010C22284AD0C3E0391811F8011C2229DE
:10FC500044D1811E8846042913DB56F82400202154
:10FC6000001D08F06AFDCDF8008056F824007B1CCA
:10FC7000202103AA001D00E0E2E002F004F868BBC6
:10FC8000CEE002282AD156F824002021001D08F0D9
:10FC900054FDC5E005F2FF17384608F059FD3978E4
:10FCA000C0B222291AD1391811F8011C222915D104
:10FCB000811E8A46042912DB56F824002021001DEB
:10FCC00008F03BFDCDF800A056F824007B1C03AAE9
:10FCD0002021001D01F0D7FF00B979E070E06DE050
:10FCE000A4070020C8190020580400204804002060
:10FCF000100000205404002055040020400400207F
:10FD0000500400204C6F726150565F5258726573F8
:10FD1000756C743D00000000380400203D04002094
:10FD200053797374656D204E4F5420696E204E6F69
:10FD3000726D616C206D6F64652C0D0A000000000F
:10FD40004F72204C6F7261206D6F64756C65204E30
:10FD50004F54204D61737465722E0D0A000000002F
:10FD6000840500204E6F6465206E756D626572209B
:10FD700066756C6C2E0D0A004164647220666F72A9
:10FD80006D6174206572726F722E0D0A00000000A2
:10FD9000C01600204E4F542074686973204E4F44A3
:10FDA0004520696E2041635369704C6F72614E65E6
:10FDB000742E0D0A0000000040170020022801D018
:10FDC000FEA041E056F824002021001D08F0B5FCFB
:10FDD000584608F02FFD56F82410474602AB888499
:10FDE000CDF80080E1B2B5220120CDF8048003F007
:10FDF00089FE28B356F82400808C70B1400808F0C2
:10FE0000BFFE41EC100B09F09BF951EC100B08F010
:10FE1000E3FE59F82410888002E059F82400878016
:10FE200004F0DDF804F0C8F8E9A005F0A7FA681CB2
:10FE300005F0A4FAE8A005F0A1FA002004B059E505
:10FE40004FF6F270FAE7EAA005F098FAF8E72DE924
:10FE5000F04194B0064600201390EE4800684FF63B
:10FE6000F278012811D1EC48007870B1307801287F
:10FE70000BD1701C08F06CFC062806D11022002162
:10FE8000701C08F09FFC010E02D0404614B0BCE587
:10FE9000E24F002457F8245045B1A9786A78090444
:10FEA00041EA02212A780A43904204D0641CA4B299
:10FEB000202CEFD33EE0202C3CD2002D3AD0402124
:10FEC00001A808F03AFC281D08F042FC10F0FF00E1
:10FED0000BD0009057F8243013AA282101A81B1D2D
:10FEE00001F04CFE08B1B5A025E057F82400CCA2E3
:10FEF0000621838C11A809F0F1F8B5A005F03EFAAF
:10FF0000701C05F03BFAC7A005F038FA11A805F0FF
:10FF100035FAC7A005F032FA139909B101A801E03A
:10FF20000121C3A005F028FAAFF6FC7005F026FA0F
:10FF30000020ABE7AEA005F021FAA6E72DE9F041DD
:10FF4000B449C0B005460A68B3484FF6F278012AB2
:10FF5000007800D118B10968012938D08DE02878DF
:10FF6000012807D0B3A005F009FABAA005F006FAF7
:10FF7000BEA008E0C348006820B1C34C2078002828
:10FF800077D103E0C1A005F0F9F972E0F421C4488B
:10FF900008F0D3FB6E1C681C08F0DAFBC0B20090BE
:10FFA00033463FAAF421BE4801F06DFEBD4D002648
:10FFB00030B1F421BA4808F0C0FB6E70267058E0EA
:10FFC0003F98F428F5D86870012020704EE0002892
:10FFD00053D02878022807D096A005F0CFF9B2A018
:10FFE00005F0CCF9B7A0CEE7681C08F0B1FB0628F5
:10FFF00001D0BAA0C7E710220021681C08F0E2FB7C
:020000040801F1
:100000000146000E35D1854E002456F8240040B13B
:10001000827843781204007842EA03221043814236
:1000200004D0641CE4B2202CEFD324E0202C22D294
:1000300005F58070054608F08BFBC7B2F42102A8D5
:1000400008F07BFB2B463FAAF42102A8009701F0A1
:100050001AFE70B93FA902A8CDE9000156F8243074
:10006000AF222146012003F04DFD10B1002040B029
:10007000CBE44046FBE75EA085E7AFF25C3082E769
:100080007CB5017800244FF6F270002941D1614916
:10009000096801293DD160490978002939D05F4EAE
:1000A000002056F8201009B1641CE4B2401CC0B214
:1000B0002028F6D395A005F061F9234658A2052122
:1000C000684609F00BF8684605F058F958A005F0A5
:1000D00055F9D4B1002556F8250090B1022456F800
:1000E00025008CA20521035D684608F0F7FF6846ED
:1000F00005F044F9641E64B2002CF0DA4CA005F05F
:100100003DF96D1CEDB2202DE5D351A005F036F977
:1001100000207CBD7CB501784FF6F270002922D119
:100120003C49096801291ED13B49097800291AD1A7
:10013000544D2868C0B179A005F020F9032428683F
:1001400074A22044052110F8013C684608F0C6FF5F
:10015000684605F013F9641E64B2002CEFDC3CA085
:1001600005F00CF900207CBD71A005F007F9F6E759
:1001700010B501784FF6F27000290AD125490968B7
:10018000012906D124490978002902D104F087F910
:10019000002010BD10B5017800244FF6F270002940
:1001A0000AD11C490968012906D11B49097800298F
:1001B00002D104F0F2F9C7E0CCE00000416C6961C3
:1001C000736573206572726F722E0D0A0000000055
:1001D0004E6F64653D0000002073657474696E673E
:1001E00020535543434553534544210D0A00000015
:1001F00054686973204E4F4445204E4F5420696E19
:100200002041635369704C6F72614E65742E0D0A04
:1002100000000000380400203D040020C01600202B
:1002200025750000204556543D4765744E6F646542
:10023000200000005468697320436F6D6D616E6427
:1002400020696E204E6F726D616C204D6F64652E5B
:100250000D0A00004C6F7261206D6F64756C652033
:10026000697320536C6176652E0D0A004E656564D6
:10027000206F6E6520706172616D657465722E0D00
:100280000A0000008C0500203F0400204E4F204C47
:100290006F7261476174655761792E0D0A00000025
:1002A00020060020100000204C6F7261206D6F64EA
:1002B000756C65206973204D61737465722E0D0A2B
:1002C000000000004E6565642074776F20706172D5
:1002D000616D657465722E0D0A0000004C6F7261CD
:1002E000206E6F64652061646472657373206C6551
:1002F0006E677468204E4F5420455155414C20364E
:1003000042797465732E0D0A000000004E6F64651B
:10031000733D000025303278000000004C6F7261A0
:1003200047617465576179416464723D0000000063
:100330004C6F726147617465576179416464723DC5
:100340004E554C4C00000000F94800BF641C84422C
:10035000FBD3002010BD7CB5007810B14FF6F270D1
:100360007CBD05F069FE0546F2A005F007F8032400
:10037000281910F8013CAFF264020521684608F024
:10038000ADFE684604F0FAFF641E64B2002CEFDC98
:10039000AFF2441004F0F2FF00207CBD1CB50178E0
:1003A0004FF6F27000291CD1E5490968012918D1DE
:1003B000E4490978002914D1E348006890B1838C9E
:1003C000AFF2A4120621684608F088FEDFA004F010
:1003D000D5FF684604F0D2FFAFF28C1004F0CEFFD8
:1003E00000201CBDDDA004F0C9FFE1A0F6E730B598
:1003F000007887B018B14FF6F27007B030BD03A88F
:1004000002F05EFEDFA004F0B9FF022403ADDFA21C
:1004100055F824300921684608F060FE684604F06B
:10042000ADFF641E64B2002CF1DAD5A004F0A6FF83
:100430000020E2E710B5007810B14FF6F27010BD61
:10044000D4A004F09BFFD8A004F098FFDAA004F039
:1004500095FFDBA004F092FFC9A004F08FFF0020FD
:1004600010BD10B501784FF6F27000290FD1B449D4
:100470000A68012A0CD00A68022A0BD00A685AB10D
:100480000968032903D1D0A004F078FF002010BD33
:10049000D5A0F9E7DCA0F7E7E6A0F5E710B500780E
:1004A00010B14FF6F27010BDA648007808B1EBA06D
:1004B00000E0EFA004F062FF002010BD3EB5007820
:1004C00010B14FF6F2703EBD07F05BFA0346EDA2A5
:1004D0000B21684608F002FEEBA004F04FFF6846CF
:1004E00004F04CFFECA004F049FF07F00DFB0346BD
:1004F000E4A20B21684608F0F1FDE8A004F03EFFFD
:10050000684604F03BFFE4A004F038FF07F048FB26
:100510000346DCA20B21684608F0E0FDE0A004F0F1
:100520002DFF684604F02AFFDBA004F027FF07F048
:100530005AFB0346D3A20B21684608F0CFFDD9A091
:1005400004F01CFF684604F019FFD3A004F016FF66
:1005500007F0A0FA0346CBA20B21684608F0BEFDC7
:10056000D4A004F00BFF684604F008FFCAA004F012
:1005700005FF07F0B7FB0446D1A004F0FFFE64B10D
:1005800007F0C0FB0346BFA20B21684608F0A6FD9A
:10059000CEA004F0F3FE684600E0CEA004F0EEFE2C
:1005A000BDA004F0EBFE07F086FB0446CBA004F0F0
:1005B000E5FE0CB1CDA000E0CFA004F0DFFEB6A0B8
:1005C00004F0DCFE07F055FB0446CEA004F0D6FE96
:1005D0000CB1CEA000E0CEA004F0D0FEAEA004F09E
:1005E000CDFE07F038FBC3B2A6A20B21684608F087
:1005F00075FDC8A004F0C2FE684604F0BFFEA6A0C8
:1006000004F0BCFE07F0C9FB03469EA20B2168461E
:1006100008F064FDC3A004F0B1FE684604F0AEFE2D
:100620009DA004F0ABFE07F09EFB034695A20B21B4
:10063000684608F053FDBFA004F0A0FE684604F031
:100640009DFE95A004F09AFE07F06CFB03468DA278
:100650000B21684608F042FDBBA004F08FFE6846FF
:1006600004F08CFE8CA004F089FE07F06CFB0346BE
:1006700084A20B21684608F031FDB8A004F07EFE8C
:10068000684604F07BFE3EA004F078FE00203EBDEC
:1006900010B500784FF6F27408B1204610BDB4488A
:1006A000417F29B1012905D0B2A004F067FEF4E72B
:1006B000B6A000E0BBA004F061FE002010BD0EB5A6
:1006C000007810B14FF6F2700EBD07F05AF90346EC
:1006D0006CA20B21684608F001FD6BA004F04EFEF1
:1006E000684604F04BFE26A004F048FE00200EBD34
:1006F0000EB5007810B14FF6F2700EBD07F023FB77
:10070000034660A20A21684608F0E8FC93A004F0C2
:1007100035FE684604F032FE19A004F02FFE0020DA
:100720000EBD0EB5007810B14FF6F2700EBD43E16C
:10073000400D03004C6F72614D79416464723D005D
:10074000380400203D0400208C0500204C6F7261AD
:100750004D79496E74657276616C3D004C6F7261C3
:10076000476174655761793D4E554C4C200000003F
:100770004C6F72614D79496E74657276616C3D3073
:100780000D0A0000555549443D00000025303878D9
:10079000000000004669726D77617265566572737C
:1007A000696F6E3D00000000312E322E323031363E
:1007B0002E3132303500000020666F7220000000BC
:1007C000535831323736000053797374656D4F706A
:1007D00065726174696F6E4D6F64653D496E496401
:1007E0006C650D0A0000000053797374656D4F70DD
:1007F00065726174696F6E4D6F64653D496E4E6FD1
:10080000726D616C0D0A000053797374656D4F70E1
:1008100065726174696F6E4D6F64653D496E5072AB
:100820006F64756374566572696669636174696F34
:100830006E0D0A0053797374656D4F706572617443
:10084000696F6E4D6F64653D496E50696E67506F9C
:10085000676E546573740D0A000000004C6F72617E
:100860004D6F64653D4D41535445520D0A000000E3
:100870004C6F72614D6F64653D534C4156450D0A96
:1008800000000000256400005246467265717565DF
:100890006E63793D000000002020000042573D00BB
:1008A00053463D004572726F72436F64696E673DD7
:1008B000000000005246506F7765723D0000000056
:1008C00046726571486F704F6E3D000074727565B9
:1008D0000000000066616C7365000000486561649B
:1008E00065725374617475733D000000496D706CDE
:1008F00069636974000000004578706C696369740D
:10090000000000004352433D000000004F4E000035
:100910004F464600507265616D626C654C656E674E
:1009200074683D005061796C6F61644C656E6774EA
:10093000683D00004D61785061796C6F61644C6571
:100940006E6774683D00000054785061636B657495
:1009500054696D656F75743D0000000052785061F8
:10096000636B657454696D656F75743D00000000BC
:10097000C819002052464F7363696C6C61746F72C2
:100980003D556E4B6E6F776E0000000052464F7300
:1009900063696C6C61746F723D4372797374616CDE
:1009A0000000000052464F7363696C6C61746F7293
:1009B0003D5443584F00000007F0B4F90346AFF22E
:1009C0003C120A21684608F089FBAFF2840004F06B
:1009D000D5FC684604F0D2FCAFF25C2004F0CEFCFB
:1009E0000020A3E608B5007810B14FF6F27008BDFC
:1009F00007F050F80346AFF274120421684608F07D
:100A00006DFBAFF2501004F0B9FC684604F0B6FC80
:100A1000AFF2942004F0B2FC002008BD1CB50078B1
:100A200010B14FF6F2701CBD07F015F9C3B2AFF26A
:100A3000AC120621684608F051FBAFF2281004F012
:100A40009DFC684604F09AFCAFF2CC2004F096FCC2
:100A500000201CBD00B5007889B018B14FF6F270C7
:100A600009B000BD07F099F90346FAA220216846B3
:100A700008F034FB684604F081FC07F074F9034683
:100A8000F9A22021684608F029FB684604F076FCAC
:100A90000020E5E710B5007810B14FF6F27010BDF8
:100AA00007F0E7F80446AFF2A41004F067FC14B1B5
:100AB000AFF2A81001E0AFF2A81004F05FFCEFA0C5
:100AC00004F05CFC002010BD10B5007810B14FF6AA
:100AD000F27010BD07F0EFF80446AFF2002004F00A
:100AE0004DFC14B1AFF2FC1001E0AFF2F41004F0D1
:100AF00045FCE2A004F042FC002010BD38B50078AF
:100B000010B14FF6F27038BD07F0ECF80446AFF2C2
:100B1000502004F033FC74B107F0F4F80346AFF250
:100B20009C220421684608F0D9FAAFF2602004F054
:100B300025FC684601E0AFF2642004F01FFCCFA062
:100B400004F01CFC002038BD1CB5007810B14FF635
:100B5000F2701CBD07F047F80346AFF2D822062119
:100B6000684608F0BBFAAFF2C42004F007FC684600
:100B700004F004FCC1A004F001FC00201CBD1CB565
:100B8000007810B14FF6F2701CBD07F009F803466B
:100B9000AFF210320621684608F0A0FAAFF200303A
:100BA00004F0ECFB684604F0E9FBB4A004F0E6FBBB
:100BB00000201CBD1CB5007810B14FF6F2701CBDB2
:100BC00006F0A2FF0346AFF244320621684608F061
:100BD00085FAAFF2383004F0D1FB684604F0CEFB62
:100BE000A6A004F0CBFB00201CBD1CB5007810B102
:100BF0004FF6F2701CBD06F008FC0346AFF27C32E3
:100C00000621684608F06AFA9DA004F0B7FB684622
:100C100004F0B4FB99A004F0B1FB00201CBD1CB58E
:100C2000007810B14FF6F2701CBD06F0F1FB0346E0
:100C3000AFF2B0320521684608F050FA92A004F0F5
:100C40009DFB684604F09AFB8CA004F097FB002003
:100C50001CBD1FB5007818B14FF6F27004B010BD7E
:100C600006F0DAFB8DED000B89A2082102A808F03E
:100C700035FA89A004F082FB02A804F07FFB7FA074
:100C800004F07CFB0020E9E710B5007810B14FF6C6
:100C9000F27010BDFEF7B8F82DE9F0470446007871
:100CA0004FF6F279012818D17DA1601C07F057FD9D
:100CB0007E4E7F4DA0B17FA1601C07F050FD4FF02C
:100CC00000080927D8B17DA1601C07F048FD00B3DA
:100CD0007CA1601C07F043FD60B34846BDE8F08787
:100CE00001203060FF2028767848007810B103F0AA
:100CF000C8FA17E003F074FA03F076FB10E0FEF791
:100D00005AF8FEF748F8022030602F7685F80B80FD
:100D100006E0FEF750F8FEF73EF8C6F800802F76A2
:100D200004F012FCFEF77EF86148FDF718FF6861D9
:100D3000286107E0FEF73FF8FEF72DF8032030604A
:100D400004F002FC0020C9E770B5044600784FF6B5
:100D5000F275012809D15EA1601C07F000FD30B1D9
:100D60005DA1601C07F0FBFC10B1284670BD01209E
:100D7000FEF794F803F033F903F01EF9002070BD7C
:100D800070B5044600784FF6F275012809D150A1DC
:100D9000601C07F0E4FC30B14FA1601C07F0DFFCE1
:100DA00010B1284670BD0120FEF79BF803F017F93B
:100DB00003F002F9002070BD70B5044600784FF6CC
:100DC000F275012809D142A1601C07F0C8FC30B1BE
:100DD00041A1601C07F0C3FC10B1284670BD012082
:100DE000FEF716F903F0FBF803F0E6F8002070BDFB
:100DF00070B5044600784FF6F275012809D134A188
:100E0000601C07F0ACFC30B133A1601C07F0A7FCFC
:100E100010B1284670BD0120FEF71DF903F0DFF880
:100E200003F0CAF8002070BD70B5044600784FF694
:100E3000F275012809D126A1601C07F090FC30B1A1
:100E400025A1601C07F08BFC10B1284670BD47E05F
:100E500047E000005061796C6F61644C656E6774A7
:100E6000683D2025642C20004D61785061796C6FBD
:100E700061644C656E6774683D2025640D0A00004E
:100E800052784761696E3D00534E523D00000000AC
:100E900025332E3266000000525353493D000000B6
:100EA000696E4E6F726D616C0000000038040020A6
:100EB000C8190020696E505600000000696E544445
:100EC00000000000696E49646C6500003D0400206C
:100ED000486F704F6E000000486F704F66660000EC
:100EE0000120FEF7DBF803F07AF803F065F8002044
:100EF000ACE770B5044600784FF6F27501280BD1C7
:100F0000AFF23401601C07F02AFC38B1AFF23801AF
:100F1000601C07F024FC10B1284697E70120FEF77B
:100F2000E0F803F05CF803F047F800208EE770B5B6
:100F3000044600784FF6F27501280BD1AFF270012C
:100F4000601C07F00CFC38B1AFF27401601C07F0B4
:100F500006FC10B1284679E70120FEF7E5F803F01A
:100F60003EF803F029F8002070E770B504460078D9
:100F70004FF6F27501280BD1AFF2AC01601C07F0FF
:100F8000EEFB38B1AFF2B001601C07F0E8FB10B126
:100F900028465BE70120FEF7EAF803F020F803F0AB
:100FA0000BF8002052E770B5044600784FF6F27552
:100FB00001280BD1AFF2E801601C07F0D0FB38B17B
:100FC000AFF2EC01601C07F0CAFB10B128463DE708
:100FD0000120FEF7EFF803F002F802F0EDFF002029
:100FE00034E770B5044600784FF6F27501280BD14E
:100FF000AFF22411601C07F0B2FB38B1AFF2281138
:10100000601C07F0ACFB10B128461FE70120FEF77B
:10101000F4F802F0E4FF02F0CFFF002016E770B50D
:10102000044600784FF6F27501280BD1AFF260113B
:10103000601C07F094FB38B1AFF26411601C07F03C
:101040008EFB10B1284601E70120FEF7F9F802F007
:10105000C6FF02F0B1FF0020F8E670B50446007844
:101060004FF6F27501280BD1AFF29C11601C07F00E
:1010700076FB38B1AFF2A011601C07F070FB10B125
:101080002846E3E60120FEF7FEF802F0A8FF02F092
:1010900093FF0020DAE670B5044600784FF6F2754B
:1010A00001280BD1AFF2D811601C07F058FB38B102
:1010B000AFF2DC11601C07F052FB10B12846C5E608
:1010C0000120FEF703F902F08AFF02F075FF00200D
:1010D000BCE670B5044600784FF6F27501280BD1D6
:1010E000AFF21421601C07F03AFB38B1AFF21821BF
:1010F000601C07F034FB10B12846A7E60120FEF77C
:1011000008F902F06CFF02F057FF00209EE670B570
:10111000044600784FF6F27501280BD1AFF250214A
:10112000601C07F01CFB38B1AFF25421601C07F0C3
:1011300016FB10B1284689E60120FEF70DF902F0F2
:101140004EFF02F039FF002080E670B501784FF6BF
:10115000F275012908D1401C07F06CFB0446FB48DE
:10116000FB492044884201D328466FE6012006F05F
:1011700083F8204606F0EAFBF6480068806880475E
:10118000002063E610B50178012902D04FF6F27015
:1011900010BD401C07F04EFBC4B2092C00D9092435
:1011A000012006F069F8204606F09AFCEA48FDF7AF
:1011B000D6FCE94948610861E648006880688047D4
:1011C000002010BD10B50178012902D04FF6F27051
:1011D00010BD401C07F02EFBC4B20C2C01D90C240E
:1011E00002E0062C00D20624012006F045F8204635
:1011F00006F0ABFCD848FDF7B2FCD749486108615E
:10120000D448006880688047002010BD10B5017880
:10121000012902D04FF6F27010BD401C07F00AFB06
:10122000C4B2042C01D9042401E004B90124012032
:1012300006F022F8204606F0C0FCC748FDF78FFCF8
:10124000C54948610861C34800688068804700203C
:1012500010BD70B5044600784FF6F27501280DD127
:1012600006F00AF8AFF65C11601C07F078FA38B1A6
:10127000AFF66411601C07F072FA10B12846E5E57C
:10128000012006F02CFDB54806F060FBFDF7CAFD15
:1012900002F0A5FE02F090FEAE480068806880472C
:1012A0000020D3E570B501784FF6F275012905D11C
:1012B000401C07F0BFFA84B2FF2C01D92846C5E5CF
:1012C000012005F0D9FF84B1012006F008FDE0B24D
:1012D00006F00BFDA14806F039FBFDF7A3FD9D4884
:1012E0000068806880470020B0E5002006F0F7FC29
:1012F000F0E770B5044600784FF6F27501280BD17F
:1013000005F0BAFF96A1601C07F029FA30B196A14A
:10131000601C07F024FA10B1284697E5012006F07A
:10132000B6FC8D48FDF71BFC8B4948610861894874
:10133000006880688047002088E570B50446007822
:101340004FF6F27501280BD105F096FF84A1601CC1
:1013500007F005FA30B184A1601C07F000FA10B163
:10136000284673E5012006F04CFC7B48FDF7F7FBAF
:1013700079494861086177480068806880470020A3
:1013800064E510B50178012902D04FF6F27010BD66
:10139000401C07F04FFA10F0FF0400D10124012097
:1013A00005F06AFF204606F0EBFC6B48FDF7D7FB23
:1013B00069494861086102F012FE66480068806869
:1013C0008047002010BD10B50178012902D04FF6EA
:1013D000F27010BD401C07F02DFA10F0FF0400D190
:1013E0000124012005F048FF204606F0AFFC5A48D2
:1013F000FDF7B5FB58494861086102F0F0FD55481A
:10140000006880688047002010BD10B50178012970
:1014100002D04FF6F27010BD401C07F00BFA84B2F8
:10142000062C00D20624012005F026FF204606F0F7
:10143000FDFB4948FDF793FB474948610861454872
:10144000006880688047002010BD2DE9F041044607
:1014500000784FF6F276012822D14548006801282D
:101460001ED144A1601C07F07AF9444D20B92878B8
:1014700010B10020BDE8F08141A1601C07F06FF9B8
:1014800029780843F6D002F0AAFD3AA1601C07F0C3
:1014900066F9002730B13AA1601C07F060F940B14D
:1014A0003046E7E701202870FDF775FC02F0E9FE01
:1014B00008E02F70FDF77FFC02F092FE02F094FF2F
:1014C00004F042F83048078002F076FDFDF7AAFCF0
:1014D000CFE770B5044600784FF6F27501280AD1BF
:1014E0001FA1601C07F03BF9284E30B11EA1601C03
:1014F00007F035F910B12846A8E401203070FDF757
:1015000091FC0020A2E470B501784FF6F275012934
:1015100006D1401C07F08EF9C4B2601F102801D319
:10152000284693E4012005F0A7FE112C01D90120E3
:1015300000E0002006F03EFC60B206F044FA0548E8
:10154000006880688047002080E40000C08BD5F7E9
:10155000C182A13448040020C8190020C0CA8936BD
:10156000454E41424C45000044495341424C4500E0
:10157000380400204D415354455200003D040020E2
:10158000534C415645000000D60400203C04002086
:10159000007810B14FF6F27070475649012008707C
:1015A00000207047007810B14FF6F2707047514933
:1015B00000200870704710B54FA003F0DFFE01F067
:1015C00042FB002010BD10B54FA003F0D7FE002055
:1015D00010BD10B50178012902D04FF6F27010BD90
:1015E000401C07F027F910F0FF0000D0012000F0A8
:1015F00043FA002010BD10B50178012902D04FF642
:10160000F27010BD401C07F015F9C4B2214601204C
:1016100000F05FFA204603F002FF002010BD08B57D
:101620000178012902D04FF6F27008BD401C07F086
:1016300001F9ADF80000684603F01EFC002008BD6B
:1016400008B50178012902D04FF6F27008BD401CA0
:1016500007F0F0F8ADF80000684603F07AFC0020CF
:1016600008BD00B5A1B06946002000F05BFA6F220A
:1016700001200DF1010100F032FA27A003F07EFEF7
:101680007021684603F085FE21B0002000BD00B542
:1016900091B001F01FFD034626A24021684607F0E5
:1016A0001DFD684603F06AFE01F025FD034627A2F2
:1016B0004021684607F012FD684603F05FFE01F026
:1016C00035FD034626A24021684607F007FD68461F
:1016D00003F054FE11B0002000BDBFF34F8F25482A
:1016E0000168254A01F4E06111430160BFF34F8FA7
:1016F000FEE70000140500200D0A74657374507233
:10170000696E74310D0A00000D0A746573745072AD
:10171000696E74320D0A00000D0A2044756D7069FF
:101720006E67204C6F7261205265677369737465D0
:10173000720D0A000D0A4465766963652049443AD2
:101740003078253038580D0A00000000446576696D
:101750006365205244503A3078253038580D0A00DD
:10176000446576696365205752503A3078253038A1
:10177000580D0A000CED00E00400FA05401EB0F11F
:10178000807F01D3012070474FF0E02148611C4A5F
:10179000F02082F8140D00208861072008610020E5
:1017A0007047184810B500684FF47A71B0FBF1F03B
:1017B000FFF7E4FF00B1FEE7BDE8104000F026B8F7
:1017C000104810B500681421B0FBF1F0FFF7D6FF08
:1017D00000B1FEE7BDE8104000F07BB80A490A6896
:1017E0000B689B1A8342FBD370474FF47A7110FB4E
:1017F00001F20548016803685B1A9342FBD3704706
:101800000FE000E0E00400202C040020F0B5534E6F
:1018100087B000213046FCF79FF935140021284697
:10182000FBF702FB3046FCF7CDF801210220FBF765
:10183000E7FA01212846FBF7F7FA494F05220D2167
:101840003846FBF7CDF805220F213846FBF7C8F8DC
:1018500005220E213846FBF7C3F802208DF8190047
:101860008DF8180000248DF81A408DF81B00000335
:10187000059005A93846FBF73FF86800059005A9D3
:101880003846FBF739F805A938460595FBF734F8D3
:10189000ADF800404FF48270ADF80200ADF808409A
:1018A0006811ADF80A001820ADF80C000720ADF85B
:1018B0000440ADF81000ADF80640ADF80E406946A2
:1018C0003046FCF7B5F801213046FCF745F907B082
:1018D000F0BD7CB5214D00212846FCF73DF92C14C4
:1018E00000212046FBF7A0FA2846FCF76BF80221FE
:1018F0008DF8051003218DF8041001218DF80610D4
:1019000000208DF807004803154D009069462846D1
:10191000FAF7F2FF6000009069462846FAF7ECFFFC
:10192000694628460094FAF7E7FF7CBD70B50B4C7A
:10193000054602212046FCF7A2F90028F9D02946E5
:101940002046FCF76FF901212046FCF798F90028A2
:10195000F9D02046FCF764F9C0B270BD00380040F1
:10196000000402407CB501210220FBF749FA012066
:101970008DF8040000218DF806108DF8070004038F
:101980007B4D8DF80510694628460094FAF7B4FFA0
:10199000012221462846FBF718F8640069462846CC
:1019A0000094FAF7A9FF012221462846FBF70DF81B
:1019B0006400694628460094FAF79EFF01222146FA
:1019C0002846FBF702F86400694628460094FAF7B7
:1019D00093FF012221462846FAF7F7FF7CBD2DE947
:1019E000FC4101210720FBF70BFA01208DF80400D0
:1019F00000278DF806708DF8070000025D4E022466
:101A000000908DF8054069463046FAF775FFDFF81B
:101A10006081E502694640460095FAF76DFF0122B4
:101A200029464046FAF7D1FF20208DF80470009037
:101A30008DF8054069464046FAF75EFF6502694643
:101A400030460095FAF758FF20020090694630466C
:101A5000FAF752FF694640460095FAF74DFF69468E
:101A600040460094FAF748FF200300906946424838
:101A7000FAF742FFBDE8FC813E4B4FF4807101282C
:101A800003D000221846FAF7A0BF0122FAE72DE999
:101A9000F041DFF8DC8015460E4604464FF48057CF
:101AA000002239464046FAF790FF44F08000FFF7E5
:101AB0003DFF002404E0305DFFF738FF641CE4B212
:101AC000AC42F8D339464046BDE8F0410122FAF76E
