:020000040800F2
:10C0000088390020BDEC0008291D01082B1D0108FE
:10C010000000000000000000000000000000000020
:10C02000000000000000000000000000331D0108B7
:10C030000000000000000000351D0108371D010848
:10C04000EDEC0008EDEC000827490108EDEC0008D4
:10C05000EDEC000895460108EDEC0008C546010826
:10C06000EDEC0008EDEC0008EDEC0008EDEC00084C
:10C07000EDEC0008EDEC0008EDEC0008EDEC00083C
:10C08000EDEC0008EDEC0008EDEC00085954010857
:10C09000EDEC0008EDEC0008EDEC0008EDEC00081C
:10C0A000EDEC0008EDEC0008EDEC00082758010865
:10C0B0003B560108EDEC0008EDEC0008EDEC000843
:10C0C000034885460DF042FA00480047352F010825
:10C0D00088390020864910B5884208D144150121CD
:10C0E000204601F07AF80021204601F076F810BDD4
:10C0F00030B5C2687F4B8C681A400B680D792343BA
:10C10000CC686D032C4323430C69496923430B43DB
:10C110001343C36030BD0021016001718160C160C3
:10C120000161416170470029816801D0012200E06E
:10C13000022211438160704701617047002A026941
:10C1400001D00A4300E08A43026170470122D20312
:10C150000029C16801D0114300E09143C1607047DC
:10C16000012292030029C16801D0114300E09143EC
:10C17000C16070470122D2050029C16801D0114376
:10C1800000E09143C16070470904114301627047A8
:10C19000C2681F239B069A430A43C260704701226C
:10C1A00092050029C16801D0114300E09143C160AC
:10C1B000704701225049D2050028886801D01043F9
:10C1C00000E090438860704701224B4992050028A7
:10C1D000886801D0104300E09043886070470122D6
:10C1E000454912060028886801D0104300E09043BA
:10C1F00088607047836A0B43836242617047012203
:10C2000052030029C16801D0114300E09143C1608D
:10C210007047012212040029C16801D0114300E0D7
:10C220009143C1607047012212030029C16801D007
:10C23000114300E09143C1607047826800210123EF
:10C24000DB071A4382600F231B038268491CD20F4D
:10C25000D207994201D0002AF7D18168002901DB79
:10C26000006C704700207047816810221143816084
:10C27000704781680422114381607047006C80B26E
:10C2800070470029C16802D00122114301E049082A
:10C290004900C1607047C26802239A43C260C26805
:10C2A0000A43C2607047002A426801D00A4300E096
:10C2B0008A434260704702460020CB0104D5926851
:10C2C00001231B069A4300E012680A4200D00120B5
:10C2D00070470160704702465368002012680B40A7
:10C2E0000A4202D0002B00D0012070470160704745
:10C2F0000024014003D2FFFF00270140F0B5016890
:10C300006A4A114001600021016041608160C160A2
:10C310006749674A08390F2390422DD0644AF024B8
:10C32000143290422FD0624A1D022832904231D0FE
:10C330005F4E1A033C36B04203D1486815E04860AE
:10C34000F0BD5B4F0F2650373604B8422DD0584F02
:10C350006437B84202D14868320106E0544F78375A
:10C36000B84204D148680F2212061043E7E751494A
:10C37000504F0839B84202D148681843DFE74D4BA7
:10C380001433984202D148682043D8E7494B2833F8
:10C39000984202D148682843D1E7464B3C33984243
:10C3A000CBD0444A50329042CAD148683043C6E7A5
:10C3B00030B50368404A0C6A13408A684D692243CD
:10C3C0000C692C4322438C692243CC6922434C6A7A
:10C3D00022438C6A22431A430260CA6842600A6898
:10C3E00082604968C16030BD0021016041608160A8
:10C3F000C160016141618161C1610162416281622B
:10C4000070470029016802D00122114301E0274A48
:10C4100011400160704710B58030826A0B0F9C009C
:10C420000F23A3409A438262826A090109090A43E1
:10C43000826210BD41607047406880B27047002A38
:10C44000026801D00A4300E08A4302607047024656
:10C450000020D10002D51749083901E014490839F4
:10C460000968114200D001207047C10002D511496E
:10C47000083901E00E49083948607047024600203B
:10C48000D10002D50B49083901E00949083909688A
:10C49000114200D001207047C10002D5054908397A
:10C4A00001E003490839486070470000FEFF0000C2
:10C4B00008000240080402400F80FFFF30482F4967
:10C4C0000160002141608160C1602E494161704777
:10C4D00010B583792A490268002B26D00B68934354
:10C4E0000B604A6803689A434A60027952181368DD
:10C4F0000468234313608A6803689A438A60CA68A1
:10C5000003689A43CA604279102A05D051180A6814
:10C51000006802430A6010BD8A6803681A438A6093
:10C52000CA6800680243CA6010BD007940180168FB
:10C530009143016010BD0021016001710C22427124
:10C54000817170470E490A6902430A6170470C4ABB
:10C550000146526900200A4200D001207047084974
:10C5600048617047064A0146526900200A4200D0DD
:10C570000120704702494861704700000000940F95
:10C5800000040140FFFF6B00FE4A116849084900A2
:10C59000014311607047FB4910220028086801D050
:10C5A000104300E0904308607047F6490020096896
:10C5B000890600D501207047F2480169090603D5B4
:10C5C000F1494160F14941607047EE4801698022BC
:10C5D000114301617047EB490420CA68D20701D0BA
:10C5E00001207047CA68D20601D502207047C96889
:10C5F0004907FBD50320704700B50346FFF7EBFF63
:10C6000002E0FFF7E8FF5B1E012803D0002B00D1FA
:10C61000052000BD002BF4D1FAE7F0B50B27064644
:10C620003F043846FFF7E8FF04280FD1D54C2069B6
:10C63000022528432061666120694021084320616A
:10C640003846FFF7D9FF2169A9432161F0BD70B5D4
:10C650000B252D042846FFF7CFFF04280ED1C94C27
:10C66000206904263043206120694021084320616D
:10C670002846FFF7C1FF2169B143216170BDF8B5BC
:10C68000064600200B273F0400900D463846FFF772
:10C69000B3FF042815D1BB4C206901210843206158
:10C6A00035803846FFF7A8FF042806D1B61C290CB0
:10C6B000009631803846FFF79FFF216949084900FD
:10C6C0002161F8BDF0B50B2706463F040D463846FC
:10C6D000FFF792FF04280CD1AA4C206901210843DE
:10C6E000206135803846FFF787FF216949084900F6
:10C6F0002161F0BDA3480169890503D4A249816085
:10C70000A249816070479F480169421591430161C8
:10C7100070479C480169012252031143016170472F
:10C7200098490020C9694907890F00D00120704746
:10C73000F0B5AA24FFF7F4FF002800D000240B274F
:10C740003F043846FFF758FF042813D18D4D286960
:10C750002026304328612869402108432861384653
:10C76000FFF74AFF1021042805D0052802D02A69C6
:10C770008A432A61F0BD2869B043286128690E46C2
:10C7800030432861824804803846FFF735FF05288A
:10C79000F0D02969B1432961F0BDF0B5C04301046F
:10C7A0000E0E0102C7B2040E0B200D0E0004FFF79F
:10C7B00023FF042831D173490A6910231A430A61FF
:10C7C000FF2F07D0724807810B200004FFF714FFEA
:10C7D00004281BD1FF2E07D06D4846810B20000492
:10C7E000FFF70AFF042811D1FF2D07D06848858183
:10C7F0000B200004FFF700FF042807D1FF2C07D00F
:10C800006348C4810B200004FFF7F6FE052804D01E
:10C810005C490B69102293430B61F0BDF0B50B2707
:10C8200006463F043846FFF7E7FE04281ED1554C64
:10C830002069202528432061206940210843206188
:10C840003846FFF7D9FE04280BD12069A8432061A0
:10C8500020691025284320614D4806803846FFF79F
:10C86000CBFE052802D02169A9432161F0BDF0B5B6
:10C8700006460B2094460F460004FFF7BDFE042831
:10C8800014D1404C20691025284320613E43604666
:10C890000643F82006433E4846800B200004FFF77D
:10C8A000ABFE052802D02169A9432161F0BDF0B596
:10C8B0000B2706463F043846FFF79EFE042810D19A
:10C8C000304C2069102528432061EF200643304872
:10C8D00046803846FFF790FE052802D02169A9431B
:10C8E0002161F0BDF0B50B2706463F043846FFF73F
:10C8F00083FE042810D1234C206910252843206191
:10C90000F7200643224846803846FFF775FE052883
:10C9100002D02169A9432161F0BDF0B50B2706467D
:10C920003F043846FFF768FE042810D1154C2069F3
:10C930001025284320617F2006431548468038464D
:10C94000FFF75AFE052802D02169A9432161F0BDF5
:10C95000F0B50B2706463F043846FFF74DFE042886
:10C9600019D1084C2069102528432061DF20064397
:10C97000074846803846FFF73FFE05280BD021695F
:10C98000A94307E00020024023016745AB89EFCDB2
:10C9900000F8FF1F2161F0BDF0B50B2706463F04EC
:10C9A0003846FFF729FE042810D1304C20691025A5
:10C9B00028432061BF2006432D4846803846FFF7B4
:10C9C0001BFE052802D02169A9432161F0BDF0B505
:10C9D0000B2706463F043846FFF70EFE04280ED10B
:10C9E000224C206910252843206121484680384682
:10C9F000FFF702FE052802D02169A9432161F0BD9D
:10CA0000F0B507460B200E460004FFF7F5FD04289D
:10CA10000ED1164C20691025284320613E800B2042
:10CA20000004FFF7E9FD052802D02169A94321612F
:10CA3000F0BD0E48C0690004000E70470B48006A44
:10CA400070470A4A0029116901D0014300E081437F
:10CA500011617047054A0146D26800200A4200D0A1
:10CA6000012070470149C860704700000020024063
:10CA700000F8FF1F092110B5C906884202D1012123
:10CA80004C0404E05049884209D1012104022046A7
:10CA900000F09AFB0021204600F096FB10BD4B49A8
:10CAA000884202D101210402F1E74949884202D1BA
:10CAB00001210C05EBE74749884202D101214402DC
:10CAC000E5E745498842E9D101218C05DFE7F0B56A
:10CAD0000022032501230C6893401C409C422AD16C
:10CAE0000C79012C01D0022C12D1876854002E46FB
:10CAF000A640B74387604E79A64084682643866087
:10CB000084889C43848084888B7993401C438480F0
:10CB1000066853002C469C40A64306600E790768C1
:10CB20009E403E430660C668A643C660CC799C40E2
:10CB3000C3681C43C460521C102ACBD3F0BD2749E4
:10CB4000016000210171012242718171C171704740
:10CB5000012208B512040A430092C261C161009922
:10CB6000C161C169C069009008BD0246128A0020F7
:10CB70000A4200D001207047008A70470246928A1C
:10CB800000200A4200D001207047808A70478161EE
:10CB9000704701857047002A01D081617047018587
:10CBA0007047818270474B07DB0E9A40C90810B569
:10CBB00089000818016A0F249C40A1430162016AA0
:10CBC0001143016210BD0000000400480008004845
:10CBD000000C00480010004800140048FFFF00004F
:10CBE00030B5827801240178002A15D08B08174AC5
:10CBF0009B009A1813688907C90EFF258D40AB4327
:10CC00004578AD072D0E8D401D4315600078C00698
:10CC1000C00E84400E4804E0C806C00E84400C4894
:10CC20008030046030BD0B4A0029116901D00143F6
:10CC300000E0814311617047042207490428086914
:10CC400002D09043086170471043FBE700E400E026
:10CC500000E100E000ED00E000E000E010B501219F
:10CC60000C07204600F0C2FA0021204600F0BEFA70
:10CC700010BD32498A150028086801D0104300E031
:10CC80009043086070472D4A1168E023994301439F
:10CC900011607047294910220028086801D010430C
:10CCA00000E0904308607047244A0029516801D091
:10CCB000014300E081435160704721490A69042320
:10CCC0009A430A61012803D040BF20BF20BF7047AC
:10CCD00030BF7047194B1A689208920002431A60DD
:10CCE00017480369042213430361012906D002296E
:10CCF00006D00169022211430161704730BF00E094
:10CD000020BF01699143F7E70C48016802221143F3
:10CD100001600B48016904221143016130BF704773
:10CD2000064A0146526800200A4200D0012070479E
:10CD300002490A68800002430A60704700700040A0
:10CD400000ED00E0F94801680122114301604168EB
:10CD5000F74A114041600168F64A114001600168DC
:10CD6000012292049143016041683F2212049143E1
:10CD70004160C16A09090901C162016BEE4A1140B3
:10CD80000163416B4908490041630021816070479C
:10CD9000E64900228A708870704703460020E34A03
:10CDA00059090CD001290CD002290CD0516BDA069C
:10CDB000D20E012393400B4200D00120704711682E
:10CDC000F5E7116AF3E7516AF1E718B50020052489
:10CDD000240300901120FFF7E0FF0099491C009107
:10CDE000A14201D00028F5D01120FFF7D6FF00287E
:10CDF00000D0012018BDCD4A1168F8239943C00026
:10CE0000084310607047C9490028086802D0012211
:10CE1000104301E04008400008607047C34A516B6E
:10CE2000F8239943C000084350637047BF49002866
:10CE3000486B02D00122104301E0400840004863E3
:10CE40007047BA4904220028486B01D0904300E0A3
:10CE5000104348637047B5490A6A520852000A6293
:10CE60000A6A04239A430A620A6A02430A62704702
:10CE7000AE490A6A18239A430A620A6A02430A629E
:10CE80007047AA490028486A02D00122104301E0F5
:10CE9000400840004862704710B5A44A53687B249C
:10CEA000E403A3435360536808430343536010BD36
:10CEB00001229E4912060028086801D0104300E0B4
:10CEC0009043086070470122984912040028486B7B
:10CED00001D0104300E0904348637047934AD16A01
:10CEE000090909010143D162704701228F49D20427
:10CEF0000028086801D0104300E0904308607047A4
:10CF00008A4B5A681202120A0006084310435860FE
:10CF10007047864A5168890889000143516070470B
:10CF2000824840680C2108407047804A5168F023CD
:10CF300099430143516070477C4A516807231B02A3
:10CF4000994301435160704778494A6801239B0324
:10CF50009A434A604A6883B21A434A600A6B8B1547
:10CF60009A430A630A6B000C02430A6370476F49D5
:10CF70000A6B40239A430A630A6B02430A637047B1
:10CF80006A490A6B10239A430A630A6B02430A63D5
:10CF90007047010F654A01290AD00229116B0BD095
:10CFA00003239B0499431163116B01431163704781
:10CFB000116B89088900F6E703231B04F2E75B493C
:10CFC0000A6B80239A430A630A6B02430A63704721
:10CFD000F8B5564E0446706800210C22574D10409B
:10CFE00006D0574A042805D0082805D00C281CD0A4
:10CFF00025601CE022601AE07168706803238902D2
:10D00000DB030F0F1840BF1C00280AD0F06A01078D
:10D01000090F1046491C0BF00DFE784301462160B4
:10D0200005E0484839464143F9E7474820607068C1
:10D03000464F0006000F3B5C20680246DA40626003
:10D0400073685B055B0FFB5CDA40A260336BDB054A
:10D0500001D43F4B05E073685B0401D4530800E042
:10D060009308E360336B5F063A4B03D4394F1237B2
:10D07000276100E02361376BFF0601D4656100E0A2
:10D080006061376BBF070ED0376BBF07BF0F012F33
:10D090000BD0376BBF07BF0F022F08D0376BFF4392
:10D0A000BF0706D006E0A26104E0A06102E0A36130
:10D0B00000E0A561376BBF03BF0F0FD0376BBF0315
:10D0C000BF0F012F0CD0376BBF03BF0F022F09D04A
:10D0D000376BBF03BF0F032F06D006E0E26104E009
:10D0E000E06102E0E36100E0E561376B3F03BF0F01
:10D0F0000FD0326B1203920F012A0CD0306B000359
:10D10000800F022809D0306B0003800F032806D05F
:10D1100006E0226204E0206202E0236200E0256271
:10D12000306B000618D408486062F8BD0010024059
:10D130000CB8FF08FFFFF6FEACFEF0FF00127A000D
:10D1400080BA8C0100093D00006CDC02C0000020A8
:10D15000809FD500008000006162E6E735490A6AD9
:10D1600002430A62704701223249D2030028086A4A
:10D1700001D0104300E090430862704701222D491E
:10D1800012040028086A01D0104300E090430862AE
:10D190007047284A0029516901D0014300E08143CA
:10D1A00051617047234A0029916901D0014300E091
:10D1B0008143916170471F4A0029D16901D0014321
:10D1C00000E08143D16170471A4A0029916A01D079
:10D1D000014300E0814391627047164A0029D168FB
:10D1E00001D0014300E08143D1607047114A00291A
:10D1F000116901D0014300E08143116170470D4A7C
:10D200000029517A01D0014300E0814351727047F7
:10D210000848416A01221206114341627047054ADB
:10D220000146926800200A4200D00120704701495F
:10D23000887270470010024018B50020FA4B009029
:10D240009868800601D5012018BDCA205862532075
:10D250005862D868A0218843D86020218C02D86801
:10D26000009A0840521C0092A24201D00028F6D039
:10D27000D868800601D5012000E00020FF21596216
:10D2800018BD18B50020E84B0090D868400612D4AD
:10D290000020C043D86040210C02D868009A0840A2
:10D2A000521C0092A24201D00028F6D0D868400655
:10D2B00001D4002018BD012018BD30B50025DA4C7E
:10D2C000CA20606253206062FFF7DBFF002816D09F
:10D2D00000212160D5486061D5486060A068A160E8
:10D2E000D4482061E161E162E163CF4840304160B0
:10D2F000E1600160FFF7A0FF002800D00125FF20BA
:10D300006062284630BDC848C16880229143C16030
:10D31000704770B505460026C34CCA206062532092
:10D320006062FFF7AEFF002811D0A068402188435B
:10D33000A060A06829680843A060A86820612069EF
:10D34000A988090408432061FFF7DDFF0126FF20BB
:10D350006062304670BD002101607F214160FF2185
:10D3600081607047B049002801D0FF2002E0CA2048
:10D37000486253204862704770B506460025AA4CA3
:10D38000CA20606253206062FFF77BFF00280AD04A
:10D390001021A068002E01D0084300E08843A0605F
:10D3A000FFF7B1FF0125FF206062284670BD9E494E
:10D3B000CA224A6253224A620028886802D0202288
:10D3C000104301E0DF2210408860FF204862704770
:10D3D000F8B50C460026011E934F2078B9683246F6
:10D3E00004D049062DD500F085FB2BE0490600D47A
:10D3F000E27000F073FB0504607800F06FFB000240
:10D400000543A07800F06AFB0543E078000405437B
:10D41000CA20786253207862FFF733FF00280CD0CF
:10D42000854805403D60FFF76EFFB868800603D46D
:10D43000FFF702FF002800D00126FF207862304667
:10D44000F8BDE2702078A578000405436078E178A3
:10D45000000209040843DAE70021C170017041703D
:10D460008170704770B503466F480C460268724879
:10D470001146014088024D04800E20706D0E490651
:10D480006570490EA1705102490E40221140E170B1
:10D49000002B0AD100F02EFB2070607800F02AFBF0
:10D4A0006070A07800F026FBA07070BD5E49886AAD
:10D4B0004968704770B50C460026010060780ED0B0
:10D4C00000F018FBA07800F015FBE078A5780004C8
:10D4D00005436078217800024903084314E0C1063F
:10D4E00003D5EF2108400A306070E07800F0F6FACA
:10D4F0000504607800F0F2FA00020543A07800F01D
:10D50000EDFA0543207840030543474CCA2060628A
:10D5100053206062FFF7B5FE00280CD04748054055
:10D520006560FFF7F0FEA068800603D4FFF784FE75
:10D53000002800D00126FF206062304670BD012126
:10D540000170817041700021C1707047024610B5B2
:10D5500035480C464068C021C94301400002000E16
:10D56000CB04E070DB0E63708B069B0E0904490F41
:10D57000A3702170002A0AD100F0BCFAE070607834
:10D5800000F0B8FA6070A07800F0B4FAA07010BD96
:10D5900070B50021244E0028B068144620D0400603
:10D5A00035D5207800F0A6FA207B00F0A3FA207889
:10D5B000A578000405436078E17800020904084377
:10D5C0000543207B00060543A068054360680543CA
:10D5D000CA20706253207062F561FF20706270BDD6
:10D5E000400600D4E170207800F078FA05046078F5
:10D5F00000F074FA00020543A07800F06FFA0543CA
:10D60000E07800040543207B00F068FADAE7E17077
:10D61000CAE70021C17001704170817001228160F0
:10D62000027341607047000000280040FFFF0000C7
:10D6300001210000FF007F007F7F7F003FFFFF0090
:10D6400070B514460246FE48C16940258802800E26
:10D650004B0420705B0E63704B065B0EA3700B0CCB
:10D660002B40E3708B009B0E23732B060B40A360B3
:10D67000F44B19406160002A0ED100F03BFA207093
:10D68000607800F037FA6070A07800F033FAA0708C
:10D69000207B00F02FFA207370BD18B50022009295
:10D6A000E74BCA225A6253225A620029996802D073
:10D6B0000143996012E081439960000A0124A403A8
:10D6C000D968009A0140521C0092A24201D0002960
:10D6D000F6D0D968014201D1002000E00120FF21ED
:10D6E000596218BDD648CA234362532343621206C7
:10D6F0000A43D34940314A60FF21416292E7D04852
:10D70000403040684004400C8CE7CD49CA224A6250
:10D7100053224A628A68D208D2008A608A68024329
:10D720008A60FF2048627DE7C549CA224A625322C7
:10D730004A624861FF20486274E7C148406980B28C
:10D7400070E718B500210091BD4ACA2151625321EA
:10D75000516211150028906802D00843906011E0D2
:10D760008843906004231C03D06800991840491C2A
:10D770000091A14201D00028F6D0D068400701D422
:10D78000002000E00120FF21516218BD10B5AC4A15
:10D79000CA2353625323536293680124A404A3430E
:10D7A00093609368084303439360FF20506210BD69
:10D7B000A348806801218904084033E710B5A04AD6
:10D7C000CA23536253235362936807242405A34357
:10D7D00093609368084303439360FF20506210BD39
:10D7E0009749CA224A6253224A620122D20500287E
:10D7F000886801D0104300E090438860FF204862B1
:10D8000010E78F49CA224A6253224A628A6801237A
:10D81000DB049A438A608A6802438A60FF20486278
:10D8200000E770B50023864CCA2565625325656202
:10D83000E568ED0307D5A514E668F60303D5AB420A
:10D8400001D05B1CF8E7E368DB0304D40843104312
:10D85000E063012000E00020FF21616270BD10B58F
:10D86000774B9A68784C2240002901D00243D814A3
:10D870000243CA205862532058629A60FF205862BF
:10D8800010BD70B50D466E4914460B6B6F4A496B5F
:10D890001A40C026F64331409602B60E2E7056044A
:10D8A000760E52066E70520EAA705A02520E402325
:10D8B0001A40EA700022E270CA04D20E62708A0630
:10D8C000920E0904490FA2702170002817D1287800
:10D8D00000F010F92870687800F00CF96870A878EA
:10D8E00000F008F9A870607800F004F96070A07882
:10D8F00000F000F9A070207800F0FCF8207070BDF6
:10D900004F48806B8EE64E4A400040320029116835
:10D9100002D00143116085E68143FBE7484A40326B
:10D920000029116801D0014300E08143116079E6CC
:10D93000434940310A680323DB029A430A600A68BC
:10D9400002430A606EE63E4940310A6807231B0223
:10D950009A430A600A6802430A6063E63849403124
:10D960000A6803235B039A430A600A6802430A6059
:10D9700058E63349802240310028086801D010431E
:10D9800000E0904308604DE62D494031CA1300285D
:10D99000086801D0904300E01043086042E6284A3E
:10D9A00008B55032800080180090016008BD2449FD
:10D9B00008B55031800040180090006808BD20492B
:10D9C00040310A6801239B049A430A600A680243B3
:10D9D0000A6027E630B50022194CCA23636253233C
:10D9E0006362E3681B0707D5A314E5682D0703D519
:10D9F0009A4201D0521CF8E7E26812070AD4A268E2
:10DA0000D20607D40143E162FFF716FC002802D0DA
:10DA1000012000E00020FF21616230BD30B5084BDD
:10DA2000CA225A6253225A6204250246044CAA436F
:10DA300040342840002999680DD01143996007E0CF
:10DA40000028004080808080F7F7FFFF7F7F7F0005
:10DA50002168014303E0914399602168814321607B
:10DA6000FF20586230BD27490246C9680020264B76
:10DA70001940114200D00120D4E580210843C003A1
:10DA8000C00BC3431F48C2680A401343C360C9E5C3
:10DA900070B51C4A0021403212680423194C1A4008
:10DAA000A368860C0546F540ED0B15400340E2687F
:10DAB0002B4300090240002B03D01004000C00D0BF
:10DAC0000121084670BD00098021084380B20D4A3B
:10DAD000C343D06808400343D360A3E5002103E0BB
:10DAE000491C0A38C9B2C0B20A28F9D20907090E7E
:10DAF000084397E501090A2200075143000F401827
:10DB0000C0B28FE50028004078790100B24910B515
:10DB1000884209D1841401212046FFF75EFB0021D1
:10DB20002046FFF75AFB10BDAC498842FBD10414D4
:10DB300001212046FFF75AFB00212046FFF756FB44
:10DB400010BD002101800722418012028280C18025
:10DB5000018141818181C18107210182704730B5F6
:10DB60000388C122920113400A88CC890D8922437F
:10DB7000CC882C4322434C8922438C8922431A436C
:10DB800002808288964B1A408B88134383800A8ACE
:10DB900002820288042349889A4311430180818BC1
:10DBA000904A1140818330BD0021018041808180F5
:10DBB000C1800222826081817047F0B505460C4623
:10DBC00002200021AA8B8BB00126854BBF3B1A4057
:10DBD000AA832884AF8BA268022A1FD0A0880028BD
:10DBE00000D002266846FFF7F3F9E1880098CA1FC3
:10DBF000FF3AFA3A29D071010BF01CF80A21484388
:10DC0000A1680BF017F8401D80B20A210BF012F842
:10DC1000C107C90F401AC003000C0902821EFE2A68
:10DC200001D302200021E288084302432A8420888D
:10DC30006188A2890843A188114308430121384320
:10DC4000C9020843A8830BB0F0BD000A0A22504362
:10DC5000A168D6E740220029018801D0114300E0E5
:10DC600091430180704710220029818801D011431F
:10DC700000E09143818070470029818B03D001220D
:10DC80009202114301E0584A114081837047828813
:10DC9000534B1A400A43828070478288534B1A4084
:10DCA000828082880A4382807047012292039142D7
:10DCB000018801D1114301E04D4A114001807047B4
:10DCC0004C4A9142018803D0FF220132114300E007
:10DCD00011400180704704220029818801D011433E
:10DCE00000E091438180704708220029818801D09B
:10DCF000114300E091438180704701737047818137
:10DD00007047007B7047808970470288354B1A4006
:10DD1000028002880A43028070470029018803D0EC
:10DD200001225203114301E0334A11400180704740
:10DD3000018801221203114301807047012901D09B
:10DD4000008B7047808A7047008A7047002A82885B
:10DD500001D00A4300E08A43828070478288274BC3
:10DD60001A40828082880A43828070470909012311
:10DD70008B40002A828899B201D00A4300E08A438E
:10DD80008280704700890321C902084070470089DA
:10DD900003214902084070470246128900200A42C6
:10DDA00000D001207047C9430181704730B50D078D
:10DDB00001242D0F2346AB400246002009098C4068
:10DDC00091889BB2A4B2128921401A4202D0002944
:10DDD00000D0012030BD000000300140003800407C
:10DDE000FFF00000FFF70000FFFB0000FFEF000066
:10DDF000FFBF0000FFFE0000FFDF0000FF9F0000EC
:10DE00002E4801688907890F016000218160C16087
:10DE10000161416181698215114381617047274A1F
:10DE2000116889088900014311607047234A00295D
:10DE3000116801D0014300E08143116070471F4A1F
:10DE40000029116801D0014300E08143116070474F
:10DE50001A490A68C0239A430A600A6802430A60A2
:10DE600070478A0710B5120F0F2393408C0813498F
:10DE7000A40061188C689C438C608B6890400343BD
:10DE80008B6010BD0D4A010E890080328918096827
:10DE90000002000A0840704708498A6902438A6103
:10DEA0007047064900208969C90500D501207047DF
:10DEB00002498A6902438A617047000000000140FC
:10DEC000F94910B5884202D10121C4143AE0012178
:10DED0008907884206D101210846FFF787F900210A
:10DEE000012008E0F149884208D101210220FFF712
:10DEF0007DF900210220FFF779F910BDEC49884235
:10DF000006D101211020FFF771F900211020F2E75E
:10DF1000E849884206D101212020FFF767F9002156
:10DF20002020E8E7E449884207D1841501212046F2
:10DF3000FFF75CF900212046DDE7E049884209D17E
:10DF400001210C042046FFF748F900212046FFF785
:10DF500044F910BDDA49884202D101214C04F1E7AD
:10DF6000D8498842F5D101218C04EBE710B502882D
:10DF7000CD4B984206D00124A407A04202D0CB4C3E
:10DF8000A04203D17024A2434C882243C84CA04233
:10DF900003D0CD4C22400C89224302804A68C262E1
:10DFA0000A880285984208D0C44A904205D0C44AE3
:10DFB000904202D0C34A904201D1897A0186012160
:10DFC000818210BD0021C94341600021018001818F
:10DFD0004180817270470185828270470288702378
:10DFE0009A430A430280704741627047C16270479A
:10DFF000406A7047008D704702220029018801D0D5
:10E00000114300E0914301807047042200290188F8
:10E0100001D0114300E09143018070478022002924
:10E02000018801D0114300E09143018070470288CC
:10E0300008239A43028002880A43028070470288BC
:10E04000A14B1A40028002880A43028070470029CF
:10E05000018802D00122114301E0490849000180F2
:10E06000704710B50A884B88CC881A438B882343A5
:10E070001A430B891A434B8989891A430A43403052
:10E08000828010BD0021018041808180C18001819A
:10E0900041818181704740300029818803D001226D
:10E0A000D203114301E04904490C8180704770B5E7
:10E0B000028C520852000284048C8288038B7025E3
:10E0C000AB439B080D889B001D4302239C438E8914
:10E0D0004B882643744C3343A04208D0774CA0426F
:10E0E00005D0774CA04202D0764CA0420DD1082436
:10E0F000A343CC891C4304239C438B882343724C49
:10E1000022400C8A14434A8A22438280058389680C
:10E110004163038470BD70B5028C10239A4302845E
:10E12000048C8288038B694D2B400D782D062D0CB5
:10E130001D4320239C438B891B051E0C4B882643C3
:10E140001B051B0C584C3343A04202D05B4EB0421F
:10E1500019D15F4E32400E8AB604360C3243A042CB
:10E1600011D18024A343CC892405240C1C434023D3
:10E170009C438B881B051B0C2343564C22404C8A26
:10E18000A404240C2243828005838968816303846C
:10E1900070BD30B5028C504B1A400284038C8288CB
:10E1A000848B7025AC43A4080D88A40025434B4CF8
:10E1B00023400C7B2406240C1C438B781B061B0C71
:10E1C0002343394CA04215D1424C23408C7B24067A
:10E1D000240C1C433E4B1C400B791B061B0C234399
:10E1E0003F4C22400C8A2405240C14434A8A120511
:10E1F000120C2243828085838968C163038430BD09
:10E2000030B5028C374B1A400284058C8288838B90
:10E210002E4C23400C782406240C1C43324B1D400A
:10E220000B7B1B071B0C2B438D782D072D0C1D43DF
:10E230001D4B984205D12D4B13400A8A9205120CB2
:10E240001A438280848389680164058430BD00217B
:10E2500001804180818081608181C1810182418210
:10E26000704730B5034618330124058C8C40A54314
:10E270000584002910D008290ED0091F0804400C7D
:10E28000C018016807231B03994301600168120647
:10E29000120C1143016030BD4808C018016870239A
:10E2A000994301600168F4E7002C0140000400403C
:10E2B00000100040001400400020004000400140D9
:10E2C0000044014000480140FFFC0000FF8C0000BA
:10E2D000FFFB0000FFF70000FFFE0000FFFD000055
:10E2E000FFCF0000FFEF0000FFDF0000FFBF0000D6
:10E2F0004163704781637047C16370470164704731
:10E30000028B70239A430A4302837047028BF64BB9
:10E3100009021A40114301837047828B70239A438C
:10E320000A4382837047828BEF4B09021A401143E4
:10E33000818370470029818802D00122114301E0C6
:10E340004908490081807047028B08239A430A4399
:10E3500002837047028BE54B09021A401143018387
:10E360007047828B08239A430A4382837047828BCB
:10E37000DE4B09021A40114381837047028B04234C
:10E380009A430A4302837047028BD94B09021A4011
:10E39000114301837047828B04239A430A4382838B
:10E3A0007047828BD24B09021A4011438183704718
:10E3B000028B80239A430A4302837047028B5204E4
:10E3C000520C0902114301837047828B80239A43C8
:10E3D0000A4382837047828B5204520C0902114314
:10E3E00081837047028C02239A430A430284704758
:10E3F000028C08239A430A4302847047028C20232C
:10E400009A430901114301847047028C80239A4387
:10E410000901114301847047028CB64B09021A406E
:10E42000114301847047028CB04B09021A4011431A
:10E4300001847047028CB04B09031A4011430184D8
:10E440007047028908239A43028102890A430281A4
:10E45000704710B50123048C8B409C430484038CCB
:10E460008A401343038410BD10B50423048C8B40F1
:10E470009C430484038C8A401343038410BD04220C
:10E480000029818801D0114300E0914381807047C9
:10E49000828B9A4B1A408283828B09020A438283C1
:10E4A0007047828B0C239A438283828B0A43828338
:10E4B0007047028B914B1A400283028B09020A4378
:10E4C00002837047F0B5048C1026B4430484058B96
:10E4D000048C8B4F1B0309013D402B4312021A434E
:10E4E000A0239C430C43344302830484F0BD028B7D
:10E4F0000C239A430283028B0A430283704770B550
:10E50000048C640864000484058B048C1B01134391
:10E51000F3260A22B54394432B430C4301210C43B9
:10E520000383048470BDF8B5054608884E888A8840
:10E530000B890C4600281DD0042824D00828288CDC
:10E540002AD0704908402884A88B2F8C31036C4E48
:10E55000120230400243180310436B4AA88317404D
:10E560000F43012109030F432F84E1882846FFF759
:10E570008FFFF8BD31462846FFF7C1FFE1882846E6
:10E58000FFF7B5FFF8BD31462846FFF79BFFE1884E
:10E590002846FFF78EFFF8BD5C4908402884A98B08
:10E5A000288C3702F3261B01B14313430B43584910
:10E5B000AB830840FF213843013108432884E188B8
:10E5C0002846FFF76EFFF8BD00210180418001223F
:10E5D0008280C18001817047F8B50C4649880026C9
:10E5E00001250746002900D10226A288012A00D170
:10E5F0000225208823890028384610D0FFF762FFC3
:10E60000E1883846FFF755FF23892A4631463846C8
:10E61000FFF775FFE1883846FFF769FFF8BDFFF7A0
:10E620006EFFE1883846FFF762FF23892A463146AC
:10E630003846FFF747FFE1883846FFF73AFFF8BD55
:10E64000406B7047806B7047C06B7047006C7047C1
:10E65000002A828901D00A4300E08A438281704700
:10E66000818270470246128A00200A4200D00120AF
:10E670007047C943018270470246138A002092897D
:10E680000B400A40002B02D0002A00D00120704726
:10E69000C943018270471143403001817047002A0D
:10E6A000828901D00A4300E08A43828170470822B0
:10E6B0000029818801D0114300E091438180704797
:10E6C0000189C908C90001817047028970239A43F2
:10E6D0000A430281704710B50446FFF7F6FF208910
:10E6E00007210843208110BDFF8F0000FFF70000C5
:10E6F000FFFB0000FFFD0000FFDF0000FFF3000054
:10E70000FF0C0000FFEF0000FF5F0000FFFE0000B5
:10E71000FFF5000070B516460D46044660290CD082
:10E7200001223146FFF7EBFE29462046FFF7CDFFD9
:10E73000208907210843208170BD01223146FFF75F
:10E74000C1FEF1E710B504891B021343E4B20B4389
:10E750002343038110BD10B50446FFF7F3FF208962
:10E76000C108C90007200143702081430143218172
:10E7700010BD10B50446FFF7E5FF2089012189038C
:10E780000843208110BD828870239A43828082884A
:10E790000A43828070470289D208D200028102892E
:10E7A0000A4302817047028980239A4302810289C9
:10E7B0000A430281704770B50589048B068CED0809
:10E7C000ED000D430C4905810C40FF2102310C4343
:10E7D000AA218E431901114331430483018470BD82
:10E7E00080220029818801D0114300E0914381807B
:10E7F0007047403001827047FCFC0000F74910B5BB
:10E80000884207D101218C032046FEF7E6FC002157
:10E81000204627E0F249884202D101214C0404E05D
:10E82000F049884209D101218C042046FEF7DEFC24
:10E8300000212046FEF7DAFC10BDEB49884202D1E8
:10E840000121CC04F1E7E949884202D101210C05FC
:10E85000EBE7E749884208D101212020FEF7BDFC03
:10E8600000212020FEF7B9FC10BDE249884206D104
:10E8700001214020FEF7B1FC00214020F2E7DE49F3
:10E880008842F1D101218020FEF7A7FC00218020E1
:10E89000E8E730B5044600688BB00D4640084000FC
:10E8A00020606068032109038843A968014361600F
:10E8B0002068D249EA680840696811432A6902431E
:10E8C00011432160A068032109028843696901435B
:10E8D000A1606846FEF77CFBC048844201D10698DF
:10E8E0000AE0BF48844201D1079805E0BD48844250
:10E8F00001D1089800E0029821680904296800D530
:10E9000040000AF097F92A6852088A4200D8401C51
:10E910002168090404D50107B94A490F104008438A
:10E92000A0810BB030BD4B21C901016000214160C5
:10E9300081600C22C16002614161704710B543687B
:10E940000F221202934314C922430C6849680C43F6
:10E9500022431A43426010BD002101604160816082
:10E96000C16070470029016802D00122114301E013
:10E970004908490001607047002A026801D00A4333
:10E9800000E08A43026070470122D2030029016837
:10E9900001D0114300E09143016070470122D2028F
:10E9A0000029816801D0114300E0914381607047E4
:10E9B0000122D2040029416801D0114300E09143B3
:10E9C00041607047012292040029416801D011433F
:10E9D00000E0914341607047002A426801D00A4339
:10E9E00000E08A43426070470122D2030029416857
:10E9F00001D0114300E09143416070470122D205EC
:10EA00000029416801D0114300E091434160704703
:10EA10004269120E1206426142690A43426170471E
:10EA2000028A120A12020282028A0A430282704792
:10EA300002220029016801D0114300E091430160E6
:10EA40007047826803231B059A43826082680A43E9
:10EA500082607047012212050029416801D01143EC
:10EA600000E0914341607047426803235B059A438D
:10EA7000426042680A4342607047C905C90D01857A
:10EA80007047808CC005C00D704742681202120AA0
:10EA90004260426809060A434260704701225203FD
:10EAA0000029016801D0114300E0914301607047E3
:10EAB00002680123DB029A43026002680A43026093
:10EAC0007047426810239A43426042680A4342609A
:10EAD0007047426820239A43426042680A4342607A
:10EAE0007047012292030029416801D0114300E0E0
:10EAF00091434160704708220029816801D0114389
:10EB000000E0914381607047028AD2B20282028A99
:10EB100009020A430282704720220029816801D03D
:10EB2000114300E091438160704710220029816801
:10EB300001D0114300E09143816070478268072350
:10EB40005B049A438260826849040A43826070478A
:10EB500042691202120A4261426909060A4342618D
:10EB60007047826804239A43826082680A43826005
:10EB7000704702220029816801D0114300E09143CF
:10EB800081607047012292030029816801D01143FE
:10EB900000E091438160704782680123DB039A4360
:10EBA000826082680A438260704702681F235B05A7
:10EBB0009A430260026849050A430260704702688E
:10EBC0001F231B049A430260026809040A4302607F
:10EBD0007047002A826815D00A4314E000380140CB
:10EBE0000044004000480040004C004000500040FD
:10EBF0000014014000180140001C0140F3E9FFFF30
:10EC0000F0FF00008A4382607047826801235B0343
:10EC10009A43826082680A438260704710B50B0491
:10EC20001C0E01238B40022C02D0032C02D002E0E8
:10EC3000001D00E008300168002A01D0194300E0FF
:10EC40009943016010BD002A028B01D00A4300E005
:10EC50008A4302837047826801231B039A438260C0
:10EC600082680A43826070470246D26900200A42E5
:10EC700000D0012070470162704730B50A04130EBE
:10EC800001252A4600248A40012B0ED0022B0ED0EB
:10EC90008368090C1340C0698D402840002B02D0C6
:10ECA000002800D00124204630BD0368F1E7436806
:10ECB000EFE7090C01228A40026270470C4880F39A
:10ECC00008880C480168090E0B4A914205D10B488F
:10ECD0000B4901600B480C4901600C4880470C4807
:10ECE0000047FEE7FEE7FEE7FEE7FEE7FEE700007F
:10ECF00088390020040000001F00000018100240A6
:10ED00000100000000000140000000007B4E0108EF
:10ED1000C1C0000870B505466024FCA006F018F9D3
:10ED20002A462146FA4807F002F9041E07D0F9499D
:10ED3000601809D0012807D0022803D104E0F6A00A
:10ED400006F006F9204670BDF5A0F9E7FEB5417959
:10ED500006460127BF0780790B000AF0C2FC0A06AD
:10ED600011242F3A45505B66711F0AF0FFF90246E5
:10ED70000B46002039460BF089FA0022EB4B09E0E4
:10ED80000AF0F4F902460B46002039460BF07EFAF1
:10ED90000022E74B0AF048F904460D46307A002875
:10EDA00059D0012258E00AF0E1F902460B46002052
:10EDB00039460BF06BFA0022DE4BEBE70AF0D6F98E
:10EDC00002460B46002039460BF060FA0022DA4B6F
:10EDD000E0E70AF0CBF902460B46002039460BF07B
:10EDE00055FA0022D54BD5E70AF0C0F902460B468A
:10EDF000002039460BF04AFA0022D14BCAE70AF04C
:10EE0000B5F902460B46002039460BF03FFA0022C6
:10EE1000CC4BBFE70AF0AAF902460B460020394660
:10EE20000BF034FA0022C84BB4E70AF09FF902460F
:10EE30000B46002039460BF029FA0022C34BA9E704
:10EE40000AF094F902460B46002039460BF01EFAF0
:10EE50000022BF4B9EE70022707A002800D00120DC
:10EE6000317F002900D00121B779737EBC46DB00D9
:10EE7000BF00DB1B12019A1814235843101A1C30D0
:10EE8000019067464800381A80000AF06FF907467B
:10EE9000009101980AF06AF93A46009B0AF0C4F81A
:10EEA0000BF030F90AF094F9F7793F1D4743708B66
:10EEB00008370AF05BF90022A64B09F09BFF2246B7
:10EEC0002B460AF049F80022A34B0AF045F8064603
:10EED000384600910AF04AF922462B460AF03CF8DF
:10EEE00000229D4B0AF038F802460B463046009946
:10EEF00009F080FF0BF006F90022984B09F07AFF29
:10EF00000AF066F9FEBD10B503F0E4FF944C2068EA
:10EF100000688047206880688047002010BD70B579
:10EF2000904D00242868002802D00BF04FF92C6087
:10EF30008D4D2868002802D00BF048F92C6070BD78
:10EF4000F8B50024894E2746702025464543705D5C
:10EF5000002803D0204604F0D1FF7755641CE4B2AA
:10EF6000102CF1D38248077004F098FFF8BDFFF72A
:10EF7000E7FFFFF7D4FF05F0D7FA7E480168026883
:10EF8000521AC82AFBD302F0E9FA70B57A48006831
:10EF9000012815D179480078002812D00020734A42
:10EFA0000446431E70214143555C002D04D089184E
:10EFB00040318C70CB700B71401CC0B21028F1D363
:10EFC00070BD684800680028FAD006F0AFF870BD40
:10EFD000FEB56B4D287800246A4F6B4E002815D083
:10EFE0006A48FF2104600131694809F078FE3368FE
:10EFF00068A2072168460AF047FB67A005F0A8FF52
:10F00000684605F0A5FF41A005F0A2FF3C70346002
:10F010002C70FEBDF8B50F46054616461C4663A18A
:10F02000184609F06EFE002807D062A1204609F0BC
:10F0300068FE002803D00020F8BD012400E0002471
:10F040005E480570012008F063FA384608F08EFE2D
:10F05000304608F055FE5A4D0020EC7208F055FF7E
:10F060002846FFF773FE68612861286808F078FD7C
:10F070003B480068806880470120F8BDF8B5154618
:10F08000024600204F4E504B0C46087021785078B5
:10F090005F5CB84205D0491CC8B220700428F5D383
:10F0A00031E0C8B204282ED21046FF30573009F0A4
:10F0B00093FE80B2288044492278091D002A04D199
:10F0C0000F2820D84000085A28802078012805D130
:10F0D00028880F2817D84000085A2880207802284E
:10F0E00009D1288802460D3A022A0CD8400040185F
:10F0F0004038C08C2880207803286AD128880028CE
:10F1000064D0012862D03046F8BD62E00D0A0000EC
:10F11000D40000201000FFFF0D0A4F4B0D0A000025
:10F120000D0A4552524F520D0A0000000078BE40B1
:10F130000050C4400078CE400050D4408084DE406F
:10F14000805CE4408084EE408084FE4080840E41F8
:10F1500080841E410000114000408F4000407F40ED
:10F16000700500200406002008060020B8120020C8
:10F17000FC05002054050020580500205D050020F6
:10F1800081050020820500208405002068050020FC
:10F19000B0090020256400004C6F726150565F5426
:10F1A00058726573756C743D00000000486F704FB5
:10F1B0006E000000486F704F666600007405002006
:10F1C000441B0020F2FF00006CAD01084000085A0B
:10F1D0002880002098E70020704710B500780028AC
:10F1E00001D0FE4810BD02F0B9F97FB504460078A1
:10F1F000FA4D03282DD1FA480068022829D103AA24
:10F2000002A92046FFF73AFF002822D1F54820182E
:10F2100009F0E2FD0006000E01D0012819D16B466D
:10F2200099890091002199710322D9715A7100289E
:10F2300002D0012802D00CE0197101E00120187100
:10F24000187A002808D001280ED0022816D00328EA
:10F250001BD0284604B070BD01214804FDF799FF7A
:10F2600009206946C00605E001218804FDF791FFE9
:10F270006946DD48FDF72BFC0020EBE70121C804BF
:10F28000FDF787FF6946D948F4E701218805FDF7B6
:10F2900080FF6946D648EDE77CB504460078CF4D3F
:10F2A00003281DD1CE480068022819D16A4601A959
:10F2B0002046FFF7E3FE002812D1CA48201809F0C3
:10F2C0008BFD0206120E01D0012A09D16846007991
:10F2D000002807D001280AD002280FD0032811D017
:10F2E00028467CBD684601880920C00602E06846C1
:10F2F0000188BD48FDF74FFC00207CBD68460188B1
:10F30000BA48F7E768460188B948F3E73EB50446CE
:10F310000078B24D022814D1B1480068022810D1FB
:10F320006A4601A92046FFF7A9FE002809D16846D0
:10F330000079002807D001280AD002282CD0032801
:10F340002ED028463EBD684601880920C00602E04E
:10F3500068460188A448FDF708FC0346A5A20421DD
:10F3600002A80AF091F9A4A005F0F2FD601C05F0D6
:10F37000EFFDA4A005F0ECFD2046FF30573005F06E
:10F38000E7FDA0A005F0E4FD02A805F0E1FD9EA0C8
:10F3900005F0DEFD00203EBD684601889348DAE7AF
:10F3A000684601889248D6E710B50078002801D059
:10F3B0008A4810BD05F0C4FF002010BD70B501786B
:10F3C000864800292FD1914C217800292BD19049D2
:10F3D0000978002927D18F490978002923D18E4E39
:10F3E0000925FF2101318D48356009F078FC2A4656
:10F3F0008BA18A4809F05AFC012008F089F807F02F
:10F40000C5FC8A4800210170007807F089FC07F0EC
:10F41000B5FD308881B28648006802697F48904710
:10F4200001202070002070BD70B501786B48002964
:10F4300026D1764C2178002922D0764909780029F6
:10F440001ED17349097800291AD173480025FF217C
:10F4500005600131714809F042FC012007F068FDA8
:10F4600007F094FC714801210170007807F058FC06
:10F4700008F074F86E4800688068804725700020A6
:10F4800070BD70B50178554D01290CD15F490978DF
:10F49000002908D0401C09F09FFC044665486649D5
:10F4A0002018884201D3284670BD012007F040FD96
:10F4B0006248046007F06AFC07F060FD5648008867
:10F4C00081B25B480068026954489047002070BDD3
:10F4D0007CB501784148002928D14C490978002998
:10F4E00024D14B4E3178002920D04A49097800298F
:10F4F0001CD149480024FF2104600131474809F02C
:10F50000EEFB4F4D2B683BA2072168460AF0BCF882
:10F510004C4805F01DFD684605F01AFD3AA005F0BF
:10F5200017FD494804702C60347000207CBDF8B58C
:10F5300007460078294C022828D8012826D03349CC
:10F540000978002922D13349097800291ED1304990
:10F55000097800291AD13C4901262F4D002817D0DF
:10F5600000200870781C09F037FC0146374801601C
:10F57000006800280AD03846FF305730009009F064
:10F58000B9FB2860071E01D0FF2F0CD92046BBE530
:10F590000E700924FF21013120482C6009F09FFBE7
:10F5A00022461FA106E0FF2101311C4809F097FB0C
:10F5B00000993A46194809F079FB012007F0A8FFA5
:10F5C000287808F0E1FC2248FFF7C0FB2049486199
:10F5D00008611B49002008600D483BE0F2FF000075
:10F5E00058050020AB020000000400480008004855
:10F5F00000140048256400004750494F5F52656180
:10F60000643D00002C0000000D0A0000D000002026
:10F61000810500208005002068050020B009002039
:10F62000416373697057696E000000000C0600208A
:10F6300070050020C08BD5F701692017480600200F
:10F640008405002098F1000882050020880500202C
:10F65000441B00200670FD48006880688047002039
:10F6600052E57CB50178FA48002926D1F949097894
:10F67000002922D1F84E317800291ED0F7490978A7
:10F6800000291AD1F6480024FF2104600131F54811
:10F6900009F025FBF44D2B68F4A20721684609F018
:10F6A000F3FFF3A005F054FC684605F051FCF5A00B
:10F6B00005F04EFC2C60347000207CBDF8B504468B
:10F6C0000078E34E012825D8E3480078002821D1AE
:10F6D000E048007800281DD1E0480078002819D1C2
:10F6E000DF4D0027FF210131DE482F6009F0F7FAD6
:10F6F0002078002802D0012804D012E00922E24933
:10F700002A600BE0601C09F0F5FA2860002801D09F
:10F71000FF2801D93046F7E40246611CD14809F0C0
:10F72000C5FA012007F0F4FE287808F02DFCD74830
:10F73000FFF70CFBD54948610861CB480760C64814
:10F7400001210170C1480068806880470020DBE427
:10F750003EB504460078BE4D012834D1CC4800683F
:10F76000012809D1CB480078002805D0601C09F099
:10F77000C1FA062825D106E0C7A005F0E9FBCEA016
:10F7800005F0E6FB1FE0D4480078102801D3D3A091
:10F79000F6E710220021601C09F0E6FA014602A8F3
:10F7A00006F063FE00280CD0002000900146019076
:10F7B00002ABA522012004F084FA002803D0002027
:10F7C0003EBDCBA0DCE728463EBD10B504F0D5FB1E
:10F7D00004F0D2FC04F0C0FB10BD30B50446007844
:10F7E0009B4D85B0012802D0284605B030BDA84801
:10F7F000006801280AD1A7480078002806D0601CBC
:10F8000009F078FA062806D0B9A023E0A2A005F0F6
:10F810009FFBA9A01EE0B0480078102801D3AFA03C
:10F8200018E010220021601C09F09EFA010EEBD1B5
:10F830006A461074010A5174000C907404A806F012
:10F840006FFE0346102808D0AFA21021684609F0C9
:10F850001BFF684605F07CFBC6E7FFF7B6FF0020FC
:10F86000C3E7FEB504460078794D012844D18848A5
:10F870000068012809D187480078002805D0601C5D
:10F8800009F038FA062837D104E083A005F060FBC0
:10F8900089A02FE010220021601C09F065FA010EFA
:10F8A0002AD16A461072010A000C5172994E907268
:10F8B0000024204670214843315C002915D081196D
:10F8C00002A8083106F0DCFD00280ED0102C10D262
:10F8D00000200090019002ABB0222146012004F0EC
:10F8E000F0F9002808D00020FEBD641CE4B2102C02
:10F8F000DFD389A005F02CFB2846FEBD38B50446B1
:10F900000078534D01281CD16148006801280CD1B2
:10F9100060480078002808D0601C09F0EBF9062840
:10F9200008D073A005F014FB0BE05BA005F010FB02
:10F9300061A0F7E710220021601C09F015FA010E02
:10F9400001D0284638BD6A461070010A5170000C7B
:10F950009070684606F00FFE002803D0FFF735FFD1
:10F96000002038BD75A0DDE7F0B5064685B0002063
:10F97000039047480068012840D146480078002895
:10F980003CD030780028FBD0701C09F0B3F9062871
:10F99000F2D110220021701C09F0E6F9014602A8FC
:10F9A00006F063FD0028EBD05A4F00247020254656
:10F9B0004543785D00281AD0E91902A8083106F0FD
:10F9C0005FFD002813D0102C15D2702051496043E0
:10F9D000085C00280FD03078012810D03146FF3164
:10F9E0005731019102281FD00328C5D1ECE0641CD7
:10F9F000A4B2102CDAD35AA005F0AAFA36E10027F7
:10FA00000097E1B202ABB5220120019704F059F949
:10FA1000002817D03F4820212C1820460C3009F030
:10FA20005EF9A785A78713E10F46084609F062F93A
:10FA30003978C0B2222906D038182038C07F222851
:10FA400002D0EDE012E19DE0E2E000007005002050
:10FA5000F2FF0000D000002080050020810500207A
:10FA600068050020B00900207C0500202564000006
:10FA70004C6F726150565F5258726573756C743D6D
:10FA8000000000000D0A000020F60008441B0020C2
:10FA9000580500205D05002053797374656D204E74
:10FAA0004F5420696E204E6F726D616C206D6F64D3
:10FAB000652C0D0A000000004F72204C6F7261200F
:10FAC0006D6F64756C65204E4F54204D6173746585
:10FAD000722E0D0A00000000FC0500204E6F6465C8
:10FAE000206E756D6265722066756C6C2E0D0A0055
:10FAF0004164647220666F726D6174206572726F0A
:10FB0000722E0D0A000000004572726F722025648B
:10FB10000D0A0000B81200204E4F5420746869731B
:10FB2000204E4F444520696E2041635369704C6FED
:10FB300072614E65742E0D0A0000000054686973EE
:10FB4000206E6F6465204E4F5420696E20416353D0
:10FB500069704C6F72614E65742E0D0A00000000D2
:10FB600054686973204E4F4445204E4F5420696EAF
:10FB70002041635369704C6F72614E65742E0D0A9B
:10FB80000000000039182039C97F222940D1841E85
:10FB9000042C10DBFA48202128180C30054609F007
:10FBA0009EF828467B1C03AA2021009401F08BFFBD
:10FBB00000282DD14CE002282AD1F1482021281814
:10FBC0000C3009F08CF843E0EE483718384609F05D
:10FBD00091F83978C0B222291AD139182039C97F51
:10FBE000222915D1811E009104290FDBE448202130
:10FBF00028180C30049009F072F87B1C03AA20210D
:10FC0000049801F060FF002802D109E0022801D029
:10FC1000DDA0F1E6DA48202128180C3009F05FF861
:10FC2000019809F0D9F8D64900276D18A8850097E2
:10FC3000E1B202ABB5220120019704F042F800289E
:10FC400014D0A88D002802D00520A88700E0AF8737
:10FC5000FFF7BBFDD1A005F07BF9701C05F078F92A
:10FC6000D0A005F075F9002005B0F0BDD348FBE742
:10FC7000F0B5054695B000201390D14800680128E2
:10FC800045D1D0480078002841D0287801283ED1BD
:10FC9000681C09F02FF8062839D110220021681CB1
:10FCA00009F062F8014614A806F0DFFB00282ED008
:10FCB000B34E00242046702148430746F05D0028DB
:10FCC00028D0B91914A8083106F0DAFB002821D091
:10FCD000102C23D270204443305D00281ED04021D8
:10FCE00001A808F0FCFFBC1920460C30064609F0BC
:10FCF00001F80006000E15D00090334613AA282103
:10FD000001A801F06DFE00280CD09FA007E0AB48D1
:10FD100015B0F0BD641CA4B2102CCBD3AA4805F0DA
:10FD200017F9F4E7A38DA9A2062111A809F0ACFCEC
:10FD30009AA005F00DF9681C05F00AF9A4A005F0D9
:10FD400007F911A805F004F9A4A005F001F9139929
:10FD5000002901D001A801E00121A0A005F0F4F8DC
:10FD60009FA005F0F5F80020D2E7F0B505469448CD
:10FD7000C1B00068012801D09AA011E09148007834
:10FD80000028287806D002283AD09EA005F0E0F896
:10FD9000A3A005E0012806D0A7A005F0D9F8ACA0E3
:10FDA00005F0D6F87CE0B0480068002804D0AF4CDD
:10FDB0002078002874D101E0ADA0F1E7F421B1482A
:10FDC00008F08DFF6E1C681C08F094FFC0B2009014
:10FDD000334602AAF421AB4801F075FE0026AA4D75
:10FDE000002806D0F421A74808F079FF6E7026702D
:10FDF00056E00298F428F5D86870012020704CE095
:10FE0000681C08F077FF062801D0A0A0C8E71022E0
:10FE10000021681C08F0A8FF014640A806F025FB59
:10FE200000283DD0564E0024204670214843315CC6
:10FE300000291DD0811940A8083106F021FB0028B7
:10FE400016D0102C18D22846FF305730054608F03F
:10FE500051FFC7B2F42103A808F041FF2B4602AAC4
:10FE6000F42103A8009701F02EFE002818D105E028
:10FE7000641CE4B2102CD7D3534891E703A8009038
:10FE80007020604302A983190191AF22214601200D
:10FE9000083303F016FF002802D0002041B0F0BD67
:10FEA0004648FBE77CB5054602242B5D83A208216A
:10FEB000684609F0E9FB684605F04AF8641E64B23A
:10FEC000002CF2DA7CBD7CB5017800243B48002987
:10FED00038D13B490968012934D13A4909780029C8
:10FEE00030D0274D002070214143695C002901D0AA
:10FEF000641CE4B2401CC0B21028F4D371A005F019
:10FF000027F8234671A20821684609F0BDFB684620
:10FF100005F01EF8002C11D0002420467021484323
:10FF2000295C002906D040190830FFF7BBFF2BA041
:10FF300005F00EF8641CE4B2102CEED328A005F0F6
:10FF400007F800207CBD10B501781C48002915D1A8
:10FF50001B490968012911D11A49097800290DD1D5
:10FF6000414C206800280AD059A004F0F1FF206815
:10FF7000FFF798FF1AA004F0EBFF002010BDB1E0DE
:10FF8000B8120020AB020000416C696173657320F8
:10FF90006572726F722E0D0A000000004E6F64656C
:10FFA0003D0000002073657474696E6720535543EB
:10FFB000434553534544210D0A000000F2FF000061
:10FFC000580500205D05002060FB00082575000035
:10FFD000204556543D4765744E6F6465200000000F
:10FFE0000D0A000053797374656D204E4F542069DB
:10FFF0006E204E6F726D616C206D6F64652E0D0A00
:020000040801F1
:10000000000000004C6F7261206D6F64756C65209C
:100010006973204D61737465722E0D0A0000000033
:100020004E6565642074776F20706172616D6574D0
:1000300065722E0D0A0000004C6F7261206D6F64B6
:10004000756C6520697320536C6176652E0D0A000E
:100050004E656564206F6E6520706172616D6574B8
:1000600065722E0D0A0000000406002064050020C1
:100070004E4F204C6F7261476174655761792E0D48
:100080000A000000AC060020D00000204C6F726116
:10009000206E6F64652061646472657373206C65A3
:1000A0006E677468204E4F5420455155414C2036A0
:1000B00042797465732E0D0A0000000025303278F5
:1000C000000000004E6F6465733D00002575200040
:1000D0004C6F726147617465576179416464723D28
:1000E00000000000F3A004F033FF43E710B50178EF
:1000F000F64800290AD1F6490968012906D1F549CF
:100100000978002902D104F087F9002036E710B5FC
:1001100001780024ED4800290FD1ED490968012933
:100120000BD1EC490978002907D104F0E3F9EA483A
:1001300000BF641C8442FBD300201FE710B5007889
:10014000002801D0E14819E706F099F80446E3A039
:1001500004F0FEFE2046FFF7A5FEE3A004F0F8FE43
:1001600000200BE71CB50178D84800291BD1D849DD
:100170000968012917D1D7490978002913D1DB482B
:100180000068002810D0838CD9A20621684609F0A7
:100190007BFAD8A004F0DCFE684604F0D9FED2A0B9
:1001A00004F0D6FE00201CBDD6A004F0D1FEDAA0DB
:1001B000F6E730B5007887B0002802D0C34807B012
:1001C00030BD03A803F02AF9D8A004F0C1FE022430
:1001D00003ADA0002B58D7A20921684609F054FAB4
:1001E000684604F0B5FE641E64B2002CF1DABEA0CD
:1001F00004F0AEFE0020E2E710B50078002801D040
:10020000B248BBE6CDA004F0A3FED1A004F0A0FE4E
:10021000D3A004F09DFED4A004F09AFEB2A004F096
:1002200097FE0020AAE610B50178A848002910D151
:10023000A7490A68012A0DD00A68022A0CD00A6868
:10024000002A0BD00968032903D1C9A004F080FE5D
:10025000002093E6CEA0F9E7D5A0F7E7DFA0F5E709
:1002600010B50078002801D0984887E699480078B2
:10027000002801D0E3A000E0E7A004F069FE002020
:100280007CE63EB50078002801D090483EBD07F0DE
:1002900083FC0346E5A20B21684609F0F5F9E4A0CA
:1002A00004F056FE684604F053FEE5A004F050FE4C
:1002B00007F03CFD0346DDA20B21684609F0E4F996
:1002C000E0A004F045FE684604F042FEDCA004F025
:1002D0003FFE07F077FD0346D4A20B21684609F0E4
:1002E000D3F9D9A004F034FE684604F031FED4A05E
:1002F00004F02EFE07F089FD0346CCA20B216846D0
:1003000009F0C2F9D1A004F023FE684604F020FEF3
:10031000CBA004F01DFE07F0CAFC0346C3A20B21CC
:10032000684609F0B1F9CDA004F012FE684604F069
:100330000FFEC3A004F00CFECB4CCCA0E57A04F079
:1003400007FE002D0CD007F0EDFD0346B7A20B21F0
:10035000684609F099F9C8A004F0FAFD684600E083
:10036000C7A004F0F5FDB6A004F0F2FD07F0B9FD5A
:100370000546C5A004F0ECFD002D01D0C6A000E0AC
:10038000C8A004F0E5FDAEA004F0E2FD07F087FD93
:100390000546C7A004F0DCFD002D01D0C6A000E09A
:1003A000C6A004F0D5FDA6A004F0D2FD07F065FDBF
:1003B000C3B29EA20B21684609F066F9C0A004F002
:1003C000C7FD684604F0C4FD9DA004F0C1FD07F020
:1003D000E8FD034695A20B21684609F055F9BCA03B
:1003E00004F0B6FD684604F0B3FD95A004F0B0FD3E
:1003F00007F0BDFD03468DA20B21684609F044F9C4
:10040000B7A004F0A5FD684604F0A2FD8CA004F09E
:100410009FFD86A20B216846236909F035F9B5A036
:1004200004F096FD684604F093FD85A004F090FD6D
:100430007EA20B216846636909F026F9B2A004F098
:1004400087FD684604F084FD27A004F081FD0020AC
:100450003EBD10B500781D4C002801D020468DE52A
:100460008148417F002905D0012905D0ABA004F0C7
:100470006FFDF3E7AFA000E0B4A004F069FD002039
:100480007CE50EB50078002801D010480EBD07F0BD
:1004900083FB034665A20B21684609F0F5F864A0CA
:1004A00004F056FD684604F053FD0FA004F050FD23
:1004B00000200EBD4C6F72614761746557617941D0
:1004C0006464723D4E554C4C00000000F2FF000089
:1004D000580500205D050020400D03004C6F72613F
:1004E0004D79416464723D000D0A0000040600204D
:1004F000257500004C6F72614D79496E7465727696
:10050000616C3D004C6F7261476174655761793D64
:100510004E554C4C200000004C6F72614D79496E75
:1005200074657276616C3D300D0A00005555494482
:100530003D00000025303878000000004669726DEB
:100540007761726556657273696F6E3D00000000D9
:10055000312E31322E323031372E303631300000EC
:1005600020666F7220000000535831323738000087
:1005700053797374656D4F7065726174696F6E4DF8
:100580006F64653D496E49646C650D0A00000000AA
:1005900053797374656D4F7065726174696F6E4DD8
:1005A0006F64653D496E4E6F726D616C0D0A00009F
:1005B00053797374656D4F7065726174696F6E4DB8
:1005C0006F64653D496E50726F64756374566572F1
:1005D000696669636174696F6E0D0A00537973749B
:1005E000656D4F7065726174696F6E4D6F64653DC6
:1005F000496E50696E67506F676E546573740D0A6B
:10060000000000004C6F72614D6F64653D4D4153B9
:100610005445520D0A0000004C6F72614D6F6465C5
:100620003D534C4156450D0A000000002564000072
:1006300052464672657175656E63793D0000000033
:100640002020000042573D0053463D004572726F26
:1006500072436F64696E673D000000005246506F40
:100660007765723D00000000441B002046726571F2
:10067000486F704F6E3D0000747275650000000099
:1006800066616C736500000048656164657253744F
:10069000617475733D000000496D706C6963697425
:1006A000000000004578706C696369740000000008
:1006B0004352433D000000004F4E00004F464600AD
:1006C000507265616D626C654C656E6774683D0063
:1006D0005061796C6F61644C656E6774683D0000B1
:1006E0004D61785061796C6F61644C656E677468B8
:1006F0003D00000054785061636B657454696D650A
:100700006F75743D0000000052785061636B657432
:1007100054696D656F75743D0000000052464F735B
:1007200063696C6C61746F723D556E4B6E6F776E62
:100730000000000052464F7363696C6C61746F7205
:100740003D4372797374616C0000000052464F7330
:1007500063696C6C61746F723D5443584F000000C4
:100760001CB50078002801D0F6481CBDF648F7A259
:10077000438C0821684608F087FFF5A004F0E8FBE9
:10078000684604F0E5FBF7A004F0E2FB00201CBD86
:100790000EB50078002801D0EA480EBDF248EBA261
:1007A00043690A21684608F06FFFF04804F0D0FB67
:1007B000684604F0CDFBEBA004F0CAFB00200EBDA0
:1007C0000EB50078002801D0DE480EBDE648DFA255
:1007D00003690A21684608F057FFE448143804F01A
:1007E000B7FB684604F0B4FBDEA004F0B1FB0020C8
:1007F0000EBD08B50078002801D0D24808BD07F02A
:1008000056FA0346D1A20421684608F03DFFD748B6
:10081000AC3804F09DFB684604F09AFBD1A004F0CC
:1008200097FB002008BD1CB50078002801D0C54802
:100830001CBD07F022FBC3B2C4A20621684608F023
:1008400023FFCA48483804F083FB684604F080FB65
:10085000C4A004F07DFB00201CBD00B5007889B069
:10086000002802D0B74809B000BD07F09AFB034644
:10087000BFA22021684608F007FF684604F068FB25
:1008800007F075FB0346BFA22021684608F0FCFE76
:10089000684604F05DFB0020E5E710B5007800280D
:1008A00001D0A84832E407F0FAFA0446AF485838B5
:1008B00004F04EFB002C01D0B8A001E0AB484C384E
:1008C00004F046FBA7A004F043FB00201EE410B593
:1008D0000078002801D09B4818E407F002FB04468A
:1008E000A248803804F034FB002C02D09F487038B6
:1008F00001E09E48643804F02BFB9AA004F028FB2A
:10090000002003E41CB50078002801D08D481CBDF0
:1009100007F07BFA03468DA20621684608F0B4FE74
:100920009248BC3804F014FB684604F011FB8DA01B
:1009300004F00EFB00201CBD1CB50078002801D07F
:1009400080481CBD07F03EFA034680A20621684697
:1009500008F09AFE8548C03804F0FAFA684604F0B8
:10096000F7FA80A004F0F4FA00201CBD1CB5007852
:10097000002801D073481CBD07F0D8F9034673A2C4
:100980000621684608F080FE7848C43804F0E0FA92
:10099000684604F0DDFA73A004F0DAFA00201CBD0A
:1009A0001CB50078002801D066481CBD06F06AFE20
:1009B000034666A20621684608F066FE78A004F0A9
:1009C000C7FA684604F0C4FA66A004F0C1FA002031
:1009D0001CBD1CB50078002801D05A481CBD06F08B
:1009E00054FE034659A20521684608F04DFE6EA04C
:1009F00004F0AEFA684604F0ABFA5AA004F0A8FA84
:100A000000201CBD1FB50078002802D04D4804B05E
:100A100008E406F03EFE0191009065A2082102A8BC
:100A200008F032FE64A004F093FA02A804F090FAF1
:100A30004CA004F08DFA0020E9E710B500780028FA
:100A400001D0404805E4FEF792FAF8B50446007874
:100A500001281AD15AA1601C08F053F95B4E424D8F
:100A6000002814D05AA1601C08F04BF9092700286F
:100A70001DD059A1601C08F044F9002821D058A1CC
:100A8000601C08F03EF900282CD02E48F8BD01204B
:100A90003060FF20287654480078002802D003F008
:100AA000BFFB17E003F015FB03F01CFC10E0FEF7A2
:100AB00047FAFEF734FA022030602F760020E87201
:100AC00006E0FEF73DFAFEF72AFA002030602F76A6
:100AD00004F02CFBFEF759FA2348FEF737F968615A
:100AE000286107E0FEF72CFAFEF719FA03203060C0
:100AF00004F01CFB0020F8BD10B50178114C012951
:100B00000BD1431C082207210120FEF783FA00289D
:100B100003D0FEF75AFE0020A1E420469FE410B562
:100B20000178084C01290BD1431C072211460220F1
:100B3000FEF770FA002803D0FEF747FE00208EE48F
:100B400020468CE4F2FF0000441C002025640000D5
:100B5000536C6176655F506F6C6C5F54696D656F47
:100B600075743D000D0A0000441B002008070108B1
:100B70005061796C6F61644C656E6774683D2025C7
:100B8000642C20004D61785061796C6F61644C6514
:100B90006E6774683D2025640D0A00004F4E00000A
:100BA00052784761696E3D00534E523D000000008F
:100BB00025332E3266000000525353493D00000099
:100BC000696E4E6F726D616C000000005805002068
:100BD000696E505600000000696E54440000000029
:100BE000696E49646C6500005D05002010B50178F0
:100BF000FE4C01290BD1431C092208210320FEF7DA
:100C000009FA002803D0FEF7E0FD002027E4204683
:100C100025E410B50178F54C01290BD1431C0822BD
:100C200011460420FEF7F6F9002803D0FEF7CDFDAB
:100C3000002014E4204612E410B50178EB4C0129A1
:100C40000BD1431C072208210520FEF7E3F90028F9
:100C500003D0FEF7BAFD002012E4204610E410B5E0
:100C60000178E24C01290BD1431C092211460620D0
:100C7000FEF7D0F9002803D0FEF7A7FD002011E60B
:100C800020460FE610B50178D84C01290BD1431C42
:100C9000082209210720FEF7BDF9002803D0FEF73E
:100CA00094FD0020FEE52046FCE510B50178CF4C10
:100CB00001290BD1431C072209210820FEF7AAF9BC
:100CC000002803D0FEF781FD0020EBE52046E9E592
:100CD00010B50178C54C01290BD1431C09220A210A
:100CE0001046FEF797F9002803D0FEF76EFD0020AE
:100CF000D8E52046D6E510B50178BC4C01290BD1CA
:100D0000431C0A2108220846FEF784F9002803D074
:100D1000FEF75BFD0020C5E52046C3E510B5017870
:100D2000B24C01290BD1431C07220A210B20FEF7EC
:100D300071F9002803D0FEF748FD0020B2E52046F7
:100D4000B0E510B50178A94C01290BD1431C08224C
:100D50000B210C20FEF75EF9002803D0FEF735FDCD
:100D600000209FE520469DE510B501789F4C0129A4
:100D70000BD1431C07220B210D20FEF74BF9002855
:100D800003D0FEF722FD00208CE520468AE510B551
:100D90000178964C01290BD1431C08220C210E200E
:100DA000FEF738F9002803D0FEF70FFD002079E5A3
:100DB000204677E510B501788C4C01290BD1431CF6
:100DC00007220C210F20FEF725F9002803D0FEF79B
:100DD000FCFC002066E5204664E510B50178834CF4
:100DE000012904D1401C07F0F7FF002801DA204652
:100DF00058E57F494884FEF7E8FC002052E570B5CD
:100E000001787A4D012908D1401C07F0E5FF04461E
:100E1000784879492018884201D3284670BD0120BE
:100E200006F076FB204606F09BFE7448046074488A
:100E3000006880688047FEF7C8FC002070BD10B5D0
:100E40000178012901D069482CE5401C07F0C4FF56
:100E5000C4B2092C00D90924012006F059FB204610
:100E600006F04EFF6548FDF771FF6449486108616F
:100E70006348006880688047FEF7A7FC002011E502
:100E800010B50178012901D058480BE5401C07F046
:100E9000A3FFC4B20C2C01D90C2402E0062C00D212
:100EA0000624012006F034FB204606F05FFF53487D
:100EB000FDF74CFF5149486108615148006880685E
:100EC0008047FEF782FC0020ECE410B50178012990
:100ED00001D04648E6E4401C07F07EFFC4B2042C73
:100EE00001D9042402E0002C00D10124012006F0E5
:100EF0000FFB204606F073FF4048FDF727FF3F49F0
:100F0000486108613E48006880688047FEF75DFCE4
:100F10000020C7E470B504460078344D01280ED196
:100F200006F0F6FA37A1601C07F0EBFE334E0028FE
:100F300007D03549601C07F0E4FE002802D028469F
:100F400070BD0120F072314806F00AFEFEF71DF870
:100F5000FEF73BFC2A48006880688047002070BD8F
:100F600070B504460078214E01280ED106F0D0FA63
:100F700027A1601C07F0C5FE204D002807D026A140
:100F8000601C07F0BEFE002806D0304670BD012070
:100F900006F093FF012003E0002006F08EFF002002
:100FA00068721648FDF7D2FE68612861144800682F
:100FB00080688047FEF709FC002070BD70B50446CC
:100FC00000780A4E01280ED106F0A2FA10A1601C8A
:100FD00007F097FE094D002822D00FA1601C07F0F2
:100FE00090FE002821D0304670BD0000F2FF0000C6
:100FF000441C0020C08BD5F701692017441B00203A
:10100000700500204F4E0000BC06010880A1031CA3
:10101000454E41424C45000044495341424C450035
:10102000012006F000FF012003E0002006F0FBFE97
:1010300000202872FE48FDF789FE68612861FD489E
:10104000006880688047FEF7C0FB0020CCE710B541
:101050000178012901D0F84824E4401C07F0BCFEC7
:101060000406240E00D10124012006F051FA204686
:1010700006F08AFFEE48FDF769FEED490861FEF7CC
:10108000A4FBEC4800688068804700200AE410B5A3
:101090000178012901D0E84804E4401C07F09CFED7
:1010A0000406240E00D10124012006F031FA204666
:1010B00006F050FFDE48FDF749FEDD494861FEF7C6
:1010C00084FBDC48006880688047002004E410B599
:1010D0000178012901D0D84813E4401C07F07CFEB8
:1010E00084B2062C00D20624012006F011FA204614
:1010F00006F0AEFECE48FDF729FECD4948610861F5
:10110000CC484C83006880688047FEF75EFB002077
:1011100098E4F8B504460078C74E012827D1C7489F
:101120000068012823D1C6A1601C07F0EAFDC64D66
:10113000002804D12878002801D00020F8BDC3A1E0
:10114000601C07F0DEFD29780843F7D002F015FF98
:1011500003F012F8BAA1601C07F0D3FD00270028A5
:1011600007D0BAA1601C07F0CCFD002808D030469B
:10117000F8BD01202870FDF7D2FE03F051F808E019
:101180002F70FDF7DDFE02F0A4FF03F0ABF803F0D3
:10119000CDFFB048078002F0DFFEFDF7F6FECCE79A
:1011A00070B504460078A44D01280DD1AA49601CF1
:1011B00007F0A7FDA94E002808D0A749601C0831F8
:1011C00007F09FFD002802D028460DE7012030706F
:1011D000FDF7DBFE002007E770B50178964D012989
:1011E00006D1401C07F0F8FDC4B2601F102801D3DF
:1011F0002846F9E6012006F08BF9112C01D90120CF
:1012000000E0002006F0DAFE60B2044606F0E9FCD9
:10121000874804718748006880688047FEF7D5FAE0
:101220000020E1E60078002801D0834870478C490F
:1012300001200870002070470078002801D07E4807
:101240007047874900200870704710B503F096FF7B
:10125000002061E410B50078002801D076485BE4F6
:1012600003F069FF002057E410B50178724C0129A2
:101270000FD1401C07F0B0FD7A497B4A41189142DA
:1012800007D203F0ABFF002803D0FEF79EFA002040
:1012900042E4204640E400B589B000F007FE7349FF
:1012A0000346088072A22021684608F0EDF96846DE
:1012B00003F04EFE002009B000BD10B5017888B0E3
:1012C000012902D05C4808B026E4401C07F084FDE8
:1012D000664C00B2208000F0EBFD002801D0002019
:1012E000F1E70023E35E66A22021684608F0CCF90E
:1012F000684603F02DFEF2E700B589B068A003F060
:1013000027FE00F0D3FD034669A22021684608F0BD
:10131000BBF9684603F01CFE0020CCE710B568A0BE
:1013200003F016FE00200AE410B50178012901D06F
:10133000414804E4401C07F04FFD0006000E00D0B9
:10134000012000F0B8FA002060E410B5017801290E
:1013500001D039485AE4401C07F03EFDC4B2214692
:10136000012000F0D4FA204603F041FE00204DE4B5
:1013700008B50178012901D02F4808BD401C07F0AD
:101380002BFD69460880684603F073FB002008BD0A
:1013900008B50178012901D0274808BD401C07F095
:1013A0001BFD69460880684603F0CDFB002008BDA0
:1013B00000B5A1B06946002000F0CEFA00A96F2266
:1013C0000120013100F0A9FA41A003F0C1FD702114
:1013D000684603F0C7FD002021B000BD10B5FF2412
:1013E000C8B0113422466946404800F032FD40A0A2
:1013F00003F0AEFD2146684603F0B4FD002048B07E
:1014000004E438B504460078022801D00A4838BD03
:10141000601C07F0E1FCC5B22046FF30573007F0F2
:10142000DBFC694608703148012228186CE0000096
:10143000441B002070050020F2FF0000580500202A
:101440004D415354455200005D050020534C415618
:1014500045000000BC050020101001085C050020BC
:10146000D9050020C08BD5F701692017760500202B
:1014700043575F4F66667365743D2025640D0A000F
:1014800053617665204357204F66667365743D202F
:10149000256420676F74206661696C210D0A000065
:1014A0000D0A746573745072696E74310D0A000010
:1014B0005854414C204F66667365743D2025640086
:1014C0000D0A746573745072696E74320D0A0000EF
:1014D0000D0A2044756D70696E67204C6F72612033
:1014E0005265677369737465720D0A000078FF1F97
:1014F0000D0A2044756D70696E67204F545020426C
:1015000075666665720D0A0000F03AFC002038BD71
:1015100000B591B001F090FF034614A24021684647
:1015200008F0B2F8684603F013FD01F097FF034698
:1015300014A24021684608F0A7F8684603F008FDA9
:1015400001F09AFF034614A24021684608F09CF877
:10155000684603F0FDFC002011B000BDBFF34F8FC3
:1015600013491248C860BFF34F8FFEE70D0A446568
:10157000766963652049443A3078253038580D0A39
:1015800000000000446576696365205244503A309B
:1015900078253038580D0A00446576696365205710
:1015A00052503A3078253038580D0A000400FA05B8
:1015B00000ED00E0254910B5401E884201D9012008
:1015C00010BD2349486123480722C3691B021B0A37
:1015D0004C042343C361002088610A6110BD10B52B
:1015E0001D487D21C900006807F024FBFFF7E2FFDA
:1015F000002800D0FEE700F035F8FF20083004F0A6
:10160000FAFB1648FAF735FE10BD10B51248142142
:10161000006807F00FFBFFF7CDFF002800D0FEE7C2
:1016200004F0DEFB00F07CF810BD0D490A680B6881
:101630009B1A8342FBD370477D21C9004843084968
:101640000A680B689B1A8342FBD37047FFFFFF00B9
:1016500000E000E004ED00E0C405002000240140AB
:1016600054050020F0B54E4E87B000213046FCF7FF
:10167000F1FA351400212846FBF79DFD3046FCF7B2
:1016800045FA01218804FBF784FD01212846FBF778
:1016900092FD444F00220D213846FBF784FA0022C8
:1016A0000F213846FBF77FFA00220E213846FBF760
:1016B0007AFA0320694648760220087600248C7660
:1016C000C8760003059005A93846FBF700FA6800C4
:1016D000059005A93846FBF7FAF905A9384605959E
:1016E000FBF7F5F96946FF200C800530488007209C
:1016F00000028880CC800C81681148811820888184
:10170000CC81072008823046FCF729FAA910304620
:10171000FCF7C3FA01213046FCF79CFA07B0F0BD94
:101720007CB51F4D00212846FCF794FA2C140021AB
:101730002046FBF740FD2846FCF7E8F903216A46FE
:1017400051711171012191710020D0714803154D23
:10175000009069462846FBF7BAF960000090694698
:101760002846FBF7B4F9694628460094FBF7AFF921
:101770007CBD70B50A4C054602212046FCF70CFBE7
:101780000028F9D029462046FCF7B7FA0121204667
:10179000FCF702FB0028F9D02046FCF7B2FA70BD36
:1017A00000380040000400487CB501218804FBF7A4
:1017B000F0FC01206A46107100219171D0715171C5
:1017C0000403854D694628460094FBF780F9012201
:1017D00021462846FBF7DFF9640069462846009455
:1017E000FBF775F9012221462846FBF7D4F964007E
:1017F000694628460094FBF76AF9012221462846EB
:10180000FBF7C9F96400694628460094FBF75FF9C5
:10181000012221462846FBF7BEF97CBDFEB5072014
:1018200001214004FBF7B5FC012069460871002640
:101830008E71C87103274F7100020925ED060090D3
:101840002846FBF744F901242403694662480094C2
:10185000FBF73DF9012221465F48FBF79CF9042084
:10186000009069465C48FBF732F969460E714F718A
:10187000202000905848FBF72AF9A4106946284612
:101880000094FBF724F96010009069462846FBF7A6
:101890001EF9694650480094FBF719F902200090A0
:1018A00069464D48FBF713F9E000009069464B4844
:1018B000FBF70DF9FEBDFF21092310B50131DB0651
:1018C000012804D000221846FBF765F910BD01225B
:1018D000F9E7F8B5012715460E4604463F030022F6
:1018E00039463D48FBF757F980202043FFF741FF79
:1018F000002404E0305DFFF73CFF641CE4B2AC421E
:10190000F8D3012239463448FBF745F9F8BD13B541
:10191000012201A9FFF7DDFF1CBDF8B5012715461F
:101920000E4604463F03002239462B48FBF733F9A5
:101930006006400EFFF71DFF002405E00020FFF7C2
:1019400018FF3055641CE4B2AC42F7D3012239468B
:101950002148FBF720F9F8BD0122DEE70A460146DF
:101960000020B6E70A4601460020D6E710B5202140
:101970001948FBF7FAF810BD10B5012109208902BA
:10198000C006FBF7F2F810BD10B50121092049028D
:10199000C006FBF7EAF810BD10B5012189020E4818
:1019A000FBF7E3F810BD10B502210B48FBF7DDF89B
:1019B00010BD10B5012149030848FBF7D6F810BD4A
:1019C00010B5054B002801D0002200E001220421BF
:1019D0001846FBF7E0F810BD000400480008004876
:1019E000FFB581B00A981C460D4600280DD0032192
:1019F00007F020F9002900D001214218994B292134
:101A0000C9439A4205D98A1107E00399002008606A
:101A100057E09200521C954204D203980260084697
:101A200005B0F0BD41004018844600218E4E01985B
:101A30001BE0237865781F06BF0EA278F75D07705C
:101A40001B012F11DB199B069B0EF35C4370AB004F
:101A500095115B199B069B0EF35C92068370920EA8
:101A6000B25CC270001DC91CE41C6145E1D30A9A36
:101A7000914220D22378491C641C914201D22278E1
:101A800000E000221C06A40E345D04701B0114113A
:101A90001B199B069B0EF35C43700A9C3D23801C24
:101AA000A14204D21107890E715C017000E003703D
:101AB000401C0370401C0199421A03990A600021DE
:101AC00001700020ACE7FFB5002196460D462B22A1
