:020000040800F2
:10C00000F0330020BDEC0008E91C0108EB1C01081E
:10C010000000000000000000000000000000000020
:10C02000000000000000000000000000F31C0108F8
:10C030000000000000000000F51C0108F71C0108CA
:10C04000EDEC0008EDEC000875490108EDEC000886
:10C05000EDEC00089D460108EDEC0008CD46010816
:10C06000EDEC0008EDEC0008EDEC0008EDEC00084C
:10C07000EDEC0008EDEC0008EDEC0008EDEC00083C
:10C08000EDEC0008EDEC0008EDEC0008A15401080F
:10C09000EDEC0008EDEC0008EDEC0008EDEC00081C
:10C0A000EDEC0008EDEC0008EDEC00086F5801081D
:10C0B00083560108EDEC0008EDEC0008EDEC0008FB
:10C0C000034885460DF0E2FA00480047AF2E01080C
:10C0D000F0330020864910B5884208D1441501216B
:10C0E000204601F07AF80021204601F076F810BDD4
:10C0F00030B5C2687F4B8C681A400B680D792343BA
:10C10000CC686D032C4323430C69496923430B43DB
:10C110001343C36030BD0021016001718160C160C3
:10C120000161416170470029816801D0012200E06E
:10C13000022211438160704701617047002A026941
:10C1400001D00A4300E08A43026170470122D20312
:10C150000029C16801D0114300E09143C1607047DC
:10C16000012292030029C16801D0114300E09143EC
:10C17000C16070470122D2050029C16801D0114376
:10C1800000E09143C16070470904114301627047A8
:10C19000C2681F239B069A430A43C260704701226C
:10C1A00092050029C16801D0114300E09143C160AC
:10C1B000704701225049D2050028886801D01043F9
:10C1C00000E090438860704701224B4992050028A7
:10C1D000886801D0104300E09043886070470122D6
:10C1E000454912060028886801D0104300E09043BA
:10C1F00088607047836A0B43836242617047012203
:10C2000052030029C16801D0114300E09143C1608D
:10C210007047012212040029C16801D0114300E0D7
:10C220009143C1607047012212030029C16801D007
:10C23000114300E09143C1607047826800210123EF
:10C24000DB071A4382600F231B038268491CD20F4D
:10C25000D207994201D0002AF7D18168002901DB79
:10C26000006C704700207047816810221143816084
:10C27000704781680422114381607047006C80B26E
:10C2800070470029C16802D00122114301E049082A
:10C290004900C1607047C26802239A43C260C26805
:10C2A0000A43C2607047002A426801D00A4300E096
:10C2B0008A434260704702460020CB0104D5926851
:10C2C00001231B069A4300E012680A4200D00120B5
:10C2D00070470160704702465368002012680B40A7
:10C2E0000A4202D0002B00D0012070470160704745
:10C2F0000024014003D2FFFF00270140F0B5016890
:10C300006A4A114001600021016041608160C160A2
:10C310006749674A08390F2390422DD0644AF024B8
:10C32000143290422FD0624A1D022832904231D0FE
:10C330005F4E1A033C36B04203D1486815E04860AE
:10C34000F0BD5B4F0F2650373604B8422DD0584F02
:10C350006437B84202D14868320106E0544F78375A
:10C36000B84204D148680F2212061043E7E751494A
:10C37000504F0839B84202D148681843DFE74D4BA7
:10C380001433984202D148682043D8E7494B2833F8
:10C39000984202D148682843D1E7464B3C33984243
:10C3A000CBD0444A50329042CAD148683043C6E7A5
:10C3B00030B50368404A0C6A13408A684D692243CD
:10C3C0000C692C4322438C692243CC6922434C6A7A
:10C3D00022438C6A22431A430260CA6842600A6898
:10C3E00082604968C16030BD0021016041608160A8
:10C3F000C160016141618161C1610162416281622B
:10C4000070470029016802D00122114301E0274A48
:10C4100011400160704710B58030826A0B0F9C009C
:10C420000F23A3409A438262826A090109090A43E1
:10C43000826210BD41607047406880B27047002A38
:10C44000026801D00A4300E08A4302607047024656
:10C450000020D10002D51749083901E014490839F4
:10C460000968114200D001207047C10002D511496E
:10C47000083901E00E49083948607047024600203B
:10C48000D10002D50B49083901E00949083909688A
:10C49000114200D001207047C10002D5054908397A
:10C4A00001E003490839486070470000FEFF0000C2
:10C4B00008000240080402400F80FFFF30482F4967
:10C4C0000160002141608160C1602E494161704777
:10C4D00010B583792A490268002B26D00B68934354
:10C4E0000B604A6803689A434A60027952181368DD
:10C4F0000468234313608A6803689A438A60CA68A1
:10C5000003689A43CA604279102A05D051180A6814
:10C51000006802430A6010BD8A6803681A438A6093
:10C52000CA6800680243CA6010BD007940180168FB
:10C530009143016010BD0021016001710C22427124
:10C54000817170470E490A6902430A6170470C4ABB
:10C550000146526900200A4200D001207047084974
:10C5600048617047064A0146526900200A4200D0DD
:10C570000120704702494861704700000000940F95
:10C5800000040140FFFF6B00FE4A116849084900A2
:10C59000014311607047FB4910220028086801D050
:10C5A000104300E0904308607047F6490020096896
:10C5B000890600D501207047F2480169090603D5B4
:10C5C000F1494160F14941607047EE4801698022BC
:10C5D000114301617047EB490420CA68D20701D0BA
:10C5E00001207047CA68D20601D502207047C96889
:10C5F0004907FBD50320704700B50346FFF7EBFF63
:10C6000002E0FFF7E8FF5B1E012803D0002B00D1FA
:10C61000052000BD002BF4D1FAE7F0B50B27064644
:10C620003F043846FFF7E8FF04280FD1D54C2069B6
:10C63000022528432061666120694021084320616A
:10C640003846FFF7D9FF2169A9432161F0BD70B5D4
:10C650000B252D042846FFF7CFFF04280ED1C94C27
:10C66000206904263043206120694021084320616D
:10C670002846FFF7C1FF2169B143216170BDF8B5BC
:10C68000064600200B273F0400900D463846FFF772
:10C69000B3FF042815D1BB4C206901210843206158
:10C6A00035803846FFF7A8FF042806D1B61C290CB0
:10C6B000009631803846FFF79FFF216949084900FD
:10C6C0002161F8BDF0B50B2706463F040D463846FC
:10C6D000FFF792FF04280CD1AA4C206901210843DE
:10C6E000206135803846FFF787FF216949084900F6
:10C6F0002161F0BDA3480169890503D4A249816085
:10C70000A249816070479F480169421591430161C8
:10C7100070479C480169012252031143016170472F
:10C7200098490020C9694907890F00D00120704746
:10C73000F0B5AA24FFF7F4FF002800D000240B274F
:10C740003F043846FFF758FF042813D18D4D286960
:10C750002026304328612869402108432861384653
:10C76000FFF74AFF1021042805D0052802D02A69C6
:10C770008A432A61F0BD2869B043286128690E46C2
:10C7800030432861824804803846FFF735FF05288A
:10C79000F0D02969B1432961F0BDF0B5C04301046F
:10C7A0000E0E0102C7B2040E0B200D0E0004FFF79F
:10C7B00023FF042831D173490A6910231A430A61FF
:10C7C000FF2F07D0724807810B200004FFF714FFEA
:10C7D00004281BD1FF2E07D06D4846810B20000492
:10C7E000FFF70AFF042811D1FF2D07D06848858183
:10C7F0000B200004FFF700FF042807D1FF2C07D00F
:10C800006348C4810B200004FFF7F6FE052804D01E
:10C810005C490B69102293430B61F0BDF0B50B2707
:10C8200006463F043846FFF7E7FE04281ED1554C64
:10C830002069202528432061206940210843206188
:10C840003846FFF7D9FE04280BD12069A8432061A0
:10C8500020691025284320614D4806803846FFF79F
:10C86000CBFE052802D02169A9432161F0BDF0B5B6
:10C8700006460B2094460F460004FFF7BDFE042831
:10C8800014D1404C20691025284320613E43604666
:10C890000643F82006433E4846800B200004FFF77D
:10C8A000ABFE052802D02169A9432161F0BDF0B596
:10C8B0000B2706463F043846FFF79EFE042810D19A
:10C8C000304C2069102528432061EF200643304872
:10C8D00046803846FFF790FE052802D02169A9431B
:10C8E0002161F0BDF0B50B2706463F043846FFF73F
:10C8F00083FE042810D1234C206910252843206191
:10C90000F7200643224846803846FFF775FE052883
:10C9100002D02169A9432161F0BDF0B50B2706467D
:10C920003F043846FFF768FE042810D1154C2069F3
:10C930001025284320617F2006431548468038464D
:10C94000FFF75AFE052802D02169A9432161F0BDF5
:10C95000F0B50B2706463F043846FFF74DFE042886
:10C9600019D1084C2069102528432061DF20064397
:10C97000074846803846FFF73FFE05280BD021695F
:10C98000A94307E00020024023016745AB89EFCDB2
:10C9900000F8FF1F2161F0BDF0B50B2706463F04EC
:10C9A0003846FFF729FE042810D1304C20691025A5
:10C9B00028432061BF2006432D4846803846FFF7B4
:10C9C0001BFE052802D02169A9432161F0BDF0B505
:10C9D0000B2706463F043846FFF70EFE04280ED10B
:10C9E000224C206910252843206121484680384682
:10C9F000FFF702FE052802D02169A9432161F0BD9D
:10CA0000F0B507460B200E460004FFF7F5FD04289D
:10CA10000ED1164C20691025284320613E800B2042
:10CA20000004FFF7E9FD052802D02169A94321612F
:10CA3000F0BD0E48C0690004000E70470B48006A44
:10CA400070470A4A0029116901D0014300E081437F
:10CA500011617047054A0146D26800200A4200D0A1
:10CA6000012070470149C860704700000020024063
:10CA700000F8FF1F092110B5C906884202D1012123
:10CA80004C0404E05049884209D1012104022046A7
:10CA900000F09AFB0021204600F096FB10BD4B49A8
:10CAA000884202D101210402F1E74949884202D1BA
:10CAB00001210C05EBE74749884202D101214402DC
:10CAC000E5E745498842E9D101218C05DFE7F0B56A
:10CAD0000022032501230C6893401C409C422AD16C
:10CAE0000C79012C01D0022C12D1876854002E46FB
:10CAF000A640B74387604E79A64084682643866087
:10CB000084889C43848084888B7993401C438480F0
:10CB1000066853002C469C40A64306600E790768C1
:10CB20009E403E430660C668A643C660CC799C40E2
:10CB3000C3681C43C460521C102ACBD3F0BD2749E4
:10CB4000016000210171012242718171C171704740
:10CB5000012208B512040A430092C261C161009922
:10CB6000C161C169C069009008BD0246128A0020F7
:10CB70000A4200D001207047008A70470246928A1C
:10CB800000200A4200D001207047808A70478161EE
:10CB9000704701857047002A01D081617047018587
:10CBA0007047818270474B07DB0E9A40C90810B569
:10CBB00089000818016A0F249C40A1430162016AA0
:10CBC0001143016210BD0000000400480008004845
:10CBD000000C00480010004800140048FFFF00004F
:10CBE00030B5827801240178002A15D08B08174AC5
:10CBF0009B009A1813688907C90EFF258D40AB4327
:10CC00004578AD072D0E8D401D4315600078C00698
:10CC1000C00E84400E4804E0C806C00E84400C4894
:10CC20008030046030BD0B4A0029116901D00143F6
:10CC300000E0814311617047042207490428086914
:10CC400002D09043086170471043FBE700E400E026
:10CC500000E100E000ED00E000E000E010B501219F
:10CC60000C07204600F0C2FA0021204600F0BEFA70
:10CC700010BD32498A150028086801D0104300E031
:10CC80009043086070472D4A1168E023994301439F
:10CC900011607047294910220028086801D010430C
:10CCA00000E0904308607047244A0029516801D091
:10CCB000014300E081435160704721490A69042320
:10CCC0009A430A61012803D040BF20BF20BF7047AC
:10CCD00030BF7047194B1A689208920002431A60DD
:10CCE00017480369042213430361012906D002296E
:10CCF00006D00169022211430161704730BF00E094
:10CD000020BF01699143F7E70C48016802221143F3
:10CD100001600B48016904221143016130BF704773
:10CD2000064A0146526800200A4200D0012070479E
:10CD300002490A68800002430A60704700700040A0
:10CD400000ED00E0F94801680122114301604168EB
:10CD5000F74A114041600168F64A114001600168DC
:10CD6000012292049143016041683F2212049143E1
:10CD70004160C16A09090901C162016BEE4A1140B3
:10CD80000163416B4908490041630021816070479C
:10CD9000E64900228A708870704703460020E34A03
:10CDA00059090CD001290CD002290CD0516BDA069C
:10CDB000D20E012393400B4200D00120704711682E
:10CDC000F5E7116AF3E7516AF1E718B50020052489
:10CDD000240300901120FFF7E0FF0099491C009107
:10CDE000A14201D00028F5D01120FFF7D6FF00287E
:10CDF00000D0012018BDCD4A1168F8239943C00026
:10CE0000084310607047C9490028086802D0012211
:10CE1000104301E04008400008607047C34A516B6E
:10CE2000F8239943C000084350637047BF49002866
:10CE3000486B02D00122104301E0400840004863E3
:10CE40007047BA4904220028486B01D0904300E0A3
:10CE5000104348637047B5490A6A520852000A6293
:10CE60000A6A04239A430A620A6A02430A62704702
:10CE7000AE490A6A18239A430A620A6A02430A629E
:10CE80007047AA490028486A02D00122104301E0F5
:10CE9000400840004862704710B5A44A53687B249C
:10CEA000E403A3435360536808430343536010BD36
:10CEB00001229E4912060028086801D0104300E0B4
:10CEC0009043086070470122984912040028486B7B
:10CED00001D0104300E0904348637047934AD16A01
:10CEE000090909010143D162704701228F49D20427
:10CEF0000028086801D0104300E0904308607047A4
:10CF00008A4B5A681202120A0006084310435860FE
:10CF10007047864A5168890889000143516070470B
:10CF2000824840680C2108407047804A5168F023CD
:10CF300099430143516070477C4A516807231B02A3
:10CF4000994301435160704778494A6801239B0324
:10CF50009A434A604A6883B21A434A600A6B8B1547
:10CF60009A430A630A6B000C02430A6370476F49D5
:10CF70000A6B40239A430A630A6B02430A637047B1
:10CF80006A490A6B10239A430A630A6B02430A63D5
:10CF90007047010F654A01290AD00229116B0BD095
:10CFA00003239B0499431163116B01431163704781
:10CFB000116B89088900F6E703231B04F2E75B493C
:10CFC0000A6B80239A430A630A6B02430A63704721
:10CFD000F8B5564E0446706800210C22574D10409B
:10CFE00006D0574A042805D0082805D00C281CD0A4
:10CFF00025601CE022601AE07168706803238902D2
:10D00000DB030F0F1840BF1C00280AD0F06A01078D
:10D01000090F1046491C0BF0ADFE78430146216014
:10D0200005E0484839464143F9E7474820607068C1
:10D03000464F0006000F3B5C20680246DA40626003
:10D0400073685B055B0FFB5CDA40A260336BDB054A
:10D0500001D43F4B05E073685B0401D4530800E042
:10D060009308E360336B5F063A4B03D4394F1237B2
:10D07000276100E02361376BFF0601D4656100E0A2
:10D080006061376BBF070ED0376BBF07BF0F012F33
:10D090000BD0376BBF07BF0F022F08D0376BFF4392
:10D0A000BF0706D006E0A26104E0A06102E0A36130
:10D0B00000E0A561376BBF03BF0F0FD0376BBF0315
:10D0C000BF0F012F0CD0376BBF03BF0F022F09D04A
:10D0D000376BBF03BF0F032F06D006E0E26104E009
:10D0E000E06102E0E36100E0E561376B3F03BF0F01
:10D0F0000FD0326B1203920F012A0CD0306B000359
:10D10000800F022809D0306B0003800F032806D05F
:10D1100006E0226204E0206202E0236200E0256271
:10D12000306B000618D408486062F8BD0010024059
:10D130000CB8FF08FFFFF6FEACFEF0FF00127A000D
:10D1400080BA8C0100093D00006CDC02C0000020A8
:10D15000809FD500008000006162E6E735490A6AD9
:10D1600002430A62704701223249D2030028086A4A
:10D1700001D0104300E090430862704701222D491E
:10D1800012040028086A01D0104300E090430862AE
:10D190007047284A0029516901D0014300E08143CA
:10D1A00051617047234A0029916901D0014300E091
:10D1B0008143916170471F4A0029D16901D0014321
:10D1C00000E08143D16170471A4A0029916A01D079
:10D1D000014300E0814391627047164A0029D168FB
:10D1E00001D0014300E08143D1607047114A00291A
:10D1F000116901D0014300E08143116170470D4A7C
:10D200000029517A01D0014300E0814351727047F7
:10D210000848416A01221206114341627047054ADB
:10D220000146926800200A4200D00120704701495F
:10D23000887270470010024018B50020FA4B009029
:10D240009868800601D5012018BDCA205862532075
:10D250005862D868A0218843D86020218C02D86801
:10D26000009A0840521C0092A24201D00028F6D039
:10D27000D868800601D5012000E00020FF21596216
:10D2800018BD18B50020E84B0090D868400612D4AD
:10D290000020C043D86040210C02D868009A0840A2
:10D2A000521C0092A24201D00028F6D0D868400655
:10D2B00001D4002018BD012018BD30B50025DA4C7E
:10D2C000CA20606253206062FFF7DBFF002816D09F
:10D2D00000212160D5486061D5486060A068A160E8
:10D2E000D4482061E161E162E163CF4840304160B0
:10D2F000E1600160FFF7A0FF002800D00125FF20BA
:10D300006062284630BDC848C16880229143C16030
:10D31000704770B505460026C34CCA206062532092
:10D320006062FFF7AEFF002811D0A068402188435B
:10D33000A060A06829680843A060A86820612069EF
:10D34000A988090408432061FFF7DDFF0126FF20BB
:10D350006062304670BD002101607F214160FF2185
:10D3600081607047B049002801D0FF2002E0CA2048
:10D37000486253204862704770B506460025AA4CA3
:10D38000CA20606253206062FFF77BFF00280AD04A
:10D390001021A068002E01D0084300E08843A0605F
:10D3A000FFF7B1FF0125FF206062284670BD9E494E
:10D3B000CA224A6253224A620028886802D0202288
:10D3C000104301E0DF2210408860FF204862704770
:10D3D000F8B50C460026011E934F2078B9683246F6
:10D3E00004D049062DD500F085FB2BE0490600D47A
:10D3F000E27000F073FB0504607800F06FFB000240
:10D400000543A07800F06AFB0543E078000405437B
:10D41000CA20786253207862FFF733FF00280CD0CF
:10D42000854805403D60FFF76EFFB868800603D46D
:10D43000FFF702FF002800D00126FF207862304667
:10D44000F8BDE2702078A578000405436078E178A3
:10D45000000209040843DAE70021C170017041703D
:10D460008170704770B503466F480C460268724879
:10D470001146014088024D04800E20706D0E490651
:10D480006570490EA1705102490E40221140E170B1
:10D49000002B0AD100F02EFB2070607800F02AFBF0
:10D4A0006070A07800F026FBA07070BD5E49886AAD
:10D4B0004968704770B50C460026010060780ED0B0
:10D4C00000F018FBA07800F015FBE078A5780004C8
:10D4D00005436078217800024903084314E0C1063F
:10D4E00003D5EF2108400A306070E07800F0F6FACA
:10D4F0000504607800F0F2FA00020543A07800F01D
:10D50000EDFA0543207840030543474CCA2060628A
:10D5100053206062FFF7B5FE00280CD04748054055
:10D520006560FFF7F0FEA068800603D4FFF784FE75
:10D53000002800D00126FF206062304670BD012126
:10D540000170817041700021C1707047024610B5B2
:10D5500035480C464068C021C94301400002000E16
:10D56000CB04E070DB0E63708B069B0E0904490F41
:10D57000A3702170002A0AD100F0BCFAE070607834
:10D5800000F0B8FA6070A07800F0B4FAA07010BD96
:10D5900070B50021244E0028B068144620D0400603
:10D5A00035D5207800F0A6FA207B00F0A3FA207889
:10D5B000A578000405436078E17800020904084377
:10D5C0000543207B00060543A068054360680543CA
:10D5D000CA20706253207062F561FF20706270BDD6
:10D5E000400600D4E170207800F078FA05046078F5
:10D5F00000F074FA00020543A07800F06FFA0543CA
:10D60000E07800040543207B00F068FADAE7E17077
:10D61000CAE70021C17001704170817001228160F0
:10D62000027341607047000000280040FFFF0000C7
:10D6300001210000FF007F007F7F7F003FFFFF0090
:10D6400070B514460246FE48C16940258802800E26
:10D650004B0420705B0E63704B065B0EA3700B0CCB
:10D660002B40E3708B009B0E23732B060B40A360B3
:10D67000F44B19406160002A0ED100F03BFA207093
:10D68000607800F037FA6070A07800F033FAA0708C
:10D69000207B00F02FFA207370BD18B50022009295
:10D6A000E74BCA225A6253225A620029996802D073
:10D6B0000143996012E081439960000A0124A403A8
:10D6C000D968009A0140521C0092A24201D0002960
:10D6D000F6D0D968014201D1002000E00120FF21ED
:10D6E000596218BDD648CA234362532343621206C7
:10D6F0000A43D34940314A60FF21416292E7D04852
:10D70000403040684004400C8CE7CD49CA224A6250
:10D7100053224A628A68D208D2008A608A68024329
:10D720008A60FF2048627DE7C549CA224A625322C7
:10D730004A624861FF20486274E7C148406980B28C
:10D7400070E718B500210091BD4ACA2151625321EA
:10D75000516211150028906802D00843906011E0D2
:10D760008843906004231C03D06800991840491C2A
:10D770000091A14201D00028F6D0D068400701D422
:10D78000002000E00120FF21516218BD10B5AC4A15
:10D79000CA2353625323536293680124A404A3430E
:10D7A00093609368084303439360FF20506210BD69
:10D7B000A348806801218904084033E710B5A04AD6
:10D7C000CA23536253235362936807242405A34357
:10D7D00093609368084303439360FF20506210BD39
:10D7E0009749CA224A6253224A620122D20500287E
:10D7F000886801D0104300E090438860FF204862B1
:10D8000010E78F49CA224A6253224A628A6801237A
:10D81000DB049A438A608A6802438A60FF20486278
:10D8200000E770B50023864CCA2565625325656202
:10D83000E568ED0307D5A514E668F60303D5AB420A
:10D8400001D05B1CF8E7E368DB0304D40843104312
:10D85000E063012000E00020FF21616270BD10B58F
:10D86000774B9A68784C2240002901D00243D814A3
:10D870000243CA205862532058629A60FF205862BF
:10D8800010BD70B50D466E4914460B6B6F4A496B5F
:10D890001A40C026F64331409602B60E2E7056044A
:10D8A000760E52066E70520EAA705A02520E402325
:10D8B0001A40EA700022E270CA04D20E62708A0630
:10D8C000920E0904490FA2702170002817D1287800
:10D8D00000F010F92870687800F00CF96870A878EA
:10D8E00000F008F9A870607800F004F96070A07882
:10D8F00000F000F9A070207800F0FCF8207070BDF6
:10D900004F48806B8EE64E4A400040320029116835
:10D9100002D00143116085E68143FBE7484A40326B
:10D920000029116801D0014300E08143116079E6CC
:10D93000434940310A680323DB029A430A600A68BC
:10D9400002430A606EE63E4940310A6807231B0223
:10D950009A430A600A6802430A6063E63849403124
:10D960000A6803235B039A430A600A6802430A6059
:10D9700058E63349802240310028086801D010431E
:10D9800000E0904308604DE62D494031CA1300285D
:10D99000086801D0904300E01043086042E6284A3E
:10D9A00008B55032800080180090016008BD2449FD
:10D9B00008B55031800040180090006808BD20492B
:10D9C00040310A6801239B049A430A600A680243B3
:10D9D0000A6027E630B50022194CCA23636253233C
:10D9E0006362E3681B0707D5A314E5682D0703D519
:10D9F0009A4201D0521CF8E7E26812070AD4A268E2
:10DA0000D20607D40143E162FFF716FC002802D0DA
:10DA1000012000E00020FF21616230BD30B5084BDD
:10DA2000CA225A6253225A6204250246044CAA436F
:10DA300040342840002999680DD01143996007E0CF
:10DA40000028004080808080F7F7FFFF7F7F7F0005
:10DA50002168014303E0914399602168814321607B
:10DA6000FF20586230BD27490246C9680020264B76
:10DA70001940114200D00120D4E580210843C003A1
:10DA8000C00BC3431F48C2680A401343C360C9E5C3
:10DA900070B51C4A0021403212680423194C1A4008
:10DAA000A368860C0546F540ED0B15400340E2687F
:10DAB0002B4300090240002B03D01004000C00D0BF
:10DAC0000121084670BD00098021084380B20D4A3B
:10DAD000C343D06808400343D360A3E5002103E0BB
:10DAE000491C0A38C9B2C0B20A28F9D20907090E7E
:10DAF000084397E501090A2200075143000F401827
:10DB0000C0B28FE50028004078790100B24910B515
:10DB1000884209D1841401212046FFF75EFB0021D1
:10DB20002046FFF75AFB10BDAC498842FBD10414D4
:10DB300001212046FFF75AFB00212046FFF756FB44
:10DB400010BD002101800722418012028280C18025
:10DB5000018141818181C18107210182704730B5F6
:10DB60000388C122920113400A88CC890D8922437F
:10DB7000CC882C4322434C8922438C8922431A436C
:10DB800002808288964B1A408B88134383800A8ACE
:10DB900002820288042349889A4311430180818BC1
:10DBA000904A1140818330BD0021018041808180F5
:10DBB000C1800222826081817047F0B505460C4623
:10DBC00002200021AA8B8BB00126854BBF3B1A4057
:10DBD000AA832884AF8BA268022A1FD0A0880028BD
:10DBE00000D002266846FFF7F3F9E1880098CA1FC3
:10DBF000FF3AFA3A29D071010BF0BCF80A214843E8
:10DC0000A1680BF0B7F8401D80B20A210BF0B2F802
:10DC1000C107C90F401AC003000C0902821EFE2A68
:10DC200001D302200021E288084302432A8420888D
:10DC30006188A2890843A188114308430121384320
:10DC4000C9020843A8830BB0F0BD000A0A22504362
:10DC5000A168D6E740220029018801D0114300E0E5
:10DC600091430180704710220029818801D011431F
:10DC700000E09143818070470029818B03D001220D
:10DC80009202114301E0584A114081837047828813
:10DC9000534B1A400A43828070478288534B1A4084
:10DCA000828082880A4382807047012292039142D7
:10DCB000018801D1114301E04D4A114001807047B4
:10DCC0004C4A9142018803D0FF220132114300E007
:10DCD00011400180704704220029818801D011433E
:10DCE00000E091438180704708220029818801D09B
:10DCF000114300E091438180704701737047818137
:10DD00007047007B7047808970470288354B1A4006
:10DD1000028002880A43028070470029018803D0EC
:10DD200001225203114301E0334A11400180704740
:10DD3000018801221203114301807047012901D09B
:10DD4000008B7047808A7047008A7047002A82885B
:10DD500001D00A4300E08A43828070478288274BC3
:10DD60001A40828082880A43828070470909012311
:10DD70008B40002A828899B201D00A4300E08A438E
:10DD80008280704700890321C902084070470089DA
:10DD900003214902084070470246128900200A42C6
:10DDA00000D001207047C9430181704730B50D078D
:10DDB00001242D0F2346AB400246002009098C4068
:10DDC00091889BB2A4B2128921401A4202D0002944
:10DDD00000D0012030BD000000300140003800407C
:10DDE000FFF00000FFF70000FFFB0000FFEF000066
:10DDF000FFBF0000FFFE0000FFDF0000FF9F0000EC
:10DE00002E4801688907890F016000218160C16087
:10DE10000161416181698215114381617047274A1F
:10DE2000116889088900014311607047234A00295D
:10DE3000116801D0014300E08143116070471F4A1F
:10DE40000029116801D0014300E08143116070474F
:10DE50001A490A68C0239A430A600A6802430A60A2
:10DE600070478A0710B5120F0F2393408C0813498F
:10DE7000A40061188C689C438C608B6890400343BD
:10DE80008B6010BD0D4A010E890080328918096827
:10DE90000002000A0840704708498A6902438A6103
:10DEA0007047064900208969C90500D501207047DF
:10DEB00002498A6902438A617047000000000140FC
:10DEC000F94910B5884202D10121C4143AE0012178
:10DED0008907884206D101210846FFF787F900210A
:10DEE000012008E0F149884208D101210220FFF712
:10DEF0007DF900210220FFF779F910BDEC49884235
:10DF000006D101211020FFF771F900211020F2E75E
:10DF1000E849884206D101212020FFF767F9002156
:10DF20002020E8E7E449884207D1841501212046F2
:10DF3000FFF75CF900212046DDE7E049884209D17E
:10DF400001210C042046FFF748F900212046FFF785
:10DF500044F910BDDA49884202D101214C04F1E7AD
:10DF6000D8498842F5D101218C04EBE710B502882D
:10DF7000CD4B984206D00124A407A04202D0CB4C3E
:10DF8000A04203D17024A2434C882243C84CA04233
:10DF900003D0CD4C22400C89224302804A68C262E1
:10DFA0000A880285984208D0C44A904205D0C44AE3
:10DFB000904202D0C34A904201D1897A0186012160
:10DFC000818210BD0021C94341600021018001818F
:10DFD0004180817270470185828270470288702378
:10DFE0009A430A430280704741627047C16270479A
:10DFF000406A7047008D704702220029018801D0D5
:10E00000114300E0914301807047042200290188F8
:10E0100001D0114300E09143018070478022002924
:10E02000018801D0114300E09143018070470288CC
:10E0300008239A43028002880A43028070470288BC
:10E04000A14B1A40028002880A43028070470029CF
:10E05000018802D00122114301E0490849000180F2
:10E06000704710B50A884B88CC881A438B882343A5
:10E070001A430B891A434B8989891A430A43403052
:10E08000828010BD0021018041808180C18001819A
:10E0900041818181704740300029818803D001226D
:10E0A000D203114301E04904490C8180704770B5E7
:10E0B000028C520852000284048C8288038B7025E3
:10E0C000AB439B080D889B001D4302239C438E8914
:10E0D0004B882643744C3343A04208D0774CA0426F
:10E0E00005D0774CA04202D0764CA0420DD1082436
:10E0F000A343CC891C4304239C438B882343724C49
:10E1000022400C8A14434A8A22438280058389680C
:10E110004163038470BD70B5028C10239A4302845E
:10E12000048C8288038B694D2B400D782D062D0CB5
:10E130001D4320239C438B891B051E0C4B882643C3
:10E140001B051B0C584C3343A04202D05B4EB0421F
:10E1500019D15F4E32400E8AB604360C3243A042CB
:10E1600011D18024A343CC892405240C1C434023D3
:10E170009C438B881B051B0C2343564C22404C8A26
:10E18000A404240C2243828005838968816303846C
:10E1900070BD30B5028C504B1A400284038C8288CB
:10E1A000848B7025AC43A4080D88A40025434B4CF8
:10E1B00023400C7B2406240C1C438B781B061B0C71
:10E1C0002343394CA04215D1424C23408C7B24067A
:10E1D000240C1C433E4B1C400B791B061B0C234399
:10E1E0003F4C22400C8A2405240C14434A8A120511
:10E1F000120C2243828085838968C163038430BD09
:10E2000030B5028C374B1A400284058C8288838B90
:10E210002E4C23400C782406240C1C43324B1D400A
:10E220000B7B1B071B0C2B438D782D072D0C1D43DF
:10E230001D4B984205D12D4B13400A8A9205120CB2
:10E240001A438280848389680164058430BD00217B
:10E2500001804180818081608181C1810182418210
:10E26000704730B5034618330124058C8C40A54314
:10E270000584002910D008290ED0091F0804400C7D
:10E28000C018016807231B03994301600168120647
:10E29000120C1143016030BD4808C018016870239A
:10E2A000994301600168F4E7002C0140000400403C
:10E2B00000100040001400400020004000400140D9
:10E2C0000044014000480140FFFC0000FF8C0000BA
:10E2D000FFFB0000FFF70000FFFE0000FFFD000055
:10E2E000FFCF0000FFEF0000FFDF0000FFBF0000D6
:10E2F0004163704781637047C16370470164704731
:10E30000028B70239A430A4302837047028BF64BB9
:10E3100009021A40114301837047828B70239A438C
:10E320000A4382837047828BEF4B09021A401143E4
:10E33000818370470029818802D00122114301E0C6
:10E340004908490081807047028B08239A430A4399
:10E3500002837047028BE54B09021A401143018387
:10E360007047828B08239A430A4382837047828BCB
:10E37000DE4B09021A40114381837047028B04234C
:10E380009A430A4302837047028BD94B09021A4011
:10E39000114301837047828B04239A430A4382838B
:10E3A0007047828BD24B09021A4011438183704718
:10E3B000028B80239A430A4302837047028B5204E4
:10E3C000520C0902114301837047828B80239A43C8
:10E3D0000A4382837047828B5204520C0902114314
:10E3E00081837047028C02239A430A430284704758
:10E3F000028C08239A430A4302847047028C20232C
:10E400009A430901114301847047028C80239A4387
:10E410000901114301847047028CB64B09021A406E
:10E42000114301847047028CB04B09021A4011431A
:10E4300001847047028CB04B09031A4011430184D8
:10E440007047028908239A43028102890A430281A4
:10E45000704710B50123048C8B409C430484038CCB
:10E460008A401343038410BD10B50423048C8B40F1
:10E470009C430484038C8A401343038410BD04220C
:10E480000029818801D0114300E0914381807047C9
:10E49000828B9A4B1A408283828B09020A438283C1
:10E4A0007047828B0C239A438283828B0A43828338
:10E4B0007047028B914B1A400283028B09020A4378
:10E4C00002837047F0B5048C1026B4430484058B96
:10E4D000048C8B4F1B0309013D402B4312021A434E
:10E4E000A0239C430C43344302830484F0BD028B7D
:10E4F0000C239A430283028B0A430283704770B550
:10E50000048C640864000484058B048C1B01134391
:10E51000F3260A22B54394432B430C4301210C43B9
:10E520000383048470BDF8B5054608884E888A8840
:10E530000B890C4600281DD0042824D00828288CDC
:10E540002AD0704908402884A88B2F8C31036C4E48
:10E55000120230400243180310436B4AA88317404D
:10E560000F43012109030F432F84E1882846FFF759
:10E570008FFFF8BD31462846FFF7C1FFE1882846E6
:10E58000FFF7B5FFF8BD31462846FFF79BFFE1884E
:10E590002846FFF78EFFF8BD5C4908402884A98B08
:10E5A000288C3702F3261B01B14313430B43584910
:10E5B000AB830840FF213843013108432884E188B8
:10E5C0002846FFF76EFFF8BD00210180418001223F
:10E5D0008280C18001817047F8B50C4649880026C9
:10E5E00001250746002900D10226A288012A00D170
:10E5F0000225208823890028384610D0FFF762FFC3
:10E60000E1883846FFF755FF23892A4631463846C8
:10E61000FFF775FFE1883846FFF769FFF8BDFFF7A0
:10E620006EFFE1883846FFF762FF23892A463146AC
:10E630003846FFF747FFE1883846FFF73AFFF8BD55
:10E64000406B7047806B7047C06B7047006C7047C1
:10E65000002A828901D00A4300E08A438281704700
:10E66000818270470246128A00200A4200D00120AF
:10E670007047C943018270470246138A002092897D
:10E680000B400A40002B02D0002A00D00120704726
:10E69000C943018270471143403001817047002A0D
:10E6A000828901D00A4300E08A43828170470822B0
:10E6B0000029818801D0114300E091438180704797
:10E6C0000189C908C90001817047028970239A43F2
:10E6D0000A430281704710B50446FFF7F6FF208910
:10E6E00007210843208110BDFF8F0000FFF70000C5
:10E6F000FFFB0000FFFD0000FFDF0000FFF3000054
:10E70000FF0C0000FFEF0000FF5F0000FFFE0000B5
:10E71000FFF5000070B516460D46044660290CD082
:10E7200001223146FFF7EBFE29462046FFF7CDFFD9
:10E73000208907210843208170BD01223146FFF75F
:10E74000C1FEF1E710B504891B021343E4B20B4389
:10E750002343038110BD10B50446FFF7F3FF208962
:10E76000C108C90007200143702081430143218172
:10E7700010BD10B50446FFF7E5FF2089012189038C
:10E780000843208110BD828870239A43828082884A
:10E790000A43828070470289D208D200028102892E
:10E7A0000A4302817047028980239A4302810289C9
:10E7B0000A430281704770B50589048B068CED0809
:10E7C000ED000D430C4905810C40FF2102310C4343
:10E7D000AA218E431901114331430483018470BD82
:10E7E00080220029818801D0114300E0914381807B
:10E7F0007047403001827047FCFC0000F74910B5BB
:10E80000884207D101218C032046FEF7E6FC002157
:10E81000204627E0F249884202D101214C0404E05D
:10E82000F049884209D101218C042046FEF7DEFC24
:10E8300000212046FEF7DAFC10BDEB49884202D1E8
:10E840000121CC04F1E7E949884202D101210C05FC
:10E85000EBE7E749884208D101212020FEF7BDFC03
:10E8600000212020FEF7B9FC10BDE249884206D104
:10E8700001214020FEF7B1FC00214020F2E7DE49F3
:10E880008842F1D101218020FEF7A7FC00218020E1
:10E89000E8E730B5044600688BB00D4640084000FC
:10E8A00020606068032109038843A968014361600F
:10E8B0002068D249EA680840696811432A6902431E
:10E8C00011432160A068032109028843696901435B
:10E8D000A1606846FEF77CFBC048844201D10698DF
:10E8E0000AE0BF48844201D1079805E0BD48844250
:10E8F00001D1089800E0029821680904296800D530
:10E9000040000AF037FA2A6852088A4200D8401CB0
:10E910002168090404D50107B94A490F104008438A
:10E92000A0810BB030BD4B21C901016000214160C5
:10E9300081600C22C16002614161704710B543687B
:10E940000F221202934314C922430C6849680C43F6
:10E9500022431A43426010BD002101604160816082
:10E96000C16070470029016802D00122114301E013
:10E970004908490001607047002A026801D00A4333
:10E9800000E08A43026070470122D2030029016837
:10E9900001D0114300E09143016070470122D2028F
:10E9A0000029816801D0114300E0914381607047E4
:10E9B0000122D2040029416801D0114300E09143B3
:10E9C00041607047012292040029416801D011433F
:10E9D00000E0914341607047002A426801D00A4339
:10E9E00000E08A43426070470122D2030029416857
:10E9F00001D0114300E09143416070470122D205EC
:10EA00000029416801D0114300E091434160704703
:10EA10004269120E1206426142690A43426170471E
:10EA2000028A120A12020282028A0A430282704792
:10EA300002220029016801D0114300E091430160E6
:10EA40007047826803231B059A43826082680A43E9
:10EA500082607047012212050029416801D01143EC
:10EA600000E0914341607047426803235B059A438D
:10EA7000426042680A4342607047C905C90D01857A
:10EA80007047808CC005C00D704742681202120AA0
:10EA90004260426809060A434260704701225203FD
:10EAA0000029016801D0114300E0914301607047E3
:10EAB00002680123DB029A43026002680A43026093
:10EAC0007047426810239A43426042680A4342609A
:10EAD0007047426820239A43426042680A4342607A
:10EAE0007047012292030029416801D0114300E0E0
:10EAF00091434160704708220029816801D0114389
:10EB000000E0914381607047028AD2B20282028A99
:10EB100009020A430282704720220029816801D03D
:10EB2000114300E091438160704710220029816801
:10EB300001D0114300E09143816070478268072350
:10EB40005B049A438260826849040A43826070478A
:10EB500042691202120A4261426909060A4342618D
:10EB60007047826804239A43826082680A43826005
:10EB7000704702220029816801D0114300E09143CF
:10EB800081607047012292030029816801D01143FE
:10EB900000E091438160704782680123DB039A4360
:10EBA000826082680A438260704702681F235B05A7
:10EBB0009A430260026849050A430260704702688E
:10EBC0001F231B049A430260026809040A4302607F
:10EBD0007047002A826815D00A4314E000380140CB
:10EBE0000044004000480040004C004000500040FD
:10EBF0000014014000180140001C0140F3E9FFFF30
:10EC0000F0FF00008A4382607047826801235B0343
:10EC10009A43826082680A438260704710B50B0491
:10EC20001C0E01238B40022C02D0032C02D002E0E8
:10EC3000001D00E008300168002A01D0194300E0FF
:10EC40009943016010BD002A028B01D00A4300E005
:10EC50008A4302837047826801231B039A438260C0
:10EC600082680A43826070470246D26900200A42E5
:10EC700000D0012070470162704730B50A04130EBE
:10EC800001252A4600248A40012B0ED0022B0ED0EB
:10EC90008368090C1340C0698D402840002B02D0C6
:10ECA000002800D00124204630BD0368F1E7436806
:10ECB000EFE7090C01228A40026270470C4880F39A
:10ECC00008880C480168090E0B4A914205D10B488F
:10ECD0000B4901600B480C4901600C4880470C4807
:10ECE0000047FEE7FEE7FEE7FEE7FEE7FEE700007F
:10ECF000F0330020040000001F0000001810024044
:10ED0000010000000000014000000000C34E0108A7
:10ED1000C1C0000870B505465E24FEA006F03CF9AF
:10ED20002A462146FC4807F026F9041E07D0FB4975
:10ED3000601809D0012807D0022803D104E0F8A008
:10ED400006F02AF9204670BDF7A0F9E7FEB5417933
:10ED500006460127BF0780790B000AF062FD0A060C
:10ED600011242F3A45505B66711F0AF09FFA024644
:10ED70000B46002039460BF029FB0022ED4B09E041
:10ED80000AF094FA02460B46002039460BF01EFBAF
:10ED90000022E94B0AF0E8F904460D46307A0028D3
:10EDA00059D0012258E00AF081FA02460B460020B1
:10EDB00039460BF00BFB0022E04BEBE70AF076FA4A
:10EDC00002460B46002039460BF000FB0022DC4BCC
:10EDD000E0E70AF06BFA02460B46002039460BF0DA
:10EDE000F5FA0022D74BD5E70AF060FA02460B4647
:10EDF000002039460BF0EAFA0022D34BCAE70AF0AA
:10EE000055FA02460B46002039460BF0DFFA002285
:10EE1000CE4BBFE70AF04AFA02460B4600203946BD
:10EE20000BF0D4FA0022CA4BB4E70AF03FFA0246CC
:10EE30000B46002039460BF0C9FA0022C54BA9E762
:10EE40000AF034FA02460B46002039460BF0BEFAAF
:10EE50000022C14B9EE70022707A002800D00120DA
:10EE6000317F002900D00121B779737EBC46DB00D9
:10EE7000BF00DB1B12019A1814235843101A1C30D0
:10EE8000019067464800381A80000AF00FFA0746DA
:10EE9000009101980AF00AFA3A46009B0AF064F9D8
:10EEA0000BF0D0F90AF034FAF7793F1D4743708B25
:10EEB00008370AF0FBF90022A84B0AF03BF822467B
:10EEC0002B460AF0E9F80022A54B0AF0E5F80646C1
:10EED000384600910AF0EAF922462B460AF0DCF89F
:10EEE00000229F4B0AF0D8F802460B4630460099A4
:10EEF0000AF020F80BF0A6F900229A4B0AF01AF853
:10EF00000AF006FAFEBD10B503F0A4FF964C206887
:10EF100000688047206880688047002010BD70B579
:10EF2000924D00242868002802D00BF0EFF92C60E5
:10EF30008F4D2868002802D00BF0E8F92C6070BDD6
:10EF4000F8B500252E468B4FAC003859002810D05C
:10EF50000BF0DCF93E51284604F0AAFF864F3859E1
:10EF60000BF0D4F9854800590BF0D0F983483E5195
:10EF700006516D1CEDB2202DE5D38148067004F0DA
:10EF800064FFF8BDFFF7DCFFFFF7C9FF05F0CFFA1C
:10EF90007C4801680268521AC82AFBD302F0DEFAE4
:10EFA00010B57948006801280FD17848007800280A
:10EFB0000CD00020704A034681005158002900D02F
:10EFC0008B72401CC0B22028F6D310BD6748006881
:10EFD0000028FAD006F0CEF810BDFEB56C4D2878AA
:10EFE00000246C4F6C4E002815D06C48FF21046043
:10EFF00001316B4809F013FF33686AA207216846A4
:10F000000AF0E2FB68A005F0C7FF684605F0C4FF00
:10F0100040A005F0C1FF3C7034602C70FEBDF8B517
:10F020000F46054616461C4664A1184609F009FF1E
:10F03000002807D063A1204609F003FF002803D071
:10F040000020F8BD012400E0002460480570012084
:10F0500008F0E2FA384608F00DFF304608F0D4FE1A
:10F060005B4D0020EC7208F0D4FF2846FFF76EFEDF
:10F0700068612861286808F0F7FD3B4800688068EF
:10F0800080470120F8BDF8B5154602460020514ED4
:10F09000514B0C460870217850785F5CB84205D01F
:10F0A000491CC8B220700428F5D399E0C8B20428DE
:10F0B0002ED21046FF30573009F02EFF80B2288044
:10F0C00045492278091D002A04D10F2820D8400084
:10F0D000085A28802078012805D128880F287FD851
:10F0E0004000085A28802078022809D12888024642
:10F0F0000D3A022A74D8400040184038C08C28804D
:10F100002078032871D1288800286BD0012866E078
:10F1100066E06AE00D0A0000D40000201000FFFF46
:10F120000D0A4F4B0D0A00000D0A4552524F520D69
:10F130000A0000000078BE400050C4400078CE4075
:10F140000050D4408084DE40805CE4408084EE4007
:10F150008084FE4080840E4180841E410000114066
:10F1600000408F4000407F4058050020EC05002003
:10F17000F0050020A412002024130020A413002076
:10F18000E40500203C050020400500204505002046
:10F19000690500206A0500206C050020500500204C
:10F1A0009C090020256400004C6F726150565F542A
:10F1B00058726573756C743D00000000486F704FA5
:10F1C0006E000000486F704F666600005C0500200E
:10F1D000B0150020F2FF0000ACAE010802E001D043
:10F1E0003046F8BD4000085A28800020F8BD0020B5
:10F1F000704710B50078002801D0FE4810BD02F01D
:10F20000ADF97FB504460078FA4D03282DD1FA48B0
:10F210000068022829D103AA02A92046FFF733FF7C
:10F22000002822D1F548201809F076FE0006000ECD
:10F2300001D0012819D16B4699890091002199715B
:10F240000322D9715A71002802D0012802D00CE0A3
:10F25000197101E001201871187A002808D00128DE
:10F260000ED0022816D003281BD0284604B070BD4B
:10F2700001214804FDF78DFF09206946C00605E01D
:10F2800001218804FDF785FF6946DD48FDF71FFC75
:10F290000020EBE70121C804FDF77BFF6946D94850
:10F2A000F4E701218805FDF774FF6946D648EDE7CC
:10F2B0007CB504460078CF4D03281DD1CE480068A8
:10F2C000022819D16A4601A92046FFF7DCFE002872
:10F2D00012D1CA48201809F01FFE0206120E01D0F2
:10F2E000012A09D168460079002807D001280AD0F0
:10F2F00002280FD0032811D028467CBD684601881B
:10F300000920C00602E068460188BD48FDF743FCBD
:10F3100000207CBD68460188BA48F7E76846018846
:10F32000B948F3E73EB504460078B24D022814D13F
:10F33000B1480068022810D16A4601A92046FFF7AB
:10F34000A2FE002809D168460079002807D00128CC
:10F350000AD002282CD003282ED028463EBD68466D
:10F3600001880920C00602E068460188A448FDF72C
:10F37000FCFB0346A5A2042102A80AF025FAA4A0DA
:10F3800005F00AFE601C05F007FEA4A005F004FECF
:10F390002046FF30573005F0FFFDA0A005F0FCFD32
:10F3A00002A805F0F9FD9EA005F0F6FD00203EBD87
:10F3B000684601889348DAE7684601889248D6E7AC
:10F3C00010B50078002801D08A4810BD05F0DCFF98
:10F3D000002010BD70B50178864800292FD1914CCE
:10F3E000217800292BD190490978002927D18F490C
:10F3F0000978002923D18E4E0925FF2101318D483E
:10F40000356009F00CFD2A468BA18A4809F0EEFC14
:10F41000012008F001F907F03DFD8A480021017044
:10F42000007807F001FD07F02DFE308881B2864894
:10F43000006802697F48904701202070002070BD5D
:10F4400070B501786B48002926D1764C21780029C7
:10F4500022D07649097800291ED1734909780029FC
:10F460001AD173480025FF2105600131714809F068
:10F47000D6FC012007F0E0FD07F00CFD71480121EA
:10F480000170007807F0D0FC08F0ECF86E480068D6
:10F49000806880472570002070BD70B50178554D9B
:10F4A00001290CD15F490978002908D0401C09F0D6
:10F4B00033FD0446654866492018884201D3284632
:10F4C00070BD012007F0B8FD6248046007F0E2FC5F
:10F4D00007F0D8FD5648008881B25B480068026991
:10F4E00054489047002070BD7CB501784148002900
:10F4F00028D14C490978002924D14B4E3178002974
:10F5000020D04A49097800291CD149480024FF210C
:10F5100004600131474809F082FC4F4D2B683BA243
:10F52000072168460AF050F94C4805F035FD684659
:10F5300005F032FD3AA005F02FFD494804702C601B
:10F54000347000207CBDF8B507460078294C0228AD
:10F5500028D8012826D033490978002922D13349F7
:10F56000097800291ED13049097800291AD13C496F
:10F5700001262F4D002817D000200870781C09F0B4
:10F58000CBFC014637480160006800280AD03846A5
:10F59000FF305730009009F04DFC2860071E01D065
:10F5A000FF2F0CD92046F8BD0E700924FF21013130
:10F5B00020482C6009F033FC22461FA106E0FF2101
:10F5C00001311C4809F02BFC00993A46194809F012
:10F5D0000DFC012008F020F8287808F065FD22488D
:10F5E000FFF7B4FB2049486108611B49002008600F
:10F5F0000D483BE0F2FF000040050020AB02000098
:10F600000004004800080048001400482564000079
:10F610004750494F5F526561643D00002C00000077
:10F620000D0A0000D00000206905002068050020B8
:10F63000500500209C090020416373697057696E72
:10F6400000000000F405002058050020C08BD5F70D
:10F6500001692017300600206C050020A8F1000881
:10F660006A05002070050020B01500200670F748DC
:10F670000068806880470020F8BD7CB50178F448B8
:10F68000002926D1F3490978002922D1F24E317898
:10F6900000291ED0F149097800291AD1F048002428
:10F6A000FF2104600131EF4809F0B9FBEE4D2B68F2
:10F6B000EEA2072168460AF087F8EDA005F06CFC81
:10F6C000684605F069FCEFA005F066FC2C6034701C
:10F6D00000207CBDF8B504460078DD4E012825D811
:10F6E000DD480078002821D1DA48007800281DD1B3
:10F6F000DA480078002819D1D94D0027FF210131BF
:10F70000D8482F6009F08BFB2078002802D0012810
:10F7100004D012E00922DC492A600BE0601C09F0E9
:10F7200089FB2860002801D0FF2801D93046F8BDA8
:10F730000246611CCB4809F059FB012007F06CFF21
:10F74000287808F0B1FCD148FFF700FBCF494861A9
:10F750000861C5480760C04801210170BB480068C6
:10F76000806880470020F8BD3EB504460078B84D5B
:10F77000012836D1C6480068012809D1C54800785B
:10F78000002805D0601C09F055FB062814D106E0BE
:10F79000C1A005F001FCC8A005F0FEFB21E0CE48A9
:10F7A0000078202801D3CDA0F6E710220021601CAC
:10F7B00009F07AFB010E01D0CDA0EDE76A46107288
:10F7C000010A5172000C90720020009001460190D5
:10F7D00002ABA522012004F051FA002801D000203C
:10F7E0003EBD28463EBD10B504F0A1FB04F08EFBE3
:10F7F00010BD30B504460078954D85B0012802D083
:10F80000284605B030BDA248006801280AD1A148A9
:10F810000078002806D0601C09F00CFB062806D0F2
:10F82000B3A023E09CA005F0B7FBA3A01EE0AA486C
:10F830000078202801D3A9A018E010220021601C24
:10F8400009F032FB010EEBD16A461074010A5174C3
:10F85000000C907404A806F0D2FE0346102808D0CD
:10F86000A9A21021684609F0AFFF684605F094FB95
:10F87000C6E7FFF7B8FF0020C3E7FEB505460078EE
:10F88000734C012845D182480068012809D181487C
:10F890000078002805D0681C09F0CCFA062838D179
:10F8A00004E07DA005F078FB83A035E01022002164
:10F8B000681C09F0F9FA010E2BD1C5B269460D7228
:10F8C00001040B0E00026946060E4B728E729148BF
:10F8D00000218A008258002A08D01778AF4205D14B
:10F8E00057789F4202D19278B24204D0491CC9B2E3
:10F8F0002029EED30FE020290DD2002000900190A6
:10F9000002ABB022012004F0B9F9002801D0002098
:10F91000FEBD2046FEBD80A005F03EFBF9E738B5F0
:10F92000044600784A4D01281CD159480068012836
:10F930000CD158480078002808D0601C09F07AFAE9
:10F94000062808D06AA005F027FB0BE052A005F0BE
:10F9500023FB59A0F7E710220021601C09F0A4FA4C
:10F96000010E01D0284638BD6A461070010A517058
:10F97000000C9070684606F06AFE002803D0FFF77E
:10F9800032FF002038BD6DA0DDE7F0B5064685B03A
:10F99000002003903E480068012854D13D4800787B
:10F9A000002850D030780028FBD0701C09F042FAB3
:10F9B0000628F2D110220021701C09F075FA0246C7
:10F9C000000EEAD100255348AC00005900280ED0A3
:10F9D0008178437809041B020B4301786F460B437F
:10F9E0003972417879728078B8729A4204D06D1C6D
:10F9F000ADB2202DE7D33FE1202DFCD24548A90030
:10FA000040580028F7D03078012808D03146FF311F
:10FA100057310191022817D00328BED1D1E0002729
:10FA20000097E9B202ABB5220120019704F026F954
:10FA30000028B6D0374D20212859001D09F0EFF9D4
:10FA40002859878405E115E18AE000005805002067
:10FA5000F2FF0000D00000206805002069050020AA
:10FA6000500500209C09002064050020256400004A
:10FA70004C6F726150565F5258726573756C743D6D
:10FA8000000000000D0A000038F60008B015002044
:10FA9000400500204505002053797374656D204EA4
:10FAA0004F5420696E204E6F726D616C206D6F64D3
:10FAB000652C0D0A000000004F72204C6F7261200F
:10FAC0006D6F64756C65204E4F54204D6173746585
:10FAD000722E0D0A00000000E40500204E6F6465E0
:10FAE000206E756D6265722066756C6C2E0D0A0055
:10FAF0004164647220666F726D6174206572726F0A
:10FB0000722E0D0A000000004572726F722025648B
:10FB10000D0A0000A41200204E4F5420746869732F
:10FB2000204E4F444520696E2041635369704C6FED
:10FB300072614E65742E0D0A0000000054686973EE
:10FB4000206E6F6465204E4F5420696E20416353D0
:10FB500069704C6F72614E65742E0D0A00000000D2
:10FB60000F46084609F066F93978C0B2222905D057
:10FB700038182038C07F222848D04FE03918203963
:10FB8000C97F222942D1851E042D11DBF94820218D
:10FB90000059001D09F043F9F648009500597B1CF7
:10FBA00003AA2021001D01F06EFF00282ED153E092
:10FBB00002282BD1EF4820210059001D09F02FF910
:10FBC0004AE0ED483718384609F034F93978C0B2C0
:10FBD00022291BD139182039C97F222916D1811E2B
:10FBE0000091042910DBE34820210059001D09F091
:10FBF00016F9E0487B1C005903AA2021001D01F0E2
:10FC000042FF002802D109E0022801D0DBA034E045
:10FC1000D84820210059001D09F001F9019809F088
:10FC20007BF9D4490027095902AB88840097E9B2CF
:10FC3000B5220120019704F021F800281AD0CD4800
:10FC40000059808C002804D0D148052100598180BA
:10FC500002E0CF480059878004F068FACDA005F093
:10FC60009BF9701C05F098F9CCA005F095F90020DF
:10FC700005B0F0BDCF48FBE7CFA005F08DF9F9E75F
:10FC8000F0B5054695B000201390D44800680128CF
:10FC900013D1D348007800280FD0287801280CD140
:10FCA000681C09F0C7F8062807D110220021681C3B
:10FCB00009F0FAF80146000E02D0BE4815B0F0BDBA
:10FCC000AC4F00208600BC59002C08D0A278130449
:10FCD000627812021A4323781343994204D0401CDD
:10FCE00080B22028EED33FE020283DD28000385853
:10FCF000002839D0402101A809F091F8201D09F011
:10FD000099F80006000E0BD00090BB5913AA2821C9
:10FD100001A81B1D01F044FE002801D097A024E09B
:10FD2000B859B0A2838C062111A809F04DFD99A005
:10FD300005F032F9681C05F02FF9ABA005F02CF99D
:10FD400011A805F029F9ABA005F026F913990029AF
:10FD500001D001A801E00121A6A005F019F9A6A093
:10FD600005F01AF90020A9E793A005F015F9A4E71A
:10FD7000F0B505469948C1B00068012801D09FA0A0
:10FD800011E0974800780028287806D002283AD059
:10FD9000A2A005F001F9A8A005E0012806D0ACA0BA
:10FDA00005F0FAF8B0A005F0F7F875E0B44800687F
:10FDB000002804D0B34C207800286DD101E0B2A017
:10FDC000F1E7F421B54809F02AF86E1C681C09F027
:10FDD00031F8C0B20090334602AAF421AF4801F0D6
:10FDE00052FE0026AE4D002806D0F421AB4809F0A3
:10FDF00016F86E7026704FE00298F428F5D86870F7
:10FE00000120207045E0681C09F014F8062801D094
:10FE1000A4A0C8E710220021681C09F045F801469B
:10FE2000000E39D1534E0024A0003058002808D0CD
:10FE30008278437812041B020078134318438142EE
:10FE400004D0641CE4B2202CEED327E0202C25D271
:10FE50002846FF305730054608F0ECFFC7B2F421C2
:10FE600003A808F0DCFF2B4602AAF42103A80097A0
:10FE700001F009FE00280FD102A903A8019100900A
:10FE8000A0003358AF222146012003F0F7FE0028DE
:10FE900002D0002041B0F0BD4648FBE746A082E713
:10FEA0007CB5054602242B5D8AA20821684609F02C
:10FEB0008BFC684605F070F8641E64B2002CF2DA20
:10FEC0007CBD7CB5017800243A48002933D14349F0
:10FED000096801292FD14249097800292BD0254DE5
:10FEE000002081006958002901D0641CE4B2401C44
:10FEF000C0B22028F5D379A005F04EF8234679A2A8
:10FF00000821684609F060FC684605F045F8002CB9
:10FF10000DD00024A0002858002804D0FFF7C0FF0F
:10FF200034A005F039F8641CE4B2202CF2D332A0DE
:10FF300005F032F800207CBD10B501781D4800297D
:10FF400015D126490968012911D1254909780029C7
:10FF50000DD14B4C206800280AD063A005F01CF896
:10FF60002068FFF79DFF24A005F016F8002010BDC3
:10FF7000C4E00000A4120020AB020000416C6961E3
:10FF8000736573206572726F722E0D0A0000000097
:10FF9000241300204E6F64653D00000020736574DB
:10FFA00074696E6720535543434553534544210DAF
:10FFB0000A000000F2FF000054686973204E4F44AD
:10FFC00045204E4F5420696E2041635369704C6F39
:10FFD00072614E65742E0D0A00000000400500207D
:10FFE0004505002025750000204556543D476574A1
:10FFF0004E6F6465200000000D0A00005379737491
:020000040801F1
:10000000656D204E4F5420696E204E6F726D616C8D
:10001000206D6F64652E0D0A000000004C6F726148
:10002000206D6F64756C65206973204D6173746514
:10003000722E0D0A000000004E6565642074776F13
:1000400020706172616D657465722E0D0A0000008A
:100050004C6F7261206D6F64756C652069732053FD
:100060006C6176652E0D0A004E656564206F6E65C5
:1000700020706172616D657465722E0D0A0000005A
:10008000EC0500204C0500204E4F204C6F7261475C
:100090006174655761792E0D0A00000098060020F2
:1000A000D00000204C6F7261206E6F646520616427
:1000B0006472657373206C656E677468204E4F546C
:1000C00020455155414C203642797465732E0D0AF6
:1000D0000000000025303278000000004E6F64659B
:1000E000733D0000257520004C6F72614761746597
:1000F000576179416464723D00000000F5A004F08E
:100100004BFF30E710B50178F84800290AD1F849CB
:100110000968012906D1F7490978002902D104F0BC
:100120007EF9002023E710B501780024EF4800296C
:100130000FD1EF49096801290BD1EE49097800294F
:1001400007D104F0DAF9EC4800BF641C8442FBD309
:1001500000200CE710B50078002801D0E34806E73E
:1001600006F0BEF80446E5A004F016FF2046FFF7AF
:1001700097FEE5A004F010FF0020F8E61CB501781A
:10018000DA4800291BD1DA490968012917D1D94970
:100190000978002913D1DD480068002810D0838C2D
:1001A000DBA20621684609F00FFBDAA004F0F4FE9A
:1001B000684604F0F1FED4A004F0EEFE00201CBD61
:1001C000D8A004F0E9FEDCA0F6E730B5007887B0EF
:1001D000002802D0C54807B030BD03A803F0BEF820
:1001E000DAA004F0D9FE022403ADA0002B58D9A256
:1001F0000921684609F0E8FA684604F0CDFE641E5D
:1002000064B2002CF1DAC0A004F0C6FE0020E2E7E0
:1002100010B50078002801D0B448A8E6CFA004F0BB
:10022000BBFED3A004F0B8FED5A004F0B5FED6A066
:1002300004F0B2FEB4A004F0AFFE002097E610B5C3
:100240000178AA48002910D1A9490A68012A0DD0CD
:100250000A68022A0CD00A68002A0BD00968032910
:1002600003D1CBA004F098FE002080E6D0A0F9E7EF
:10027000D7A0F7E7E1A0F5E710B50078002801D096
:100280009A4874E69B480078002801D0E5A000E079
:10029000E9A004F081FE002069E63EB50078002860
:1002A00001D092483EBD07F0FBFC0346E7A20B21BC
:1002B000684609F089FAE6A004F06EFE684604F08C
:1002C0006BFEE7A004F068FE07F0B4FD0346DFA272
:1002D0000B21684609F078FAE2A004F05DFE68465A
:1002E00004F05AFEDEA004F057FE07F0EFFD0346CF
:1002F000D6A20B21684609F067FADBA004F04CFE99
:10030000684604F049FED6A004F046FE07F001FE60
:100310000346CEA20B21684609F056FAD3A004F09A
:100320003BFE684604F038FECDA004F035FE07F031
:1003300042FD0346C5A20B21684609F045FACFA04D
:1003400004F02AFE684604F027FEC5A004F024FE4F
:10035000CD48C47ACDA004F01FFE002C0CD007F0CD
:1003600065FE0346B9A20B21684609F02DFACAA022
:1003700004F012FE684600E0C9A004F00DFEB8A02B
:1003800004F00AFE07F031FE0446C7A004F004FEA4
:10039000002C01D0C8A000E0CAA004F0FDFDB0A070
:1003A00004F0FAFD07F0FFFD0446C9A004F0F4FDD7
:1003B000002C01D0C8A000E0C8A004F0EDFDA8A06A
:1003C00004F0EAFD07F0DDFDC3B2A0A20B216846F0
:1003D00009F0FAF9C2A004F0DFFD684604F0DCFD84
:1003E0009FA004F0D9FD07F06CFE034697A20B21F5
:1003F000684609F0E9F9BEA004F0CEFD684604F0B5
:10040000CBFD97A004F0C8FD07F041FE03468FA284
:100410000B21684609F0D8F9B9A004F0BDFD684683
:1004200004F0BAFD8EA004F0B7FD07F01AFE0346F3
:1004300086A20B21684609F0C7F9B6A004F0ACFD0E
:10044000684604F0A9FD86A004F0A6FD07F00FFEA3
:1004500003467EA20B21684609F0B6F9B2A004F06B
:100460009BFD684604F098FD27A004F095FD002050
:100470003EBD10B500781D4C002801D0204676E521
:100480008148417F002905D0012905D0ABA004F0A7
:1004900083FDF3E7AFA000E0B4A004F07DFD0020F1
:1004A00065E50EB50078002801D010480EBD07F0B4
:1004B000F7FB034665A20B21684609F085F964A0A5
:1004C00004F06AFD684604F067FD0FA004F064FDC7
:1004D00000200EBD4C6F72614761746557617941B0
:1004E0006464723D4E554C4C00000000F2FF000069
:1004F0004005002045050020400D03004C6F72614F
:100500004D79416464723D000D0A0000EC05002045
:10051000257500004C6F72614D79496E7465727675
:10052000616C3D004C6F7261476174655761793D44
:100530004E554C4C200000004C6F72614D79496E55
:1005400074657276616C3D300D0A00005555494462
:100550003D00000025303878000000004669726DCB
:100560007761726556657273696F6E3D00000000B9
:10057000312E31312E323031372E303630370000C7
:1005800020666F7220000000535831323738000067
:1005900053797374656D4F7065726174696F6E4DD8
:1005A0006F64653D496E49646C650D0A000000008A
:1005B00053797374656D4F7065726174696F6E4DB8
:1005C0006F64653D496E4E6F726D616C0D0A00007F
:1005D00053797374656D4F7065726174696F6E4D98
:1005E0006F64653D496E50726F64756374566572D1
:1005F000696669636174696F6E0D0A00537973747B
:10060000656D4F7065726174696F6E4D6F64653DA5
:10061000496E50696E67506F676E546573740D0A4A
:10062000000000004C6F72614D6F64653D4D415399
:100630005445520D0A0000004C6F72614D6F6465A5
:100640003D534C4156450D0A000000002564000052
:1006500052464672657175656E63793D0000000013
:100660002020000042573D0053463D004572726F06
:1006700072436F64696E673D000000005246506F20
:100680007765723D00000000B0150020467265716C
:10069000486F704F6E3D0000747275650000000079
:1006A00066616C736500000048656164657253742F
:1006B000617475733D000000496D706C6963697405
:1006C000000000004578706C6963697400000000E8
:1006D0004352433D000000004F4E00004F4646008D
:1006E000507265616D626C654C656E6774683D0043
:1006F0005061796C6F61644C656E6774683D000091
:100700004D61785061796C6F61644C656E67746897
:100710003D00000054785061636B657454696D65E9
:100720006F75743D0000000052785061636B657412
:1007300054696D656F75743D0000000052464F733B
:1007400063696C6C61746F723D556E4B6E6F776E42
:100750000000000052464F7363696C6C61746F72E5
:100760003D4372797374616C0000000052464F7310
:1007700063696C6C61746F723D5443584F000000A4
:100780000EB50078002801D0FD480EBD07F06FFCC3
:100790000346FCA20A21684609F016F8FA4804F05C
:1007A000FBFB684604F0F8FBF8A004F0F5FB002022
:1007B0000EBD0EB50078002801D0F1480EBD07F03F
:1007C00050FC0346EFA20A21684608F0FDFFEE4800
:1007D000143804F0E1FB684604F0DEFBEBA004F003
:1007E000DBFB00200EBD08B50078002801D0E448EE
:1007F00008BD07F0E0FA0346E2A20421684608F0CB
:10080000E3FFE148AC3804F0C7FB684604F0C4FBE2
:10081000DEA004F0C1FB002008BD1CB50078002854
:1008200001D0D7481CBD07F0ACFBC3B2D5A206214E
:10083000684608F0C9FFD448483804F0ADFB684664
:1008400004F0AAFBD1A004F0A7FB00201CBD00B55A
:10085000007889B0002802D0C94809B000BD07F06F
:1008600030FC0346CAA22021684608F0ADFF684666
:1008700004F092FB07F00BFC0346CAA22021684655
:1008800008F0A2FF684604F087FB0020E5E710B5FA
:100890000078002801D0BA4844E407F084FB0446FD
:1008A000B948583804F078FB002C01D0C3A001E00F
:1008B000B5484C3804F070FBB4A004F06DFB002088
:1008C00030E410B50078002801D0AD482AE407F0E4
:1008D0008CFB0446AC48803804F05EFB002C02D050
:1008E000A948703801E0A848643804F055FBA7A077
:1008F00004F052FB002015E41CB50078002801D05C
:100900009F481CBD07F005FB03469EA206216846D2
:1009100008F05AFF9C48BC3804F03EFB684604F0DF
:100920003BFB9AA004F038FB00201CBD1CB50078EE
:10093000002801D092481CBD07F0C8FA034691A2D6
:100940000621684608F040FF8F48C03804F024FBB9
:10095000684604F021FB8DA004F01EFB00201CBDA6
:100960001CB50078002801D085481CBD07F062FA4C
:10097000034684A20621684608F026FF8248C43850
:1009800004F00AFB684604F007FB80A004F004FBB7
:1009900000201CBD1CB50078002801D078481CBD83
:1009A00006F0F4FE034677A20621684608F00CFF25
:1009B00083A004F0F1FA684604F0EEFA73A004F0A4
:1009C000EBFA00201CBD1CB50078002801D06C4853
:1009D0001CBD06F0DEFE03466AA20521684608F04B
:1009E000F3FE79A004F0D8FA684604F0D5FA67A0BF
:1009F00004F0D2FA00201CBD1FB50078002802D0F8
:100A00005F4804B009E406F0C8FE0191009070A2AE
:100A1000082102A808F0D8FE6FA004F0BDFA02A8D1
:100A200004F0BAFA59A004F0B7FA0020E9E710B5CB
:100A30000078002801D0524817E4FEF7A3FAF8B571
:100A40000446007801281AD165A1601C08F0F9F964
:100A5000664E674D002814D066A1601C08F0F1F9BD
:100A6000092700281DD065A1601C08F0EAF90028BC
:100A700021D064A1601C08F0E4F900282CD0404883
:100A8000F8BD01203060FF202876604800780028FB
:100A900002D003F09BFB17E003F0F5FA03F04CFCE7
:100AA00010E0FEF74DFAFEF73AFA022030602F769A
:100AB0000020E87206E0FEF743FAFEF730FA002065
:100AC00030602F7604F056FBFEF76AFA4848FEF7CE
:100AD0003DF96861286107E0FEF732FAFEF71FFA78
:100AE0000320306004F046FB0020F8BD10B501780B
:100AF000234C01290BD1431C082207210120FEF7BA
:100B00008EFA002803D0FEF76EFE0020B7E42046E0
:100B1000B5E410B501781A4C01290BD1431C07220A
:100B200011460220FEF77BFA002803D0FEF75BFE99
:100B30000020A4E42046A2E410B50178104C01295D
:100B40000BD1431C092208210320FEF768FA002874
:100B500003D0FEF748FE002091E420468FE410B554
:100B60000178074C012953D1431C08221146042067
:100B7000FEF755FA00284BD0FEF735FE00207EE444
:100B8000F2FF000025640000280701080D0A00009C
:100B90005061796C6F61644C656E6774683D2025A7
:100BA000642C20004D61785061796C6F61644C65F4
:100BB0006E6774683D2025640D0A00004F4E0000EA
:100BC00052784761696E3D00534E523D000000006F
:100BD00025332E3266000000525353493D00000079
:100BE000696E4E6F726D616C000000004005002060
:100BF000B0150020696E505600000000696E544424
:100C000000000000696E49646C6500004505002025
:100C1000204634E410B50178FE4C01290BD1431C69
:100C2000072208210520FEF7FAF9002803D0FEF775
:100C3000DAFD002023E4204621E410B50178F54CCC
:100C400001290BD1431C092211460620FEF7E7F9C2
:100C5000002803D0FEF7C7FD002010E420460EE474
:100C600010B50178EB4C01290BD1431C0822092156
:100C70000720FEF7D4F9002803D0FEF7B4FD0020CA
:100C80000EE420460CE410B50178E24C01290BD1AA
:100C9000431C072209210820FEF7C1F9002803D0D0
:100CA000FEF7A1FD0020F7E52046F5E510B5017837
:100CB000D84C01290BD1431C09220A211046FEF70A
:100CC000AEF9002803D0FEF78EFD0020E4E52046B3
:100CD000E2E510B50178CF4C01290BD1431C0A2164
:100CE00008220846FEF79BF9002803D0FEF77BFD9B
:100CF0000020D1E52046CFE510B50178C54C01298B
:100D00000BD1431C07220A210B20FEF788F900288B
:100D100003D0FEF768FD0020BEE52046BCE510B517
:100D20000178BC4C01290BD1431C08220B210C205B
:100D3000FEF775F9002803D0FEF755FD0020ABE55E
:100D40002046A9E510B50178B24C01290BD1431C0E
:100D500007220B210D20FEF762F9002803D0FEF7D1
:100D600042FD002098E5204696E510B50178A94C93
:100D700001290BD1431C08220C210E20FEF74FF94C
:100D8000002803D0FEF72FFD002085E5204683E5EF
:100D900010B501789F4C01290BD1431C07220C216F
:100DA0000F20FEF73CF9002803D0FEF71CFD0020C1
:100DB00072E5204670E570B50178964D012908D19D
:100DC000401C08F0A9F8044693489449201888422A
:100DD00001D3284670BD012006F01EFC204606F017
:100DE00043FF8F4804608F48006880688047FEF7A3
:100DF000FAFC002070BD10B50178012901D08548AA
:100E00004AE5401C08F088F8C4B2092C00D909242E
:100E1000012006F001FC204606F0F6FF8048FDF7B1
:100E200095FF7F49486108617E484C710068806881
:100E30008047FEF7D8FC00202EE510B50178012987
:100E400001D0744828E5401C08F066F8C4B20C2CA8
:100E500001D90C2402E0062C00D20624012006F061
:100E6000DBFB204607F006F86D48FDF76FFF6C4985
:100E7000486108616B488C71006880688047FEF7A4
:100E8000B2FC002008E510B50178012901D06148C5
:100E900002E5401C08F040F8C4B2042C01D9042437
:100EA00002E0002C00D10124012006F0B5FB204611
:100EB00007F019F85A48FDF749FF59494861086198
:100EC0005848CC71006880688047FEF78CFC002091
:100ED000E2E470B5044600784E4D01280ED106F0CC
:100EE0009BFB51A1601C07F0ACFF4D4E002807D0C2
:100EF0004E49601C07F0A5FF002802D0284670BDAF
:100F00000120F0724A4806F0AFFEFEF749F8FEF7FE
:100F10006AFC4448006880688047002070BD70B556
:100F2000044600783B4E01280ED106F075FB41A126
:100F3000601C07F086FF3A4D002807D03FA1601CD7
:100F400007F07FFF002806D0304670BD012007F073
:100F500038F8012003E0002007F033F80020687221
:100F60002F48FDF7F3FE686128612E48006880680D
:100F70008047FEF738FC002070BD70B5044600784D
:100F8000244E01280ED106F047FB2AA1601C07F071
:100F900058FF234D002807D028A1601C07F051FFFF
:100FA000002806D0304670BD012006F0C0FF0120A9
:100FB00003E0002006F0BBFF002028721848FDF770
:100FC000C5FE686128611748006880688047FEF7A1
:100FD0000AFC002070BD10B50178012901D00D4830
:100FE0005AE4401C07F098FF0406240E00D10124A7
:100FF000012006F011FB204607F056F80848FDF7DF
:10100000A5FE0749486108610C76FEF7ECFB054830
:10101000006817E0F2FF0000C08BD5F701692017C8
:10102000B0150020580500204F4E0000DC060108D6
:1010300080A1031C454E41424C45000044495341A8
:10104000424C450080688047002025E410B50178B7
:10105000012901D0FB481FE4401C07F05DFF040696
:10106000240E00D10124012006F0D6FA204607F014
:1010700001F8F548FDF76AFEF349486108614C76CE
:10108000FEF7B1FBF148006880688047002003E468
:1010900010B50178012901D0EA4811E4401C07F09D
:1010A0003BFF84B2062C00D20624012006F0B4FADD
:1010B000204606F051FFE448FDF748FEE24948614A
:1010C0000861E2484C83006880688047FEF78BFB2C
:1010D000002010E4F8B504460078DA4E012827D144
:1010E000DB480068012823D1DAA1601C07F0A9FEC3
:1010F000DA4D002804D12878002801D00020F8BD5E
:10110000D7A1601C07F09DFE29780843F7D002F0B4
:101110000EFF03F00BF8CFA1601C07F092FE002732
:10112000002807D0CEA1601C07F08BFE002808D055
:101130003046F8BD01202870FDF7F1FE03F046F8B7
:1011400008E02F70FDF7FCFE02F09DFF03F0F4F8BD
:1011500004F010F8C448078002F0D8FEFDF720FF25
:10116000CCE770B504460078B64D01280DD1BF49D3
:10117000601C07F066FEBE4E002808D0BB49601C0C
:10118000083107F05EFE002802D0284670BD01201D
:101190003070FDF705FF002070BD70B50178A94DD6
:1011A000012906D1401C07F0B7FEC4B2601F102809
:1011B00001D3284670BD012006F02EFA112C01D96A
:1011C000012000E0002006F089FF60B2044606F02E
:1011D0008CFD9D4804719D48006880688047FEF73B
:1011E00002FB002070BD0078002801D095487047B0
:1011F000A04901200870002070470078002801D025
:10120000904870479B4900200870704710B503F064
:10121000D9FF002010E410B50078002801D08948DB
:101220000AE403F0ACFF002006E410B50178854C19
:1012300001290FD1401C07F06FFE8F498F4A4118DA
:10124000914207D203F0EEFF002803D0FEF7CBFA5D
:1012500000205BE4204659E400B589B000F006FEAA
:1012600087490346088087A22021684608F0ACFA27
:10127000684603F091FE002009B000BD10B501786A
:1012800088B0012902D06F4808B03FE4401C07F045
:1012900043FE7B4C00B2208000F0EAFD002801D024
:1012A0000020F1E70023E35E7AA22021684608F0DF
:1012B0008BFA684603F070FEF2E700B589B07DA0B6
:1012C00003F06AFE00F0D2FD03467EA220216846AC
:1012D00008F07AFA684603F05FFE0020CCE710B50C
:1012E0007CA003F059FE002010E410B5017801291C
:1012F00001D054480AE4401C07F00EFE0006000E20
:1013000000D0012000F0B7FA002012E410B50178F7
:10131000012901D04B480CE4401C07F0FDFDC4B28C
:101320002146012000F0D3FA204603F084FE00207D
:1013300012E408B50178012901D0424808BD401CDB
:1013400007F0EAFD69460880684603F0BAFB002012
:1013500008BD08B50178012901D03A4808BD401CF4
:1013600007F0DAFD69460880684603F014FC0020A7
:1013700008BD00B5A1B06946002000F0CDFA00A973
:101380006F220120013100F0A8FA56A003F004FEFC
:101390007021684603F00AFE002021B000BD10B5A0
:1013A000FF24C8B0113422466946554800F031FD8B
:1013B00054A003F0F1FD2146684603F0F7FD00203C
:1013C00048B026E438B504460078022801D01D480C
:1013D00038BD601C07F0A0FDC5B22046FF30573075
:1013E00007F09AFD6946087045480122281800F068
:1013F000A7FC002038BD00B591B001F0BDFF034649
:1014000046A24021684608F0DFF9684603F0C4FDB3
:1014100001F0C4FF034647A24021684608F0D4F912
:10142000684603F0B9FD01F0C7FF034646A240211C
:10143000684608F0C9F9684603F0AEFD002011B017
:1014400000BD0000F2FF0000B0150020580500208C
:10145000400500204D4153544552000045050020F1
:10146000534C415645000000A405002034100108EB
:1014700044050020C1050020C08BD5F70169201765
:101480005E05002043575F4F66667365743D2025F7
:10149000640D0A0053617665204357204F666673DA
:1014A00065743D20256420676F74206661696C2136
:1014B0000D0A00000D0A746573745072696E743100
:1014C0000D0A00005854414C204F66667365743D08
:1014D000202564000D0A746573745072696E74324D
:1014E0000D0A00000D0A2044756D70696E67204C6E
:1014F0006F7261205265677369737465720D0A00BB
:101500000078FF1F0D0A2044756D70696E67204FCB
:101510005450204275666665720D0A000D0A4465D6
:10152000766963652049443A3078253038580D0A89
:1015300000000000446576696365205244503A30EB
:1015400078253038580D0A00446576696365205760
:1015500052503A3078253038580D0A00BFF34F8F7B
:1015600003490248C860BFF34F8FFEE70400FA0545
:1015700000ED00E0254910B5401E884201D9012048
:1015800010BD2349486123480722C3691B021B0A77
:101590004C042343C361002088610A6110BD10B56B
:1015A0001D487D21C900006807F0E4FBFFF7E2FF5A
:1015B000002800D0FEE700F035F8FF20083004F0E6
:1015C0003EFC1648FAF755FE10BD10B5124814211E
:1015D000006807F0CFFBFFF7CDFF002800D0FEE743
:1015E00004F022FC00F07CF810BD0D490A680B687D
:1015F0009B1A8342FBD370477D21C90048430849A9
:101600000A680B689B1A8342FBD37047FFFFFF00F9
:1016100000E000E004ED00E0AC0500200024014003
:101620003C050020F0B54E4E87B000213046FCF757
:1016300011FB351400212846FBF7BDFD3046FCF7B1
:1016400065FA01218804FBF7A4FD01212846FBF778
:10165000B2FD444F00220D213846FBF7A4FA0022C8
:101660000F213846FBF79FFA00220E213846FBF780
:101670009AFA0320694648760220087600248C7680
:10168000C8760003059005A93846FBF720FA6800E4
:10169000059005A93846FBF71AFA05A938460595BD
:1016A000FBF715FA6946FF200C80053048800720BB
:1016B00000028880CC800C816811488118208881C4
:1016C000CC81072008823046FCF749FAA910304641
:1016D000FCF7E3FA01213046FCF7BCFA07B0F0BD95
:1016E0007CB51F4D00212846FCF7B4FA2C140021CC
:1016F0002046FBF760FD2846FCF708FA03216A46FE
:1017000051711171012191710020D0714803154D63
:10171000009069462846FBF7DAF9600000906946B8
:101720002846FBF7D4F9694628460094FBF7CFF921
:101730007CBD70B50A4C054602212046FCF72CFB07
:101740000028F9D029462046FCF7D7FA0121204687
:10175000FCF722FB0028F9D02046FCF7D2FA70BD36
:1017600000380040000400487CB501218804FBF7E4
:1017700010FD01206A46107100219171D0715171E4
:101780000403854D694628460094FBF7A0F9012221
:1017900021462846FBF7FFF9640069462846009475
:1017A000FBF795F9012221462846FBF7F4F964007E
:1017B000694628460094FBF78AF90122214628460B
:1017C000FBF7E9F96400694628460094FBF77FF9C6
:1017D000012221462846FBF7DEF97CBDFEB5072035
:1017E00001214004FBF7D5FC012069460871002661
:1017F0008E71C87103274F7100020925ED06009014
:101800002846FBF764F901242403694662480094E2
:10181000FBF75DF9012221465F48FBF7BCF9042084
:10182000009069465C48FBF752F969460E714F71AA
:10183000202000905848FBF74AF9A4106946284632
:101840000094FBF744F96010009069462846FBF7C6
:101850003EF9694650480094FBF739F902200090A0
:1018600069464D48FBF733F9E000009069464B4864
:10187000FBF72DF9FEBDFF21092310B50131DB0671
:10188000012804D000221846FBF785F910BD01227B
:10189000F9E7F8B5012715460E4604463F03002236
:1018A00039463D48FBF777F980202043FFF741FF99
:1018B000002404E0305DFFF73CFF641CE4B2AC425E
:1018C000F8D3012239463448FBF765F9F8BD13B562
:1018D000012201A9FFF7DDFF1CBDF8B50127154660
:1018E0000E4604463F03002239462B48FBF753F9C6
:1018F0006006400EFFF71DFF002405E00020FFF703
:1019000018FF3055641CE4B2AC42F7D301223946CB
:101910002148FBF740F9F8BD0122DEE70A460146FF
:101920000020B6E70A4601460020D6E710B5202180
:101930001948FBF71AF910BD10B5012109208902D9
:10194000C006FBF712F910BD10B5012109204902AC
:10195000C006FBF70AF910BD10B5012189020E4837
:10196000FBF703F910BD10B502210B48FBF7FDF89A
:1019700010BD10B5012149030848FBF7F6F810BD6A
:1019800010B5054B002801D0002200E001220421FF
:101990001846FBF700F910BD000400480008004895
:1019A000FFB581B00A981C460D4600280DD00321D2
:1019B00007F0E0F9002900D001214218994B2921B4
:1019C000C9439A4205D98A1107E0039900200860AB
:1019D00057E09200521C954204D2039802600846D8
:1019E00005B0F0BD41004018844600218E4E01989C
:1019F0001BE0237865781F06BF0EA278F75D07709D
:101A00001B012F11DB199B069B0EF35C4370AB008F
:101A100095115B199B069B0EF35C92068370920EE8
:101A2000B25CC270001DC91CE41C6145E1D30A9A76
:101A3000914220D22378491C641C914201D2227821
:101A400000E000221C06A40E345D04701B0114117A
:101A50001B199B069B0EF35C43700A9C3D23801C64
:101A6000A14204D21107890E715C017000E003707D
:101A7000401C0370401C0199421A03990A6000211E
:101A800001700020ACE7FFB5002196460D462B22E1
:101A900084462E46D243099C2FE0002001E0401CE2
:101AA000491CA14202D25F5C202FF8D0A14226D06F
:101AB000671A022F02D35F5C0D2F01D05F5C01E03B
:101AC0005F187F780A2F17D000280DD1585C3D2869
