:020000040800F2
:10C0000000310020BDEC0008C5200108C720010850
:10C010000000000000000000000000000000000020
:10C02000000000000000000000000000CF20010818
:10C030000000000000000000D1200108D32001080A
:10C04000EDEC0008EDEC000861490108EDEC00089A
:10C05000EDEC000889460108EDEC0008B94601083E
:10C06000EDEC0008EDEC0008EDEC0008EDEC00084C
:10C07000EDEC0008EDEC0008EDEC0008EDEC00083C
:10C08000EDEC0008EDEC0008EDEC0008455301086C
:10C09000EDEC0008EDEC0008EDEC0008EDEC00081C
:10C0A000EDEC0008EDEC0008EDEC0008135701087A
:10C0B00027550108EDEC0008EDEC0008EDEC000858
:10C0C000034885460DF022F8004800474B2E010832
:10C0D00000310020864910B5884208D1441501215D
:10C0E000204601F07AF80021204601F076F810BDD4
:10C0F00030B5C2687F4B8C681A400B680D792343BA
:10C10000CC686D032C4323430C69496923430B43DB
:10C110001343C36030BD0021016001718160C160C3
:10C120000161416170470029816801D0012200E06E
:10C13000022211438160704701617047002A026941
:10C1400001D00A4300E08A43026170470122D20312
:10C150000029C16801D0114300E09143C1607047DC
:10C16000012292030029C16801D0114300E09143EC
:10C17000C16070470122D2050029C16801D0114376
:10C1800000E09143C16070470904114301627047A8
:10C19000C2681F239B069A430A43C260704701226C
:10C1A00092050029C16801D0114300E09143C160AC
:10C1B000704701225049D2050028886801D01043F9
:10C1C00000E090438860704701224B4992050028A7
:10C1D000886801D0104300E09043886070470122D6
:10C1E000454912060028886801D0104300E09043BA
:10C1F00088607047836A0B43836242617047012203
:10C2000052030029C16801D0114300E09143C1608D
:10C210007047012212040029C16801D0114300E0D7
:10C220009143C1607047012212030029C16801D007
:10C23000114300E09143C1607047826800210123EF
:10C24000DB071A4382600F231B038268491CD20F4D
:10C25000D207994201D0002AF7D18168002901DB79
:10C26000006C704700207047816810221143816084
:10C27000704781680422114381607047006C80B26E
:10C2800070470029C16802D00122114301E049082A
:10C290004900C1607047C26802239A43C260C26805
:10C2A0000A43C2607047002A426801D00A4300E096
:10C2B0008A434260704702460020CB0104D5926851
:10C2C00001231B069A4300E012680A4200D00120B5
:10C2D00070470160704702465368002012680B40A7
:10C2E0000A4202D0002B00D0012070470160704745
:10C2F0000024014003D2FFFF00270140F0B5016890
:10C300006A4A114001600021016041608160C160A2
:10C310006749674A08390F2390422DD0644AF024B8
:10C32000143290422FD0624A1D022832904231D0FE
:10C330005F4E1A033C36B04203D1486815E04860AE
:10C34000F0BD5B4F0F2650373604B8422DD0584F02
:10C350006437B84202D14868320106E0544F78375A
:10C36000B84204D148680F2212061043E7E751494A
:10C37000504F0839B84202D148681843DFE74D4BA7
:10C380001433984202D148682043D8E7494B2833F8
:10C39000984202D148682843D1E7464B3C33984243
:10C3A000CBD0444A50329042CAD148683043C6E7A5
:10C3B00030B50368404A0C6A13408A684D692243CD
:10C3C0000C692C4322438C692243CC6922434C6A7A
:10C3D00022438C6A22431A430260CA6842600A6898
:10C3E00082604968C16030BD0021016041608160A8
:10C3F000C160016141618161C1610162416281622B
:10C4000070470029016802D00122114301E0274A48
:10C4100011400160704710B58030826A0B0F9C009C
:10C420000F23A3409A438262826A090109090A43E1
:10C43000826210BD41607047406880B27047002A38
:10C44000026801D00A4300E08A4302607047024656
:10C450000020D10002D51749083901E014490839F4
:10C460000968114200D001207047C10002D511496E
:10C47000083901E00E49083948607047024600203B
:10C48000D10002D50B49083901E00949083909688A
:10C49000114200D001207047C10002D5054908397A
:10C4A00001E003490839486070470000FEFF0000C2
:10C4B00008000240080402400F80FFFF30482F4967
:10C4C0000160002141608160C1602E494161704777
:10C4D00010B583792A490268002B26D00B68934354
:10C4E0000B604A6803689A434A60027952181368DD
:10C4F0000468234313608A6803689A438A60CA68A1
:10C5000003689A43CA604279102A05D051180A6814
:10C51000006802430A6010BD8A6803681A438A6093
:10C52000CA6800680243CA6010BD007940180168FB
:10C530009143016010BD0021016001710C22427124
:10C54000817170470E490A6902430A6170470C4ABB
:10C550000146526900200A4200D001207047084974
:10C5600048617047064A0146526900200A4200D0DD
:10C570000120704702494861704700000000940F95
:10C5800000040140FFFF6B00FE4A116849084900A2
:10C59000014311607047FB4910220028086801D050
:10C5A000104300E0904308607047F6490020096896
:10C5B000890600D501207047F2480169090603D5B4
:10C5C000F1494160F14941607047EE4801698022BC
:10C5D000114301617047EB490420CA68D20701D0BA
:10C5E00001207047CA68D20601D502207047C96889
:10C5F0004907FBD50320704700B50346FFF7EBFF63
:10C6000002E0FFF7E8FF5B1E012803D0002B00D1FA
:10C61000052000BD002BF4D1FAE7F0B50B27064644
:10C620003F043846FFF7E8FF04280FD1D54C2069B6
:10C63000022528432061666120694021084320616A
:10C640003846FFF7D9FF2169A9432161F0BD70B5D4
:10C650000B252D042846FFF7CFFF04280ED1C94C27
:10C66000206904263043206120694021084320616D
:10C670002846FFF7C1FF2169B143216170BDF8B5BC
:10C68000064600200B273F0400900D463846FFF772
:10C69000B3FF042815D1BB4C206901210843206158
:10C6A00035803846FFF7A8FF042806D1B61C290CB0
:10C6B000009631803846FFF79FFF216949084900FD
:10C6C0002161F8BDF0B50B2706463F040D463846FC
:10C6D000FFF792FF04280CD1AA4C206901210843DE
:10C6E000206135803846FFF787FF216949084900F6
:10C6F0002161F0BDA3480169890503D4A249816085
:10C70000A249816070479F480169421591430161C8
:10C7100070479C480169012252031143016170472F
:10C7200098490020C9694907890F00D00120704746
:10C73000F0B5AA24FFF7F4FF002800D000240B274F
:10C740003F043846FFF758FF042813D18D4D286960
:10C750002026304328612869402108432861384653
:10C76000FFF74AFF1021042805D0052802D02A69C6
:10C770008A432A61F0BD2869B043286128690E46C2
:10C7800030432861824804803846FFF735FF05288A
:10C79000F0D02969B1432961F0BDF0B5C04301046F
:10C7A0000E0E0102C7B2040E0B200D0E0004FFF79F
:10C7B00023FF042831D173490A6910231A430A61FF
:10C7C000FF2F07D0724807810B200004FFF714FFEA
:10C7D00004281BD1FF2E07D06D4846810B20000492
:10C7E000FFF70AFF042811D1FF2D07D06848858183
:10C7F0000B200004FFF700FF042807D1FF2C07D00F
:10C800006348C4810B200004FFF7F6FE052804D01E
:10C810005C490B69102293430B61F0BDF0B50B2707
:10C8200006463F043846FFF7E7FE04281ED1554C64
:10C830002069202528432061206940210843206188
:10C840003846FFF7D9FE04280BD12069A8432061A0
:10C8500020691025284320614D4806803846FFF79F
:10C86000CBFE052802D02169A9432161F0BDF0B5B6
:10C8700006460B2094460F460004FFF7BDFE042831
:10C8800014D1404C20691025284320613E43604666
:10C890000643F82006433E4846800B200004FFF77D
:10C8A000ABFE052802D02169A9432161F0BDF0B596
:10C8B0000B2706463F043846FFF79EFE042810D19A
:10C8C000304C2069102528432061EF200643304872
:10C8D00046803846FFF790FE052802D02169A9431B
:10C8E0002161F0BDF0B50B2706463F043846FFF73F
:10C8F00083FE042810D1234C206910252843206191
:10C90000F7200643224846803846FFF775FE052883
:10C9100002D02169A9432161F0BDF0B50B2706467D
:10C920003F043846FFF768FE042810D1154C2069F3
:10C930001025284320617F2006431548468038464D
:10C94000FFF75AFE052802D02169A9432161F0BDF5
:10C95000F0B50B2706463F043846FFF74DFE042886
:10C9600019D1084C2069102528432061DF20064397
:10C97000074846803846FFF73FFE05280BD021695F
:10C98000A94307E00020024023016745AB89EFCDB2
:10C9900000F8FF1F2161F0BDF0B50B2706463F04EC
:10C9A0003846FFF729FE042810D1304C20691025A5
:10C9B00028432061BF2006432D4846803846FFF7B4
:10C9C0001BFE052802D02169A9432161F0BDF0B505
:10C9D0000B2706463F043846FFF70EFE04280ED10B
:10C9E000224C206910252843206121484680384682
:10C9F000FFF702FE052802D02169A9432161F0BD9D
:10CA0000F0B507460B200E460004FFF7F5FD04289D
:10CA10000ED1164C20691025284320613E800B2042
:10CA20000004FFF7E9FD052802D02169A94321612F
:10CA3000F0BD0E48C0690004000E70470B48006A44
:10CA400070470A4A0029116901D0014300E081437F
:10CA500011617047054A0146D26800200A4200D0A1
:10CA6000012070470149C860704700000020024063
:10CA700000F8FF1F092110B5C906884202D1012123
:10CA80004C0404E05049884209D1012104022046A7
:10CA900000F09AFB0021204600F096FB10BD4B49A8
:10CAA000884202D101210402F1E74949884202D1BA
:10CAB00001210C05EBE74749884202D101214402DC
:10CAC000E5E745498842E9D101218C05DFE7F0B56A
:10CAD0000022032501230C6893401C409C422AD16C
:10CAE0000C79012C01D0022C12D1876854002E46FB
:10CAF000A640B74387604E79A64084682643866087
:10CB000084889C43848084888B7993401C438480F0
:10CB1000066853002C469C40A64306600E790768C1
:10CB20009E403E430660C668A643C660CC799C40E2
:10CB3000C3681C43C460521C102ACBD3F0BD2749E4
:10CB4000016000210171012242718171C171704740
:10CB5000012208B512040A430092C261C161009922
:10CB6000C161C169C069009008BD0246128A0020F7
:10CB70000A4200D001207047008A70470246928A1C
:10CB800000200A4200D001207047808A70478161EE
:10CB9000704701857047002A01D081617047018587
:10CBA0007047818270474B07DB0E9A40C90810B569
:10CBB00089000818016A0F249C40A1430162016AA0
:10CBC0001143016210BD0000000400480008004845
:10CBD000000C00480010004800140048FFFF00004F
:10CBE00030B5827801240178002A15D08B08174AC5
:10CBF0009B009A1813688907C90EFF258D40AB4327
:10CC00004578AD072D0E8D401D4315600078C00698
:10CC1000C00E84400E4804E0C806C00E84400C4894
:10CC20008030046030BD0B4A0029116901D00143F6
:10CC300000E0814311617047042207490428086914
:10CC400002D09043086170471043FBE700E400E026
:10CC500000E100E000ED00E000E000E010B501219F
:10CC60000C07204600F0C2FA0021204600F0BEFA70
:10CC700010BD32498A150028086801D0104300E031
:10CC80009043086070472D4A1168E023994301439F
:10CC900011607047294910220028086801D010430C
:10CCA00000E0904308607047244A0029516801D091
:10CCB000014300E081435160704721490A69042320
:10CCC0009A430A61012803D040BF20BF20BF7047AC
:10CCD00030BF7047194B1A689208920002431A60DD
:10CCE00017480369042213430361012906D002296E
:10CCF00006D00169022211430161704730BF00E094
:10CD000020BF01699143F7E70C48016802221143F3
:10CD100001600B48016904221143016130BF704773
:10CD2000064A0146526800200A4200D0012070479E
:10CD300002490A68800002430A60704700700040A0
:10CD400000ED00E0F94801680122114301604168EB
:10CD5000F74A114041600168F64A114001600168DC
:10CD6000012292049143016041683F2212049143E1
:10CD70004160C16A09090901C162016BEE4A1140B3
:10CD80000163416B4908490041630021816070479C
:10CD9000E64900228A708870704703460020E34A03
:10CDA00059090CD001290CD002290CD0516BDA069C
:10CDB000D20E012393400B4200D00120704711682E
:10CDC000F5E7116AF3E7516AF1E718B50020052489
:10CDD000240300901120FFF7E0FF0099491C009107
:10CDE000A14201D00028F5D01120FFF7D6FF00287E
:10CDF00000D0012018BDCD4A1168F8239943C00026
:10CE0000084310607047C9490028086802D0012211
:10CE1000104301E04008400008607047C34A516B6E
:10CE2000F8239943C000084350637047BF49002866
:10CE3000486B02D00122104301E0400840004863E3
:10CE40007047BA4904220028486B01D0904300E0A3
:10CE5000104348637047B5490A6A520852000A6293
:10CE60000A6A04239A430A620A6A02430A62704702
:10CE7000AE490A6A18239A430A620A6A02430A629E
:10CE80007047AA490028486A02D00122104301E0F5
:10CE9000400840004862704710B5A44A53687B249C
:10CEA000E403A3435360536808430343536010BD36
:10CEB00001229E4912060028086801D0104300E0B4
:10CEC0009043086070470122984912040028486B7B
:10CED00001D0104300E0904348637047934AD16A01
:10CEE000090909010143D162704701228F49D20427
:10CEF0000028086801D0104300E0904308607047A4
:10CF00008A4B5A681202120A0006084310435860FE
:10CF10007047864A5168890889000143516070470B
:10CF2000824840680C2108407047804A5168F023CD
:10CF300099430143516070477C4A516807231B02A3
:10CF4000994301435160704778494A6801239B0324
:10CF50009A434A604A6883B21A434A600A6B8B1547
:10CF60009A430A630A6B000C02430A6370476F49D5
:10CF70000A6B40239A430A630A6B02430A637047B1
:10CF80006A490A6B10239A430A630A6B02430A63D5
:10CF90007047010F654A01290AD00229116B0BD095
:10CFA00003239B0499431163116B01431163704781
:10CFB000116B89088900F6E703231B04F2E75B493C
:10CFC0000A6B80239A430A630A6B02430A63704721
:10CFD000F8B5564E0446706800210C22574D10409B
:10CFE00006D0574A042805D0082805D00C281CD0A4
:10CFF00025601CE022601AE07168706803238902D2
:10D00000DB030F0F1840BF1C00280AD0F06A01078D
:10D01000090F1046491C0BF0EDFB784301462160D7
:10D0200005E0484839464143F9E7474820607068C1
:10D03000464F0006000F3B5C20680246DA40626003
:10D0400073685B055B0FFB5CDA40A260336BDB054A
:10D0500001D43F4B05E073685B0401D4530800E042
:10D060009308E360336B5F063A4B03D4394F1237B2
:10D07000276100E02361376BFF0601D4656100E0A2
:10D080006061376BBF070ED0376BBF07BF0F012F33
:10D090000BD0376BBF07BF0F022F08D0376BFF4392
:10D0A000BF0706D006E0A26104E0A06102E0A36130
:10D0B00000E0A561376BBF03BF0F0FD0376BBF0315
:10D0C000BF0F012F0CD0376BBF03BF0F022F09D04A
:10D0D000376BBF03BF0F032F06D006E0E26104E009
:10D0E000E06102E0E36100E0E561376B3F03BF0F01
:10D0F0000FD0326B1203920F012A0CD0306B000359
:10D10000800F022809D0306B0003800F032806D05F
:10D1100006E0226204E0206202E0236200E0256271
:10D12000306B000618D408486062F8BD0010024059
:10D130000CB8FF08FFFFF6FEACFEF0FF00127A000D
:10D1400080BA8C0100093D00006CDC02C0000020A8
:10D15000809FD500008000006162E6E735490A6AD9
:10D1600002430A62704701223249D2030028086A4A
:10D1700001D0104300E090430862704701222D491E
:10D1800012040028086A01D0104300E090430862AE
:10D190007047284A0029516901D0014300E08143CA
:10D1A00051617047234A0029916901D0014300E091
:10D1B0008143916170471F4A0029D16901D0014321
:10D1C00000E08143D16170471A4A0029916A01D079
:10D1D000014300E0814391627047164A0029D168FB
:10D1E00001D0014300E08143D1607047114A00291A
:10D1F000116901D0014300E08143116170470D4A7C
:10D200000029517A01D0014300E0814351727047F7
:10D210000848416A01221206114341627047054ADB
:10D220000146926800200A4200D00120704701495F
:10D23000887270470010024018B50020FA4B009029
:10D240009868800601D5012018BDCA205862532075
:10D250005862D868A0218843D86020218C02D86801
:10D26000009A0840521C0092A24201D00028F6D039
:10D27000D868800601D5012000E00020FF21596216
:10D2800018BD18B50020E84B0090D868400612D4AD
:10D290000020C043D86040210C02D868009A0840A2
:10D2A000521C0092A24201D00028F6D0D868400655
:10D2B00001D4002018BD012018BD30B50025DA4C7E
:10D2C000CA20606253206062FFF7DBFF002816D09F
:10D2D00000212160D5486061D5486060A068A160E8
:10D2E000D4482061E161E162E163CF4840304160B0
:10D2F000E1600160FFF7A0FF002800D00125FF20BA
:10D300006062284630BDC848C16880229143C16030
:10D31000704770B505460026C34CCA206062532092
:10D320006062FFF7AEFF002811D0A068402188435B
:10D33000A060A06829680843A060A86820612069EF
:10D34000A988090408432061FFF7DDFF0126FF20BB
:10D350006062304670BD002101607F214160FF2185
:10D3600081607047B049002801D0FF2002E0CA2048
:10D37000486253204862704770B506460025AA4CA3
:10D38000CA20606253206062FFF77BFF00280AD04A
:10D390001021A068002E01D0084300E08843A0605F
:10D3A000FFF7B1FF0125FF206062284670BD9E494E
:10D3B000CA224A6253224A620028886802D0202288
:10D3C000104301E0DF2210408860FF204862704770
:10D3D000F8B50C460026011E934F2078B9683246F6
:10D3E00004D049062DD500F085FB2BE0490600D47A
:10D3F000E27000F073FB0504607800F06FFB000240
:10D400000543A07800F06AFB0543E078000405437B
:10D41000CA20786253207862FFF733FF00280CD0CF
:10D42000854805403D60FFF76EFFB868800603D46D
:10D43000FFF702FF002800D00126FF207862304667
:10D44000F8BDE2702078A578000405436078E178A3
:10D45000000209040843DAE70021C170017041703D
:10D460008170704770B503466F480C460268724879
:10D470001146014088024D04800E20706D0E490651
:10D480006570490EA1705102490E40221140E170B1
:10D49000002B0AD100F02EFB2070607800F02AFBF0
:10D4A0006070A07800F026FBA07070BD5E49886AAD
:10D4B0004968704770B50C460026010060780ED0B0
:10D4C00000F018FBA07800F015FBE078A5780004C8
:10D4D00005436078217800024903084314E0C1063F
:10D4E00003D5EF2108400A306070E07800F0F6FACA
:10D4F0000504607800F0F2FA00020543A07800F01D
:10D50000EDFA0543207840030543474CCA2060628A
:10D5100053206062FFF7B5FE00280CD04748054055
:10D520006560FFF7F0FEA068800603D4FFF784FE75
:10D53000002800D00126FF206062304670BD012126
:10D540000170817041700021C1707047024610B5B2
:10D5500035480C464068C021C94301400002000E16
:10D56000CB04E070DB0E63708B069B0E0904490F41
:10D57000A3702170002A0AD100F0BCFAE070607834
:10D5800000F0B8FA6070A07800F0B4FAA07010BD96
:10D5900070B50021244E0028B068144620D0400603
:10D5A00035D5207800F0A6FA207B00F0A3FA207889
:10D5B000A578000405436078E17800020904084377
:10D5C0000543207B00060543A068054360680543CA
:10D5D000CA20706253207062F561FF20706270BDD6
:10D5E000400600D4E170207800F078FA05046078F5
:10D5F00000F074FA00020543A07800F06FFA0543CA
:10D60000E07800040543207B00F068FADAE7E17077
:10D61000CAE70021C17001704170817001228160F0
:10D62000027341607047000000280040FFFF0000C7
:10D6300001210000FF007F007F7F7F003FFFFF0090
:10D6400070B514460246FE48C16940258802800E26
:10D650004B0420705B0E63704B065B0EA3700B0CCB
:10D660002B40E3708B009B0E23732B060B40A360B3
:10D67000F44B19406160002A0ED100F03BFA207093
:10D68000607800F037FA6070A07800F033FAA0708C
:10D69000207B00F02FFA207370BD18B50022009295
:10D6A000E74BCA225A6253225A620029996802D073
:10D6B0000143996012E081439960000A0124A403A8
:10D6C000D968009A0140521C0092A24201D0002960
:10D6D000F6D0D968014201D1002000E00120FF21ED
:10D6E000596218BDD648CA234362532343621206C7
:10D6F0000A43D34940314A60FF21416292E7D04852
:10D70000403040684004400C8CE7CD49CA224A6250
:10D7100053224A628A68D208D2008A608A68024329
:10D720008A60FF2048627DE7C549CA224A625322C7
:10D730004A624861FF20486274E7C148406980B28C
:10D7400070E718B500210091BD4ACA2151625321EA
:10D75000516211150028906802D00843906011E0D2
:10D760008843906004231C03D06800991840491C2A
:10D770000091A14201D00028F6D0D068400701D422
:10D78000002000E00120FF21516218BD10B5AC4A15
:10D79000CA2353625323536293680124A404A3430E
:10D7A00093609368084303439360FF20506210BD69
:10D7B000A348806801218904084033E710B5A04AD6
:10D7C000CA23536253235362936807242405A34357
:10D7D00093609368084303439360FF20506210BD39
:10D7E0009749CA224A6253224A620122D20500287E
:10D7F000886801D0104300E090438860FF204862B1
:10D8000010E78F49CA224A6253224A628A6801237A
:10D81000DB049A438A608A6802438A60FF20486278
:10D8200000E770B50023864CCA2565625325656202
:10D83000E568ED0307D5A514E668F60303D5AB420A
:10D8400001D05B1CF8E7E368DB0304D40843104312
:10D85000E063012000E00020FF21616270BD10B58F
:10D86000774B9A68784C2240002901D00243D814A3
:10D870000243CA205862532058629A60FF205862BF
:10D8800010BD70B50D466E4914460B6B6F4A496B5F
:10D890001A40C026F64331409602B60E2E7056044A
:10D8A000760E52066E70520EAA705A02520E402325
:10D8B0001A40EA700022E270CA04D20E62708A0630
:10D8C000920E0904490FA2702170002817D1287800
:10D8D00000F010F92870687800F00CF96870A878EA
:10D8E00000F008F9A870607800F004F96070A07882
:10D8F00000F000F9A070207800F0FCF8207070BDF6
:10D900004F48806B8EE64E4A400040320029116835
:10D9100002D00143116085E68143FBE7484A40326B
:10D920000029116801D0014300E08143116079E6CC
:10D93000434940310A680323DB029A430A600A68BC
:10D9400002430A606EE63E4940310A6807231B0223
:10D950009A430A600A6802430A6063E63849403124
:10D960000A6803235B039A430A600A6802430A6059
:10D9700058E63349802240310028086801D010431E
:10D9800000E0904308604DE62D494031CA1300285D
:10D99000086801D0904300E01043086042E6284A3E
:10D9A00008B55032800080180090016008BD2449FD
:10D9B00008B55031800040180090006808BD20492B
:10D9C00040310A6801239B049A430A600A680243B3
:10D9D0000A6027E630B50022194CCA23636253233C
:10D9E0006362E3681B0707D5A314E5682D0703D519
:10D9F0009A4201D0521CF8E7E26812070AD4A268E2
:10DA0000D20607D40143E162FFF716FC002802D0DA
:10DA1000012000E00020FF21616230BD30B5084BDD
:10DA2000CA225A6253225A6204250246044CAA436F
:10DA300040342840002999680DD01143996007E0CF
:10DA40000028004080808080F7F7FFFF7F7F7F0005
:10DA50002168014303E0914399602168814321607B
:10DA6000FF20586230BD27490246C9680020264B76
:10DA70001940114200D00120D4E580210843C003A1
:10DA8000C00BC3431F48C2680A401343C360C9E5C3
:10DA900070B51C4A0021403212680423194C1A4008
:10DAA000A368860C0546F540ED0B15400340E2687F
:10DAB0002B4300090240002B03D01004000C00D0BF
:10DAC0000121084670BD00098021084380B20D4A3B
:10DAD000C343D06808400343D360A3E5002103E0BB
:10DAE000491C0A38C9B2C0B20A28F9D20907090E7E
:10DAF000084397E501090A2200075143000F401827
:10DB0000C0B28FE50028004078790100B24910B515
:10DB1000884209D1841401212046FFF75EFB0021D1
:10DB20002046FFF75AFB10BDAC498842FBD10414D4
:10DB300001212046FFF75AFB00212046FFF756FB44
:10DB400010BD002101800722418012028280C18025
:10DB5000018141818181C18107210182704730B5F6
:10DB60000388C122920113400A88CC890D8922437F
:10DB7000CC882C4322434C8922438C8922431A436C
:10DB800002808288964B1A408B88134383800A8ACE
:10DB900002820288042349889A4311430180818BC1
:10DBA000904A1140818330BD0021018041808180F5
:10DBB000C1800222826081817047F0B505460C4623
:10DBC00002200021AA8B8BB00126854BBF3B1A4057
:10DBD000AA832884AF8BA268022A1FD0A0880028BD
:10DBE00000D002266846FFF7F3F9E1880098CA1FC3
:10DBF000FF3AFA3A29D071010AF0FCFD0A214843A4
:10DC0000A1680AF0F7FD401D80B20A210AF0F2FD7A
:10DC1000C107C90F401AC003000C0902821EFE2A68
:10DC200001D302200021E288084302432A8420888D
:10DC30006188A2890843A188114308430121384320
:10DC4000C9020843A8830BB0F0BD000A0A22504362
:10DC5000A168D6E740220029018801D0114300E0E5
:10DC600091430180704710220029818801D011431F
:10DC700000E09143818070470029818B03D001220D
:10DC80009202114301E0584A114081837047828813
:10DC9000534B1A400A43828070478288534B1A4084
:10DCA000828082880A4382807047012292039142D7
:10DCB000018801D1114301E04D4A114001807047B4
:10DCC0004C4A9142018803D0FF220132114300E007
:10DCD00011400180704704220029818801D011433E
:10DCE00000E091438180704708220029818801D09B
:10DCF000114300E091438180704701737047818137
:10DD00007047007B7047808970470288354B1A4006
:10DD1000028002880A43028070470029018803D0EC
:10DD200001225203114301E0334A11400180704740
:10DD3000018801221203114301807047012901D09B
:10DD4000008B7047808A7047008A7047002A82885B
:10DD500001D00A4300E08A43828070478288274BC3
:10DD60001A40828082880A43828070470909012311
:10DD70008B40002A828899B201D00A4300E08A438E
:10DD80008280704700890321C902084070470089DA
:10DD900003214902084070470246128900200A42C6
:10DDA00000D001207047C9430181704730B50D078D
:10DDB00001242D0F2346AB400246002009098C4068
:10DDC00091889BB2A4B2128921401A4202D0002944
:10DDD00000D0012030BD000000300140003800407C
:10DDE000FFF00000FFF70000FFFB0000FFEF000066
:10DDF000FFBF0000FFFE0000FFDF0000FF9F0000EC
:10DE00002E4801688907890F016000218160C16087
:10DE10000161416181698215114381617047274A1F
:10DE2000116889088900014311607047234A00295D
:10DE3000116801D0014300E08143116070471F4A1F
:10DE40000029116801D0014300E08143116070474F
:10DE50001A490A68C0239A430A600A6802430A60A2
:10DE600070478A0710B5120F0F2393408C0813498F
:10DE7000A40061188C689C438C608B6890400343BD
:10DE80008B6010BD0D4A010E890080328918096827
:10DE90000002000A0840704708498A6902438A6103
:10DEA0007047064900208969C90500D501207047DF
:10DEB00002498A6902438A617047000000000140FC
:10DEC000F94910B5884202D10121C4143AE0012178
:10DED0008907884206D101210846FFF787F900210A
:10DEE000012008E0F149884208D101210220FFF712
:10DEF0007DF900210220FFF779F910BDEC49884235
:10DF000006D101211020FFF771F900211020F2E75E
:10DF1000E849884206D101212020FFF767F9002156
:10DF20002020E8E7E449884207D1841501212046F2
:10DF3000FFF75CF900212046DDE7E049884209D17E
:10DF400001210C042046FFF748F900212046FFF785
:10DF500044F910BDDA49884202D101214C04F1E7AD
:10DF6000D8498842F5D101218C04EBE710B502882D
:10DF7000CD4B984206D00124A407A04202D0CB4C3E
:10DF8000A04203D17024A2434C882243C84CA04233
:10DF900003D0CD4C22400C89224302804A68C262E1
:10DFA0000A880285984208D0C44A904205D0C44AE3
:10DFB000904202D0C34A904201D1897A0186012160
:10DFC000818210BD0021C94341600021018001818F
:10DFD0004180817270470185828270470288702378
:10DFE0009A430A430280704741627047C16270479A
:10DFF000406A7047008D704702220029018801D0D5
:10E00000114300E0914301807047042200290188F8
:10E0100001D0114300E09143018070478022002924
:10E02000018801D0114300E09143018070470288CC
:10E0300008239A43028002880A43028070470288BC
:10E04000A14B1A40028002880A43028070470029CF
:10E05000018802D00122114301E0490849000180F2
:10E06000704710B50A884B88CC881A438B882343A5
:10E070001A430B891A434B8989891A430A43403052
:10E08000828010BD0021018041808180C18001819A
:10E0900041818181704740300029818803D001226D
:10E0A000D203114301E04904490C8180704770B5E7
:10E0B000028C520852000284048C8288038B7025E3
:10E0C000AB439B080D889B001D4302239C438E8914
:10E0D0004B882643744C3343A04208D0774CA0426F
:10E0E00005D0774CA04202D0764CA0420DD1082436
:10E0F000A343CC891C4304239C438B882343724C49
:10E1000022400C8A14434A8A22438280058389680C
:10E110004163038470BD70B5028C10239A4302845E
:10E12000048C8288038B694D2B400D782D062D0CB5
:10E130001D4320239C438B891B051E0C4B882643C3
:10E140001B051B0C584C3343A04202D05B4EB0421F
:10E1500019D15F4E32400E8AB604360C3243A042CB
:10E1600011D18024A343CC892405240C1C434023D3
:10E170009C438B881B051B0C2343564C22404C8A26
:10E18000A404240C2243828005838968816303846C
:10E1900070BD30B5028C504B1A400284038C8288CB
:10E1A000848B7025AC43A4080D88A40025434B4CF8
:10E1B00023400C7B2406240C1C438B781B061B0C71
:10E1C0002343394CA04215D1424C23408C7B24067A
:10E1D000240C1C433E4B1C400B791B061B0C234399
:10E1E0003F4C22400C8A2405240C14434A8A120511
:10E1F000120C2243828085838968C163038430BD09
:10E2000030B5028C374B1A400284058C8288838B90
:10E210002E4C23400C782406240C1C43324B1D400A
:10E220000B7B1B071B0C2B438D782D072D0C1D43DF
:10E230001D4B984205D12D4B13400A8A9205120CB2
:10E240001A438280848389680164058430BD00217B
:10E2500001804180818081608181C1810182418210
:10E26000704730B5034618330124058C8C40A54314
:10E270000584002910D008290ED0091F0804400C7D
:10E28000C018016807231B03994301600168120647
:10E29000120C1143016030BD4808C018016870239A
:10E2A000994301600168F4E7002C0140000400403C
:10E2B00000100040001400400020004000400140D9
:10E2C0000044014000480140FFFC0000FF8C0000BA
:10E2D000FFFB0000FFF70000FFFE0000FFFD000055
:10E2E000FFCF0000FFEF0000FFDF0000FFBF0000D6
:10E2F0004163704781637047C16370470164704731
:10E30000028B70239A430A4302837047028BF64BB9
:10E3100009021A40114301837047828B70239A438C
:10E320000A4382837047828BEF4B09021A401143E4
:10E33000818370470029818802D00122114301E0C6
:10E340004908490081807047028B08239A430A4399
:10E3500002837047028BE54B09021A401143018387
:10E360007047828B08239A430A4382837047828BCB
:10E37000DE4B09021A40114381837047028B04234C
:10E380009A430A4302837047028BD94B09021A4011
:10E39000114301837047828B04239A430A4382838B
:10E3A0007047828BD24B09021A4011438183704718
:10E3B000028B80239A430A4302837047028B5204E4
:10E3C000520C0902114301837047828B80239A43C8
:10E3D0000A4382837047828B5204520C0902114314
:10E3E00081837047028C02239A430A430284704758
:10E3F000028C08239A430A4302847047028C20232C
:10E400009A430901114301847047028C80239A4387
:10E410000901114301847047028CB64B09021A406E
:10E42000114301847047028CB04B09021A4011431A
:10E4300001847047028CB04B09031A4011430184D8
:10E440007047028908239A43028102890A430281A4
:10E45000704710B50123048C8B409C430484038CCB
:10E460008A401343038410BD10B50423048C8B40F1
:10E470009C430484038C8A401343038410BD04220C
:10E480000029818801D0114300E0914381807047C9
:10E49000828B9A4B1A408283828B09020A438283C1
:10E4A0007047828B0C239A438283828B0A43828338
:10E4B0007047028B914B1A400283028B09020A4378
:10E4C00002837047F0B5048C1026B4430484058B96
:10E4D000048C8B4F1B0309013D402B4312021A434E
:10E4E000A0239C430C43344302830484F0BD028B7D
:10E4F0000C239A430283028B0A430283704770B550
:10E50000048C640864000484058B048C1B01134391
:10E51000F3260A22B54394432B430C4301210C43B9
:10E520000383048470BDF8B5054608884E888A8840
:10E530000B890C4600281DD0042824D00828288CDC
:10E540002AD0704908402884A88B2F8C31036C4E48
:10E55000120230400243180310436B4AA88317404D
:10E560000F43012109030F432F84E1882846FFF759
:10E570008FFFF8BD31462846FFF7C1FFE1882846E6
:10E58000FFF7B5FFF8BD31462846FFF79BFFE1884E
:10E590002846FFF78EFFF8BD5C4908402884A98B08
:10E5A000288C3702F3261B01B14313430B43584910
:10E5B000AB830840FF213843013108432884E188B8
:10E5C0002846FFF76EFFF8BD00210180418001223F
:10E5D0008280C18001817047F8B50C4649880026C9
:10E5E00001250746002900D10226A288012A00D170
:10E5F0000225208823890028384610D0FFF762FFC3
:10E60000E1883846FFF755FF23892A4631463846C8
:10E61000FFF775FFE1883846FFF769FFF8BDFFF7A0
:10E620006EFFE1883846FFF762FF23892A463146AC
:10E630003846FFF747FFE1883846FFF73AFFF8BD55
:10E64000406B7047806B7047C06B7047006C7047C1
:10E65000002A828901D00A4300E08A438281704700
:10E66000818270470246128A00200A4200D00120AF
:10E670007047C943018270470246138A002092897D
:10E680000B400A40002B02D0002A00D00120704726
:10E69000C943018270471143403001817047002A0D
:10E6A000828901D00A4300E08A43828170470822B0
:10E6B0000029818801D0114300E091438180704797
:10E6C0000189C908C90001817047028970239A43F2
:10E6D0000A430281704710B50446FFF7F6FF208910
:10E6E00007210843208110BDFF8F0000FFF70000C5
:10E6F000FFFB0000FFFD0000FFDF0000FFF3000054
:10E70000FF0C0000FFEF0000FF5F0000FFFE0000B5
:10E71000FFF5000070B516460D46044660290CD082
:10E7200001223146FFF7EBFE29462046FFF7CDFFD9
:10E73000208907210843208170BD01223146FFF75F
:10E74000C1FEF1E710B504891B021343E4B20B4389
:10E750002343038110BD10B50446FFF7F3FF208962
:10E76000C108C90007200143702081430143218172
:10E7700010BD10B50446FFF7E5FF2089012189038C
:10E780000843208110BD828870239A43828082884A
:10E790000A43828070470289D208D200028102892E
:10E7A0000A4302817047028980239A4302810289C9
:10E7B0000A430281704770B50589048B068CED0809
:10E7C000ED000D430C4905810C40FF2102310C4343
:10E7D000AA218E431901114331430483018470BD82
:10E7E00080220029818801D0114300E0914381807B
:10E7F0007047403001827047FCFC0000F74910B5BB
:10E80000884207D101218C032046FEF7E6FC002157
:10E81000204627E0F249884202D101214C0404E05D
:10E82000F049884209D101218C042046FEF7DEFC24
:10E8300000212046FEF7DAFC10BDEB49884202D1E8
:10E840000121CC04F1E7E949884202D101210C05FC
:10E85000EBE7E749884208D101212020FEF7BDFC03
:10E8600000212020FEF7B9FC10BDE249884206D104
:10E8700001214020FEF7B1FC00214020F2E7DE49F3
:10E880008842F1D101218020FEF7A7FC00218020E1
:10E89000E8E730B5044600688BB00D4640084000FC
:10E8A00020606068032109038843A968014361600F
:10E8B0002068D249EA680840696811432A6902431E
:10E8C00011432160A068032109028843696901435B
:10E8D000A1606846FEF77CFBC048844201D10698DF
:10E8E0000AE0BF48844201D1079805E0BD48844250
:10E8F00001D1089800E0029821680904296800D530
:10E90000400009F077FF2A6852088A4200D8401C6C
:10E910002168090404D50107B94A490F104008438A
:10E92000A0810BB030BD4B21C901016000214160C5
:10E9300081600C22C16002614161704710B543687B
:10E940000F221202934314C922430C6849680C43F6
:10E9500022431A43426010BD002101604160816082
:10E96000C16070470029016802D00122114301E013
:10E970004908490001607047002A026801D00A4333
:10E9800000E08A43026070470122D2030029016837
:10E9900001D0114300E09143016070470122D2028F
:10E9A0000029816801D0114300E0914381607047E4
:10E9B0000122D2040029416801D0114300E09143B3
:10E9C00041607047012292040029416801D011433F
:10E9D00000E0914341607047002A426801D00A4339
:10E9E00000E08A43426070470122D2030029416857
:10E9F00001D0114300E09143416070470122D205EC
:10EA00000029416801D0114300E091434160704703
:10EA10004269120E1206426142690A43426170471E
:10EA2000028A120A12020282028A0A430282704792
:10EA300002220029016801D0114300E091430160E6
:10EA40007047826803231B059A43826082680A43E9
:10EA500082607047012212050029416801D01143EC
:10EA600000E0914341607047426803235B059A438D
:10EA7000426042680A4342607047C905C90D01857A
:10EA80007047808CC005C00D704742681202120AA0
:10EA90004260426809060A434260704701225203FD
:10EAA0000029016801D0114300E0914301607047E3
:10EAB00002680123DB029A43026002680A43026093
:10EAC0007047426810239A43426042680A4342609A
:10EAD0007047426820239A43426042680A4342607A
:10EAE0007047012292030029416801D0114300E0E0
:10EAF00091434160704708220029816801D0114389
:10EB000000E0914381607047028AD2B20282028A99
:10EB100009020A430282704720220029816801D03D
:10EB2000114300E091438160704710220029816801
:10EB300001D0114300E09143816070478268072350
:10EB40005B049A438260826849040A43826070478A
:10EB500042691202120A4261426909060A4342618D
:10EB60007047826804239A43826082680A43826005
:10EB7000704702220029816801D0114300E09143CF
:10EB800081607047012292030029816801D01143FE
:10EB900000E091438160704782680123DB039A4360
:10EBA000826082680A438260704702681F235B05A7
:10EBB0009A430260026849050A430260704702688E
:10EBC0001F231B049A430260026809040A4302607F
:10EBD0007047002A826815D00A4314E000380140CB
:10EBE0000044004000480040004C004000500040FD
:10EBF0000014014000180140001C0140F3E9FFFF30
:10EC0000F0FF00008A4382607047826801235B0343
:10EC10009A43826082680A438260704710B50B0491
:10EC20001C0E01238B40022C02D0032C02D002E0E8
:10EC3000001D00E008300168002A01D0194300E0FF
:10EC40009943016010BD002A028B01D00A4300E005
:10EC50008A4302837047826801231B039A438260C0
:10EC600082680A43826070470246D26900200A42E5
:10EC700000D0012070470162704730B50A04130EBE
:10EC800001252A4600248A40012B0ED0022B0ED0EB
:10EC90008368090C1340C0698D402840002B02D0C6
:10ECA000002800D00124204630BD0368F1E7436806
:10ECB000EFE7090C01228A40026270470C4880F39A
:10ECC00008880C480168090E0B4A914205D10B488F
:10ECD0000B4901600B480C4901600C4880470C4807
:10ECE0000047FEE7FEE7FEE7FEE7FEE7FEE700007F
:10ECF00000310020040000001F0000001810024036
:10ED0000010000000000014000000000AF4E0108BB
:10ED1000C1C0000810B50146FE4807F07AF8041E8D
:10ED200007D0FD49601809D0012807D0022803D177
:10ED300004E0FAA006F026F9204610BDF9A0F9E794
:10ED4000FEB5417906460127BF0780790B000AF01E
:10ED5000A8FA0A06117A85909CA7B2BDC81F09F0CF
:10ED6000E5FF02460B46002039460BF06FF8002203
:10ED7000EF4B09E009F0DAFF02460B460020394666
:10ED80000BF064F80022EB4B09F02EFF04460D4611
:10ED9000307A012878D00022707A012800D0002033
:10EDA000317F012900D00021B779337EBC46DB00DA
:10EDB000BF00DB1B12019A1814235843101A1C3091
:10EDC000019067464800381A800009F0AFFF0746F7
:10EDD0000091019809F0AAFF3A46009B09F004FF50
:10EDE0000AF070FF09F0D4FFF7793F1D4743708B9D
:10EDF000083709F09BFF0022CF4B09F0DBFD2246CC
:10EE00002B4609F089FE0022CC4B09F085FE064610
:10EE10003846009109F08AFF22462B4609F07CFE15
:10EE20000022C64B09F078FE02460B463046009998
:10EE300009F0C0FD0AF046FF0022C14B09F0BAFDFF
:10EE400009F0A6FFFEBD09F071FF02460B46002047
:10EE500039460AF0FBFF0022BA4B95E709F066FF3E
:10EE600002460B46002039460AF0F0FF0022B64B5E
:10EE70008AE709F05BFF02460B46002039460AF09C
:10EE8000E5FF0022B14B7FE736E009F04FFF024675
:10EE90000B46002039460AF0D9FF0022AC4B73E73D
:10EEA00009F044FF02460B46002039460AF0CEFF27
:10EEB0000022A84B68E709F039FF02460B46002004
:10EEC00039460AF0C3FF0022A34B5DE709F02EFF8D
:10EED00002460B46002039460AF0B8FF00229F4B3D
:10EEE00052E709F023FF02460B46002039460AF09C
:10EEF000ADFF00229A4B47E701224DE710B503F022
:10EF000078FF984C206800688047206880688047B8
:10EF1000002010BD70B5944D00242868002802D050
:10EF20000AF034FF2C60914D2868002802D00AF0C6
:10EF30002DFF2C6070BDF8B500252E468C4FAC001F
:10EF40003859002810D00AF021FF3E51284604F01D
:10EF500093FF884F38590AF019FF874800590AF083
:10EF600015FF85483E5106516D1CEDB2202DE5D3AD
:10EF70008248067004F04DFFF8BDFFF7DCFFFFF795
:10EF8000C9FF05F0C4FA7E4801680268521AC82A0F
:10EF9000FBD302F0C6FC10B57A48006801280FD1F7
:10EFA0007948007800280CD00020724A034681007E
:10EFB0005158002900D08B72401CC0B22028F6D3D3
:10EFC00010BD694800680028FAD006F0BFF810BDEF
:10EFD000FEB56E4D287800246D4F6E4E002815D07A
:10EFE0006D48FF21046001316C4809F058FC33681A
:10EFF0006BA2072168460AF027F96AA005F0C2FF54
:10F00000684605F0BFFF46A005F0BCFF3C703460C9
:10F010002C70FEBD10B50121674A044611700846E8
:10F0200008F024FA072008F04FFE082008F016FE2A
:10F03000204608F018FF052008F01BFF5F48FFF787
:10F040007FFE5E49486108615D4808F03FFD454824
:10F0500000688068804710BD10B5574A04460221F9
:10F060001170012008F002FA072008F02DFE072099
:10F0700008F0F4FD204608F0F6FE052008F0F9FE41
:10F080004E48FFF75DFE4D49486108614C4808F065
:10F090001DFD344800688068804710BD10B5464AA1
:10F0A000044603211170012008F0E0F9082008F05F
:10F0B0000BFE092008F0D2FD204608F0D4FE052002
:10F0C00008F0D7FE3D48FFF73BFE3C494861086128
:10F0D0003B4808F0FBFC234800688068804710BD6F
:10F0E00010B5354A044604211170012008F0BEF91C
:10F0F000082008F0E9FD082008F0B0FD204608F0DF
:10F10000B2FE052008F0B5FE2C48FFF719FE2B498A
:10F11000486157E0D40000201000FFFF0D0A4F4B5C
:10F120000D0A00000D0A4552524F520D0A00000010
:10F130000078BE400050C4400000114000408F40A5
:10F14000000079400078CE400050D4408084DE40FA
:10F15000805CE4408084EE408084FE4080840E41E8
:10F1600080841E4120050020B4050020B805002041
:10F17000D410002054110020D4110020AC05002030
:10F1800004050020080500200D0500202D050020A5
:10F190002E0500203005002018050020CC07002097
:10F1A000256400004C6F726150565F54587265734D
:10F1B000756C743D0000000024050020DC13002065
:10F1C00080A1031C0861FD4808F080FCFC48006831
:10F1D0008068804710BD10B5FA4A044605211170B9
:10F1E000012008F043F9082008F06EFD072008F020
:10F1F00035FD204608F037FE052008F03AFEF248BB
:10F20000FFF79EFDF04948610861EC4808F05EFC9C
:10F21000EB4800688068804710BD10B5E94A044695
:10F2200006211170012008F021F9092008F04CFD99
:10F23000092008F013FD204608F015FE052008F00F
:10F2400018FEE148FFF77CFDDF4948610861DB48B3
:10F2500008F03CFCDA4800688068804710BD10B5B3
:10F26000D84A044607211170012008F0FFF8092050
:10F2700008F02AFD082008F0F1FC204608F0F3FD14
:10F28000052008F0F6FDD048FFF75AFDCE49486149
:10F290000861CA4808F01AFCC948006880688047BD
:10F2A00010BD10B5C74A044608211170012008F0AE
:10F2B000DDF8092008F008FD072008F0CFFC204603
:10F2C00008F0D1FD052008F0D4FDBF48FFF738FD58
:10F2D000BD4948610861B94808F0F8FBB8480068C2
:10F2E0008068804710BD10B5B64A044609211170E8
:10F2F000012008F0BBF80A2008F0E6FC092008F01D
:10F30000ADFC204608F0AFFD052008F0B2FDAE4888
:10F31000FFF716FDAC4948610861A84808F0D6FB24
:10F32000A74800688068804710BD10B5A54A04460C
:10F330000A211170012008F099F80A2008F0C4FC95
:10F34000082008F08BFC204608F08DFD052008F011
:10F3500090FD9D48FFF7F4FC9B4948610861974880
:10F3600008F0B4FB964800688068804710BD10B56F
:10F37000944A04460B211170012008F077F80A2006
:10F3800008F0A2FC072008F069FC204608F06BFD9D
:10F39000052008F06EFD8C48FFF7D2FC8A494861D1
:10F3A0000861864808F092FB8548006880688047BD
:10F3B00010BD10B5834A04460C211170012008F0DD
:10F3C00055F80B2008F080FC082008F047FC204688
:10F3D00008F049FD052008F04CFD7B48FFF7B0FC24
:10F3E000794948610861754808F070FB7448006805
:10F3F0008068804710BD10B5724A04460D21117017
:10F40000012008F033F80B2008F05EFC072008F01C
:10F4100025FC204608F027FD052008F02AFD6A4853
:10F42000FFF78EFC684948610861644808F04EFBAC
:10F43000634800688068804710BD10B5614A044683
:10F440000E211170012008F011F80C2008F03CFC8E
:10F45000082008F003FC204608F005FD052008F010
:10F4600008FD5948FFF76CFC57494861086153484B
:10F4700008F02CFB524800688068804710BD10B52A
:10F48000504A04460F211170012007F0EFFF0C20B5
:10F4900008F01AFC072008F0E1FB204608F0E3FC26
:10F4A000052008F0E6FC4848FFF74AFC4649486159
:10F4B0000861424808F00AFB4148006880688047BC
:10F4C00010BDF8B5154602460020404E404B0C4694
:10F4D0000870217850785F5CB84205D0491CC8B2EA
:10F4E00020700428F5D330E0C8B204282DD2D01DF6
:10F4F000F93009F051FA80B2288035492278091D87
:10F50000002A04D10F2820D84000085A28802078EB
:10F51000012805D128880F2817D84000085A2880CC
:10F520002078022809D1288802460D3A022A0CD8F0
:10F53000400040184038C08C28802078032809D12A
:10F540002888002803D0012801D03046F8BD4000AB
:10F55000085A28800020F8BD0020704710B50078B8
:10F56000002801D0194810BD02F0DBF97FB5044630
:10F570000078164D03283CD116480068022838D17F
:10F5800003AA02A92046FFF79CFF002831D1E01D05
:10F59000FF30F93009F000FA0006000E01D0012812
:10F5A00027D16B4699890091002199710322D97165
:10F5B0005A71002810D0012810D01AE080A1031C35
:10F5C0002005002024050020DC130020F2FF0000AD
:10F5D0002CA9010808050020197101E0012018710B
:10F5E000187A002808D001280ED0022816D0032847
:10F5F0001BD0284604B070BD01214804FDF7C9FDA9
:10F6000009206946C00605E001218804FDF7C1FD17
:10F610006946FE48FDF75BFA0020EBE70121C804CC
:10F62000FDF7B7FD6946FA48F4E701218805FDF7C3
:10F63000B0FD6946F748EDE77CB504460078F64D25
:10F6400003281ED1F548006802281AD16A4601A98C
:10F650002046FFF736FF002813D1E01DFF30F930B8
:10F6600009F09AF90206120E01D0012A09D1684662
:10F670000079002807D001280AD002280FD00328DB
:10F6800011D028467CBD684601880920C00602E0EA
:10F6900068460188DD48FDF77EFA00207CBD68469B
:10F6A0000188DB48F7E768460188DA48F3E73EB5AA
:10F6B00004460078D84D022814D1D84800680228A2
:10F6C00010D16A4601A92046FFF7FBFE002809D1A8
:10F6D00068460079002807D001280AD002282BD0DC
:10F6E00003282DD028463EBD684601880920C00663
:10F6F00002E068460188C548FDF737FA0346C8A20C
:10F70000042102A809F0A0FDC6A005F03BFC601C86
:10F7100005F038FCC6A005F035FCE01DF93005F019
:10F7200031FCC3A005F02EFC02A805F02BFCC1A003
:10F7300005F028FC00203EBD68460188B448DBE7A0
:10F7400068460188B348D7E710B50078002801D093
:10F75000B14810BD05F06AFD002010BD70B50178FC
:10F76000AD4800292FD1B44C217800292BD1B349C1
:10F770000978002927D1B2490978002923D1B14E4F
:10F780000925FF210131B048356009F088F82A4683
:10F79000AEA1AD4809F06AF8012007F067FE07F056
:10F7A000AAFAAD4800210170007807F06DFA07F061
:10F7B00093FB308881B2A94800680269A24890474B
:10F7C00001202070002070BD70B50178924800299A
:10F7D00026D1994C2178002922D09949097800290D
:10F7E0001ED19649097800291AD196480025FF2193
:10F7F00005600131944809F052F8012007F046FBFA
:10F8000007F079FA944801210170007807F03CFA7A
:10F8100007F052FE914800688068804725700020FC
:10F8200070BD70B501787C4D01290CD182490978F1
:10F83000002908D0401C09F0AFF8044688488949DF
:10F840002018884201D3284670BD012007F01EFB16
:10F850008548046007F04FFA07F03EFB79480088BE
:10F8600081B27E480068026977489047002070BDE9
:10F870007CB501786848002928D16F4909780029AA
:10F8800024D16E4E3178002920D06D4909780029A5
:10F890001CD16C480024FF21046001316A4808F043
:10F8A000FEFF724D2B685EA20721684609F0CCFC72
:10F8B0006F4805F067FB684605F064FB5DA005F046
:10F8C00061FB6C4804702C60347000207CBDF8B57E
:10F8D00007460078504C022827D8012825D05649E1
:10F8E0000978002921D15649097800291DD15349A9
:10F8F0000978002919D15F490126524D002816D0F8
:10F9000000200870781C09F047F801465A48016049
:10F910000068002809D0F81DF930009008F0CAFFEF
:10F920002860071E01D0FF2F0CD92046F8BD0E70AD
:10F930000924FF21013144482C6008F0B0FF224621
:10F9400042A106E0FF2101313F4808F0A8FF0099DD
:10F950003A463D4808F08AFF012007F087FD2878E5
:10F9600008F0CFFA4548FFF7EBF9444948610861D0
:10F970003E490020086031480670384800688068B9
:10F9800080470020F8BD7CB501782348002926D1A6
:10F9900029490978002922D1294E317800291ED021
:10F9A0002649097800291AD126480024FF2104603D
:10F9B0000131254808F073FF314D2B6818A207214B
:10F9C000684609F041FC2FA005F0DCFA684605F016
:10F9D000D9FA18A005F0D6FA2C60347000207CBD4E
:10F9E000F8B5044600780C4E01286CD8144800780D
:10F9F000002868D110480078002864D10F480078AA
:10FA0000002860D100270F4DFF2145E00004004889
:10FA10000008004800140048F2FF0000080500201C
:10FA2000256400004750494F5F526561643D000006
:10FA30002C0000000D0A0000D00000202D05002041
:10FA40002C05002018050020CC07002041637369B5
:10FA50007057696E00000000BC05002020050020E2
:10FA6000C08BD5F701692017F8050020300500206C
:10FA7000A4F100082E05002034050020DC1300202E
:10FA8000280500204C6F726150565F5258726573A2
:10FA9000756C743D000000000131FC482F6008F0D7
:10FAA000FEFE2078002802D0012804D012E00922AE
:10FAB000F7492A600BE0601C08F0FCFE2860002873
:10FAC00001D0FF2801D93046F8BD0246611CEF483D
:10FAD00008F0CCFE012007F0C9FC287808F011FAE4
:10FAE000EC48FFF72DF9EB4948610861EA480760E7
:10FAF000EA4801210170EA480068806880470020D8
:10FB0000F8BD3EB504460078E64D012836D1E648FA
:10FB10000068012809D1E5480078002805D0601C5C
:10FB200008F0C8FE062814D106E0E1A005F02AFA84
:10FB3000E7A005F027FA21E0ED480078202801D35E
:10FB4000ECA0F6E710220021601C08F0EDFE010E8B
:10FB500001D0EDA0EDE76A461072010A5172000C67
:10FB60009072002000900146019002ABA522012076
:10FB700004F068F8002801D000203EBD28463EBDB4
:10FB800030B504460078C74D85B0012802D028461C
:10FB900005B030BDC448006801280AD1C3480078C8
:10FBA000002806D0601C08F085FE062806D0D6A0E6
:10FBB00023E0BFA005F0E6F9C5A01EE0CC48007820
:10FBC000202801D3CBA018E010220021601C08F0EF
:10FBD000ABFE010EEBD16A461074010A5174000CA1
:10FBE000907404A806F054FC0346102808D0CCA258
:10FBF0001021684609F028FB684605F0C3F9C6E7FE
:10FC000004F079F904F066F90020C1E7FEB5054675
:10FC10000078A44C012845D1A3480068012809D1E7
:10FC2000A2480078002805D0681C08F043FE06288A
:10FC300038D104E09EA005F0A5F9A5A035E010227A
:10FC40000021681C08F070FE010E2BD1C5B2694678
:10FC50000D7201040B0E00026946060E4B728E7285
:10FC6000B24800218A008258002A08D01778AF4293
:10FC700005D157789F4202D19278B24204D0491CF4
:10FC8000C9B22029EED30FE020290DD20020009028
:10FC9000019002ABB022012003F0D4FF002801D074
:10FCA0000020FEBD2046FEBDA1A005F06BF9F9E7DE
:10FCB00038B5044600787B4D01281CD17A4800688D
:10FCC00001280CD179480078002808D0601C08F081
:10FCD000F1FD062808D08CA005F054F90BE074A0C3
:10FCE00005F050F97AA0F7E710220021601C08F017
:10FCF0001BFE010E01D0284638BD6A461070010A6D
:10FD00005170000C9070684606F0EAFB002805D0A0
:10FD100004F0F1F804F0DEF8002038BD8DA0DBE738
:10FD2000F0B5064685B0002003905F4800680128C2
:10FD30007BD15E480078002877D030780028FBD04F
:10FD4000701C08F0B7FD0628F2D110220021701CAB
:10FD500008F0EAFD0246000EEAD100257348AC0027
:10FD6000005900280ED08178437809041B020B4308
:10FD700001786F460B433972417879728078B87296
:10FD80009A4204D06D1CADB2202DE7D32CE1202D7A
:10FD9000FCD26648A90040580028F7D030780128E6
:10FDA00007D0F11DF9310191022816D00328BFD1E7
:10FDB00045E000270097E9B202ABB5220120019788
:10FDC00003F040FF0028B7D0584D20212859001DCE
:10FDD00008F065FD28598784F3E00F46084608F0CF
:10FDE00069FD3978C0B2222905D038182038C07F83
:10FDF000222848D0CAE039182039C97F222942D1A7
:10FE0000851E042D12DB494820210059001D08F0F1
:10FE100046FD4648009500597B1C03AA2021001D81
:10FE200002F01FF800282ED1CEE0DBE002282AD114
:10FE30003E4820210059001D08F031FDC4E0F71DA7
:10FE4000FF37F937384608F035FD3978C0B2222936
:10FE500019D139182039C97F222914D1811E009166
:10FE6000042911DB314820210059001D08F017FD3D
:10FE70002E487B1C005903AA2021001D01F0F1FF30
:10FE800000287BD182E079E076E00000CC070020FA
:10FE90004CFA0008DC130020280500202C05002067
:10FEA00020050020F2FF0000080500200D050020BD
:10FEB00053797374656D204E4F5420696E204E6FD8
:10FEC000726D616C206D6F64652C0D0A000000007E
:10FED0004F72204C6F7261206D6F64756C65204E9F
:10FEE0004F54204D61737465722E0D0A000000009E
:10FEF000AC0500204E6F6465206E756D62657220E2
:10FF000066756C6C2E0D0A004164647220666F7217
:10FF10006D6174206572726F722E0D0A0000000010
:10FF20004572726F722025640D0A0000D410002003
:10FF30004E4F542074686973204E4F444520696EBB
:10FF40002041635369704C6F72614E65742E0D0AC7
:10FF50000000000054686973206E6F6465204E4F86
:10FF60005420696E2041635369704C6F72614E6515
:10FF7000742E0D0A00000000022801D0FAA034E01F
:10FF8000FE4820210059001D08F089FC019808F066
:10FF900003FDFA490027095902AB88840097E9B2AA
:10FFA000B5220120019703F04DFE00281AD0F34836
:10FFB0000059808C002804D0F14805210059818027
:10FFC00002E0EF480059878004F093F8EDA004F0B8
:10FFD000D9FF701C04F0D6FFECA004F0D3FF002082
:10FFE00005B0F0BDEF48FBE7EFA004F0CBFFF9E769
:10FFF000F0B5054695B000201390F448006801283C
:020000040801F1
:1000000013D1F348007800280FD0287801280CD1AC
:10001000681C08F04FFC062807D110220021681C3C
:1000200008F082FC0146000E02D0DE4815B0F0BD9B
:10003000D24F00208600BC59002C08D0A2781304AF
:10004000627812021A4323781343994204D0401C69
:1000500080B22028EED33FE020283DD280003858DF
:10006000002839D0402101A808F019FC201D08F013
:1000700021FC0006000E0BD00090BB5913AA2821CA
:1000800001A81B1D01F07AFE002801D0B6A024E0D3
:10009000B859D0A2838C062111A809F0D5F8B9A0CF
:1000A00004F070FF681C04F06DFFCBA004F06AFF41
:1000B00011A804F067FFCBA004F064FF1399002996
:1000C00001D001A801E00121C6A004F057FFC6A09D
:1000D00004F058FF0020A9E7B3A004F053FFA4E701
:1000E000F0B5BA49C1B00A680546B948012A007896
:1000F00001D1002803D0096801293AD092E028787C
:10010000012807D0B9A004F03DFFC0A004F03AFFD9
:10011000C4A009E0C9480068002804D0C84C207871
:1001200000287BD103E0C7A004F02CFF76E0F42187
:10013000C94808F0B4FB6E1C681C08F0BBFBC0B2D9
:100140000090334602AAF421C34801F08AFE00263B
:10015000C24D002806D0F421BF4808F0A0FB6E7005
:1001600026705BE00298F428F5D8687001202070B2
:1001700051E0002856D02878022807D09BA004F030
:1001800001FFB7A004F0FEFEBCA0CDE7681C08F09C
:1001900091FB062801D0BFA0C6E710220021681CF1
:1001A00008F0C2FB0146000E38D1744E0024A000B6
:1001B0003058002808D08278437812041B02007857
:1001C00013431843814204D0641CE4B2202CEED3C4
:1001D00026E0202C24D2E81DF930054608F06AFB01
:1001E000C7B2F42103A808F05AFB2B4602AAF42157
:1001F00003A8009701F035FE00280FD102A903A83B
:1002000001910090A0003358AF222146012003F055
:1002100019FD002802D0002041B0F0BD6148FBE785
:1002200061A081E7A7487FE7FEB5017800245D481B
:10023000002943D16549096801293FD164490978FA
:1002400000293BD04D4E002081007158002901D07B
:10025000641CE4B2401CC0B22028F5D39AA004F07C
:1002600091FE23465BA20521684608F0EDFF684633
:1002700004F088FE5BA004F085FE002C1AD0002557
:10028000AF00F059002811D00224F05990A2035D6C
:100290000521684608F0D8FF684604F073FE641E26
:1002A00064B2002CF1DA4FA004F06CFE6D1CEDB2CC
:1002B000202DE5D34CA004F065FE0020FEBD7CB5EA
:1002C00001783848002923D14049096801291FD104
:1002D0003F49097800291BD1584D2868002818D0BB
:1002E0007DA004F04FFE0324286879A2001920386D
:1002F000C37F0521684608F0A7FF684604F042FE68
:10030000641E64B2002CEFDC37A004F03BFE00203A
:100310007CBD76A004F036FEF6E710B501782148E2
:1003200000290AD129490968012906D128490978F3
:10033000002902D104F054F8002010BD10B5017856
:100340000024184800290DD120490968012909D144
:100350001F490978002905D104F0BFF8694800BF9A
:10036000641CD1E0D4E00000416C696173657320C6
:100370006572726F722E0D0A00000000D41000200A
:10038000541100204E6F64653D00000020736574B9
:1003900074696E6720535543434553534544210DBB
:1003A0000A000000F2FF000054686973204E4F44B9
:1003B00045204E4F5420696E2041635369704C6F45
:1003C00072614E65742E0D0A0000000008050020C1
:1003D0000D05002025750000204556543D476574E5
:1003E0004E6F6465200000000D0A000054686973B8
:1003F00020436F6D6D616E6420696E204E6F726D6B
:10040000616C204D6F64652E0D0A00004C6F7261A7
:10041000206D6F64756C6520697320536C6176651F
:100420002E0D0A004E656564206F6E652070617246
:10043000616D657465722E0D0A000000B405002020
:10044000140500204E4F204C6F7261476174655750
:1004500061792E0D0A00000048060020D00000201F
:100460004C6F7261206D6F64756C65206973204DEF
:1004700061737465722E0D0A000000004E6565649C
:100480002074776F20706172616D657465722E0DD6
:100490000A0000004C6F7261206E6F646520616419
:1004A0006472657373206C656E677468204E4F5478
:1004B00020455155414C203642797465732E0D0A02
:1004C00000000000B0FE00084E6F6465733D000040
:1004D00025303278000000004C6F7261476174650E
:1004E000576179416464723D000000004C6F726195
:1004F00047617465576179416464723D4E554C4C57
:1005000000000000400D0300844200D227E70020D5
:1005100010BD7CB50078002801D0FE487CBD05F0F8
:1005200029FE0546FCA004F02DFD032428192038DF
:10053000C37FFC4A0521684608F086FE684604F041
:1005400021FD641E64B2002CF0DCF7A004F01AFD5B
:1005500000207CBD1CB50178EE4800291BD1F34971
:100560000968012917D1F2490978002913D1F14806
:100570000068002810D0838CEFA20621684608F09E
:1005800063FEEEA004F0FEFC684604F0FBFCE6A06F
:1005900004F0F8FC00201CBDECA004F0F3FCF0A07B
:1005A000F6E730B5007887B0002802D0D94807B008
:1005B00030BD03A802F0E0FEEEA004F0E3FC02244C
:1005C00003ADA0002B58EDA20921684608F03CFEBF
:1005D000684604F0D7FC641E64B2002CF1DAD2A0A5
:1005E00004F0D0FC0020E2E710B50078002801D02C
:1005F000C84810BDE3A004F0C5FCE7A004F0C2FCAD
:10060000E9A004F0BFFCEAA004F0BCFCC6A004F022
:10061000B9FC002010BD10B50178BE48002910D1EA
:10062000C2490A68012A0DD00A68022A0CD00A6859
:10063000002A0BD00968032903D1DFA004F0A2FC33
:10064000002010BDE4A0F9E7EBA0F7E7F5A0F5E77F
:1006500010B50078002801D0AE4810BDB44800782D
:10066000002801D0F9A000E0FDA004F08BFC0020E0
:1006700010BD3EB50078002801D0A6483EBD07F069
:100680003DFA0346FBA20B21684608F0DDFDFAA007
:1006900004F078FC684604F075FCFBA004F072FCE2
:1006A00007F0F2FA0346F3A20B21684608F0CCFDEE
:1006B000F6A004F067FC684604F064FCF2A004F0C5
:1006C00061FC07F02DFB0346EAA20B21684608F007
:1006D000BBFDEFA004F056FC684604F053FCEAA012
:1006E00004F050FC07F03FFB0346E2A20B216846F2
:1006F00008F0AAFDE7A004F045FC684604F042FCBF
:10070000E1A004F03FFC07F080FA0346D9A20B21D8
:10071000684608F099FDE3A004F034FC684604F054
:1007200031FCD9A004F02EFC07F0A0FB0446E0A0A9
:1007300004F028FC002C0CD007F0A8FB0346CDA247
:100740000B21684608F080FDDCA004F01BFC684625
:1007500000E0DCA004F016FCCBA004F013FC07F0D2
:100760006EFB0446D9A004F00DFC002C01D0DBA0E8
:1007700000E0DDA004F006FCC3A004F003FC07F0D9
:100780003CFB0446DBA004F0FDFB002C01D0DBA009
:1007900000E0DBA004F0F6FBBBA004F0F3FB07F0E5
:1007A0001AFBC3B2B3A20B21684608F04DFDD5A0D9
:1007B00004F0E8FB684604F0E5FBB3A004F0E2FBBC
:1007C00007F0ACFB0346ABA20B21684608F03CFDEA
:1007D000D0A004F0D7FB684604F0D4FBAAA004F034
:1007E000D1FB07F081FB0346A2A20B21684608F06B
:1007F0002BFDCCA004F0C6FB684604F0C3FBA2A00E
:1008000004F0C0FB07F05AFB03469AA20B2168468E
:1008100008F01AFDC8A004F0B5FB684604F0B2FB6E
:1008200099A004F0AFFB07F04FFB034691A20B2108
:10083000684608F009FDC5A004F0A4FB684604F072
:10084000A1FB39A004F09EFB00203EBD10B500784E
:10085000304C002801D0204610BDC148417F0029FE
:1008600005D0012905D0BFA004F08CFBF3E7C3A09D
:1008700000E0C8A004F086FB002010BD0EB5007893
:10088000002801D023480EBD07F038F9034679A2AD
:100890000B21684608F0D8FC77A004F073FB68468B
:1008A00004F070FB20A004F06DFB00200EBD0EB51F
:1008B0000078002801D017480EBD07F005FB03465D
:1008C0006CA20A21684608F0BFFCA0A004F05AFB05
:1008D000684604F057FB14A004F054FB00200EBD42
:1008E0000EB50078002801D00A480EBD07F0E6FAE0
:1008F000034660A20A21684608F0A6FC8EA004F018
:1009000041FB684604F03EFB07A004F03BFB0020DF
:100910000EBD0000F2FF00004C6F72614D79416422
:1009200064723D00D00401080D0A00000805002093
:100930000D050020B4050020257500004C6F726184
:100940004D79496E74657276616C3D004C6F7261D1
:10095000476174655761793D4E554C4C200000004D
:100960004C6F72614D79496E74657276616C3D3081
:100970000D0A0000555549443D00000025303878E7
:10098000000000004669726D77617265566572738A
:10099000696F6E3D00000000312E352E3230313748
:1009A0002E3033323000000020666F7220000000CD
:1009B000535831323738000053797374656D4F7076
:1009C00065726174696F6E4D6F64653D496E49640F
:1009D0006C650D0A0000000053797374656D4F70EB
:1009E00065726174696F6E4D6F64653D496E4E6FDF
:1009F000726D616C0D0A000053797374656D4F70F0
:100A000065726174696F6E4D6F64653D496E5072B9
:100A10006F64756374566572696669636174696F42
:100A20006E0D0A0053797374656D4F706572617451
:100A3000696F6E4D6F64653D496E50696E67506FAA
:100A4000676E546573740D0A000000004C6F72618C
:100A50004D6F64653D4D41535445520D0A000000F1
:100A60004C6F72614D6F64653D534C4156450D0AA4
:100A700000000000256400005246467265717565ED
:100A80006E63793D000000002020000042573D00C9
:100A900053463D004572726F72436F64696E673DE5
:100AA000000000005246506F7765723D0000000064
:100AB00046726571486F704F6E3D000074727565C7
:100AC0000000000066616C736500000048656164A9
:100AD00065725374617475733D000000496D706CEC
:100AE00069636974000000004578706C696369741B
:100AF000000000004352433D000000004F4E000044
:100B00004F464600507265616D626C654C656E675C
:100B100074683D005061796C6F61644C656E6774F8
:100B2000683D00004D61785061796C6F61644C657F
:100B30006E6774683D00000054785061636B6574A3
:100B400054696D656F75743D000000005278506106
:100B5000636B657454696D656F75743D00000000CA
:100B6000DC13002052464F7363696C6C61746F72C2
:100B70003D556E4B6E6F776E0000000052464F730E
:100B800063696C6C61746F723D4372797374616CEC
:100B90000000000052464F7363696C6C61746F72A1
:100BA0003D5443584F00000008B50078002801D09C
:100BB000F84808BD07F029F80346F7A20421684663
:100BC00008F042FBF54804F0DDF9684604F0DAF974
:100BD000F3A004F0D7F9002008BD1CB50078002868
:100BE00001D0EC481CBD07F0F6F8C3B2EAA206211A
:100BF000684608F029FBE948603004F0C3F968460C
:100C000004F0C0F9E6A004F0BDF900201CBD00B559
:100C1000007889B0002802D0DE4809B000BD07F096
:100C20007DF90346DFA22021684608F00DFB6846E7
:100C300004F0A8F907F058F90346DFA2202168461E
:100C400008F002FB684604F09DF90020E5E710B5C6
:100C50000078002801D0CF4810BD07F0CEF8044638
:100C6000CE48503004F08EF9002C01D0D8A001E01D
:100C7000CA485C3004F086F9C9A004F083F900206A
:100C800010BD10B50078002801D0C24810BD07F093
:100C9000D6F80446C148283004F074F9002C02D07C
:100CA000BE48383001E0BD48443004F06BF9BCA0C8
:100CB00004F068F9002010BD38B50078002801D094
:100CC000B44838BD07F0D2F80446B4480C3004F0FC
:100CD00059F9002C0DD007F0D9F80346AEA2042133
:100CE000684608F0B1FAAD48183004F04BF9684690
:100CF00001E0AA48203004F045F9A9A004F042F927
:100D0000002038BD1CB50078002801D0A1481CBDCA
:100D100007F029F80346A0A20621684608F094FAD5
:100D20009E48103804F02EF9684604F02BF99CA078
:100D300004F028F900201CBD1CB50078002801D063
:100D400094481CBD06F0ECFF034693A206216846BA
:100D500008F07AFA9148143804F014F9684604F05F
:100D600011F98FA004F00EF900201CBD1CB500780D
:100D7000002801D087481CBD06F086FF034686A2E6
:100D80000621684608F060FA8448183804F0FAF83A
:100D9000684604F0F7F882A004F0F4F800201CBDC7
:100DA0001CB50078002801D07A481CBD06F018FC5C
:100DB000034679A20621684608F046FA85A004F0A9
:100DC000E1F8684604F0DEF875A004F0DBF80020D6
:100DD0001CBD1CB50078002801D06E481CBD06F073
:100DE00002FC03466CA20521684608F02DFA7BA0A0
:100DF00004F0C8F8684604F0C5F869A004F0C2F829
:100E000000201CBD1FB50078002802D0614804B046
:100E100010BD06F0ECFB0191009072A2082102A81F
:100E200008F012FA71A004F0ADF802A804F0AAF8D4
:100E30005BA004F0A7F80020E9E710B500780028CF
:100E400001D0544810BDFEF798F8F8B50446007874
:100E500001281AD167A1601C07F033FD684E694D67
:100E6000002814D068A1601C07F02BFD092700287A
:100E70001DD067A1601C07F024FD002821D066A1C9
:100E8000601C07F01EFD00282CD04248F8BD012050
:100E90003060FF20287662480078002802D003F0F6
:100EA00078F917E003F0D2F803F028FA10E0FEF723
:100EB00042F8FEF72FF8022030602F760020E8720B
:100EC00006E0FEF738F8FEF725F8002030602F76B0
:100ED00004F03CF9FEF75FF84A48FDF731FF68611E
:100EE000286107E0FEF727F8FEF714F803203060CA
:100EF00004F02CF90020F8BD70B504460078254DAB
:100F000001280BD147A1601C07F0DBFC002807D0AB
:100F100046A1601C07F0D5FC002802D0284670BD11
:100F20000120FEF777F802F0E6FF02F0D3FF002081
:100F300070BD70B504460078164D01280BD139A15B
:100F4000601C07F0BEFC002807D038A1601C07F029
:100F5000B8FC002802D0284670BD0120FEF77CF8BE
:100F600002F0C9FF02F0B6FF002070BD70B5044664
:100F70000078084D01280BD12AA1601C07F0A1FCC4
:100F8000002857D029A1601C07F09BFC002852D0F4
:100F9000284670BDF2FF000025640000A40A010885
:100FA0000D0A00005061796C6F61644C656E677466
:100FB000683D2025642C20004D61785061796C6F6C
:100FC00061644C656E6774683D2025640D0A0000FD
:100FD0004F4E000052784761696E3D00534E523DBE
:100FE0000000000025332E326600000052535349A2
:100FF0003D000000696E4E6F726D616C0000000074
:1010000008050020DC130020696E50560000000027
:10101000696E544400000000696E49646C6500000C
:101020000D050020486F704F6E000000486F704F34
:10103000666600000120FEF731F802F05CFF02F066
:1010400049FF0020A5E770B504460078FD4D012852
:101050000CD1FD49601C07F034FC002808D0FA4987
:10106000601C083107F02DFC002802D0284690E7CC
:101070000120FEF735F802F03EFF02F02BFF0020C2
:1010800087E770B504460078EE4D01280CD1EE4993
:10109000601C07F016FC002808D0EB49601C0831E2
:1010A00007F00FFC002802D0284672E70120FEF767
:1010B00092F802F020FF02F00DFF002069E770B502
:1010C00004460078DF4D01280CD1DF49601C07F091
:1010D000F8FB002808D0DC49601C083107F0F1FB60
:1010E000002802D0284654E70120FEF796F802F0C7
:1010F00002FF02F0EFFE00204BE770B504460078D7
:10110000D04D01280CD1D049601C07F0DAFB002833
:1011100008D0CD49601C083107F0D3FB002802D06D
:10112000284636E70120FEF79AF802F0E4FE02F0C6
:10113000D1FE00202DE770B504460078C14D01288E
:101140000CD1C149601C07F0BCFB002808D0BE4987
:10115000601C083107F0B5FB002802D0284618E7CC
:101160000120FEF79EF802F0C6FE02F0B3FE00205A
:101170000FE770B504460078B24D01280CD1B24992
:10118000601C07F09EFB002808D0AF49601C0831A6
:1011900007F097FB002802D02846FAE60120FEF768
:1011A000A2F802F0A8FE02F095FE0020F1E670B56C
:1011B00004460078A34D01280CD1A349601C07F018
:1011C00080FB002808D0A049601C083107F079FB9B
:1011D000002802D02846DCE60120FEF7A6F802F03F
:1011E0008AFE02F077FE0020D3E670B50446007850
:1011F000944D01280CD19449601C07F062FB002833
:1012000008D09149601C083107F05BFB002802D030
:101210002846BEE60120FEF7AAF802F06CFE02F0B6
:1012200059FE0020B5E670B504460078854D0128CA
:101230000CD18549601C07F044FB002808D0824986
:10124000601C083107F03DFB002802D02846A0E6CC
:101250000120FEF7AEF802F04EFE02F03BFE002049
:1012600097E670B504460078764D01280CD1764992
:10127000601C07F026FB002808D07349601C083169
:1012800007F01FFB002802D0284682E60120FEF767
:10129000B2F802F030FE02F01DFE002079E670B5D3
:1012A00004460078674D01280CD16749601C07F09F
:1012B00008FB002808D06449601C083107F001FBD6
:1012C000002802D0284664E60120FEF7B6F802F0B6
:1012D00012FE02F0FFFD00205BE670B504460078C8
:1012E000584D01280CD15849601C07F0EAFA002833
:1012F00008D05549601C083107F0E3FA002802D0F5
:10130000284646E60120FEF7BAF802F0F4FD02F0A6
:10131000E1FD00203DE670B501784A4D012908D174
:10132000401C07F039FB04464848494920188842C8
:1013300001D328462DE6012006F098F8204606F055
:10134000C5FB4448006880688047002021E610B54E
:101350000178012901D03B4810BD401C07F01CFB5F
:10136000C4B2092C00D90924012006F07FF82046D8
:1013700006F074FC3848FDF7E3FC37494861086122
:101380003448006880688047002010BD10B501789F
:10139000012901D02B4810BD401C07F0FDFAC4B252
:1013A0000C2C01D90C2402E0062C00D206240120CA
:1013B00006F05CF8204606F087FC2748FDF7C0FCE5
:1013C00025494861086123480068806880470020FB
:1013D00010BD10B50178012901D01A4810BD401C7C
:1013E00007F0DAFAC4B2042C01D9042402E0002C7C
:1013F00000D10124012006F039F8204606F09DFCBA
:101400001548FDF79DFC14494861086111480068C2
:1014100080688047002010BD70B504460078094DF3
:1014200001280DD106F022F80CA1601C07F049FA42
:10143000002817D00A49601C07F043FA002812D090
:101440002846A6E5F2FF000024100108C08BD5F75E
:101450000169201720050020DC1300204F4E0000FA
:10146000000B0108012006F0FEFCFD4806F02EFBF3
:10147000FDF791FD02F03FFD02F02CFDF9480068F8
:1014800080688047002084E570B50178F64D012919
:1014900005D1401C07F080FA84B2FF2C01D9284600
:1014A00077E5012005F0E2FF002C10D0012006F0C6
:1014B000DAFCE0B206F0DDFCE94806F007FBFDF7D8
:1014C0006AFDE848006880688047002061E50020E8
:1014D00006F0C9FCF0E770B504460078E24D01283B
:1014E0000DD105F0C3FFE1A1601C07F0EAF9002867
:1014F00007D0E0A1601C07F0E4F9002802D02846DC
:1015000047E5012006F087FCDC48FDF719FCDB49C4
:1015100048610861D348006880688047002038E54A
:1015200070B504460078D04D01280DD105F09EFF1E
:10153000CEA1601C07F0C5F9002807D0CDA1601C22
:1015400007F0BFF9002802D0284622E5012006F066
:1015500018FCCA48FDF7F4FBC84948610861C14856
:10156000006880688047002013E510B501780129E4
:1015700001D0BD4810BD401C07F00EFA0406240E31
:1015800000D10124012005F071FF204606F0B9FCCE
:10159000BA48FDF7D5FBB9494861086102F0ABFCD8
:1015A000B048006880688047002010BD10B5017801
:1015B000012901D0AC4810BD401C07F0EDF904062C
:1015C000240E00D10124012005F050FF204606F032
:1015D0007EFCAA48FDF7B4FBA8494861086102F007
:1015E0008AFCA048006880688047002010BD10B5C4
:1015F0000178012901D09C4810BD401C07F0CCF9AE
:1016000084B2062C00D20624012005F02FFF2046CC
:1016100006F0CCFB9948FDF793FB984948610861B7
:101620009048006880688047002010BDF8B50446E7
:1016300000788D4E012827D191480068012823D1D8
:1016400090A1601C07F03DF9904D002804D1287846
:10165000002801D00020F8BD8DA1601C07F031F9F1
:1016600029780843F7D002F046FC02F042FD85A13C
:10167000601C07F026F90027002807D084A1601C11
:1016800007F01FF9002808D03046F8BD0120287067
:10169000FDF740FC02F07DFD08E02F70FDF74BFCEC
:1016A00002F0D4FC02F02AFE03F050FD7A480780D5
:1016B00002F010FCFDF76FFCCCE770B50446007833
:1016C000694D01280CD169A1601C07F0FAF8734E2E
:1016D000002807D067A1601C07F0F3F8002802D0AB
:1016E000284656E401203070FDF755FC002050E4F8
:1016F00070B501785C4D012906D1401C07F04CF90A
:10170000C4B2601F102801D3284642E4012005F02E
:10171000ADFE112C01D9012000E0002006F00BFCE9
:1017200060B206F00CFA4F480068806880470020DD
:101730002FE40078002801D04B4870475849012019
:101740000870002070470078002801D04648704794
:10175000534900200870704710B552A003F012FCE6
:1017600001F047FB002010BD10B552A003F00AFCA9
:10177000002010BD10B50178012901D03A4810BDF4
:10178000401C07F009F90006000E00D0012000F00F
:1017900060FA002010BD10B50178012901D032484F
:1017A00010BD401C07F0F8F8C4B22146012000F03B
:1017B0007CFA204603F035FC002010BD08B5017806
:1017C000012901D0284808BD401C07F0E5F869460A
:1017D0000880684603F06BF9002008BD08B5017861
:1017E000012901D0204808BD401C07F0D5F8694602
:1017F0000880684603F0C5F9002008BD00B5A1B017
:101800006946002000F076FA00A96F22012001311C
:1018100000F051FA2BA003F0B5FB7021684603F0ED
:10182000BBFB002021B000BD00B591B001F0B2FDBE
:1018300003462BA24021684607F006FD684603F0E8
:10184000A1FB01F0B9FD03462BA24021684607F039
:10185000FBFC684603F096FB01F0BCFD034655E037
:1018600080A1031C20050020F2FF0000454E4142EC
:101870004C45000044495341424C4500DC130020D4
:10188000080500204D415354455200000D0500202D
:10189000534C4156450000006C0500200C0500200B
:1018A000890500200D0A746573745072696E743175
:1018B0000D0A00000D0A746573745072696E7432FB
:1018C0000D0A00000D0A2044756D70696E67204C8A
:1018D0006F7261205265677369737465720D0A00D7
:1018E0000D0A4465766963652049443A30782530AD
:1018F00038580D0A0000000044657669636520527F
:1019000044503A3078253038580D0A0009A2402159
:10191000684607F099FC684603F034FB002011B0DC
:1019200000BDBFF34F8F09490748C860BFF34F8F11
:10193000FEE70000446576696365205752503A30EF
:1019400078253038580D0A000400FA0500ED00E053
:10195000254910B5401E884201D9012010BD2349F8
:10196000486123480722C3691B021B0A4C04234316
:10197000C361002088610A6110BD10B51D487D213A
:10198000C900006806F036FFFFF7E2FF002800D02C
:10199000FEE700F035F8FF20083004F0A2F9164801
:1019A000FAF767FC10BD10B512481421006806F064
:1019B00021FFFFF7CDFF002800D0FEE704F086F9F5
:1019C00000F07CF810BD0D490A680B689B1A834231
:1019D000FBD370477D21C900484308490A680B685A
:1019E0009B1A8342FBD37047FFFFFF0000E000E03B
:1019F00004ED00E0740500200024014004050020EF
:101A0000F0B54E4E87B000213046FCF723F935146F
:101A100000212846FBF7CFFB3046FCF777F8012181
:101A20008804FBF7B6FB01212846FBF7C4FB444FB3
:101A300000220D213846FBF7B6F800220F21384668
:101A4000FBF7B1F800220E213846FBF7ACF8032073
:101A5000694648760220087600248C76C876000312
:101A6000059005A93846FBF732F86800059005A9EE
:101A70003846FBF72CF805A938460595FBF727F8FB
:101A80006946FF200C8005304880072000028880CE
:101A9000CC800C816811488118208881CC81072076
:101AA00008823046FCF75BF8A9103046FCF7F5F8E1
:101AB00001213046FCF7CEF807B0F0BD7CB51F4DD4
:101AC00000212846FCF7C6F82C1400212046FBF71D
