:020000040800F2
:10C00000A86A002015F1000839F100083BF100088A
:10C0100043F100084BF1000853F100080000000054
:10C020000000000000000000000000005BF10008BC
:10C030005DF10008000000005FF1000861F10008F8
:10C040002FF100082FF100082FF100082FF1000850
:10C050002FF100082FF10008DB4E0108FB4E01080C
:10C060002FF100082FF100081D4F01082FF10008E3
:10C070002FF100082FF100082FF100082FF1000820
:10C080002FF100082FF100082FF100080000000038
:10C090000000000000000000000000002FF1000878
:10C0A000D95101082FF100082FF100082FF10008E5
:10C0B0002FF100082FF10008EB5E01082FF10008B6
:10C0C0002FF100082FF100082FF100082FF10008D0
:10C0D0002FF10008036101082D6301080000000032
:10C0E0002FF10008895401082FF10008000000001A
:10C0F0000000000000000000000000002FF1000818
:10C10000000000002FF100082FF100082FF10008B7
:10C11000000000000000000000000000000000001F
:10C120002FF100082FF100082FF100082FF100086F
:10C130002FF10008000000000000000000000000D7
:10C140000000000000000000000000002FF10008C7
:10C150002FF100082FF100082FF100082FF100083F
:10C160002FF100082FF1000800000000000000007F
:10C1700000000000000000000000000000000000BF
:10C18000000000002FF10008000000000000000087
:10C190002FF10008DFF80CD00DF0A4FF0048004795
:10C1A0006D380108A86A002028490843284908601A
:10C1B000704730B50F23C27801780125FAB1244ABF
:10C1C000126801F1E02102F4E062C2F5E062C2F31C
:10C1D0000722C2F10404D3404278A24084781C4074
:10C1E0001443220181F80024007800F01F018D40E3
:10C1F0004009800000F1E020C0F8005130BD01F09E
:10C200001F0085404809800000F1E020C0F88051FF
:10C2100030BD104A114001430D48001F01607047B6
:10C220000B4A121D0029116801D0014300E081432F
:10C23000116070474FF0E0210428086903D020F016
:10C2400004000861704740F00400FAE70000FA05B6
:10C250000CED00E080FFFF1F10B501210C0220460D
:10C2600001F04EF92046BDE81040002101F048B928
:10C2700030B54268C84B0C791A400B6842EA042278
:10C28000134343608268C54B4D791A40D1E903439B
:10C2900023438C6844EA4504234313438360C26A02
:10C2A000097D22F47002491EC9B242EA0151C162FD
:10C2B00030BD00210160017141718160C160016187
:10C2C000012101757047B64B10B5D3F80423B54969
:10C2D0000A40D0E900142143D0E90240044321433D
:10C2E0001143C3F8041310BD002101604160816057
:10C2F000C16070470029816802D041F0010101E06E
:10C3000021F00101816070474268A74B1A400A433F
:10C3100042607047416282627047426822F01F02A9
:10C320000A43426070479E490028D1F8040302D0B6
:10C3300040F4000001E020F40000C1F8040370475D
:10C3400097490028D1F8040302D040F4800001E0AE
:10C3500020F48000C1F80403704770B5072609294E
:10C360000AD9C568A1F10A0404EB4404A640B54308
:10C37000A3401D43C56007E0056901EB4104A640E9
:10C38000B543A3401D4305611F23072A09D2446B0F
:10C39000521E02EB820293409C4391400C43446343
:10C3A00070BD0D2A09D2046BD21F02EB82029340AA
:10C3B0009C4391400C43046370BDC46A0D3A02EB88
:10C3C000820293409C4391400C43C46270BD8168DB
:10C3D00041F0804181607047014600208968490032
:10C3E00000D5012070470029816802D041F48061A6
:10C3F00001E021F48061816070470029816802D0EA
:10C4000041F0020101E021F00201816070474268C1
:10C41000491E22F4604242EA4131416070470029DE
:10C42000416802D041F4006101E021F40061416003
:10C430007047C06C80B270475948D0F80803704705
:10C440000029816802D041F4807101E021F48071FB
:10C45000816070470029816802D041F4007101E0D9
:10C4600021F40071816070474D490028D1F8040320
:10C4700002D040F4005001E020F40050C1F8040361
:10C48000704770B5072609290AD9C568A1F10A04C1
:10C4900004EB4404A640B543A3401D43C56007E038
:10C4A000056901EB4104A640B543A3401D43056166
:10C4B000836BC3F30154121B921C02EB82021F24F4
:10C4C0009440A34391400B43836370BD826B491E2C
:10C4D00022F4401242EA01518163704708B50844D2
:10C4E0000090026008BD826822F470220A438260D4
:10C4F0007047826822F440120A4382607047816864
:10C5000041F480018160704701460020896849023A
:10C5100000D5012070470029416802D041F48061B4
:10C5200001E021F48061416070470029416802D038
:10C5300041F4805101E021F480514160704708B519
:10C54000084428300090006880B208BD01238B4069
:10C5500041680AB1194300E09943416070470246BF
:10C56000002012680A4200D001207047C9430160D0
:10C57000704730B50246002053680C0A01258D40F3
:10C5800011682B40214202D0002B00D0012030BD89
:10C590006FEA112101607047FFFEFFFCFDF7FFC04D
:10C5A00000200140E030FCFFFFFD3FFF2DE9F0439C
:10C5B000016821F00101016000210160416081609A
:10C5C000C160016121214161B849B84A3D25103956
:10C5D000904202D18D60BDE8F083B44A4FF4746696
:10C5E0001832904201D18E60F5E7B04A4FF47417CB
:10C5F0003032904201D18F60EDE7AC4A4FF0746C5D
:10C600004832904202D1C1F808C0E4E7A74BA84ADB
:10C610006033984201D1CA60DDE7A44CA54B783461
:10C62000A04201D1CB60D6E7DFF88082A24C08F1AE
:10C630009008404501D1CC60CDE7DFF870824FF023
:10C640003D5908F1A808404502D1C1F80C90C2E755
:10C650009A49DFF868820839404501D10D60BAE790
:10C66000964D1835A84201D10E60B4E7934D303590
:10C67000A84201D10F60AEE7904D4835A84202D1E3
:10C68000C1F800C0A7E78D4D8C496035091FA8424D
:10C6900001D10A609FE7894A7832904201D10B604C
:10C6A00099E7864A9032904201D10C6093E7834A21
:10C6B000A83290428FD1C1F800908CE730B5036862
:10C6C0007F4ACC6813400A682243D1E905452C43D0
:10C6D0002243CC6922430C6A22434C6A22438C6A6F
:10C6E00022434C6B22438C6B22431A430260426903
:10C6F00022F00703D1E90B2422431A4342610A695D
:10C7000042604A6882608968C16030BD0021016072
:10C7100041608160C160016141618161C16101620B
:10C7200041628162C1620163416381637047002994
:10C73000016802D041F0010101E021F00101016036
:10C7400070470029016802D041F4004101E021F462
:10C750000041016070470029016802D041F02001CA
:10C7600001E021F02001016070474160704740689E
:10C7700080B27047002A026802D042F4002201E031
:10C7800022F400220260016170470029016802D092
:10C7900041F4802101E021F48021016070470AB159
:10C7A00001617047C16070470146002009680903B4
:10C7B00000D501207047014600200968C90700D054
:10C7C00001207047406900F03800704702463B4B3B
:10C7D00000209A4202D2354A103A01E0374A103A14
:10C7E0008B0001D5526800E01268364B1A400A42AD
:10C7F00000D001207047314A904202D22B481038B5
:10C8000001E02E4810382F4A8B0001EA020101D5C1
:10C81000C1607047816070470B0607D5436912B14C
:10C8200043F0800301E023F080034361802908D0B6
:10C83000002A026801F01E0101D00A4300E08A4389
:10C840000260704730B51D4A0024904202D2174A58
:10C85000103A01E0194A103A1B4B194205D01E2329
:10C8600003EAD12503682B4002E0406900F0800311
:10C87000880001D5506800E01068124A1040084254
:10C8800001D003B10124204630BD0C4A904202D2AF
:10C890000648103801E0094810380A4A8B0001EABE
:10C8A000020101D5C160704781607047106002408D
:10C8B0003D000020400F002000003D201064024099
:10C8C0003F801CF07D0F7D0F3C0F3C0F3549002051
:10C8D0000860091D0860091D0860091D08603149CC
:10C8E000314814310860704730B52E4A83790168A9
:10C8F00053B313688B431360111D0B680468A34383
:10C900000B60017911440B68046823430B60254BCD
:10C91000083319680468A14319601C1D2168056863
:10C92000A94321604179102905D011440A680068A3
:10C9300002430A6030BD196802681143196021681A
:10C9400000680143216030BD0079104402688A43C9
:10C95000026030BD0021016001710C2242718171C1
:10C960007047104910310A6802430A607047014657
:10C970000C4A0020143212680A4200D0012070478D
:10C9800008491431086070470146064A00201432F5
:10C9900012680A4200D00120704702491431086031
:10C9A00070470000003C0140FFFF7F00F94908701C
:10C9B0007047F8490028086802D040F4807001E010
:10C9C00020F4807008607047F2490028086802D09F
:10C9D00040F4007001E020F4007008607047ED49F9
:10C9E0000028086802D040F4806001E020F48060F4
:10C9F00008607047E748016841F4006101607047D2
:10CA0000E448016841F4805101607047E14810300A
:10CA10000068002805DADF48DF49001D0160DF49B2
:10CA200001607047DB481030016841F0004101604F
:10CA30007047D84909200C310A68D20301D501207A
:10CA400070470A68D20601D5062070470A68D205E9
:10CA500001D5022070470A6812F0E00F01D00720CC
:10CA6000704709688907FBD50820704708B5092079
:10CA70008DF80000FFF7DDFF8DF800009DF8000045
:10CA80000128F7D09DF8000008BD70B506460025C6
:10CA900029B1012928D0022929D04FF44075FFF788
:10CAA000E5FF09281FD1BB4C1034206820F44070EA
:10CAB0002060206828432060206820F0F800206073
:10CAC000206846F0020108432060206840F480306E
:10CAD0002060FFF7CBFF216821F00201216021686F
:10CAE00021F0F801216070BD4FF48075D7E74FF455
:10CAF0000075D4E730B504460025FFF7B7FF2CB129
:10CB0000012C1DD0022C1ED04FF44075092816D1DF
:10CB1000A04C1034206820F4407020602068284326
:10CB20002060206840F004002060206840F48030DD
:10CB30002060FFF79BFF216821F00401216030BDD8
:10CB40004FF48075E2E74FF40075DFE730B5044637
:10CB50000025FFF78BFF2CB1012C1DD0022C1ED01D
:10CB60004FF44075092816D18A4C1034206820F4FF
:10CB700040702060206828432060206840F0040056
:10CB80002060206840F480302060FFF76FFF21684C
:10CB900021F00401216030BD4FF48075E2E74FF4CD
:10CBA0000075DFE730B504460025FFF75FFF2CB1C5
:10CBB000012C1DD0022C1ED04FF44075092816D12F
:10CBC000744C1034206820F44070206020682843A2
:10CBD0002060206840F400402060206840F48030ED
:10CBE0002060FFF743FF216821F40041216030BD40
:10CBF0004FF48075E2E74FF40075DFE7F0B51646B5
:10CC00001F460546FFF732FF092815D1614C103445
:10CC1000206820F440702060206840F4407020605C
:10CC2000206840F0010020602E606F60FFF71EFF5B
:10CC3000216821F001012160F0BD70B50D46064666
:10CC4000FFF714FF092814D1524C1034206820F447
:10CC500040702060206840F400702060206840F040
:10CC6000010020603560FFF701FF216821F001011C
:10CC7000216070BD70B50D460646FFF7F7FE092826
:10CC800014D1444C1034206820F440702060206897
:10CC900040F480702060206840F001002060358002
:10CCA000FFF7E4FE216821F00101216070BD70B53D
:10CCB0000D460646FFF7DAFE092812D1354C10342E
:10CCC000206820F44070206020682060206840F0D8
:10CCD000010020603570FFF7C9FE216821F00101D5
:10CCE000216070BD2B4814300068C00705D029486A
:10CCF0002B49083001602B490160704725481430EA
:10CD0000016841F001010160704730B50D460446ED
:10CD1000FFF7ACFE092807D11E48163001880DB177
:10CD2000A14300E02143018030BD30B50D460446EB
:10CD3000FFF79CFE092807D116481A3001880DB16B
:10CD4000A14300E02143018030BD124A173211781F
:10CD500001F07F0108431070704730B50D4604465E
:10CD6000FFF784FE092807D10A4A163210880DB150
:10CD7000204300E0A043108030BD30B50D4604468E
:10CD8000FFF774FE092811D1024A1A3210885DB1EA
:10CD900020430AE0003C024023016745AB89EFCD08
:10CDA0003B2A19087F6E5D4CA043108030BD10B542
:10CDB0000446FFF75BFE092801D13548047010BD19
:10CDC00070B515460C460646FFF750FE092808D1F7
:10CDD0002F49491E087800F00F0004432C433443C8
:10CDE0000C7070BD2A49491E0A7822F010020A70A0
:10CDF0000A7802430A7070472549491E0A7822F0D2
:10CE00000C020A700A7802430A7070472048401EDC
:10CE1000017841F00201017028E61D48401E0068BB
:10CE2000C0F3471070471A48401C008870471848E4
:10CE3000401D008870471648401C00887047144801
:10CE4000401D00887047124900200978AA2900D0A7
:10CE5000012070470E48401E007800F00C0070471B
:10CE60000B4A521F0029116801D0014300E08143A1
:10CE7000116070470146064A0020093A12680A42CA
:10CE800000D001207047024909390860704700004E
:10CE9000153C0240774910B5884206D10121084669
:10CEA00000F010FB002101205BE07349884206D1AD
:10CEB0000121022000F006FB0021022051E06F4911
:10CEC000884206D10121042000F0FCFA0021042050
:10CED00047E06B49884206D10121082000F0F2FAB0
:10CEE000002108203DE06749884206D10121102039
:10CEF00000F0E8FA0021102033E06349884206D1AF
:10CF00000121202000F0DEFA0021202029E05F49E5
:10CF1000884206D10121402000F0D4FA00214020AF
:10CF20001FE05B49884206D10121802000F0CAFA47
:10CF30000021802015E05749884202D10121841543
:10CF40000AE05549884202D10121441504E05349C1
:10CF500088420AD101210415204600F0B3FA0021CD
:10CF60002046BDE8104000F0ADBA10BDF0B500227B
:10CF700001274FF0030C0B6807FA02F52B40AB4278
:10CF80002CD1066853000CFA03F4A64306600E7910
:10CF9000D0F800E09E4046EA0E0606600E79012EAB
:10CFA00001D0022E12D18668A64386604E79D0F851
:10CFB00008E09E4046EA0E0686604668AE4346603C
:10CFC00045688E799640B6B235434560C568A5433D
:10CFD000C560CC799C40C3681C43C460521C102AB5
:10CFE000C9D3F0BD4FF6FF7101600021017141719D
:10CFF0008171C171704708B541F480320092C261FD
:10D00000C1610099C161C169C069009008BD024653
:10D01000002012690A4200D001207047006980B2E6
:10D0200070470246002052690A4200D00120704732
:10D03000406980B2704701837047418370470AB1ED
:10D0400001837047418370474161704742694A409C
:10D05000426170474B07DB0E9A40C90810B500EBE0
:10D060008100016A0F249C40A1430162016A1143BF
:10D07000016210BD000002400004024000080240AE
:10D08000000C024000100240001402400018024050
:10D09000001C024000200240002402400028024000
:10D0A00010B501210C07204600F020FA2046BDE80B
:10D0B0001040002100F01ABA404908627047404A07
:10D0C000116821F0E0010143116070473B4908619C
:10D0D00070473A49C1F8A00070473849C1F8A40028
:10D0E0007047374A116821F440410143116070478D
:10D0F0003249086470473149486470473049002814
:10D10000086802D040F4402001E020F4402008608C
:10D1100070472A4900B10120C8627047274900B111
:10D12000012088627047254948627047244B10B53A
:10D130001A6840F60344A24302431A602148026879
:10D1400042F004020260012905D020BF016821F0ED
:10D150000401016010BD30BFF8E7194B10B51A6823
:10D1600040F60344A24302431A601648026842F0A4
:10D1700004020260012905D020BF016821F00401EA
:10D18000016010BD30BFF8E70D48016841F00201B1
:10D1900001600C48016841F00401016030BF704734
:10D1A000074A0146002052680A4200D00120704719
:10D1B00003490A6842EA80000860704700000E4296
:10D1C0000070004010ED00E0F948016841F00101F5
:10D1D0000160F74A0021083211600268F54B1A40DD
:10D1E0000260031DF44A1A60F14BF44A84331A605A
:10D1F000026822F480220260ED480C300160EC48A5
:10D200008C3001607047EA490022891C0A7008705E
:10D21000704702460020510901290CD002290CD088
:10D22000E3497431096802F01F02012393400B4265
:10D2300000D001207047DE49F4E7DD497031F1E7A5
:10D2400018B500204FF4A04400903120FFF7E1FF13
:10D250000099491C0091A14201D00028F5D031204D
:10D26000FFF7D7FF002800D0012018BDD04A116871
:10D2700021F0F80141EAC00010607047D049086011
:10D280007047CB49002270310A700A70012802D021
:10D29000042801D1052008707047CA49086070470A
:10D2A00041EA82115A0810B5C74B029C03EB0242B7
:10D2B0001143014341EA0460BD49091D086010BDE6
:10D2C000BF4908667047800140EA0170B84984315F
:10D2D00008607047BA4988667047800140EA01607B
:10D2E000B34940EA0270883108607047B449086762
:10D2F0007047B349C8647047AD4B08331A68084398
:10D3000022F0EC62104318607047A94B08331A688A
:10D31000084322F07842104318607047A44A08324C
:10D32000116821F00301014311607047A0480830E3
:10D33000006800F00C0070479D4A0832116821F027
:10D34000F001014311607047994A0832116821F4D5
:10D35000E051014311607047954A0832116821F489
:10D36000604141EAC0001060704770B5904B0833CF
:10D370001968964C11F00C0104D0954E042903D085
:10D38000082903D004601BE0066019E0884A121DDA
:10D390001168C1F38055116801F03F0115B1B6FB6A
:10D3A000F1F101E0B4FBF1F114681268C4F38814E0
:10D3B0006143C2F30142521C5200B1FBF2F1016021
:10D3C00019680F2202EA1111824A545C0168E14097
:10D3D00041601C68072505EA9424145D21FA04F4D1
:10D3E00084601B6805EA5333D25CD140C16070BDD4
:10D3F000C0F30121032908D16D4B08331968764A1F
:10D4000021F4F81102400A431A60694970310A6830
:10D41000C0F30B0002430A6070476A494439086050
:10D42000704768494039086070476549C1F85C0138
:10D4300070475F4A8C321168401E21F01F01014382
:10D44000116070475A4A8C3211686FF0FF0321F463
:10D45000F85103EB0020084310607047544A8C32A7
:10D46000116821F440310143116070475B49C1F8F4
:10D47000E00170474E4A30320029116801D0014363
:10D4800000E0814311607047494A34320029116835
:10D4900001D0014300E0814311607047444A4032AB
:10D4A0000029116801D0014300E0814311607047F9
:10D4B0003F4A44320029116801D0014300E0814312
:10D4C000116070473A4A10320029116801D00143B7
:10D4D00000E0814311607047354A14320029116819
:10D4E00001D0014300E0814311607047304A20328F
:10D4F0000029116801D0014300E0814311607047A9
:10D500002B4A24320029116801D0014300E08143F5
:10D5100011607047264A50320029116801D001433A
:10D5200000E0814311607047214A5432002911689C
:10D5300001D0014300E08143116070471C4A603212
:10D540000029116801D0014300E081431160704758
:10D55000174A64320029116801D0014300E0814379
:10D5600011607047124970310128086803D020F01B
:10D5700008000860704740F00800FAE70C4A0D32D6
:10D580000029117801D0014300E0814311707047F8
:10D5900007487430016841F08071016070470146AE
:10D5A000034A00200C3212680A4200D00120704762
:10D5B00000380240FFFFF6EA10300024003000205F
:10D5C00000004742800E47420000FFFF0024F400A5
:10D5D00080BA8C0100000020FFFCFF0F00104742C2
:10D5E00001490870E3E700000E38024018B500203A
:10D5F000FA4B0090CA20186053201860F749183978
:10D60000086820F0A00008604FF400340868009A11
:10D6100000F02000521C0092A24201D00028F5D058
:10D620000868800601D5012000E00020FF21196074
:10D6300018BD08B5E949002018390090086840066F
:10D6400012D44FF0FF3008608B130868009A00F086
:10D650004000521C00929A4201D00028F5D0086880
:10D66000400601D4002008BD012008BD78B5002483
:10D67000DA4ECA2000942546306053203060FFF710
:10D68000D8FFE0B3D54824380460D44942F20110F1
:10D69000203908600B1D186800F0070018608D1312
:10D6A0001A1D1068009900F00400491C0091A9425D
:10D6B00001D00028F5D01068400729D518681C60F3
:10D6C000C6494FF6FF7010390860091FC44808604A
:10D6D000C2480C380460001D0460001D0460BF488F
:10D6E00008300460BD4818300460BC482030046035
:10D6F000001D04601460B9481C30046000E003E0C1
:10D70000FFF774FF20B10125FF203060284678BD67
:10D710000025F9E7B1481838016821F0800101605F
:10D72000704770B5AD4E04460025CA2030605320C6
:10D730003060FFF77EFFA8B1A8481C38016821F0CF
:10D74000400101600168226811430160A348A1689B
:10D75000143801600168A28841EA02410160FFF7C4
:10D76000D9FF0125FF203060284670BD00210160EF
:10D770007F214160FF2181607047984908B1FF20F7
:10D7800002E0CA20086053200860704770B5934ECD
:10D7900005460024CA20306053203060FFF749FF5F
:10D7A00060B18E481C38016815B141F0100101E0EC
:10D7B00021F010010160FFF7ADFF0124FF20306070
:10D7C000204670BD854ACA211160532111608349EA
:10D7D0001C390028086802D040F0200001E000F069
:10D7E000DF000860FF20106070472DE9F0410C4613
:10D7F00000267C4F01002078396832464FEA4161AB
:10D8000004D000292FDA00F008FC2DE0002900DB0D
:10D81000E27000F0F6FB0504607800F0F2FB45EAE8
:10D820000025A07800F0EDFB0543E07845EA0045CF
:10D830006A4CCA20206053202060FFF7FAFE68B1CE
:10D8400069480540674808380560FFF763FF386896
:10D85000800602D4FFF7CAFE00B10126FF20206037
:10D860003046BDE8F081E270A078217840EA0145B9
:10D870006078E178000240EA01400543D8E70021E2
:10D88000C1700170417081707047020010B5574837
:10D890000C460168544801EA0001C1F305402070BC
:10D8A000C1F30623637001F07F03A3704FF04003C0
:10D8B00003EA1141E1700AD100F0AFFB20706078FB
:10D8C00000F0ABFB6070A07800F0A7FBA07010BD6B
:10D8D0004248001D00684349091F0968704770B538
:10D8E0000C460026010060780FD000F096FBA0786F
:10D8F00000F093FBA078E17840EA01456078217858
:10D90000000240EA4130054315E0C10603D520F08E
:10D9100010000A306070E07800F073FB0504607856
:10D9200000F06FFB45EA0025A07800F06AFB054394
:10D93000207845EA4035294CCA20206053202060D9
:10D94000FFF777FE70B12A4805402648001F0560A2
:10D95000FFF7E0FE23480068800602D4FFF746FE8A
:10D9600000B10126FF202060304670BD012101700A
:10D97000817041700021C1707047020010B51D48D0
:10D980000C4601681A4801EA00014FEA1140E070B4
:10D99000C1F30423637001F03F03A370C1F342316C
:10D9A00021700AD100F039FBE070607800F035FB9F
:10D9B0006070A07800F031FBA07010BD70B5144607
:10D9C0000D46084A0021002810684FEA406013D035
:10D9D00000282ADA207800F020FB27E024280040E5
:10D9E000FF007F00082800407F7F7F000028004064
:10D9F0003FFFFF0004280040002800DBE170207892
:10DA000000F0FFFA0604607800F0FBFA46EA002610
:10DA1000A07800F0F6FA0643E07846EA0046207B5C
:10DA200000F0EFFA46EA006010E0E170207B00F0C1
:10DA3000F4FAA0782178E27840EA0140617809029E
:10DA400041EA02410843217B40EA0160A1680843A2
:10DA500061680843F849CA220A6053220A60B5F592
:10DA6000807F04D00A1F1060FF20086070BDF24A5A
:10DA7000083AF8E70021C1700170417081700122FD
:10DA8000816002734160704710B514460246B1F5DB
:10DA9000807F2AD0E848001F0168C1F3054020704C
:10DAA000C1F30623637001F07F03A370402303EAF0
:10DAB0001143E370C1F30563237301F0804301F068
:10DAC0008031C4E90113002A0ED100F0A6FA2070BB
:10DAD000607800F0A2FA6070A07800F09EFAA07062
:10DAE000207B00F09AFA207310BDD3480838D3E7A2
:10DAF00038B50022D04C0092CA2222605322226004
:10DB0000CD4A1C3A0029116802D00143116012E08D
:10DB100081431160C84A183A95131168009B01EAC5
:10DB200010215B1C0093AB4201D00029F5D0116895
:10DB300011EA102000D00120FF21216038BD10B56E
:10DB4000BD4BCA241C6053241C601143B0F5807F78
:10DB500005D0B94824300160FF20186010BDB648D8
:10DB60002030F8E7B0F5807F05D0B3482430006856
:10DB7000C0F30E007047B0482030F8E7AE4ACA2123
:10DB8000116053211160AC491C390B6823F0070365
:10DB90000B600B6803430B60FF2010607047A649C1
:10DBA000CA220A6053220A60A34A103A1060FF207A
:10DBB00008607047A0481038006880B2704718B5F8
:10DBC00000219D4B0091CA211960532119609A4987
:10DBD0001C390028086803D040F48060086014E015
:10DBE00020F480600860944918398C130868009A02
:10DBF00000F00400521C0092A24201D00028F5D08F
:10DC00000868400701D4002000E00120FF211960CE
:10DC100018BD894B10B5CA221A6053221A60864A71
:10DC20001C3A146824F480241460146808430443E4
:10DC30001460FF20186010BD7F481C38006800F495
:10DC4000802070477C4B10B5CA221A6053221A609C
:10DC5000794A1C3A146824F4E004146014680843F8
:10DC600004431460FF20186010BDF0B5724D0646E5
:10DC70000024CA200F46286053202860FFF7D9FCF3
:10DC800030B16D483E430C380660FFF743FD012478
:10DC9000FF2028602046F0BD70B5674E0546002481
:10DCA000CA20306053203060FFF7C3FC60B1624887
:10DCB0001C38016815B141F0800101E021F08001BC
:10DCC0000160FFF727FD0124FF203060204670BD72
:10DCD000594ACA2111605321116057491C39002843
:10DCE000086802D040F4000001E020F40000086061
:10DCF000FF2010607047504ACA2111605321116003
:10DD00004D491C390B6823F400230B600B68034357
:10DD10000B60FF2010607047F0B5474D0023CA2408
:10DD20002C6053242C60444C183C2668F60308D51C
:10DD30004FF400362768FF0303D5B34201D05B1CC4
:10DD4000F8E72368DB0306D408433B491043183146
:10DD50000860012000E00020FF212960F0BD364B63
:10DD600010B51C3B1A6840F60804A24342EA0002C0
:10DD700009B142F400623048CA21016053210160B8
:10DD80001A60FF21016010BD70B50D462A49144686
:10DD90000C310968294A1140274A103212684FF69F
:10DDA0003F731A40C1F305432B70C1F306236B7018
:10DDB00001F07F03AB70402303EA1141E9700021B9
:10DDC000E170C2F30421617002F03F01A170C2F35F
:10DDD00042312170002817D1287800F01EF92870F0
:10DDE000687800F01AF96870A87800F016F9A87041
:10DDF000607800F012F96070A07800F00EF9A07061
:10DE0000207800F00AF9207070BD0B4814300068CB
:10DE10007047094A1C320029116803D041EA4000CA
:10DE20001060704721EA4000FAE7034A1C320029DB
:10DE3000116805D0014304E0242800407F7F7F0063
:10DE400081431160704779490A6822F4C0520A6020
:10DE50000A6802430A60704774490A6822F4E06263
:10DE60000A600A6802430A60704770490A6822F42F
:10DE7000C0420A600A6802430A6070476B49002882
:10DE8000086802D040F0800001E020F080000860C7
:10DE9000704766490028086802D020F4004001E07D
:10DEA00040F4004008607047604A08B5103202EB49
:10DEB00080000090016008BD5C4908B5103101EB9D
:10DEC00080000090006808BD58490A6822F480323A
:10DED0000A600A6802430A60704754490A6822F4DB
:10DEE00000320A600A6802430A6070474F490A68B4
:10DEF00022F480220A600A6802430A60704770B503
:10DF00004A4C0022CA231C3C236053232360474B06
:10DF1000343B1D682D0707D59E141D682D0703D5BA
:10DF2000B24201D0521CF8E71A6812070DD43F4ADA
:10DF3000383A1268D20608D401433C4814380160CC
:10DF4000FFF754FB10B1012000E00020FF21216009
:10DF500070BD30B5354DCA221C3D2A6053222A605F
:10DF6000324C20F00402383C0029304B216800F08C
:10DF7000040004D0114321601968014303E0914378
:10DF80002160196881431960FF20286030BD024676
:10DF90002649002034390968254B1940114200D028
:10DFA0000120704780B240F08000C1431F483438E0
:10DFB000026802F080021143016070471B4A002191
:10DFC000126802F00403194A383A126803EAD0339F
:10DFD00002401A43174B1B6803EA101003D00004D9
:10DFE000000C00D0012108467047C0F30F1040F02C
:10DFF0008000C1430F48026802F0800211430160B3
:10E000007047002103E0491C0A38C9B2C0B20A288F
:10E01000F9D2090740EA11607047010901EB81015B
:10E0200000F00F0000EB4100C0B2704740280040F4
:10E030007F3F01000C280040C14910B5884202D141
:10E040000121841424E0BF49884202D10121041433
:10E0500004E0BD4988420AD10121C4132046FFF7DC
:10E0600045FA2046BDE810400021FFF73FBAB74906
:10E07000884202D1012144140AE0B549884202D104
:10E0800001210C0504E0B34988420AD101214C0565
:10E090002046FFF735FA2046BDE810400021FFF783
:10E0A0002FBA10BD30B502884C8802F441530A885B
:10E0B000CD8822438C882C4322430C8922434C89EF
:10E0C00022438C892243CC8922431A430280828BCB
:10E0D00022F400628283098A018230BDF0B50222F7
:10E0E0000023858B01244FF240063540858302844E
:10E0F000868B8D68022D3DD08A8802B10224964A13
:10E1000013681B0203D5136823F400031360924ABB
:10E110007C3213681268C3F388138F4FC2F3027204
:10E120003F1F3D683F6805F03F057F0201D58B4FDB
:10E1300000E08B4FB7FBF5F55D43B5FBF2F2CB8802
:10E14000B3F5007F2BD06301B2FBF3F202EB820246
:10E150008B685200B2FBF3F2521D92B20A23B2FB5B
:10E16000F3F202F00103D21A4FF6FF74C2F34F022A
:10E1700004EA0323941EFE2C01D302220023CC8840
:10E180001A43144304840A884B881A438B8889896C
:10E190000B431A43324342F400618183F0BD120AFB
:10E1A000D4E70021018041808180C18001814181CB
:10E1B0008181C18107210182704700210180418056
:10E1C0008180C1800222826081817047002901889C
:10E1D00002D041F0400101E021F040010180704790
:10E1E0000029818B02D041F4806101E021F480613B
:10E1F00081837047028822F40062028002880A4309
:10E2000002807047B1F5804F018803D021F480412E
:10E210000180704741F48041FAE7A1F57E42018810
:10E22000FF3A02D041F4807101E021F48071018055
:10E2300070470029818802D041F0040101E021F0FB
:10E240000401818070470029818802D041F01001CB
:10E2500001E021F010018180704730B5828B0023EE
:10E260004FF240042240828302220284848B0A8877
:10E270004FF48075B2F5007F00D002B92B464A8872
:10E280008D8889892A4319430A43224342F4006155
:10E29000818330BD80897047818170470029018862
:10E2A00002D041F4005101E021F400510180704797
:10E2B000018841F4805101807047012901D0008B11
:10E2C0007047808A7047008A7047002A828801D090
:10E2D0000A4300E08A4382807047090901238B408A
:10E2E000002A828899B201D00A4300E08A438280E2
:10E2F00070470246002012890A4200D00120704770
:10E30000C9430181704730B501F00F030125024672
:10E3100005FA03F40020A3B2090905FA01F4918873
:10E32000A4B2128921401A4202D0002900D0012053
:10E3300030BD01F00F0201219140C94301817047B6
:10E340000030014000380040003C004000340140F3
:10E3500000500140005401400838024080BA8C014E
:10E360000024F40010B501218C032046FFF7C8F803
:10E370002046BDE810400021FFF7C2B814490860EC
:10E38000704714490862704710B58A0721F00304EA
:10E390001149120F21440F23D1F8084893409C43A0
:10E3A000C1F80848D1F8083890400343C1F808384C
:10E3B00010BD0849C1F8DC00704708490860704783
:10E3C0000349002020310968C90500D501207047A4
:10E3D000003801400000274200300140000427427D
:10E3E000FE4910B5884206D101210846FFF788F89A
:10E3F000002101205BE0B0F1804F09D0F84988424C
:10E400000DD101210220FFF771F80021022070E0F8
:10E4100001210846FFF76AF80021012069E0F1496F
:10E42000884206D101210420FFF760F80021042072
:10E430005FE0ED49884206D101210820FFF756F838
:10E440000021082055E0E949884206D10121102029
:10E45000FFF74CF8002110204BE0E549884206D137
:10E4600001212020FFF742F80021202041E0E1496E
:10E47000884206D101210220FFF742F80021022044
:10E4800015E0DD49884202D101210C040AE0DB4994
:10E49000884202D101214C0404E0D94988420AD1C2
:10E4A00001218C042046FFF72BF800212046BDE80F
:10E4B0001040FFF725B8D349884206D101214020FA
:10E4C000FFF714F80021402013E0CF49884206D11D
:10E4D00001218020FFF70AF80021802009E0CB49C4
:10E4E00088420AD1841501212046FEF7FFFF002152
:10E4F0002046BDE81040FEF7F9BF10BD30B50288D8
:10E50000B64CBC4DA0420DD0A8420BD0B0F1804F0C
:10E5100008D0B34B984205D0B24B984202D0B24BD0
:10E52000984203D122F070034A881A43AF4B9842B5
:10E5300006D0AF4B984203D022F440730A891A43A5
:10E5400002804A68C2620A880285A04201D0A842BD
:10E5500001D1897A01860121818230BD4FF0FF31DE
:10E5600041600021018001814180817270470185F5
:10E5700082827047028822F070020A43028070474C
:10E5800041627047C1627047406A7047008D7047B2
:10E590000029018802D041F0020101E021F00201CE
:10E5A000018070470029018802D041F0040101E098
:10E5B00021F00401018070470029018802D041F058
:10E5C000800101E021F0800101807047028822F083
:10E5D0000802028002880A4302807047028822F4FF
:10E5E0004072028002880A43028070470029018835
:10E5F00002D041F0010101E021F0010101807047EA
:10E6000030B5028C22F001020284028C8388048BD4
:10E6100022F0020224F073050C882C438D891543E7
:10E620004A882A436D4DA84202D0724DA8420DD1AE
:10E6300022F00805CA8923F440732A4322F0040516
:10E640008A882A430D8A1D434B8A2B438380048387
:10E6500089684163028430BD70B5028C22F01002DB
:10E660000284028C8388048B0D8824F4E6464FF6DE
:10E67000FF7404EA052535438E8922F0200204EA5E
:10E68000061616434A8804EA02123243534EB04239
:10E6900002D0584EB04215D122F08006CA8923F428
:10E6A000406304EA0212324322F040068A8804EAF8
:10E6B000021232430E8A04EA86061E434B8A04EA9B
:10E6C000830333438380058389688163028470BD3B
:10E6D00070B5028C22F480720284028C8388848B51
:10E6E0000D8824F0730425438E894FF6FF7422F4BD
:10E6F000007204EA062616434A8804EA02223243DC
:10E70000364EB04202D03B4EB04215D122F40066E4
:10E71000CA8923F4405304EA0222324322F4806679
:10E720008A8804EA022232430E8A04EA06161E434D
:10E730004B8A04EA03133343838085838968C1636A
:10E74000028470BD70B5028C22F480520284058C64
:10E750008288838B0C8823F4E6464FF6FF7303EA26
:10E760000424344325F400568D8903EA05353543E6
:10E770004E8803EA06362E43184DA84202D01D4D9E
:10E78000A84205D122F480450A8A03EA82122A436C
:10E790008280848389680164068470BD00210180C1
:10E7A0004180818081608181C18101824182704785
:10E7B00030B50124058C00F118038C40A543058475
:10E7C00031B308292CD0091FC1F34E001844016849
:10E7D00048F6FF731940016001681AE0000001402B
:10E7E0000004004000080040000C00400010004001
:10E7F000001400400004014000400140004401407A
:10E800000048014000180040001C0040002000406B
:10E8100006E04FF6FF7303EA02221143016030BDA8
:10E8200003EB510001684FF68F73194001600168D6
:10E83000F3E74163704781637047C16370470164C8
:10E840007047028B22F070020A4302837047028BEA
:10E850004FF6FF7322F4E04203EA012111430183E2
:10E860007047828B22F070020A4382837047828B4A
:10E870004FF6FF7322F4E04203EA01211143818342
:10E880007047028B22F008020A4302837047028B12
:10E890004FF6FF7322F4006203EA01211143018362
:10E8A0007047828B22F008020A4382837047828B72
:10E8B0004FF6FF7322F4006203EA012111438183C2
:10E8C0007047028B22F004020A4302837047028BD6
:10E8D0004FF6FF7322F4806203EA012111430183A2
:10E8E0007047828B22F004020A4382837047828B36
:10E8F0004FF6FF7322F4806203EA01211143818302
:10E900007047028B22F080020A4302837047028B19
:10E910004FF6FF73C2F30E0203EA01211143018394
:10E920007047828B22F080020A4382837047828B79
:10E930004FF6FF73C2F30E0203EA012111438183F4
:10E940007047028C22F002020A4302847047028C54
:10E9500022F008020A4302847047028C4FF6FF73CC
:10E9600022F0200203EA0111114301847047028C56
:10E970004FF6FF7322F0800203EA01111143018474
:10E980007047028C4FF6FF7322F4007203EA0121F4
:10E99000114301847047028C4FF6FF7322F400622A
:10E9A00003EA0121114301847047028C4FF6FF7383
:10E9B00022F4005203EA013111430184704710B57B
:10E9C0000123048C8B409C430484038C8A401343B2
:10E9D000038410BD10B50423048C8B409C43048435
:10E9E000038C8A401343038410BD828B22F440625F
:10E9F0008283828B4FF6FF7303EA01210A438283ED
:10EA00007047828B22F00C028283828B0A438283BE
:10EA10007047028B22F440620283028B4FF6FF7331
:10EA200003EA01210A4302837047F0B5048C24F005
:10EA300010040484078B068C4FF6FF7404EA01155A
:10EA400027F4734704EA0331394304EA02220A43F4
:10EA500026F0A001294341F0100102830184F0BD9A
:10EA6000028B22F00C020283028B0A43028370475E
:10EA70002DE9F0410C460E884988A2882389054675
:10EA80000EB3042E26D0082E2E8C4FF6FF7028D001
:10EA900026F480562E84AF8B2E8C00EA022200EAE8
:10EAA000013127F473473A4300EA0330104326F458
:10EAB00020420A4342F48051A8832984E1882846F1
:10EAC000BDE8F04191E700F062F9E1882846BDE831
:10EAD000F041C5E7FFF7A9FFE1882846BDE8F0410E
:10EAE00097E726F480762E84AF8B2E8C00EA0121E6
:10EAF00000EA0310104327F0F307384326F420629E
:10EB00000A4342F48071A8832984E1882846BDE83D
:10EB1000F04176E700210180418001228280C1809E
:10EB2000018170472DE9F0410C46002649880746CF
:10EB3000012501B90226A288012A00D102252088D8
:10EB400023890028384610D0FFF76FFFE188384648
:10EB5000FFF75FFF23892A463146384600F017F950
:10EB6000E1883846BDE8F0417AE700F010F9E18825
:10EB70003846FFF775FF23892A4631463846FFF7A6
:10EB800054FFE1883846BDE8F04142E7406B7047EA
:10EB9000806B7047C06B7047006C704710B50A8877
:10EBA0004B88CC881A438B8823431A430B891A431A
:10EBB0004B8989891A430A43A0F8442010BD0021DB
:10EBC000018041808180C1800181418181817047C4
:10EBD000002930F8441F02D041F4004101E0C1F3A4
:10EBE0000E01018070470029818802D041F00401A4
:10EBF00001E021F00401818070470029818802D062
:10EC000041F0010101E021F0010181807047002AFB
:10EC1000828901D00A4300E08A4382817047818261
:10EC2000704702460020128A0A4200D00120704735
:10EC3000C9430182704702460020138A92890B4221
:10EC400002EA010202D0002A00D001207047C94325
:10EC5000018270471143A0F848107047002A82894A
:10EC600001D00A4300E08A438281704700298188ED
:10EC700002D041F0080101E021F0080181807047D5
:10EC8000018921F0070101817047028922F0700299
:10EC90000A430281704700B50346FFF7F6FF188963
:10ECA00040F00700188100BD70B516460D4660297A
:10ECB00004464FF0010231460AD000F068F82946B8
:10ECC0002046FFF7E2FF208940F00700208170BD59
:10ECD000FFF7ABFEF3E730B504894FF6FF7505EAA1
:10ECE00003231343E4B20B432343038130BD10B528
:10ECF0000446FFF7F0FF208940F07700208110BD27
:10ED000010B50446FFF7E7FF208940F480402081DA
:10ED100010BD828822F07002828082880A4382803D
:10ED20007047028922F00702028102890A430281A8
:10ED30007047028922F08002028102890A4302811F
:10ED4000704770B50589048B068C25F007050D43C7
:10ED50004FF6FC410C4040F201110C434FF6FF719D
:10ED600001EA031126F02206114331430581048391
:10ED7000018470BD0029818802D041F0800101E04A
:10ED800021F0800181807047A0F85010704770B565
:10ED9000048C24F001040484058B048C4FF6FF7668
:10EDA00006EA0313134325F0F3052B4324F00A026C
:10EDB0000A4342F001010383018470BDCD4910B5BF
:10EDC000884206D101211020FEF79AFB0021102075
:10EDD00020E0C949884202D101214C0429E0C749F9
:10EDE000884202D101218C0423E0C549884202D126
:10EDF0000121CC041DE0C349884202D101210C0548
:10EE000017E0C149884209D101212020FEF778FB93
:10EE100000212020BDE81040FEF772BBBB498842AC
:10EE200002D101218C0704E0B94988420AD10121AD
:10EE300044052046FEF75AFB2046BDE8104000215D
:10EE4000FEF754BB10BD7FB50446008A0D46C98845
:10EE500020F4405001432182A08941F20C61884393
:10EE6000A9882A8911436A8902431143A181A08A92
:10EE700020F44071A8890843A0826846FEF775FA1D
:10EE80009C48844202D0A048844201D1039800E00B
:10EE90000298A189090400EBC00101EB0010296868
:10EEA00001D5490000E08900B0FBF1F06422B0FB1D
:10EEB000F2F109010B096FF018056B4300EB8300B9
:10EEC000A3891D044FF0320306D503EBC000B0FB4D
:10EED000F2F000F0070005E003EB0010B0FBF2F0E9
:10EEE00000F00F00084320817FBD4FF416510160F0
:10EEF00000218180C18001810C2242818181704783
:10EF000010B5028A4C8822F470630A8822438C88E8
:10EF1000C9880C4322431A43028210BD002101809C
:10EF200041808180C18070470029818902D041F4ED
:10EF3000005101E021F4005181817047028B02F4FD
:10EF40007F420283028B0A43028370470029818932
:10EF500002D041F4004101E0C1F30E01818170470C
:10EF60000029818A02D041F4006101E021F40061AE
:10EF700081827047C1F30801818070478088C0F3A7
:10EF800008007047028A22F00F020282028A0A43B6
:10EF9000028270470029818902D041F0020101E01C
:10EFA00021F0020181817047828922F4006282810E
:10EFB00082890A4382817047028A22F020020282FB
:10EFC000028A0A43028270470029018A02D041F472
:10EFD000804101E021F4804101827047818941F044
:10EFE0000101818170470029818A02D041F0080126
:10EFF00001E021F0080181827047028BD2B20283C6
:10F00000028B42EA0121018370470029818A02D0E4
:10F0100041F0200101E021F02001818270470029A8
:10F02000818A02D041F0100101E021F010018182BB
:10F030007047828A22F004028282828A0A43828294
:10F0400070470029818A02D041F0020101E021F0DD
:10F05000020181827047002A828A01D00A4300E0BF
:10F060008A438282704710B5C1F3421301F01F0436
:10F070000121A140012B07D0022B07D01430002A18
:10F08000026805D00A4304E00C30F8E71030F6E7D8
:10F090008A43026010BD0246002012880A4200D056
:10F0A00001207047C9430180704770B501F01F050A
:10F0B00001260024C1F3421306FA05F2012B0FD0FA
:10F0C000022B0FD0838A4FEA11210088134206FADF
:10F0D00001F600EA060001D000B10124204670BD0F
:10F0E0008389F0E7038AEEE70A0A01219140C943C8
:10F0F000018070470010014000440040004800407B
:10F10000004C0040005000400014014000780040D6
:10F11000007C00400648804706480047FEE7FEE7BF
:10F12000FEE7FEE7FEE7FEE7FEE7FEE7FEE7FEE7B7
:10F13000EF59010895C1000870470CA006F0CAFC01
:10F14000FBE70DA006F0C6FCFBE70EA006F0C2FC34
:10F15000FBE70FA006F0BEFCFBE770477047704767
:10F160000F480168491C01607047000048617264E3
:10F170004661756C740D0A004D656D4D616E616779
:10F18000650D0A004275734661756C740D0A0000C6
:10F1900055736167654661756C740D0A0000000067
:10F1A0009404002070B505466024FBA006F092FC94
:10F1B0002A462146F94807F0C4FC041E08D0A4F5ED
:10F1C0007F40F03809D0012807D0022803D104E09D
:10F1D000F3A006F07FFC204670BDF3A0F9E770B500
:10F1E00004462DED068B41799FEDF29B80790A292B
:10F1F00027D2DFE801F005122A3744515F6C798687
:10F200000AF05EFD41EC110BB0EE490AF0EE690A1E
:10F210000BF0CEF89FEDE91B0BE00AF051FD41EC3D
:10F22000110BB0EE490AF0EE690A0BF0C1F89FED40
:10F23000E51B51EC100B53EC112B0AF0C1FC41EC17
:10F24000180B207AA8B3012269E00AF039FD41ECDD
:10F25000110BB0EE490AF0EE690A0BF0A9F89FED28
:10F26000DB1BE6E70AF02CFD41EC110BB0EE490A7E
:10F27000F0EE690A0BF09CF89FEDD61BD9E70AF077
:10F280001FFD41EC110BB0EE490AF0EE690A0BF0DC
:10F290008FF89FEDD21BCCE70AF012FD41EC110B69
:10F2A000B0EE490AF0EE690A0BF082F89FEDCD1B33
:10F2B000BFE733E00AF004FD41EC110BB0EE490A60
:10F2C000F0EE690A0BF074F89FEDC81BB1E70AF085
:10F2D000F7FC41EC110BB0EE490AF0EE690A0BF0B5
:10F2E00067F89FEDC41BA4E70AF0EAFC41EC110BA0
:10F2F000B0EE490AF0EE690A0BF05AF89FEDBF1B19
:10F3000097E70AF0DDFC41EC110BB0EE490AF0EE94
:10F31000690A0BF04DF89FEDBB1B8AE70022607A6B
:10F3200008B1012100E00021207F00B10120637EAF
:10F330004942DD00A37901EB81015E4205EB8605C0
:10F3400005EB0212404202EB810503EB4000800016
:10F350001C350AF0B5FC41EC190B28460AF0B0FC4C
:10F3600053EC192B0AF02CFC41EC100B0AF088FF2F
:10F3700051EC100B0AF0D0FCE5792D1D4543608B54
:10F3800008350AF09DFC9FEDA11B53EC112B0AF0F0
:10F39000FEFA53EC182B0AF0A1FB9FED9EAB53EC49
:10F3A0001A2B0AF09BFB41EC190B28460AF088FC4B
:10F3B00053EC182B0AF092FB53EC1A2B0AF08EFB3D
:10F3C00041EC100B51EC190B53EC102B0AF0DFFA47
:10F3D00041EC100B0AF054FF9FED901B51EC100B09
:10F3E00053EC112B0AF0D3FABDEC068BBDE870404C
:10F3F0000AF092BC10B504F009FA8A4C2068006843
:10F400008047206880688047002010BD70B5864D19
:10F410000024286810B10CF0A9FB2C60834D2868EB
:10F42000002802D00CF0A2FB2C6070BD2DE9F04149
:10F4300000247F4F2646C4EBC40007EB0015287854
:10F4400018B1204605F09CF92E70641CE4B2202C03
:10F45000F1D378480670BDE8F04105F061B9FFF7D7
:10F46000E5FFFFF7D3FF05F07DFC734801680268F4
:10F47000521AC82AFBD302F097FB704830B40068D8
:10F48000012814D16E48007898B10020684B0446DA
:10F49000421EC0EBC00103EB01110D781DB101F854
:10F4A000424F4A708A70401CC0B22028F1D330BC51
:10F4B00070475D4800680028F9D030BC06F0F9BB01
:10F4C0002DE9FC415F4D28785F4F604E0024A8B1C4
:10F4D0005F484FF4807104605E480AF0CEF93368EB
:10F4E0005DA2072168460AF099FE5CA006F0F2FAD8
:10F4F000684606F0EFFA28A006F0ECFA3C7034609B
:10F500002C70BDE8FC812DE9F0410F4605461646FA
:10F510001C4657A118460AF0C2F938B156A1204638
:10F520000AF0BDF920B10020BDE8F081012400E01F
:10F53000002453480570012008F070FD384609F09A
:10F54000D6F9304609F09EF94E4D0020EC7209F0D4
:10F5500098FA2846FFF743FE68612861286809F099
:10F56000BFF830480068806880470120DCE72DE95B
:10F57000F041154602460020434B0C4608704FF6FA
:10F58000F276217850785F5CB8427FD0491CC8B2CF
:10F5900020700428F5D3AAE00D0A00001400002012
:10F5A0000D0A4F4B0D0A00000D0A4552524F520DE5
:10F5B0000A00000000000000000000400000000001
:10F5C0000078BE40000000000050C4400000000071
:10F5D0000078CE40000000000050D4400000000041
:10F5E0008084DE4000000000805CE44000000000F9
:10F5F0008084EE40000000008084FE400000000097
:10F6000080840E410000000080841E410000000044
:10F61000000011400000000000408F40000000008A
:10F6200000407F40B0040020D0050020D405002019
:10F63000D8180020C8050020940400209804002059
:10F640009D040020C1040020C2040020C404002046
:10F65000A804002084090020256400004C6F72611A
:10F6600050565F5458726573756C743D000000000D
:10F67000486F704F6E000000486F704F6666000064
:10F68000B40400206428002096BC0108FFE7C8B23B
:10F6900004282CD202F5AB700AF06CF980B22880F5
:10F6A0002278FD4922B90F2821D831F8100028808E
:10F6B0002078012807D128880F2818D80B2816D0C1
:10F6C00031F8100028802078022809D12888A0F17C
:10F6D0000D02022A0BD801EB400030F81A0C2880EA
:10F6E0002078032808D1288818B1012801D0304695
:10F6F0001AE731F810002880002015E730B58DB0EA
:10F7000000210C910091007818B14FF6F2700DB005
:10F7100030BD012006F0B7FF40F6E441414340F61A
:10F72000FF74B1FBF4F10C9141F26802514340F6D1
:10F73000E445B1FBF5F10091CDE90001D7A2282104
:10F7400002A80C9B0AF06AFD02A806F0C3F9022089
:10F7500006F099FF29464143B1FBF4F10C9141F2C7
:10F7600068025143B1FBF5F10091CDE90001D3A24C
:10F77000282102A80C9B0AF051FD02A806F0AAF964
:10F78000042006F080FF29464143B1FBF4F10C91BF
:10F7900041F268025143B1FBF5F10091CDE900015E
:10F7A000CEA2282102A80C9B0AF038FD02A806F080
:10F7B00091F9082006F067FF29464143B1FBF4F1B7
:10F7C0000C9141F268025143B1FBF5F10091CDE992
:10F7D0000001CAA2282102A80C9B0AF01FFD02A862
:10F7E00006F078F94FF4807006F04DFF294641434A
:10F7F000B1FBF4F10C9141F268025143B1FBF5F118
:10F800000091CDE90001C5A2282102A80C9B0AF0B5
:10F8100005FD02A806F05EF9002078E710B5007833
:10F8200010B14FF6F27010BD02F0BEF97FB504467C
:10F8300000784FF6F275032830D1C14800680228DD
:10F840002CD103AA02A92046FFF791FE30BB04F297
:10F85000AB200AF08FF810F0FF0001D001281DD175
:10F86000BDF80C10009100218DF806108DF80710DE
:10F8700002228DF8052010B1012803D00EE08DF88A
:10F88000041002E001208DF804009DF8080040B14A
:10F8900001280DD0022815D003281AD0284604B01C
:10F8A00070BD01210846FDF7E5FD6946A54805E064
:10F8B00001210220FDF7DEFD6946A348FDF756FB56
:10F8C0000020ECE701210420FDF7D4FD69469F48A4
:10F8D000F4E701218020FDF7CDFD69469C48EDE766
:10F8E0007CB5044600784FF6F27503281BD1944886
:10F8F0000068022817D16A4601A92046FFF737FEA3
:10F9000088B904F2AB200AF035F810F0FF0201D0FC
:10F91000012A08D19DF8040038B1012809D0022835
:10F920000ED0032810D028467CBDBDF800108548B5
:10F9300002E0BDF800108448FDF781FB00207CBD8B
:10F94000BDF800108148F7E7BDF800108048F3E7E4
:10F950003EB5044600784FF6F275022812D1784879
:10F96000006802280ED16A4601A92046FFF7FFFD74
:10F9700040B99DF8040038B1012809D002282CD0E4
:10F9800003282ED028463EBDBDF800106D4802E089
:10F99000BDF800106C48FDF73AFB0346AFF2483261
:10F9A000042102A80AF03AFC6AA006F093F8601C51
:10F9B00006F090F86AA006F08DF804F5AB7006F03A
:10F9C00089F867A006F086F802A806F083F8AFF27F
:10F9D000384006F07FF800203EBDBDF800105B48BF
:10F9E000D9E7BDF800105A48D5E710B5007810B136
:10F9F0004FF6F27010BD06F02BFD002010BD70B563
:10FA000001784FF6F27000292FD1564C2178002949
:10FA10002BD155490978002927D154490978002963
:10FA200023D1534E09254FF480715248356009F0B7
:10FA300024FF2A4650A14F4809F006FF012008F094
:10FA4000EDFA07F034FF4F4800210170007807F00D
:10FA5000F9FE07F0EFFF308881B24B480068026979
:10FA60004448904701202070002070BD70B5017897
:10FA70004FF6F27000290ED13A4C217800290AD0B5
:10FA80003A490978002906D137490978002902D175
:10FA9000002537487AE092E09ABC0108565F41445D
:10FAA00043303D25642C20414443303D25642C20C7
:10FAB000564241543D2564200A0D0000565F4144E2
:10FAC00043313D25642C20414443313D25642C20A5
:10FAD000564241543D2564200A0D0000565F4144C2
:10FAE00043343D25642C20414443343D25642C207F
:10FAF000564241543D2564200A0D0000565F4144A2
:10FB000043353D25642C20414443353D25642C205C
:10FB1000564241543D2564200A0D0000565F504274
:10FB2000303D25642C204144435F5042303D2564E4
:10FB30002C20564241543D2564200A0D000000004F
:10FB40009804002000000240000402400008024027
:10FB5000001C02404750494F5F526561643D000000
:10FB60002C00000010000020C1040020C004002070
:10FB7000A804002084090020416373697057696EEE
:10FB800000000000D8050020B004002005604FF4FC
:10FB90008071FE4809F071FE012007F025FF07F093
:10FBA00086FEFB4801210170007807F04BFE08F04B
:10FBB0005BFAF8480068806880472570002070BDB7
:10FBC00070B501784FF6F27501290BD1F249097829
:10FBD00041B1401C09F0CEFE0446F048F0492044F3
:10FBE000884201D3284670BD012007F0FDFEED4894
:10FBF000046007F05CFE07F01DFFEB48008881B24F
:10FC0000E44800680269E1489047002070BD7CB577
:10FC100001784FF6F27000292BD1DF4909780029CD
:10FC200027D1E24E3178002923D0E1490978002913
:10FC30001FD1DD4800244FF480710460D34809F0DF
:10FC40001CFEDC4D2B68AFF2F052072168460AF02B
:10FC5000E5FAAFF2F85005F03DFF684605F03AFFCF
:10FC6000AFF2CC6005F036FFD34804702C603470DE
:10FC700000207CBD2DE9F05F074600784FF6F27456
:10FC8000022827D8012825D0C349097811BBC849C3
:10FC90000978F9B9C54E3178E1B9C749C24D4FF479
:10FCA000807A4FF001084FF00009B0B181F8009060
:10FCB000781C09F05FFE0146C0480160006848B149
:10FCC00007F5AB70834609F0E3FD2860071E01D0FD
:10FCD000FF2F0ED92046BDE8F09F81F8008009244F
:10FCE0005146AA482C6009F0C8FD2246AFF27811AF
:10FCF00005E05146A54809F0C0FD3A465946A348DB
:10FD000009F0A2FD012008F089F9287808F0F9FE31
:10FD1000AB48FFF764FAAA4948610861A549C1F8F0
:10FD2000009086F800809B4800688068804700202B
:10FD3000D1E77CB501784FF6F270002928D19649B9
:10FD40000978002924D19A4E3178002920D097498A
:10FD5000097800291CD1944800244FF48071046074
:10FD60008A4809F08AFD974D2B68AFF2147207217B
:10FD700068460AF053FA94A005F0ACFE684605F018
:10FD8000A9FEAFF2EC7005F0A5FE2C6034700020E7
:10FD90007CBD2DE9F041044600784FF6F27601284B
:10FDA00023D8DFF80C8298F80000F0B97A48007880
:10FDB000D8B97E480078C0B97B4D00274FF48071D8
:10FDC00072482F6009F059FD207810B1012805D044
:10FDD00012E00922AFF260212A600AE0601C09F0FB
:10FDE00057FD286008B1FF2801D9304680E402465B
:10FDF000611C664809F028FD012008F00FF92878F9
:10FE000008F07FFE6E48FFF7EAF96D494861086126
:10FE10006C480760012188F800105E48006880681F
:10FE20008047002064E43EB5044600784FF6F27542
:10FE3000012831D169480068012808D16848007854
:10FE400028B1601C09F024FD062823D106E065A036
:10FE500005F040FE6BA005F03DFE1DE07148007806
:10FE6000202801D370A0F6E710220021601C09F0C1
:10FE700049FD014602A807F0CDF858B100200090D6
:10FE80000146019002ABA522012004F060FB18B1ED
:10FE900000203EBD69A0DEE728463EBD10B504F057
:10FEA000B2FCBDE8104004F09BBC30B504460078BD
:10FEB00085B04FF6F275012802D0284605B030BD56
:10FEC00046480068012809D14548007830B1601CD7
:10FED00009F0DEFC062806D058A025E041A005F078
:10FEE000F9FD48A020E04F480078202801D34EA01B
:10FEF0001AE010220021601C09F004FD010EEBD174
:10FF00008DF81000010A8DF81110000C8DF8120008
:10FF100004A807F0DDF80346102808D04DA21021F0
:10FF200068460AF07BF9684605F0D4FDC5E7FFF79F
:10FF3000B5FF0020C2E7FEB5044600784FF6F27622
:10FF4000012821D125480068012808D124480078DB
:10FF500028B1601C09F09CFC062815D104E021A002
:10FF600005F0B8FD27A09BE010220021601C09F0DD
:10FF7000C9FC010E08D18DF80800010A8DF809109E
:10FF8000000C8DF80A006BE08CE000008409002072
:10FF9000D8050020B004002010000020C08BD5F749
:10FFA000C182A13418060020A8040020C10400204A
:10FFB000C0040020C4040020C2040020C8040020A3
:10FFC00064280020BC0400204C6F726150565F52C0
:10FFD00058726573756C743D000000009804002031
:10FFE0009D04002053797374656D204E4F54206931
:10FFF0006E204E6F726D616C206D6F64652C0D0A02
:020000040801F1
:10000000000000004F72204C6F7261206D6F6475AC
:100010006C65204E4F54204D61737465722E0D0A2D
:1000200000000000C80500204E6F6465206E756DED
:100030006265722066756C6C2E0D0A0041646472F4
:1000400020666F726D6174206572726F722E0D0A78
:10005000000000004572726F722025640D0A0000D6
:10006000FE4D0024C4EBC40005EB0011087890B1EC
:1000700002A8083106F0D9FF68B1202C0FD2002069
:100080000090019002ABB0222146012004F05FFAFB
:1000900040B10020FEBD641CE4B2202CE2D3F0A0ED
:1000A00005F018FD3046FEBD38B5044600784FF621
:1000B000F27501281ED1F348006801280CD1F248DE
:1000C000007848B1601C09F0E3FB06280BD0AFF2C2
:1000D000940005F0FFFC0DE0AFF2F80005F0FAFC2B
:1000E000AFF2E000F5E710220021601C09F00AFCE5
:1000F000010E01D0284638BD8DF80000010A8DF8A8
:100100000110000C8DF80200684607F00CF818B1D9
:10011000FFF7C4FE002038BDDCA0DAE72DE9FF5F61
:100120000646D8484FF00008CDF80C80006801283A
:100130003ED1D548007800283AD030780028FBD04E
:10014000701C09F0A5FB0628F2D110220021701CBA
:1001500009F0D8FB014602A806F05CFF0028EBD0AE
:10016000BE4F0025C5EBC50007EB00142078C0B1D9
:1001700004F1080102A806F058FF90B1202D14D216
:10018000C5EBC50007EB0010007870B1307801288E
:100190000FD006F5AB718B4602281ED00328C7D1BD
:1001A0004BE06D1CADB2202DDCD3C1A005F092FC5C
:1001B00093E04746CDF80080E9B202ABB5220120BA
:1001C000CDF8048004F0C3F9002876D004F10B00C8
:1001D000202109F052FBA78570E00F46384609F050
:1001E00057FB3978C0B2222905D0384410F8010CE9
:1001F000222846D04CE0391811F8011C222940D1A0
:10020000A0F10208B8F1040F0FDB04F10B00044663
:10021000202109F032FB20467B1C03AA2021CDF8C7
:10022000008001F0E0FF60BB49E0022829D104F121
:100230000B00202109F021FB41E006F2AB273846F4
:1002400009F026FB3978C0B222291AD1391811F8E1
:10025000011C222915D1811E8A4604290FDB04F1D5
:100260000B008146202109F008FB48467B1C03AAAD
:100270002021CDF800A001F0B6FF10B908E0022857
:1002800001D094A092E704F10B00202109F0F5FAC7
:10029000584609F06FFBA0854746CDF80080E9B2CB
:1002A00002ABB5220120CDF8048004F050F920B152
:1002B000A08D18B10520A08701E00EE0A787FFF709
:1002C000EDFD89A005F006FC701C05F003FC88A07C
:1002D00005F000FC002004B0FDE44FF6F270FAE7F0
:1002E0002DE9F04196B0064600201390654800685D
:1002F0004FF6F278012841D163480078E8B33078AE
:1003000001283BD1701C09F0C3FA062836D110220F
:100310000021701C09F0F6FA014614A806F07AFED6
:1003200058B34E4F0024C4EBC40007EB00152878E7
:1003300038B305F1080114A806F077FE08B3202CA5
:1003400023D2C4EBC40007EB00100078E8B14021D1
:1003500001A809F092FA05F10B00044609F098FA99
:1003600010F0FF0015D00090234613AA282101A801
:1003700001F0B4FE68B157A008E0FFE7404616B0B0
:1003800034E5641CA4B2202CCDD349A005F0A2FB17
:10039000F4E7AB8D5CA2062111A809F03FFF52A043
:1003A00005F098FB701C05F095FB58A005F092FB3A
:1003B00011A805F08FFB58A005F08CFB139909B12B
:1003C00001A801E0012154A005F082FBAFF27430D6
:1003D00005F080FB0020D2E72DE9F04105462948D1
:1003E000C2B000684FF6F278012801D04BA011E0AE
:1003F000254800780028287806D002282DD04FA064
:1004000005F068FB54A005E0012806D058A005F0CF
:1004100061FB5DA005F05EFB30E16148006820B142
:10042000604C20780028F7D101E05FA0F2E7F621C8
:10043000624809F022FA6E1C681C09F029FAC0B261
:100440000090334640AAF6215C4801F0CCFE5C4D9A
:10045000002608B1F621B5E0BAE0C1E0D8180020C6
:100460004E4F542074686973204E4F444520696E86
:100470002041635369704C6F72614E65742E0D0A92
:1004800000000000980400209D0400205468697357
:10049000206E6F6465204E4F5420696E2041635377
:1004A00069704C6F72614E65742E0D0A0000000079
:1004B00054686973204E4F4445204E4F5420696E56
:1004C0002041635369704C6F72614E65742E0D0A42
:1004D00000000000416C6961736573206572726F82
:1004E000722E0D0A000000004E6F64653D00000092
:1004F0002073657474696E672053554343455353A5
:100500004544210D0A000000257500002045565481
:100510003D4765744E6F6465200000005379737425
:10052000656D204E4F5420696E204E6F726D616C68
:10053000206D6F64652E0D0A000000004C6F726123
:10054000206D6F64756C65206973204D61737465EF
:10055000722E0D0A000000004E6565642074776FEE
:1005600020706172616D657465722E0D0A00000065
:100570004C6F7261206D6F64756C652069732053D8
:100580006C6176652E0D0A004E656564206F6E65A0
:1005900020706172616D657465722E0D0A00000035
:1005A000D0050020A40400204E4F204C6F726147FC
:1005B0006174655761792E0D0A0000007C060020E9
:1005C00010000020FE4809F058F96E70267055E0C2
:1005D0004098F6283FF63EAF68700120207048E052
:1005E000681C09F055F9062801D0F6A012E7102280
:1005F0000021681C09F086F9014641A806F00AFDB1
:10060000D8B3FC4E0024C4EBC40006EB00110878FC
:10061000C8B141A8083106F008FDA0B1202C16D2BF
:1006200005F5AB70054609F033F9C7B2F82102A809
:1006300009F023F92B4640AAF62102A8009701F001
:10064000D2FDD0B906E0641CE4B2202CDBD3AFF2BB
:10065000A010DFE640A902A8CDE90001C4EBC40068
:1006600006EB0013AF2221460120083303F06FFF91
:1006700018B1002042B0BDE8F081FFE74046F9E73D
:100680007CB505460224DCA22B5D0821684609F0F2
:10069000C5FD684605F01EFA641E64B2002CF2DA4D
:1006A0007CBD7CB5017800244FF6F270002939D169
:1006B000D3490968012935D1D2490978002931D0B7
:1006C000CC4D0020C0EBC00105EB0111097809B148
:1006D000641CE4B2401CC0B22028F3D3CAA005F0C9
:1006E000F9F92346CAA20821684609F097FD684631
:1006F00005F0F0F98CB10024C4EBC40005EB001048
:10070000017831B10830FFF7BBFFAFF2F41005F00C
:10071000E1F9641CE4B2202CEED3AFF2C06005F026
:10072000D9F900207CBD10B501784FF6F270002990
:1007300015D1B3490968012911D1B24909780029B5
:100740000DD1B44C206858B1B3A005F0C3F92068AE
:10075000FFF796FFAFF2FC6005F0BCF9002010BD7A
:10076000B2A005F0B7F9F5E710B501784FF6F270D1
:1007700000290AD1A2490968012906D1A1490978AD
:10078000002902D104F06FFA002010BD10B50178E5
:1007900000244FF6F27000290FD199490968012908
:1007A0000BD198490978002907D104F0CBFAA54864
:1007B00000BF641C8442FBD3002010BD10B500783C
:1007C00010B14FF6F27010BD06F059FB04469EA022
:1007D00005F080F92046FFF753FFAFF2807005F077
:1007E00079F9002010BD1CB501784FF6F270002990
:1007F0001CD183490968012918D182490978002947
:1008000014D18448006890B1838CAFF20432062181
:10081000684609F003FD8FA005F05CF9684605F015
:1008200059F9AFF2C87005F055F900201CBD8DA034
:1008300005F050F990A0F6E730B5007887B018B110
:100840004FF6F27007B030BD03A803F025FA8FA071
:1008500005F040F9022403AD8EA255F82430092199
:10086000684609F0DBFC684605F034F9641E64B2A2
:10087000002CF1DA84A005F02DF90020E2E710B594
:10088000007810B14FF6F27010BD84A005F022F987
:1008900087A005F01FF98AA005F01CF98AA005F0D1
:1008A00019F979A005F016F9002010BD10B50178EE
:1008B0004FF6F27000290FD151490A68012A0CD075
:1008C0000A68022A0BD00A685AB10968032903D1C1
:1008D0007FA005F0FFF8002010BD85A0F9E78CA0EF
:1008E000F7E796A0F5E710B5007810B14FF6F27073
:1008F00010BD4448007808B19AA000E09EA005F021
:10090000E9F8002010BD3EB5007810B14FF6F27046
:100910003EBD07F004FF03469CA20B21684609F088
:100920007DFC9BA005F0D6F8684605F0D3F89CA0A6
:1009300005F0D0F807F0BAFF034694A20B216846F1
:1009400009F06CFC97A005F0C5F8684605F0C2F800
:1009500093A005F0BFF807F0F5FF03468BA20B212B
:10096000684609F05BFC90A005F0B4F8684605F015
:10097000B1F88BA005F0AEF808F007F8034683A2A3
:100980000B21684609F04AFC88A005F0A3F86846E8
:1009900005F0A0F882A005F09DF807F04DFF034692
:1009A0007AA20B21684609F039FC84A005F092F880
:1009B000684605F08FF87AA005F08CF8824C05E1C6
:1009C0007C0600204C6F7261206E6F64652061644C
:1009D0006472657373206C656E677468204E4F5443
:1009E00020455155414C203642797465732E0D0ACD
:1009F00000000000D81800202530327800000000E8
:100A0000980400209D0400204E6F6465733D000033
:100A100025752000D00500204C6F72614761746518
:100A2000576179416464723D000000004C6F72614F
:100A300047617465576179416464723D4E554C4C11
:100A400000000000400D03004C6F72614D7941645D
:100A500064723D004C6F72614D79496E74657276B7
:100A6000616C3D004C6F7261476174655761793DFF
:100A70004E554C4C200000004C6F72614D79496E10
:100A800074657276616C3D300D0A0000555549441D
:100A90003D00000025303878000000004669726D86
:100AA0007761726556657273696F6E3D0000000074
:100AB000322E31332E323031372E30363230000084
:100AC00020666F7220000000535831323736000024
:100AD00053797374656D4F7065726174696F6E4D93
:100AE0006F64653D496E49646C650D0A0000000045
:100AF00053797374656D4F7065726174696F6E4D73
:100B00006F64653D496E4E6F726D616C0D0A000039
:100B100053797374656D4F7065726174696F6E4D52
:100B20006F64653D496E50726F647563745665728B
:100B3000696669636174696F6E0D0A005379737435
:100B4000656D4F7065726174696F6E4D6F64653D60
:100B5000496E50696E67506F676E546573740D0A05
:100B6000000000004C6F72614D6F64653D4D415354
:100B70005445520D0A0000004C6F72614D6F646560
:100B80003D534C4156450D0A00000000256400000D
:100B900052464672657175656E63793D00000000CE
:100BA0002020000042573D0053463D004572726FC1
:100BB00072436F64696E673D000000005246506FDB
:100BC0007765723D0000000064280020E57AF7A0F8
:100BD00004F080FF6DB107F061FF0346AFF25402ED
:100BE0000B21684609F01AFBF3A004F073FF684676
:100BF00000E0F3A004F06EFFAFF25C0004F06AFFC7
:100C000007F02BFF0546F0A004F064FF0DB1F2A041
:100C100000E0F4A004F05EFFAFF27C0004F05AFFA5
:100C200007F0F9FE0546F2A004F054FF0DB1F2A062
:100C300000E0F2A004F04EFFAFF29C0004F04AFF87
:100C400007F0DBFEC3B2AFF2BC020B21684609F02D
:100C5000E5FAEBA004F03EFF684604F03BFFAFF27C
:100C6000C00004F037FF07F059FF0346AFF2E4027B
:100C70000B21684609F0D2FAE5A004F02BFF684684
:100C800004F028FFAFF2E80004F024FF07F02CFF87
:100C90000346AFF208120B21684609F0BFFAE0A044
:100CA00004F018FF684604F015FFAFF20C1004F0D2
:100CB00011FFAFF228120B216846236909F0AEFA42
:100CC000DCA004F007FF684604F004FFAFF2301028
:100CD00004F000FFAFF24C120B216846636909F083
:100CE0009DFAD9A004F0F6FE684604F0F3FEAFF2D8
:100CF000682004F0EFFE00203EBD10B500784FF6EE
:100D0000F27408B1204610BDD448417F29B10129B1
:100D100005D0D3A004F0DEFEF4E7D7A000E0DCA00D
:100D200004F0D8FE002010BD0EB5007810B14FF6CB
:100D3000F2700EBD07F0F3FC0346AFF2B0120B21C8
:100D4000684609F06BFAAFF2B81004F0C3FE6846CB
:100D500004F0C0FEAFF2D02004F0BCFE00200EBDB7
:100D60001CB5007810B14FF6F2701CBDBB48B0F84E
:100D70002231AFF2E8120821684609F04FFAC9A003
:100D800004F0A8FE684604F0A5FEAFF2043004F0BB
:100D9000A1FE00201CBD0EB5007810B14FF6F27018
:100DA0000EBDAE48AFF21C2243690A21684609F025
:100DB00035FAA5A004F08EFE684604F08BFEAFF273
:100DC000383004F087FE00200EBD0EB5007810B15B
:100DD0004FF6F2700EBDA148AFF2502203690A210E
:100DE000684609F01BFA93A004F074FE684604F00C
:100DF00071FEAFF26C3004F06DFE00200EBD08B540
:100E0000007810B14FF6F27008BD07F015FD0346EB
:100E1000AFF288220421684609F000FAAFF264209C
:100E200004F058FE684604F055FEAFF2A43004F01A
:100E300051FE002008BD1CB5007810B14FF6F270CD
:100E40001CBD07F0DAFDC3B2AFF2C022062168462E
:100E500009F0E4F96AA004F03DFE684604F03AFEA9
:100E6000AFF2DC3004F036FE00201CBD00B5007887
:100E700089B018B14FF6F27009B000BD07F04EFE10
:100E800003468DA22021684609F0C8F9684604F09F
:100E900021FE07F029FE03468CA22021684609F0B6
:100EA000BDF9684604F016FE0020E5E710B50078AD
:100EB00010B14FF6F27010BD07F0ADFD04464CA026
:100EC00004F008FE0CB14CA000E04CA004F002FEBF
:100ED00083A004F0FFFD002010BD10B5007810B114
:100EE0004FF6F27010BD07F0B8FD044636A004F0CE
:100EF000F1FD0CB138A000E03AA004F0EBFD78A0C1
:100F000004F0E8FD002010BD1CB5007810B14FF6CC
:100F1000F2701CBD07F039FD0346AFF29032062196
:100F2000684609F07BF9AFF27C3004F0D3FD6846E7
:100F300004F0D0FD6AA004F0CDFD00201CBD1CB55E
:100F4000007810B14FF6F2701CBD07F0FBFC0346B1
:100F5000AFF2C8320621684609F060F9AFF2B83046
:100F600004F0B8FD684604F0B5FD5DA004F0B2FDE4
:100F700000201CBD1CB5007810B14FF6F2701CBDEE
:100F800007F094FC0346AFF2FC320621684609F0F4
:100F900045F9AFF2F03004F09DFD684604F09AFD8B
:100FA0004FA004F097FD00201CBD00004672657143
:100FB000486F704F6E3D0000747275650000000050
:100FC00066616C7365000000486561646572537406
:100FD000617475733D000000496D706C69636974DC
:100FE000000000004578706C6963697400000000BF
:100FF0004352433D000000004F4E00004F46460064
:10100000507265616D626C654C656E6774683D0019
:101010005061796C6F61644C656E6774683D000067
:101020004D61785061796C6F61644C656E6774686E
:101030003D00000054785061636B657454696D65C0
:101040006F75743D0000000052785061636B6574E9
:1010500054696D656F75743D0000000064280020C0
:1010600052464F7363696C6C61746F723D556E4B81
:101070006E6F776E0000000052464F7363696C6CB0
:1010800061746F723D4372797374616C000000008B
:1010900052464F7363696C6C61746F723D54435870
:1010A0004F000000536C6176655F506F6C6C5F544D
:1010B000696D656F75743D005061796C6F61644C4A
:1010C000656E6774683D2025642C20004D61785062
:1010D00061796C6F61644C656E6774683D2025644E
:1010E0000D0A00001CB5007810B14FF6F2701CBD5F
:1010F00007F062F80346AFF26C520621684609F029
:101100008DF8FAA004F0E6FC684604F0E3FCAFF2C8
:10111000300004F0DFFC00201CBD1CB5007810B1CD
:101120004FF6F2701CBD07F04AF80346AFF2A45226
:101130000521684609F072F8EEA004F0CBFC684681
:1011400004F0C8FCAFF2680004F0C4FC00201CBD31
:101150001FB5007818B14FF6F27004B010BD07F05B
:1011600032F88DED000BE5A2082102A809F056F82F
:10117000E4A004F0AFFC02A804F0ACFCAFF2A000C5
:1011800004F0A8FC0020E8E710B5007810B14FF695
:10119000F27010BDFEF763F92DE9F04704460078C0
:1011A0004FF6F279012818D1D8A1601C08F077FB1E
:1011B000D94EDA4DA0B1DAA1601C08F070FB4FF0F7
:1011C00000080927D8B1D8A1601C08F068FB00B35B
:1011D000D7A1601C08F063FB60B34846BDE8F08708
:1011E00001203060FF202876D348007810B103F04A
:1011F00064FC17E003F010FC03F0BBFC10E0FEF70A
:1012000015F9FEF703F9022030602F7685F80B8080
:1012100006E0FEF70BF9FEF7F9F8C6F800802F7626
:1012200004F047FDFEF729F9BC48FDF7D8FF6861D7
:10123000286107E0FEF7FAF8FEF7E8F803203060CF
:1012400004F037FD0020C9E710B501784FF6F274BD
:1012500001290AD1431C082207210120FEF753F976
:1012600018B1FEF71BFE002010BD204610BD10B5C2
:1012700001784FF6F27401290AD1431C0722114666
:101280000220FEF740F918B1FEF708FE002010BD5D
:10129000204610BD10B501784FF6F27401290AD12D
:1012A000431C092208210320FEF72DF918B1FEF78F
:1012B000F5FD002010BD204610BD10B501784FF699
:1012C000F27401290AD1431C082211460420FEF7BA
:1012D0001AF918B1FEF7E2FD002010BD204610BD3E
:1012E00010B501784FF6F27401290AD1431C072288
:1012F00008210520FEF707F918B1FEF7CFFD002001
:1013000010BD204610BD10B501784FF6F2740129CA
:101310000AD1431C092211460620FEF7F4F818B141
:10132000FEF7BCFD002010BD204610BD10B50178B1
:101330004FF6F27401290AD1431C08220921072023
:10134000FEF7E1F818B1FEF7A9FD002010BD204618
:1013500010BD10B501784FF6F27401290AD1431C73
:10136000072209210820FEF7CEF818B1FEF796FDF6
:10137000002010BD204610BD10B501784FF6F27464
:1013800001290AD1431C09220A211046FEF7BBF8A5
:1013900018B1FEF783FD002010BD204610BD10B52A
:1013A00001784FF6F27401290AD1431C0A21082260
:1013B0000846FEF7A8F818B1FEF770FD002010BD32
:1013C000204610BD10B501784FF6F27401290AD1FC
:1013D000431C07220A210B20FEF795F818B1FEF7EF
:1013E0005DFD002010BD204610BD10B501784FF600
:1013F000F27401290AD1431C08220B210C20FEF7AC
:1014000082F818B1FEF74AFD002010BD204610BD3D
:1014100010B501784FF6F27401290AD1431C072256
:101420000B210D20FEF76FF818B1FEF737FD0020F5
:1014300010BD204610BD10B501784FF6F274012999
:101440000AD1431C08220C210E20FEF75CF818B1CB
:10145000FEF724FD002010BD204610BD10B5017818
:101460004FF6F27401290AD1431C07220C210F20E8
:10147000FEF749F818B1FEF711FD002010BD204617
:1014800010BD10B501784FF6F274012904D1401C4B
:1014900008F070FA002801DA204610BD1F49A1F8B3
:1014A0002201FEF7FBFC002010BD70B501784FF65D
:1014B000F275012908D1401C08F05CFA04461F4867
:1014C0001F492044884201D3284670BD012006F000
:1014D000A5FD204607F004F910480460194800688B
:1014E00080688047FEF7DAFC002070BD52784761C3
:1014F000696E3D00534E523D0000000025332E32F0
:1015000066000000525353493D000000696E4E6F63
:10151000726D616C000000009804002064280020B7
:10152000696E505600000000696E544400000000CF
:10153000696E49646C6500009D040020C08BD5F77E
:10154000C182A134B004002010B50178012902D075
:101550004FF6F27010BD401C08F00CFAC4B2092C12
:1015600000D90924012006F059FD204607F08AF928
:10157000FD48FDF734FEFC4948610861FB480068FE
:1015800080688047FEF78AFC002010BD10B5017806
:10159000012902D04FF6F27010BD401C08F0EAF9A4
:1015A000C4B20C2C01D90C2402E0062C00D2062473
:1015B000012006F033FD204607F099F9EA48FDF7CF
:1015C0000EFEE94948610861E84800688068804784
:1015D000FEF764FC002010BD10B50178012902D08F
:1015E0004FF6F27010BD401C08F0C4F9C4B2042CD0
:1015F00001D9042401E004B90124012006F00EFD04
:10160000204607F0ACF9D848FDF7E9FDD649486116
:101610000861D648006880688047FEF73FFC0020DC
:1016200010BD70B5044600784FF6F27501280ED152
:1016300006F0F4FCAFF24061601C08F030F9CA4ECD
:1016400038B1AFF24861601C08F029F910B12846A2
:1016500070BD0120F072C64807F042F8FDF70DFF9B
:10166000FEF71CFCC148006880688047002070BD00
:1016700070B5044600784FF6F27601280CD106F0DA
:10168000CDFCBCA1601C08F00AF9B74D30B1BBA17C
:10169000601C08F004F930B1304670BD012007F03D
:1016A000C8F9012003E0002007F0C3F900206872A8
:1016B000AD48FDF794FD68612861AC48006880681A
:1016C0008047FEF7EBFB002070BD70B50446007844
:1016D0004FF6F27601280CD106F0A0FCA5A1601C03
:1016E00008F0DDF8A04D30B1A4A1601C08F0D7F8D7
:1016F00030B1304670BD012007F055F9012003E0FC
:10170000002007F050F9002028729748FDF767FD88
:10171000686128619548006880688047FEF7BEFBD5
:10172000002070BD10B50178012902D04FF6F2708B
:1017300010BD401C08F01EF910F0FF0400D1012478
:10174000012006F06BFC204607F0DBF98648FDF728
:1017500046FD85490861FEF7A1FB84480068806862
:101760008047002010BD10B50178012902D04FF646
:10177000F27010BD401C08F0FDF810F0FF0400D11D
:101780000124012006F04AFC204607F094F976482F
:10179000FDF725FD74494861FEF780FB734800683A
:1017A00080688047002010BD10B50178012902D063
:1017B0004FF6F27010BD401C08F0DCF884B2062C25
:1017C00000D20624012006F029FC204607F000F98B
:1017D0006548FDF704FD64494861086163484C832E
:1017E000006880688047FEF759FB002010BD2DE996
:1017F000F041044600784FF6F276012822D1614884
:10180000006801281ED160A1601C08F048F8604DF6
:1018100020B9287810B10020BDE8F0815DA1601CDE
:1018200008F03DF829780843F6D002F0ECFF56A105
:10183000601C08F034F8002730B156A1601C08F095
:101840002EF840B13046E7E701202870FDF7DEFDB5
:1018500003F033F908E02F70FDF7E8FD03F0DCF842
:1018600003F087F904F025FA4C48078002F0B8FF2E
:10187000FDF703FECFE770B5044600784FF6F2752A
:1018800001280AD13BA1601C08F009F8444E30B190
:101890003AA1601C08F003F810B1284670BD012081
:1018A0003070FDF7EAFD002070BD70B501784FF68D
:1018B000F275012906D1401C08F05CF8C4B2601F23
:1018C000102801D3284670BD012006F0A7FB112C7B
:1018D00001D9012000E0002007F02DF960B2044694
:1018E00006F043FF20480471204800688068804764
:1018F000FEF7D4FA002070BD007810B14FF6F270F8
:10190000704728490120087000207047007810B106
:101910004FF6F2707047234900200870704710B5E9
:1019200004F0EFF9002010BD10B5007810B14FF6AB
:10193000F27010BD04F0C2F9002010BD10B501789E
:101940004FF6F274012933D1401C08F013F8164900
:10195000164A014491422BD204F000FA18B1FEF766
:101960009DFA002010BD23E064280020B004002070
:10197000C0CA8936454E41424C4500004449534156
:10198000424C4500980400204D41535445520000FC
:101990009D040020534C4156450000001C050020CA
:1019A0009C04002058050020C08BD5F7C182A134CB
:1019B0002046D7E700B589B000F023FE80490346F2
:1019C00080A208802021684608F028FC684604F0C0
:1019D00081F8002009B000BD10B5017888B0012958
:1019E00003D04FF6F27008B0BCE7401C07F0C2FF0E
:1019F000734C00B2208000F01CFE08B10020F2E71A
:101A0000B4F9003073A22021684608F007FC68464C
:101A100004F060F8F2E700B589B076A004F05AF857
:101A200000F0EFFD034677A22021684608F0F6FBA0
:101A3000684604F04FF80020CCE710B575A004F01C
:101A400049F800208EE710B50178012902D04FF641
:101A5000F27087E7401C07F08DFF10F0FF0000D008
:101A6000012000F0AFFA00207CE710B501780129D1
:101A700002D04FF6F27075E7401C07F07BFFC4B24E
:101A80002146012000F0CBFA204604F074F8002033
:101A900068E708B50178012902D04FF6F27008BD59
:101AA000401C07F067FFADF80000684603F092FDA8
:101AB000002008BD08B50178012902D04FF6F27068
:101AC00008BD401C07F056FFADF80000684603F063
