:020000040800F2
:10C00000105B002015F1000839F100083BF1000831
:10C0100043F100084BF1000853F100080000000054
:10C020000000000000000000000000005BF10008BC
:10C030005DF10008000000005FF1000861F10008F8
:10C040002FF100082FF100082FF100082FF1000850
:10C050002FF100082FF10008CB4C0108EB4C010830
:10C060002FF100082FF100080D4D01082FF10008F5
:10C070002FF100082FF100082FF100082FF1000820
:10C080002FF100082FF100082FF100080000000038
:10C090000000000000000000000000002FF1000878
:10C0A000C94F01082FF100082FF100082FF10008F7
:10C0B0002FF100082FF10008F75B01082FF10008AD
:10C0C0002FF100082FF100082FF100082FF10008D0
:10C0D0002FF100080F5E0108396001080000000020
:10C0E0002FF10008C35201082FF1000800000000E2
:10C0F0000000000000000000000000002FF1000818
:10C10000000000002FF100082FF100082FF10008B7
:10C11000000000000000000000000000000000001F
:10C120002FF100082FF100082FF100082FF100086F
:10C130002FF10008000000000000000000000000D7
:10C140000000000000000000000000002FF10008C7
:10C150002FF100082FF100082FF100082FF100083F
:10C160002FF100082FF1000800000000000000007F
:10C1700000000000000000000000000000000000BF
:10C18000000000002FF10008000000000000000087
:10C190002FF10008DFF80CD00DF00CFD004800472F
:10C1A00093350108105B002028490843284908609E
:10C1B000704730B50F23C27801780125FAB1244ABF
:10C1C000126801F1E02102F4E062C2F5E062C2F31C
:10C1D0000722C2F10404D3404278A24084781C4074
:10C1E0001443220181F80024007800F01F018D40E3
:10C1F0004009800000F1E020C0F8005130BD01F09E
:10C200001F0085404809800000F1E020C0F88051FF
:10C2100030BD104A114001430D48001F01607047B6
:10C220000B4A121D0029116801D0014300E081432F
:10C23000116070474FF0E0210428086903D020F016
:10C2400004000861704740F00400FAE70000FA05B6
:10C250000CED00E080FFFF1F10B501210C0220460D
:10C2600001F04EF92046BDE81040002101F048B928
:10C2700030B54268C84B0C791A400B6842EA042278
:10C28000134343608268C54B4D791A40D1E903439B
:10C2900023438C6844EA4504234313438360C26A02
:10C2A000097D22F47002491EC9B242EA0151C162FD
:10C2B00030BD00210160017141718160C160016187
:10C2C000012101757047B64B10B5D3F80423B54969
:10C2D0000A40D0E900142143D0E90240044321433D
:10C2E0001143C3F8041310BD002101604160816057
:10C2F000C16070470029816802D041F0010101E06E
:10C3000021F00101816070474268A74B1A400A433F
:10C3100042607047416282627047426822F01F02A9
:10C320000A43426070479E490028D1F8040302D0B6
:10C3300040F4000001E020F40000C1F8040370475D
:10C3400097490028D1F8040302D040F4800001E0AE
:10C3500020F48000C1F80403704770B5072609294E
:10C360000AD9C568A1F10A0404EB4404A640B54308
:10C37000A3401D43C56007E0056901EB4104A640E9
:10C38000B543A3401D4305611F23072A09D2446B0F
:10C39000521E02EB820293409C4391400C43446343
:10C3A00070BD0D2A09D2046BD21F02EB82029340AA
:10C3B0009C4391400C43046370BDC46A0D3A02EB88
:10C3C000820293409C4391400C43C46270BD8168DB
:10C3D00041F0804181607047014600208968490032
:10C3E00000D5012070470029816802D041F48061A6
:10C3F00001E021F48061816070470029816802D0EA
:10C4000041F0020101E021F00201816070474268C1
:10C41000491E22F4604242EA4131416070470029DE
:10C42000416802D041F4006101E021F40061416003
:10C430007047C06C80B270475948D0F80803704705
:10C440000029816802D041F4807101E021F48071FB
:10C45000816070470029816802D041F4007101E0D9
:10C4600021F40071816070474D490028D1F8040320
:10C4700002D040F4005001E020F40050C1F8040361
:10C48000704770B5072609290AD9C568A1F10A04C1
:10C4900004EB4404A640B543A3401D43C56007E038
:10C4A000056901EB4104A640B543A3401D43056166
:10C4B000836BC3F30154121B921C02EB82021F24F4
:10C4C0009440A34391400B43836370BD826B491E2C
:10C4D00022F4401242EA01518163704708B50844D2
:10C4E0000090026008BD826822F470220A438260D4
:10C4F0007047826822F440120A4382607047816864
:10C5000041F480018160704701460020896849023A
:10C5100000D5012070470029416802D041F48061B4
:10C5200001E021F48061416070470029416802D038
:10C5300041F4805101E021F480514160704708B519
:10C54000084428300090006880B208BD01238B4069
:10C5500041680AB1194300E09943416070470246BF
:10C56000002012680A4200D001207047C9430160D0
:10C57000704730B50246002053680C0A01258D40F3
:10C5800011682B40214202D0002B00D0012030BD89
:10C590006FEA112101607047FFFEFFFCFDF7FFC04D
:10C5A00000200140E030FCFFFFFD3FFF2DE9F0439C
:10C5B000016821F00101016000210160416081609A
:10C5C000C160016121214161B849B84A3D25103956
:10C5D000904202D18D60BDE8F083B44A4FF4746696
:10C5E0001832904201D18E60F5E7B04A4FF47417CB
:10C5F0003032904201D18F60EDE7AC4A4FF0746C5D
:10C600004832904202D1C1F808C0E4E7A74BA84ADB
:10C610006033984201D1CA60DDE7A44CA54B783461
:10C62000A04201D1CB60D6E7DFF88082A24C08F1AE
:10C630009008404501D1CC60CDE7DFF870824FF023
:10C640003D5908F1A808404502D1C1F80C90C2E755
:10C650009A49DFF868820839404501D10D60BAE790
:10C66000964D1835A84201D10E60B4E7934D303590
:10C67000A84201D10F60AEE7904D4835A84202D1E3
:10C68000C1F800C0A7E78D4D8C496035091FA8424D
:10C6900001D10A609FE7894A7832904201D10B604C
:10C6A00099E7864A9032904201D10C6093E7834A21
:10C6B000A83290428FD1C1F800908CE730B5036862
:10C6C0007F4ACC6813400A682243D1E905452C43D0
:10C6D0002243CC6922430C6A22434C6A22438C6A6F
:10C6E00022434C6B22438C6B22431A430260426903
:10C6F00022F00703D1E90B2422431A4342610A695D
:10C7000042604A6882608968C16030BD0021016072
:10C7100041608160C160016141618161C16101620B
:10C7200041628162C1620163416381637047002994
:10C73000016802D041F0010101E021F00101016036
:10C7400070470029016802D041F4004101E021F462
:10C750000041016070470029016802D041F02001CA
:10C7600001E021F02001016070474160704740689E
:10C7700080B27047002A026802D042F4002201E031
:10C7800022F400220260016170470029016802D092
:10C7900041F4802101E021F48021016070470AB159
:10C7A00001617047C16070470146002009680903B4
:10C7B00000D501207047014600200968C90700D054
:10C7C00001207047406900F03800704702463B4B3B
:10C7D00000209A4202D2354A103A01E0374A103A14
:10C7E0008B0001D5526800E01268364B1A400A42AD
:10C7F00000D001207047314A904202D22B481038B5
:10C8000001E02E4810382F4A8B0001EA020101D5C1
:10C81000C1607047816070470B0607D5436912B14C
:10C8200043F0800301E023F080034361802908D0B6
:10C83000002A026801F01E0101D00A4300E08A4389
:10C840000260704730B51D4A0024904202D2174A58
:10C85000103A01E0194A103A1B4B194205D01E2329
:10C8600003EAD12503682B4002E0406900F0800311
:10C87000880001D5506800E01068124A1040084254
:10C8800001D003B10124204630BD0C4A904202D2AF
:10C890000648103801E0094810380A4A8B0001EABE
:10C8A000020101D5C160704781607047106002408D
:10C8B0003D000020400F002000003D201064024099
:10C8C0003F801CF07D0F7D0F3C0F3C0F3549002051
:10C8D0000860091D0860091D0860091D08603149CC
:10C8E000314814310860704730B52E4A83790168A9
:10C8F00053B313688B431360111D0B680468A34383
:10C900000B60017911440B68046823430B60254BCD
:10C91000083319680468A14319601C1D2168056863
:10C92000A94321604179102905D011440A680068A3
:10C9300002430A6030BD196802681143196021681A
:10C9400000680143216030BD0079104402688A43C9
:10C95000026030BD0021016001710C2242718171C1
:10C960007047104910310A6802430A607047014657
:10C970000C4A0020143212680A4200D0012070478D
:10C9800008491431086070470146064A00201432F5
:10C9900012680A4200D00120704702491431086031
:10C9A00070470000003C0140FFFF7F00F94908701C
:10C9B0007047F8490028086802D040F4807001E010
:10C9C00020F4807008607047F2490028086802D09F
:10C9D00040F4007001E020F4007008607047ED49F9
:10C9E0000028086802D040F4806001E020F48060F4
:10C9F00008607047E748016841F4006101607047D2
:10CA0000E448016841F4805101607047E14810300A
:10CA10000068002805DADF48DF49001D0160DF49B2
:10CA200001607047DB481030016841F0004101604F
:10CA30007047D84909200C310A68D20301D501207A
:10CA400070470A68D20601D5062070470A68D205E9
:10CA500001D5022070470A6812F0E00F01D00720CC
:10CA6000704709688907FBD50820704708B5092079
:10CA70008DF80000FFF7DDFF8DF800009DF8000045
:10CA80000128F7D09DF8000008BD70B506460025C6
:10CA900029B1012928D0022929D04FF44075FFF788
:10CAA000E5FF09281FD1BB4C1034206820F44070EA
:10CAB0002060206828432060206820F0F800206073
:10CAC000206846F0020108432060206840F480306E
:10CAD0002060FFF7CBFF216821F00201216021686F
:10CAE00021F0F801216070BD4FF48075D7E74FF455
:10CAF0000075D4E730B504460025FFF7B7FF2CB129
:10CB0000012C1DD0022C1ED04FF44075092816D1DF
:10CB1000A04C1034206820F4407020602068284326
:10CB20002060206840F004002060206840F48030DD
:10CB30002060FFF79BFF216821F00401216030BDD8
:10CB40004FF48075E2E74FF40075DFE730B5044637
:10CB50000025FFF78BFF2CB1012C1DD0022C1ED01D
:10CB60004FF44075092816D18A4C1034206820F4FF
:10CB700040702060206828432060206840F0040056
:10CB80002060206840F480302060FFF76FFF21684C
:10CB900021F00401216030BD4FF48075E2E74FF4CD
:10CBA0000075DFE730B504460025FFF75FFF2CB1C5
:10CBB000012C1DD0022C1ED04FF44075092816D12F
:10CBC000744C1034206820F44070206020682843A2
:10CBD0002060206840F400402060206840F48030ED
:10CBE0002060FFF743FF216821F40041216030BD40
:10CBF0004FF48075E2E74FF40075DFE7F0B51646B5
:10CC00001F460546FFF732FF092815D1614C103445
:10CC1000206820F440702060206840F4407020605C
:10CC2000206840F0010020602E606F60FFF71EFF5B
:10CC3000216821F001012160F0BD70B50D46064666
:10CC4000FFF714FF092814D1524C1034206820F447
:10CC500040702060206840F400702060206840F040
:10CC6000010020603560FFF701FF216821F001011C
:10CC7000216070BD70B50D460646FFF7F7FE092826
:10CC800014D1444C1034206820F440702060206897
:10CC900040F480702060206840F001002060358002
:10CCA000FFF7E4FE216821F00101216070BD70B53D
:10CCB0000D460646FFF7DAFE092812D1354C10342E
:10CCC000206820F44070206020682060206840F0D8
:10CCD000010020603570FFF7C9FE216821F00101D5
:10CCE000216070BD2B4814300068C00705D029486A
:10CCF0002B49083001602B490160704725481430EA
:10CD0000016841F001010160704730B50D460446ED
:10CD1000FFF7ACFE092807D11E48163001880DB177
:10CD2000A14300E02143018030BD30B50D460446EB
:10CD3000FFF79CFE092807D116481A3001880DB16B
:10CD4000A14300E02143018030BD124A173211781F
:10CD500001F07F0108431070704730B50D4604465E
:10CD6000FFF784FE092807D10A4A163210880DB150
:10CD7000204300E0A043108030BD30B50D4604468E
:10CD8000FFF774FE092811D1024A1A3210885DB1EA
:10CD900020430AE0003C024023016745AB89EFCD08
:10CDA0003B2A19087F6E5D4CA043108030BD10B542
:10CDB0000446FFF75BFE092801D13548047010BD19
:10CDC00070B515460C460646FFF750FE092808D1F7
:10CDD0002F49491E087800F00F0004432C433443C8
:10CDE0000C7070BD2A49491E0A7822F010020A70A0
:10CDF0000A7802430A7070472549491E0A7822F0D2
:10CE00000C020A700A7802430A7070472048401EDC
:10CE1000017841F00201017028E61D48401E0068BB
:10CE2000C0F3471070471A48401C008870471848E4
:10CE3000401D008870471648401C00887047144801
:10CE4000401D00887047124900200978AA2900D0A7
:10CE5000012070470E48401E007800F00C0070471B
:10CE60000B4A521F0029116801D0014300E08143A1
:10CE7000116070470146064A0020093A12680A42CA
:10CE800000D001207047024909390860704700004E
:10CE9000153C0240774910B5884206D10121084669
:10CEA00000F010FB002101205BE07349884206D1AD
:10CEB0000121022000F006FB0021022051E06F4911
:10CEC000884206D10121042000F0FCFA0021042050
:10CED00047E06B49884206D10121082000F0F2FAB0
:10CEE000002108203DE06749884206D10121102039
:10CEF00000F0E8FA0021102033E06349884206D1AF
:10CF00000121202000F0DEFA0021202029E05F49E5
:10CF1000884206D10121402000F0D4FA00214020AF
:10CF20001FE05B49884206D10121802000F0CAFA47
:10CF30000021802015E05749884202D10121841543
:10CF40000AE05549884202D10121441504E05349C1
:10CF500088420AD101210415204600F0B3FA0021CD
:10CF60002046BDE8104000F0ADBA10BDF0B500227B
:10CF700001274FF0030C0B6807FA02F52B40AB4278
:10CF80002CD1066853000CFA03F4A64306600E7910
:10CF9000D0F800E09E4046EA0E0606600E79012EAB
:10CFA00001D0022E12D18668A64386604E79D0F851
:10CFB00008E09E4046EA0E0686604668AE4346603C
:10CFC00045688E799640B6B235434560C568A5433D
:10CFD000C560CC799C40C3681C43C460521C102AB5
:10CFE000C9D3F0BD4FF6FF7101600021017141719D
:10CFF0008171C171704708B541F480320092C261FD
:10D00000C1610099C161C169C069009008BD024653
:10D01000002012690A4200D001207047006980B2E6
:10D0200070470246002052690A4200D00120704732
:10D03000406980B2704701837047418370470AB1ED
:10D0400001837047418370474161704742694A409C
:10D05000426170474B07DB0E9A40C90810B500EBE0
:10D060008100016A0F249C40A1430162016A1143BF
:10D07000016210BD000002400004024000080240AE
:10D08000000C024000100240001402400018024050
:10D09000001C024000200240002402400028024000
:10D0A00010B501210C07204600F020FA2046BDE80B
:10D0B0001040002100F01ABA404908627047404A07
:10D0C000116821F0E0010143116070473B4908619C
:10D0D00070473A49C1F8A00070473849C1F8A40028
:10D0E0007047374A116821F440410143116070478D
:10D0F0003249086470473149486470473049002814
:10D10000086802D040F4402001E020F4402008608C
:10D1100070472A4900B10120C8627047274900B111
:10D12000012088627047254948627047244B10B53A
:10D130001A6840F60344A24302431A602148026879
:10D1400042F004020260012905D020BF016821F0ED
:10D150000401016010BD30BFF8E7194B10B51A6823
:10D1600040F60344A24302431A601648026842F0A4
:10D1700004020260012905D020BF016821F00401EA
:10D18000016010BD30BFF8E70D48016841F00201B1
:10D1900001600C48016841F00401016030BF704734
:10D1A000074A0146002052680A4200D00120704719
:10D1B00003490A6842EA80000860704700000E4296
:10D1C0000070004010ED00E0F948016841F00101F5
:10D1D0000160F74A0021083211600268F54B1A40DD
:10D1E0000260031DF44A1A60F14BF44A84331A605A
:10D1F000026822F480220260ED480C300160EC48A5
:10D200008C3001607047EA490022891C0A7008705E
:10D21000704702460020510901290CD002290CD088
:10D22000E3497431096802F01F02012393400B4265
:10D2300000D001207047DE49F4E7DD497031F1E7A5
:10D2400018B500204FF4A04400903120FFF7E1FF13
:10D250000099491C0091A14201D00028F5D031204D
:10D26000FFF7D7FF002800D0012018BDD04A116871
:10D2700021F0F80141EAC00010607047D049086011
:10D280007047CB49002270310A700A70012802D021
:10D29000042801D1052008707047CA49086070470A
:10D2A00041EA82115A0810B5C74B029C03EB0242B7
:10D2B0001143014341EA0460BD49091D086010BDE6
:10D2C000BF4908667047800140EA0170B84984315F
:10D2D00008607047BA4988667047800140EA01607B
:10D2E000B34940EA0270883108607047B449086762
:10D2F0007047B349C8647047AD4B08331A68084398
:10D3000022F0EC62104318607047A94B08331A688A
:10D31000084322F07842104318607047A44A08324C
:10D32000116821F00301014311607047A0480830E3
:10D33000006800F00C0070479D4A0832116821F027
:10D34000F001014311607047994A0832116821F4D5
:10D35000E051014311607047954A0832116821F489
:10D36000604141EAC0001060704770B5904B0833CF
:10D370001968964C11F00C0104D0954E042903D085
:10D38000082903D004601BE0066019E0884A121DDA
:10D390001168C1F38055116801F03F0115B1B6FB6A
:10D3A000F1F101E0B4FBF1F114681268C4F38814E0
:10D3B0006143C2F30142521C5200B1FBF2F1016021
:10D3C00019680F2202EA1111824A545C0168E14097
:10D3D00041601C68072505EA9424145D21FA04F4D1
:10D3E00084601B6805EA5333D25CD140C16070BDD4
:10D3F000C0F30121032908D16D4B08331968764A1F
:10D4000021F4F81102400A431A60694970310A6830
:10D41000C0F30B0002430A6070476A494439086050
:10D42000704768494039086070476549C1F85C0138
:10D4300070475F4A8C321168401E21F01F01014382
:10D44000116070475A4A8C3211686FF0FF0321F463
:10D45000F85103EB0020084310607047544A8C32A7
:10D46000116821F440310143116070475B49C1F8F4
:10D47000E00170474E4A30320029116801D0014363
:10D4800000E0814311607047494A34320029116835
:10D4900001D0014300E0814311607047444A4032AB
:10D4A0000029116801D0014300E0814311607047F9
:10D4B0003F4A44320029116801D0014300E0814312
:10D4C000116070473A4A10320029116801D00143B7
:10D4D00000E0814311607047354A14320029116819
:10D4E00001D0014300E0814311607047304A20328F
:10D4F0000029116801D0014300E0814311607047A9
:10D500002B4A24320029116801D0014300E08143F5
:10D5100011607047264A50320029116801D001433A
:10D5200000E0814311607047214A5432002911689C
:10D5300001D0014300E08143116070471C4A603212
:10D540000029116801D0014300E081431160704758
:10D55000174A64320029116801D0014300E0814379
:10D5600011607047124970310128086803D020F01B
:10D5700008000860704740F00800FAE70C4A0D32D6
:10D580000029117801D0014300E0814311707047F8
:10D5900007487430016841F08071016070470146AE
:10D5A000034A00200C3212680A4200D00120704762
:10D5B00000380240FFFFF6EA10300024003000205F
:10D5C00000004742800E47420000FFFF0024F400A5
:10D5D00080BA8C0100000020FFFCFF0F00104742C2
:10D5E00001490870E3E700000E38024018B500203A
:10D5F000FA4B0090CA20186053201860F749183978
:10D60000086820F0A00008604FF400340868009A11
:10D6100000F02000521C0092A24201D00028F5D058
:10D620000868800601D5012000E00020FF21196074
:10D6300018BD08B5E949002018390090086840066F
:10D6400012D44FF0FF3008608B130868009A00F086
:10D650004000521C00929A4201D00028F5D0086880
:10D66000400601D4002008BD012008BD78B5002483
:10D67000DA4ECA2000942546306053203060FFF710
:10D68000D8FFE0B3D54824380460D44942F20110F1
:10D69000203908600B1D186800F0070018608D1312
:10D6A0001A1D1068009900F00400491C0091A9425D
:10D6B00001D00028F5D01068400729D518681C60F3
:10D6C000C6494FF6FF7010390860091FC44808604A
:10D6D000C2480C380460001D0460001D0460BF488F
:10D6E00008300460BD4818300460BC482030046035
:10D6F000001D04601460B9481C30046000E003E0C1
:10D70000FFF774FF20B10125FF203060284678BD67
:10D710000025F9E7B1481838016821F0800101605F
:10D72000704770B5AD4E04460025CA2030605320C6
:10D730003060FFF77EFFA8B1A8481C38016821F0CF
:10D74000400101600168226811430160A348A1689B
:10D75000143801600168A28841EA02410160FFF7C4
:10D76000D9FF0125FF203060284670BD00210160EF
:10D770007F214160FF2181607047984908B1FF20F7
:10D7800002E0CA20086053200860704770B5934ECD
:10D7900005460024CA20306053203060FFF749FF5F
:10D7A00060B18E481C38016815B141F0100101E0EC
:10D7B00021F010010160FFF7ADFF0124FF20306070
:10D7C000204670BD854ACA211160532111608349EA
:10D7D0001C390028086802D040F0200001E000F069
:10D7E000DF000860FF20106070472DE9F0410C4613
:10D7F00000267C4F01002078396832464FEA4161AB
:10D8000004D000292FDA00F008FC2DE0002900DB0D
:10D81000E27000F0F6FB0504607800F0F2FB45EAE8
:10D820000025A07800F0EDFB0543E07845EA0045CF
:10D830006A4CCA20206053202060FFF7FAFE68B1CE
:10D8400069480540674808380560FFF763FF386896
:10D85000800602D4FFF7CAFE00B10126FF20206037
:10D860003046BDE8F081E270A078217840EA0145B9
:10D870006078E178000240EA01400543D8E70021E2
:10D88000C1700170417081707047020010B5574837
:10D890000C460168544801EA0001C1F305402070BC
:10D8A000C1F30623637001F07F03A3704FF04003C0
:10D8B00003EA1141E1700AD100F0AFFB20706078FB
:10D8C00000F0ABFB6070A07800F0A7FBA07010BD6B
:10D8D0004248001D00684349091F0968704770B538
:10D8E0000C460026010060780FD000F096FBA0786F
:10D8F00000F093FBA078E17840EA01456078217858
:10D90000000240EA4130054315E0C10603D520F08E
:10D9100010000A306070E07800F073FB0504607856
:10D9200000F06FFB45EA0025A07800F06AFB054394
:10D93000207845EA4035294CCA20206053202060D9
:10D94000FFF777FE70B12A4805402648001F0560A2
:10D95000FFF7E0FE23480068800602D4FFF746FE8A
:10D9600000B10126FF202060304670BD012101700A
:10D97000817041700021C1707047020010B51D48D0
:10D980000C4601681A4801EA00014FEA1140E070B4
:10D99000C1F30423637001F03F03A370C1F342316C
:10D9A00021700AD100F039FBE070607800F035FB9F
:10D9B0006070A07800F031FBA07010BD70B5144607
:10D9C0000D46084A0021002810684FEA406013D035
:10D9D00000282ADA207800F020FB27E024280040E5
:10D9E000FF007F00082800407F7F7F000028004064
:10D9F0003FFFFF0004280040002800DBE170207892
:10DA000000F0FFFA0604607800F0FBFA46EA002610
:10DA1000A07800F0F6FA0643E07846EA0046207B5C
:10DA200000F0EFFA46EA006010E0E170207B00F0C1
:10DA3000F4FAA0782178E27840EA0140617809029E
:10DA400041EA02410843217B40EA0160A1680843A2
:10DA500061680843F849CA220A6053220A60B5F592
:10DA6000807F04D00A1F1060FF20086070BDF24A5A
:10DA7000083AF8E70021C1700170417081700122FD
:10DA8000816002734160704710B514460246B1F5DB
:10DA9000807F2AD0E848001F0168C1F3054020704C
:10DAA000C1F30623637001F07F03A370402303EAF0
:10DAB0001143E370C1F30563237301F0804301F068
:10DAC0008031C4E90113002A0ED100F0A6FA2070BB
:10DAD000607800F0A2FA6070A07800F09EFAA07062
:10DAE000207B00F09AFA207310BDD3480838D3E7A2
:10DAF00038B50022D04C0092CA2222605322226004
:10DB0000CD4A1C3A0029116802D00143116012E08D
:10DB100081431160C84A183A95131168009B01EAC5
:10DB200010215B1C0093AB4201D00029F5D0116895
:10DB300011EA102000D00120FF21216038BD10B56E
:10DB4000BD4BCA241C6053241C601143B0F5807F78
:10DB500005D0B94824300160FF20186010BDB648D8
:10DB60002030F8E7B0F5807F05D0B3482430006856
:10DB7000C0F30E007047B0482030F8E7AE4ACA2123
:10DB8000116053211160AC491C390B6823F0070365
:10DB90000B600B6803430B60FF2010607047A649C1
:10DBA000CA220A6053220A60A34A103A1060FF207A
:10DBB00008607047A0481038006880B2704718B5F8
:10DBC00000219D4B0091CA211960532119609A4987
:10DBD0001C390028086803D040F48060086014E015
:10DBE00020F480600860944918398C130868009A02
:10DBF00000F00400521C0092A24201D00028F5D08F
:10DC00000868400701D4002000E00120FF211960CE
:10DC100018BD894B10B5CA221A6053221A60864A71
:10DC20001C3A146824F480241460146808430443E4
:10DC30001460FF20186010BD7F481C38006800F495
:10DC4000802070477C4B10B5CA221A6053221A609C
:10DC5000794A1C3A146824F4E004146014680843F8
:10DC600004431460FF20186010BDF0B5724D0646E5
:10DC70000024CA200F46286053202860FFF7D9FCF3
:10DC800030B16D483E430C380660FFF743FD012478
:10DC9000FF2028602046F0BD70B5674E0546002481
:10DCA000CA20306053203060FFF7C3FC60B1624887
:10DCB0001C38016815B141F0800101E021F08001BC
:10DCC0000160FFF727FD0124FF203060204670BD72
:10DCD000594ACA2111605321116057491C39002843
:10DCE000086802D040F4000001E020F40000086061
:10DCF000FF2010607047504ACA2111605321116003
:10DD00004D491C390B6823F400230B600B68034357
:10DD10000B60FF2010607047F0B5474D0023CA2408
:10DD20002C6053242C60444C183C2668F60308D51C
:10DD30004FF400362768FF0303D5B34201D05B1CC4
:10DD4000F8E72368DB0306D408433B491043183146
:10DD50000860012000E00020FF212960F0BD364B63
:10DD600010B51C3B1A6840F60804A24342EA0002C0
:10DD700009B142F400623048CA21016053210160B8
:10DD80001A60FF21016010BD70B50D462A49144686
:10DD90000C310968294A1140274A103212684FF69F
:10DDA0003F731A40C1F305432B70C1F306236B7018
:10DDB00001F07F03AB70402303EA1141E9700021B9
:10DDC000E170C2F30421617002F03F01A170C2F35F
:10DDD00042312170002817D1287800F01EF92870F0
:10DDE000687800F01AF96870A87800F016F9A87041
:10DDF000607800F012F96070A07800F00EF9A07061
:10DE0000207800F00AF9207070BD0B4814300068CB
:10DE10007047094A1C320029116803D041EA4000CA
:10DE20001060704721EA4000FAE7034A1C320029DB
:10DE3000116805D0014304E0242800407F7F7F0063
:10DE400081431160704779490A6822F4C0520A6020
:10DE50000A6802430A60704774490A6822F4E06263
:10DE60000A600A6802430A60704770490A6822F42F
:10DE7000C0420A600A6802430A6070476B49002882
:10DE8000086802D040F0800001E020F080000860C7
:10DE9000704766490028086802D020F4004001E07D
:10DEA00040F4004008607047604A08B5103202EB49
:10DEB00080000090016008BD5C4908B5103101EB9D
:10DEC00080000090006808BD58490A6822F480323A
:10DED0000A600A6802430A60704754490A6822F4DB
:10DEE00000320A600A6802430A6070474F490A68B4
:10DEF00022F480220A600A6802430A60704770B503
:10DF00004A4C0022CA231C3C236053232360474B06
:10DF1000343B1D682D0707D59E141D682D0703D5BA
:10DF2000B24201D0521CF8E71A6812070DD43F4ADA
:10DF3000383A1268D20608D401433C4814380160CC
:10DF4000FFF754FB10B1012000E00020FF21216009
:10DF500070BD30B5354DCA221C3D2A6053222A605F
:10DF6000324C20F00402383C0029304B216800F08C
:10DF7000040004D0114321601968014303E0914378
:10DF80002160196881431960FF20286030BD024676
:10DF90002649002034390968254B1940114200D028
:10DFA0000120704780B240F08000C1431F483438E0
:10DFB000026802F080021143016070471B4A002191
:10DFC000126802F00403194A383A126803EAD0339F
:10DFD00002401A43174B1B6803EA101003D00004D9
:10DFE000000C00D0012108467047C0F30F1040F02C
:10DFF0008000C1430F48026802F0800211430160B3
:10E000007047002103E0491C0A38C9B2C0B20A288F
:10E01000F9D2090740EA11607047010901EB81015B
:10E0200000F00F0000EB4100C0B2704740280040F4
:10E030007F3F01000C280040C14910B5884202D141
:10E040000121841424E0BF49884202D10121041433
:10E0500004E0BD4988420AD10121C4132046FFF7DC
:10E0600045FA2046BDE810400021FFF73FBAB74906
:10E07000884202D1012144140AE0B549884202D104
:10E0800001210C0504E0B34988420AD101214C0565
:10E090002046FFF735FA2046BDE810400021FFF783
:10E0A0002FBA10BD30B502884C8802F441530A885B
:10E0B000CD8822438C882C4322430C8922434C89EF
:10E0C00022438C892243CC8922431A430280828BCB
:10E0D00022F400628283098A018230BDF0B50222F7
:10E0E0000023858B01244FF240063540858302844E
:10E0F000868B8D68022D3DD08A8802B10224964A13
:10E1000013681B0203D5136823F400031360924ABB
:10E110007C3213681268C3F388138F4FC2F3027204
:10E120003F1F3D683F6805F03F057F0201D58B4FDB
:10E1300000E08B4FB7FBF5F55D43B5FBF2F2CB8802
:10E14000B3F5007F2BD06301B2FBF3F202EB820246
:10E150008B685200B2FBF3F2521D92B20A23B2FB5B
:10E16000F3F202F00103D21A4FF6FF74C2F34F022A
:10E1700004EA0323941EFE2C01D302220023CC8840
:10E180001A43144304840A884B881A438B8889896C
:10E190000B431A43324342F400618183F0BD120AFB
:10E1A000D4E70021018041808180C18001814181CB
:10E1B0008181C18107210182704700210180418056
:10E1C0008180C1800222826081817047002901889C
:10E1D00002D041F0400101E021F040010180704790
:10E1E0000029818B02D041F4806101E021F480613B
:10E1F00081837047028822F40062028002880A4309
:10E2000002807047B1F5804F018803D021F480412E
:10E210000180704741F48041FAE7A1F57E42018810
:10E22000FF3A02D041F4807101E021F48071018055
:10E2300070470029818802D041F0040101E021F0FB
:10E240000401818070470029818802D041F01001CB
:10E2500001E021F010018180704730B5828B0023EE
:10E260004FF240042240828302220284848B0A8877
:10E270004FF48075B2F5007F00D002B92B464A8872
:10E280008D8889892A4319430A43224342F4006155
:10E29000818330BD80897047818170470029018862
:10E2A00002D041F4005101E021F400510180704797
:10E2B000018841F4805101807047012901D0008B11
:10E2C0007047808A7047008A7047002A828801D090
:10E2D0000A4300E08A4382807047090901238B408A
:10E2E000002A828899B201D00A4300E08A438280E2
:10E2F00070470246002012890A4200D00120704770
:10E30000C9430181704730B501F00F030125024672
:10E3100005FA03F40020A3B2090905FA01F4918873
:10E32000A4B2128921401A4202D0002900D0012053
:10E3300030BD01F00F0201219140C94301817047B6
:10E340000030014000380040003C004000340140F3
:10E3500000500140005401400838024080BA8C014E
:10E360000024F40010B501218C032046FFF7C8F803
:10E370002046BDE810400021FFF7C2B814490860EC
:10E38000704714490862704710B58A0721F00304EA
:10E390001149120F21440F23D1F8084893409C43A0
:10E3A000C1F80848D1F8083890400343C1F808384C
:10E3B00010BD0849C1F8DC00704708490860704783
:10E3C0000349002020310968C90500D501207047A4
:10E3D000003801400000274200300140000427427D
:10E3E000FE4910B5884206D101210846FFF788F89A
:10E3F000002101205BE0B0F1804F09D0F84988424C
:10E400000DD101210220FFF771F80021022070E0F8
:10E4100001210846FFF76AF80021012069E0F1496F
:10E42000884206D101210420FFF760F80021042072
:10E430005FE0ED49884206D101210820FFF756F838
:10E440000021082055E0E949884206D10121102029
:10E45000FFF74CF8002110204BE0E549884206D137
:10E4600001212020FFF742F80021202041E0E1496E
:10E47000884206D101210220FFF742F80021022044
:10E4800015E0DD49884202D101210C040AE0DB4994
:10E49000884202D101214C0404E0D94988420AD1C2
:10E4A00001218C042046FFF72BF800212046BDE80F
:10E4B0001040FFF725B8D349884206D101214020FA
:10E4C000FFF714F80021402013E0CF49884206D11D
:10E4D00001218020FFF70AF80021802009E0CB49C4
:10E4E00088420AD1841501212046FEF7FFFF002152
:10E4F0002046BDE81040FEF7F9BF10BD30B50288D8
:10E50000B64CBC4DA0420DD0A8420BD0B0F1804F0C
:10E5100008D0B34B984205D0B24B984202D0B24BD0
:10E52000984203D122F070034A881A43AF4B9842B5
:10E5300006D0AF4B984203D022F440730A891A43A5
:10E5400002804A68C2620A880285A04201D0A842BD
:10E5500001D1897A01860121818230BD4FF0FF31DE
:10E5600041600021018001814180817270470185F5
:10E5700082827047028822F070020A43028070474C
:10E5800041627047C1627047406A7047008D7047B2
:10E590000029018802D041F0020101E021F00201CE
:10E5A000018070470029018802D041F0040101E098
:10E5B00021F00401018070470029018802D041F058
:10E5C000800101E021F0800101807047028822F083
:10E5D0000802028002880A4302807047028822F4FF
:10E5E0004072028002880A43028070470029018835
:10E5F00002D041F0010101E021F0010101807047EA
:10E6000030B5028C22F001020284028C8388048BD4
:10E6100022F0020224F073050C882C438D891543E7
:10E620004A882A436D4DA84202D0724DA8420DD1AE
:10E6300022F00805CA8923F440732A4322F0040516
:10E640008A882A430D8A1D434B8A2B438380048387
:10E6500089684163028430BD70B5028C22F01002DB
:10E660000284028C8388048B0D8824F4E6464FF6DE
:10E67000FF7404EA052535438E8922F0200204EA5E
:10E68000061616434A8804EA02123243534EB04239
:10E6900002D0584EB04215D122F08006CA8923F428
:10E6A000406304EA0212324322F040068A8804EAF8
:10E6B000021232430E8A04EA86061E434B8A04EA9B
:10E6C000830333438380058389688163028470BD3B
:10E6D00070B5028C22F480720284028C8388848B51
:10E6E0000D8824F0730425438E894FF6FF7422F4BD
:10E6F000007204EA062616434A8804EA02223243DC
:10E70000364EB04202D03B4EB04215D122F40066E4
:10E71000CA8923F4405304EA0222324322F4806679
:10E720008A8804EA022232430E8A04EA06161E434D
:10E730004B8A04EA03133343838085838968C1636A
:10E74000028470BD70B5028C22F480520284058C64
:10E750008288838B0C8823F4E6464FF6FF7303EA26
:10E760000424344325F400568D8903EA05353543E6
:10E770004E8803EA06362E43184DA84202D01D4D9E
:10E78000A84205D122F480450A8A03EA82122A436C
:10E790008280848389680164068470BD00210180C1
:10E7A0004180818081608181C18101824182704785
:10E7B00030B50124058C00F118038C40A543058475
:10E7C00031B308292CD0091FC1F34E001844016849
:10E7D00048F6FF731940016001681AE0000001402B
:10E7E0000004004000080040000C00400010004001
:10E7F000001400400004014000400140004401407A
:10E800000048014000180040001C0040002000406B
:10E8100006E04FF6FF7303EA02221143016030BDA8
:10E8200003EB510001684FF68F73194001600168D6
:10E83000F3E74163704781637047C16370470164C8
:10E840007047028B22F070020A4302837047028BEA
:10E850004FF6FF7322F4E04203EA012111430183E2
:10E860007047828B22F070020A4382837047828B4A
:10E870004FF6FF7322F4E04203EA01211143818342
:10E880007047028B22F008020A4302837047028B12
:10E890004FF6FF7322F4006203EA01211143018362
:10E8A0007047828B22F008020A4382837047828B72
:10E8B0004FF6FF7322F4006203EA012111438183C2
:10E8C0007047028B22F004020A4302837047028BD6
:10E8D0004FF6FF7322F4806203EA012111430183A2
:10E8E0007047828B22F004020A4382837047828B36
:10E8F0004FF6FF7322F4806203EA01211143818302
:10E900007047028B22F080020A4302837047028B19
:10E910004FF6FF73C2F30E0203EA01211143018394
:10E920007047828B22F080020A4382837047828B79
:10E930004FF6FF73C2F30E0203EA012111438183F4
:10E940007047028C22F002020A4302847047028C54
:10E9500022F008020A4302847047028C4FF6FF73CC
:10E9600022F0200203EA0111114301847047028C56
:10E970004FF6FF7322F0800203EA01111143018474
:10E980007047028C4FF6FF7322F4007203EA0121F4
:10E99000114301847047028C4FF6FF7322F400622A
:10E9A00003EA0121114301847047028C4FF6FF7383
:10E9B00022F4005203EA013111430184704710B57B
:10E9C0000123048C8B409C430484038C8A401343B2
:10E9D000038410BD10B50423048C8B409C43048435
:10E9E000038C8A401343038410BD828B22F440625F
:10E9F0008283828B4FF6FF7303EA01210A438283ED
:10EA00007047828B22F00C028283828B0A438283BE
:10EA10007047028B22F440620283028B4FF6FF7331
:10EA200003EA01210A4302837047F0B5048C24F005
:10EA300010040484078B068C4FF6FF7404EA01155A
:10EA400027F4734704EA0331394304EA02220A43F4
:10EA500026F0A001294341F0100102830184F0BD9A
:10EA6000028B22F00C020283028B0A43028370475E
:10EA70002DE9F0410C460E884988A2882389054675
:10EA80000EB3042E26D0082E2E8C4FF6FF7028D001
:10EA900026F480562E84AF8B2E8C00EA022200EAE8
:10EAA000013127F473473A4300EA0330104326F458
:10EAB00020420A4342F48051A8832984E1882846F1
:10EAC000BDE8F04191E700F062F9E1882846BDE831
:10EAD000F041C5E7FFF7A9FFE1882846BDE8F0410E
:10EAE00097E726F480762E84AF8B2E8C00EA0121E6
:10EAF00000EA0310104327F0F307384326F420629E
:10EB00000A4342F48071A8832984E1882846BDE83D
:10EB1000F04176E700210180418001228280C1809E
:10EB2000018170472DE9F0410C46002649880746CF
:10EB3000012501B90226A288012A00D102252088D8
:10EB400023890028384610D0FFF76FFFE188384648
:10EB5000FFF75FFF23892A463146384600F017F950
:10EB6000E1883846BDE8F0417AE700F010F9E18825
:10EB70003846FFF775FF23892A4631463846FFF7A6
:10EB800054FFE1883846BDE8F04142E7406B7047EA
:10EB9000806B7047C06B7047006C704710B50A8877
:10EBA0004B88CC881A438B8823431A430B891A431A
:10EBB0004B8989891A430A43A0F8442010BD0021DB
:10EBC000018041808180C1800181418181817047C4
:10EBD000002930F8441F02D041F4004101E0C1F3A4
:10EBE0000E01018070470029818802D041F00401A4
:10EBF00001E021F00401818070470029818802D062
:10EC000041F0010101E021F0010181807047002AFB
:10EC1000828901D00A4300E08A4382817047818261
:10EC2000704702460020128A0A4200D00120704735
:10EC3000C9430182704702460020138A92890B4221
:10EC400002EA010202D0002A00D001207047C94325
:10EC5000018270471143A0F848107047002A82894A
:10EC600001D00A4300E08A438281704700298188ED
:10EC700002D041F0080101E021F0080181807047D5
:10EC8000018921F0070101817047028922F0700299
:10EC90000A430281704700B50346FFF7F6FF188963
:10ECA00040F00700188100BD70B516460D4660297A
:10ECB00004464FF0010231460AD000F068F82946B8
:10ECC0002046FFF7E2FF208940F00700208170BD59
:10ECD000FFF7ABFEF3E730B504894FF6FF7505EAA1
:10ECE00003231343E4B20B432343038130BD10B528
:10ECF0000446FFF7F0FF208940F07700208110BD27
:10ED000010B50446FFF7E7FF208940F480402081DA
:10ED100010BD828822F07002828082880A4382803D
:10ED20007047028922F00702028102890A430281A8
:10ED30007047028922F08002028102890A4302811F
:10ED4000704770B50589048B068C25F007050D43C7
:10ED50004FF6FC410C4040F201110C434FF6FF719D
:10ED600001EA031126F02206114331430581048391
:10ED7000018470BD0029818802D041F0800101E04A
:10ED800021F0800181807047A0F85010704770B565
:10ED9000048C24F001040484058B048C4FF6FF7668
:10EDA00006EA0313134325F0F3052B4324F00A026C
:10EDB0000A4342F001010383018470BDCD4910B5BF
:10EDC000884206D101211020FEF79AFB0021102075
:10EDD00020E0C949884202D101214C0429E0C749F9
:10EDE000884202D101218C0423E0C549884202D126
:10EDF0000121CC041DE0C349884202D101210C0548
:10EE000017E0C149884209D101212020FEF778FB93
:10EE100000212020BDE81040FEF772BBBB498842AC
:10EE200002D101218C0704E0B94988420AD10121AD
:10EE300044052046FEF75AFB2046BDE8104000215D
:10EE4000FEF754BB10BD7FB50446008A0D46C98845
:10EE500020F4405001432182A08941F20C61884393
:10EE6000A9882A8911436A8902431143A181A08A92
:10EE700020F44071A8890843A0826846FEF775FA1D
:10EE80009C48844202D0A048844201D1039800E00B
:10EE90000298A189090400EBC00101EB0010296868
:10EEA00001D5490000E08900B0FBF1F06422B0FB1D
:10EEB000F2F109010B096FF018056B4300EB8300B9
:10EEC000A3891D044FF0320306D503EBC000B0FB4D
:10EED000F2F000F0070005E003EB0010B0FBF2F0E9
:10EEE00000F00F00084320817FBD4FF416510160F0
:10EEF00000218180C18001810C2242818181704783
:10EF000010B5028A4C8822F470630A8822438C88E8
:10EF1000C9880C4322431A43028210BD002101809C
:10EF200041808180C18070470029818902D041F4ED
:10EF3000005101E021F4005181817047028B02F4FD
:10EF40007F420283028B0A43028370470029818932
:10EF500002D041F4004101E0C1F30E01818170470C
:10EF60000029818A02D041F4006101E021F40061AE
:10EF700081827047C1F30801818070478088C0F3A7
:10EF800008007047028A22F00F020282028A0A43B6
:10EF9000028270470029818902D041F0020101E01C
:10EFA00021F0020181817047828922F4006282810E
:10EFB00082890A4382817047028A22F020020282FB
:10EFC000028A0A43028270470029018A02D041F472
:10EFD000804101E021F4804101827047818941F044
:10EFE0000101818170470029818A02D041F0080126
:10EFF00001E021F0080181827047028BD2B20283C6
:10F00000028B42EA0121018370470029818A02D0E4
:10F0100041F0200101E021F02001818270470029A8
:10F02000818A02D041F0100101E021F010018182BB
:10F030007047828A22F004028282828A0A43828294
:10F0400070470029818A02D041F0020101E021F0DD
:10F05000020181827047002A828A01D00A4300E0BF
:10F060008A438282704710B5C1F3421301F01F0436
:10F070000121A140012B07D0022B07D01430002A18
:10F08000026805D00A4304E00C30F8E71030F6E7D8
:10F090008A43026010BD0246002012880A4200D056
:10F0A00001207047C9430180704770B501F01F050A
:10F0B00001260024C1F3421306FA05F2012B0FD0FA
:10F0C000022B0FD0838A4FEA11210088134206FADF
:10F0D00001F600EA060001D000B10124204670BD0F
:10F0E0008389F0E7038AEEE70A0A01219140C943C8
:10F0F000018070470010014000440040004800407B
:10F10000004C0040005000400014014000780040D6
:10F11000007C00400648804706480047FEE7FEE7BF
:10F12000FEE7FEE7FEE7FEE7FEE7FEE7FEE7FEE7B7
:10F130003B58010895C1000870470CA006F0F0FB91
:10F14000FBE70DA006F0ECFBFBE70EA006F0E8FBEA
:10F15000FBE70FA006F0E4FBFBE770477047704742
:10F160000F480168491C01607047000048617264E3
:10F170004661756C740D0A004D656D4D616E616779
:10F18000650D0A004275734661756C740D0A0000C6
:10F1900055736167654661756C740D0A0000000067
:10F1A0004404002010B50146FC4807F04EFB041E45
:10F1B00008D0A4F57F40F03809D0012807D00228F4
:10F1C00003D104E0F6A006F0ABFB204610BDF6A08C
:10F1D000F9E770B504462DED068B41799FEDF59B5F
:10F1E00080790A2927D2DFE801F0051295A4B1BE83
:10F1F000CBD8E5F30AF0CCFA41EC110BB0EE490A9A
:10F20000F0EE690A0AF03CFE9FEDEC1B0BE00AF001
:10F21000BFFA41EC110BB0EE490AF0EE690A0AF0B0
:10F220002FFE9FEDE81B51EC100B53EC112B0AF055
:10F230002FFA41EC180B207A012878D00022607A4E
:10F24000012875D00021207F012800D00020237ED6
:10F250004942DD00A37901EB81015E4205EB8605A1
:10F2600005EB0212404202EB810503EB40008000F7
:10F270001C350AF08DFA41EC190B28460AF088FA81
:10F2800053EC192B0AF004FA41EC100B0AF060FD64
:10F2900051EC100B0AF0A8FAE5792D1D4543608B5F
:10F2A00008350AF075FA9FEDC91B53EC112B0AF0D3
:10F2B000D6F853EC182B0AF079F99FEDC6AB53EC56
:10F2C0001A2B0AF073F941EC190B28460AF060FA80
:10F2D00053EC182B0AF06AF953EC1A2B0AF066F972
:10F2E00041EC100B51EC190B53EC102B0AF0B7F852
:10F2F00041EC100B0AF02CFD9FEDB81B51EC100BEC
:10F3000053EC112B0AF0ABF8BDEC068BBDE8704056
:10F310000AF06ABA0AF03CFA41EC110BB0EE490A65
:10F32000F0EE690A0AF0ACFD9FEDAE1B7BE75CE0F6
:10F330005DE00AF02DFA41EC110BB0EE490AF0EE57
:10F34000690A0AF09DFD9FEDA91B6CE70AF020FAFF
:10F3500041EC110BB0EE490AF0EE690A0AF090FD9B
:10F360009FEDA41B5FE70AF013FA41EC110BB0EE1E
:10F37000490AF0EE690A0AF083FD9FEDA01B52E7EF
:10F380000AF006FA41EC110BB0EE490AF0EE690AF8
:10F390000AF076FD9FED9B1B45E70AF0F9F941EC79
:10F3A000110BB0EE490AF0EE690A0AF069FD9FED13
:10F3B000971B38E70AF0ECF941EC110BB0EE490A63
:10F3C000F0EE690A0AF05CFD9FED921B2BE7FFE768
:10F3D0000AF0DEF941EC110BB0EE490AF0EE690AD1
:10F3E0000AF04EFD9FED8D1B1DE7012227E701214D
:10F3F00029E710B504F0A1F88A4C2068006880471E
:10F40000206880688047002010BD70B5864D0024BC
:10F41000286810B10CF012F92C60844D286800287F
:10F4200002D00CF00BF92C6070BD2DE9F0410024E6
:10F43000DFF8FC812546464658F82400A0B10CF0C0
:10F44000FDF846F82450204605F050F8794E56F85D
:10F4500024000CF0F3F8784F57F824000CF0EEF885
:10F4600046F8245047F82450641CE4B2202CE2D320
:10F4700072480570BDE8F04105F007B8FFF7D5FF09
:10F48000FFF7C3FF05F05DFB6D4801680268521A83
:10F49000C82AFBD302F08FFD6A48006801280DD10D
:10F4A0006948007858B10020624A034652F820109B
:10F4B00001B18B72401CC0B22028F7D370475A4864
:10F4C00000680028FAD006F011BB2DE9FC415F4D21
:10F4D00028785F4F5F4E0024A8B15F484FF48071D9
:10F4E00004605E4809F031FF33685DA20721684679
:10F4F0000AF0FCFB5BA006F013FA684606F010FA6F
:10F5000028A006F00DFA3C7034602C70BDE8FC8138
:10F5100010B5594A012104461170084608F0B4FCA0
:10F52000072009F01AF9082009F0E2F8204609F04E
:10F53000DEF9052009F0E1F95048FFF74AFE4F498E
:10F54000486108614E4809F009F83648006880684B
:10F55000BDE81040004710B5474A0446022111702B
:10F56000012008F091FC072009F0F7F8072009F0C6
:10F57000BFF8204609F0BBF9052009F0BEF93F4865
:10F58000FFF727FE3D49486108613D4808F0E6FF66
:10F59000244800688068BDE810400047140000203F
:10F5A0000D0A4F4B0D0A00000D0A4552524F520DE5
:10F5B0000A00000000000000000000400000000001
:10F5C0000078BE40000000000050C4400000000071
:10F5D000000011400000000000408F4000000000CB
:10F5E00000007940000000000078CE4000000000DC
:10F5F0000050D440000000008084DE400000000085
:10F60000805CE440000000008084EE4000000000C8
:10F610008084FE400000000080840E410000000055
:10F6200080841E41600400208005002084050020A5
:10F63000E416002064170020E4170020780500205D
:10F6400044040020480400204D0400206D040020E4
:10F650006E04002070040020580400209C07002045
:10F66000256400004C6F726150565F545872657388
:10F67000756C743D0000000064040020EC1900204B
:10F68000C0CA893610B5FF4A044603211170012013
:10F6900008F0FAFB082009F060F8092009F028F8C2
:10F6A000204609F024F9052009F027F9F648FFF76C
:10F6B00090FDF54948610861F44808F04FFFF448AF
:10F6C00000688068BDE81040004710B5ED4A044668
:10F6D00004211170012008F0D7FB082009F03DF843
:10F6E000082009F005F8204609F001F9052009F085
:10F6F00004F9E548FFF76DFDE34948610861E34817
:10F7000008F02CFFE24800688068BDE81040004720
:10F7100010B5DC4A044605211170012008F0B4FB45
:10F72000082009F01AF8072008F0E2FF204609F047
:10F73000DEF8052009F0E1F8D348FFF74AFDD24989
:10F7400048610861D14808F009FFD1480068806825
:10F75000BDE81040004710B5CA4A044606211170A2
:10F76000012008F091FB092008F0F7FF092008F0BC
:10F77000BFFF204609F0BBF8052009F0BEF8C248DB
:10F78000FFF727FDC04948610861C04808F0E6FE60
:10F79000BF4800688068BDE81040004710B5B94A0E
:10F7A000044607211170012008F06EFB092008F0C3
:10F7B000D4FF082008F09CFF204609F098F80520A7
:10F7C00009F09BF8B048FFF704FDAF4948610861B4
:10F7D000AE4808F0C3FEAE4800688068BDE810403F
:10F7E000004710B5A74A044608211170012008F00F
:10F7F0004BFB092008F0B1FF072008F079FF2046F5
:10F8000009F075F8052009F078F89F48FFF7E1FC4A
:10F810009D49486108619D4808F0A0FE9C48006829
:10F820008068BDE81040004710B5964A044609219B
:10F830001170012008F028FB0A2008F08EFF092033
:10F8400008F056FF204609F052F8052009F055F857
:10F850008D48FFF7BEFC8C49486108618B4808F071
:10F860007DFE8B4800688068BDE81040004710B5F9
:10F87000844A04460A211170012008F005FB0A2081
:10F8800008F06BFF082008F033FF204609F02FF83E
:10F89000052009F032F87C48FFF79BFC7A49486163
:10F8A00008617A4808F05AFE794800688068BDE827
:10F8B0001040004710B5734A04460B211170012017
:10F8C00008F0E2FA0A2008F048FF072008F010FFCD
:10F8D000204609F00CF8052009F00FF86A48FFF7F8
:10F8E00078FC694948610861684808F037FE684853
:10F8F00000688068BDE81040004710B5614A0446C2
:10F900000C211170012008F0BFFA0B2008F025FF30
:10F91000082008F0EDFE204608F0E9FF052008F079
:10F92000ECFF5948FFF755FC5749486108615748B3
:10F9300008F014FE564800688068BDE81040004793
:10F9400010B5504A04460D211170012008F09CFAB0
:10F950000B2008F002FF072008F0CAFE204608F03E
:10F96000C6FF052008F0C9FF4748FFF732FC4649AB
:10F9700048610861454808F0F1FD45480068806825
:10F98000BDE81040004710B53E4A04460E211170F4
:10F99000012008F079FA0C2008F0DFFE082008F0BA
:10F9A000A7FE204608F0A3FF052008F0A6FF364872
:10F9B000FFF70FFC344948610861344808F0CEFD78
:10F9C000334800688068BDE81040004710B52D4AF4
:10F9D00004460F211170012008F056FA0C2008F09F
:10F9E000BCFE072008F084FE204608F080FF0520BA
:10F9F00008F083FF2448FFF7ECFB234948610861C6
:10FA0000224808F0ABFD224800688068BDE810403D
:10FA100000472DE9F0411546024600201D4B0C46DB
:10FA200008704FF6F276217850785F5CB84205D0C6
:10FA3000491CC8B220700428F5D33BE0C8B20428A2
:10FA400038D202F5807009F0FDFC80B2288011499F
:10FA50002278091D22B90F282CD831F810002880EF
:10FA60002078012807D128880F2823D80B2821D0F7
:10FA700031F8100028802078022814D12888A0F1BD
:10FA80000D0209E064040020EC190020C0CA893688
:10FA90006004002066B70108022A0BD801EB400081
:10FAA00030F81A0C28802078032809D1288820B142
:10FAB000012802D03046BDE8F08131F810002880DE
:10FAC0000020F8E730B58DB000210C91009100784E
:10FAD00018B14FF6F2700DB030BD012006F059FCA0
:10FAE00040F6E441414340F6FF74B1FBF4F10C9160
:10FAF00041F26802514340F6E445B1FBF5F1009153
:10FB0000CDE90001FEA2282102A80C9B0AF0EEF824
:10FB100002A805F005FF022006F03BFC2946414300
:10FB2000B1FBF4F10C9141F268025143B1FBF5F1E4
:10FB30000091CDE90001FAA2282102A80C9B0AF04D
:10FB4000D5F802A805F0ECFE042006F022FC2946B8
:10FB50004143B1FBF4F10C9141F268025143B1FB16
:10FB6000F5F10091CDE90001F5A2282102A80C9B36
:10FB70000AF0BCF802A805F0D3FE082006F009FC44
:10FB800029464143B1FBF4F10C9141F26802514323
:10FB9000B1FBF5F10091CDE90001F1A2282102A805
:10FBA0000C9B0AF0A3F802A805F0BAFE4FF480708F
:10FBB00006F0EFFB29464143B1FBF4F10C9141F211
:10FBC00068025143B1FBF5F10091CDE90001ECA2CF
:10FBD000282102A80C9B0AF089F802A805F0A0FED3
:10FBE000002078E710B5007810B14FF6F27010BD24
:10FBF00002F0E1F97FB5044600784FF6F27503286C
:10FC000030D1E848006802282CD103AA02A9204676
:10FC1000FFF7FFFE30BB04F2FF1009F013FC10F0F9
:10FC2000FF0001D001281DD1BDF80C10009100216A
:10FC30008DF806108DF8071002228DF8052010B1FE
:10FC4000012803D00EE08DF8041002E001208DF8A9
:10FC500004009DF8080040B101280DD0022815D0FD
:10FC600003281AD0284604B070BD01210846FDF7CC
:10FC700001FC6946CC4805E001210220FDF7FAFBB2
:10FC80006946CA48FDF772F90020ECE7012104201B
:10FC9000FDF7F0FB6946C648F4E701218020FDF737
:10FCA000E9FB6946C348EDE77CB5044600784FF6AA
:10FCB000F27503281BD1BB480068022817D16A4699
:10FCC00001A92046FFF7A5FE88B904F2FF1009F04C
:10FCD000B9FB10F0FF0201D0012A08D19DF8040001
:10FCE00038B1012809D002280ED0032810D02846A8
:10FCF0007CBDBDF80010AC4802E0BDF80010AB4878
:10FD0000FDF79DF900207CBDBDF80010A848F7E77D
:10FD1000BDF80010A748F3E73EB5044600784FF65B
:10FD2000F275022812D19F48006802280ED16A4657
:10FD300001A92046FFF76DFE40B99DF8040038B1D7
:10FD4000012809D002282CD003282ED028463EBDF9
:10FD5000BDF80010944802E0BDF800109348FDF78C
:10FD600056F90346AFF20872042102A809F0BEFF5B
:10FD700091A005F0D5FD601C05F0D2FD91A005F025
:10FD8000CFFD04F5807005F0CBFD8EA005F0C8FD19
:10FD900002A805F0C5FDAFF2F47005F0C1FD00202A
:10FDA0003EBDBDF800108248D9E7BDF8001081487B
:10FDB000D5E710B5007810B14FF6F27010BD06F01F
:10FDC000CDF9002010BD70B501784FF6F270002912
:10FDD0002FD17D4C217800292BD17C49097800292D
:10FDE00027D17B490978002923D17A4E09254FF480
:10FDF00080717948356009F0A8FA2A4677A17648DB
:10FE000009F08AFA012008F03FF807F091FC7648E3
:10FE100000210170007807F055FC07F040FD3088A4
:10FE200081B27248006802696B48904701202070D7
:10FE3000002070BD70B501784FF6F270002926D110
:10FE4000614C2178002922D06149097800291ED10E
:10FE50005E49097800291AD15E4800254FF4807167
:10FE600005605D4809F071FA012007F0F7FC07F022
:10FE70005FFC5D4801210170007807F023FC08F069
:10FE800024F85A480068806880472570002070BDBB
:10FE900070B501784FF6F27501290BD14A490978FE
:10FEA00041B1401C09F0CEFA044651485149204462
:10FEB000884201D3284670BD012007F0CFFC4E4890
:10FEC000046007F035FC07F0EAFC4248008881B284
:10FED00046480068026940489047002070BD7CB5E4
:10FEE00001784FF6F270002908D1374909780029C6
:10FEF00004D1364E3178002900D07FE0A2E0000026
:10FF0000565F414443303D25642C20414443303DFD
:10FF100025642C20564241543D2564200A0D0000E2
:10FF2000565F414443313D25642C20414443313DDB
:10FF300025642C20564241543D2564200A0D0000C2
:10FF4000565F414443343D25642C20414443343DB5
:10FF500025642C20564241543D2564200A0D0000A2
:10FF6000565F414443353D25642C20414443353D93
:10FF700025642C20564241543D2564200A0D000082
:10FF8000565F5042303D25642C204144435F50422F
:10FF9000303D25642C20564241543D2564200A0DF5
:10FFA000000000004804002000000240000402405D
:10FFB00000080240001C02404750494F5F526561F3
:10FFC000643D00002C000000100000206D040020A3
:10FFD0006C040020580400209C07002041637369D2
:10FFE0007057696E00000000880500206004002042
:10FFF000C08BD5F7C182A134C8050020F649097825
:020000040801F1
:1000000000291FD1F54800244FF480710460F448A2
:1000100009F09BF9F34D2B68AFF6BC120721684637
:1000200009F064FEAFF6C41005F07AFC684605F0EE
:1000300077FCAFF6902005F073FCEB4804702C6061
:10004000347000207CBD2DE9F05F074600784FF644
:10005000F274022827D8012825D0E449097811BB79
:10006000DD490978F9B9E24E3178E1B9DE49DB4D75
:100070004FF4807A4FF001084FF00009B0B181F8D9
:100080000090781C09F0DEF90146DA48016000684A
:1000900048B107F58070834609F062F92860071EB1
:1000A00001D0FF2F0ED92046BDE8F09F81F80080D7
:1000B00009245146CA482C6009F047F92246AFF29C
:1000C000E40105E05146C64809F03FF93A46594671
:1000D000C34809F021F9012007F0D6FE287808F07E
:1000E00057FCC548FFF775F8C34948610861BD4929
:1000F000C1F8009086F80080C0480068806880479A
:100100000020D1E77CB501784FF6F270002928D1A4
:10011000B6490978002924D1AF4E3178002920D082
:10012000B349097800291CD1AC4800244FF48071F0
:100130000460AB4809F009F9B14D2B68AFF6E02235
:100140000721684609F0D2FDAEA005F0E9FB68463C
:1001500005F0E6FBAFF6B43005F0E2FB2C6034703E
:1001600000207CBD2DE9F041044600784FF6F27680
:10017000012823D8DFF8608298F80000F0B99B4886
:100180000078D8B99A480078C0B9944D00274FF448
:10019000807193482F6009F0D8F8207810B10128B9
:1001A00005D012E00922AFF2CC112A600AE0601CEF
:1001B00009F0D6F8286008B1FF2801D930467AE462
:1001C0000246611C864809F0A7F8012007F05CFE92
:1001D000287808F0DDFB8848FEF7FBFF8649486178
:1001E000086187480760012188F80010834800688B
:1001F0008068804700205EE43EB5044600784FF6F4
:10020000F275012836D184480068012808D1834856
:10021000007828B1601C09F0A3F8062814D106E084
:100220007FA005F07DFB86A005F07AFB22E08C48DC
:100230000078202801D38BA0F6E710220021601C53
:1002400009F0C8F8010E01D08BA0EDE78DF8080089
:10025000010A8DF80910000C8DF80A0000200090AA
:100260000146019002ABA522012004F02EF808B14E
:1002700000203EBD28463EBD30B50446007885B01E
:100280004FF6F275012802D0284605B030BD62480D
:100290000068012809D16148007830B1601C09F07C
:1002A0005FF8062806D074A025E05DA005F038FBB5
:1002B00063A020E06A480078202801D369A01AE0F2
:1002C00010220021601C09F085F8010EEBD18DF899
:1002D0001000010A8DF81110000C8DF8120004A80E
:1002E00006F0FAFD0346102808D069A210216846DE
:1002F00009F0FCFC684605F013FBC5E704F03DF986
:1003000004F028F90020C0E7FEB5054600784FF656
:10031000F274012842D140480068012808D13F48C2
:10032000007828B1681C09F01BF8062836D104E0D3
:100330003BA005F0F5FA42A033E010220021681C32
:1003400009F048F8010E29D1C5B2C0F307238DF892
:100350000850C0F307468DF8093050488DF80A6000
:1003600050F8212042B11778AF4205D157789F420B
:1003700002D19278B24204D0491CC9B22029EFD3ED
:100380000EE020290CD200200090019002ABB02298
:10039000012003F09AFF08B10020FEBD2046FEBDFB
:1003A0003FA005F0BDFAF9E738B5044600784FF6EE
:1003B000F27501280ED11848006801280BD11748A2
:1003C000007840B1601C08F0CBFF06287AD02AA044
:1003D00005F0A6FA85E076E06C04002058040020C1
:1003E0009C070020700400206E04002010000020F4
:1003F0006D04002074040020EC190020600400202B
:10040000680400204C6F726150565F5258726573D9
:10041000756C743D00000000480400204D0400206D
:1004200053797374656D204E4F5420696E204E6F62
:10043000726D616C206D6F64652C0D0A0000000008
:100440004F72204C6F7261206D6F64756C65204E29
:100450004F54204D61737465722E0D0A0000000028
:10046000780500204E6F6465206E756D62657220A0
:1004700066756C6C2E0D0A004164647220666F72A2
:100480006D6174206572726F722E0D0A000000009B
:100490004572726F722025640D0A0000E416002078
:1004A0004E4F542074686973204E4F444520696E46
:1004B0002041635369704C6F72614E65742E0D0A52
:1004C0000000000006E0AFF2A80005F029FAAFF244
:1004D00090007DE710220021601C08F07BFF010ED8
:1004E00001D0284638BD8DF80000010A8DF80110B2
:1004F000000C8DF80200684606F015FD28B104F0E6
:100500003CF804F027F8002038BDF7A060E72DE99B
:10051000FF5F0546FD484FF00008CDF80C800068ED
:1005200001287DD1FA480078002879D02878002861
:10053000FBD0681C08F014FF0628F2D1102200211D
:10054000681C08F047FF0246000EEAD1F14E002475
:1005500056F8240080B181784378090441EA0323E6
:1005600001788DF808100B4341788DF809108078D8
:100570008DF80A009A4204D0641CA4B2202CE7D360
:10058000BCE0202CFCD256F824000028F8D02878B3
:10059000DFF88493012807D005F580718B46022887
:1005A00019D00328BDD14AE04746CDF80080E1B21A
:1005B00002ABB5220120CDF8048003F086FE0028AE
:1005C0002ED056F824002021001D08F0BEFE56F85B
:1005D000240087847CE00F46384608F0C1FE397855
:1005E000C0B2222905D0384410F8010C22284CD082
:1005F00053E0391811F8011C222946D1811E884682
:10060000042913DB56F824002021001D08F09DFE6C
:10061000CDF800807B1C56F8240003AA202100E0BE
:1006200069E0001D01F0A9FF78BB54E002282CD13D
:1006300056F824002021001D08F087FE4BE005F24B
:10064000FF17384608F08CFE3978C0B222291CD139
:10065000391811F8011C222917D1811E8A46042954
:1006600011DB56F824002021001D08F06EFECDF8A5
:1006700000A056F824007B1C03AA2021001D01F0D5
:100680007CFF10B909E0022801D0A4A037E056F899
:1006900024002021001D08F058FE584608F0D2FE24
:1006A00056F82410474602AB8884CDF80080E1B2AA
:1006B000B5220120CDF8048003F007FED8B156F82A
:1006C0002400808C20B159F824000521818002E0AB
:1006D00059F82400878003F050FF03F03BFF94A0FB
:1006E00005F01EF9681C05F01BF993A005F018F938
:1006F000002004B0D8E44FF6F270FAE794A005F0B9
:100700000FF9F8E72DE9F04194B006460020139068
:100710007E4800684FF6F278012811D17C480078B5
:1007200070B1307801280BD1701C08F019FE062832
:1007300006D110220021701C08F04CFE010E02D0E0
:10074000404614B03BE5734F002457F8245045B1A0
:10075000A9786A78090441EA02212A780A4390427A
:1007600004D0641CA4B2202CEFD33EE0202C3CD259
:10077000002D3AD0402101A808F0E7FD281D08F01F
:10078000EFFD10F0FF000BD0009057F8243013AAB3
:10079000282101A81B1D01F06BFE08B15FA025E018
:1007A00057F8240073A20621838C11A809F09EFA41
:1007B0005FA005F0B5F8701C05F0B2F86EA005F06A
:1007C000AFF811A805F0ACF86EA005F0A9F81399E0
:1007D00009B101A801E001216AA005F09FF8AFF27C
:1007E000483005F09DF80020ABE759A005F098F8D7
:1007F000A6E72DE9F0414549C0B005460A684448DE
:100800004FF6F278012A007800D118B10968012961
:1008100038D04EE12878012807D05BA005F080F899
:1008200061A005F07DF866A008E06B48006820B183
:100830006A4C2078002803D103E069A005F070F825
:1008400032E1F4216B4808F080FD6E1C681C08F052
:1008500087FDC0B2009033463FAAF421654801F0FD
:100860008CFE654D002630B1F421624808F06DFD24
:100870006E70267018E13F98F428F5D86870012052
:1008800020700DE10028C4D02878022807D03EA0AF
:1008900005F046F859A005F043F85FA0CEE7681CC4
:1008A00008F05EFD062801D061A0C7E710220021F4
:1008B000681C08F08FFD0146000E12D1154E002471
:1008C00056F8240040B1827843781204007842EA56
:1008D00003221043814205D0641CE4B2202CEFD3E4
:1008E000E4E0E1E0BCE0000054686973206E6F64EE
:1008F00065204E4F5420696E2041635369704C6FE0
:1009000072614E65742E0D0A00000000480400203C
:100910004D040020E416002064170020416C69613A
:10092000736573206572726F722E0D0A00000000ED
:100930004E6F64653D0000002073657474696E67D6
:1009400020535543434553534544210D0A000000AD
:1009500054686973204E4F4445204E4F5420696EB1
:100960002041635369704C6F72614E65742E0D0A9D
:100970000000000025750000204556543D47657471
:100980004E6F6465200000005468697320436F6DEA
:100990006D616E6420696E204E6F726D616C204DCA
:1009A0006F64652E0D0A00004C6F7261206D6F64DC
:1009B000756C6520697320536C6176652E0D0A0095
:1009C0004E656564206F6E6520706172616D65743F
:1009D00065722E0D0A0000008005002054040020DE
:1009E0004E4F204C6F7261476174655761792E0DCF
:1009F0000A00000018060020100000204C6F7261F1
:100A0000206D6F64756C65206973204D617374652A
:100A1000722E0D0A000000004E6565642074776F29
:100A200020706172616D657465722E0D0A000000A0
:100A30004C6F7261206E6F646520616464726573CF
:100A400073206C656E677468204E4F542045515575
:100A5000414C203642797465732E0D0A0000000067
:100A6000202C23D205F58070054608F079FCC7B22A
:100A7000F42102A808F069FC2B463FAAF42102A841
:100A8000009701F07AFD78B93FA902A8CDE90001ED
:100A900056F82430AF222146012003F016FC18B18D
:100AA000002040B0BDE8F0814046FAE7AFF26010A8
:100AB000C4E6AFF29460C1E67CB5017800244FF63D
:100AC000F270002945D1FE490968012941D1FD494B
:100AD000097800293DD0FC4E002056F8201009B1BD
:100AE000641CE4B2401CC0B22028F6D3F7A004F086
:100AF00017FF2346AFF284120521684609F0F6F885
:100B0000684604F00DFFAFF2841004F009FFDCB179
:100B1000002556F8250098B1022456F82500EDA2CC
:100B20000521035D684609F0E1F8684604F0F8FE27
:100B3000641E64B2002CF0DAAFF2B81004F0F0FEDC
:100B40006D1CEDB2202DE4D3AFF2A81004F0E8FE46
:100B500000207CBD7CB501784FF6F270002923D1CE
:100B6000D749096801291FD1D649097800291BD125
:100B7000DA4D2868C8B1DAA004F0D2FE0324286850
:100B8000D4A22044052110F8013C684609F0AEF8D3
:100B9000684604F0C5FE641E64B2002CEFDCAFF2C0
:100BA000FC1004F0BDFE00207CBDD2A004F0B8FE15
:100BB000F5E710B501784FF6F27000290AD1C04967
:100BC0000968012906D1BF490978002902D103F03B
:100BD0002AFF002010BD10B5017800244FF6F270F6
:100BE00000290FD1B649096801290BD1B549097807
:100BF000002907D103F095FFC44800BF641C84425C
:100C0000FBD3002010BD7CB5007810B14FF6F27018
:100C10007CBD05F0C5FF0546BDA004F081FE0324A0
:100C20002819ACA210F8013C0521684609F05EF8CD
:100C3000684604F075FE641E64B2002CF0DCAFF26E
:100C40009C2004F06DFE00207CBD1CB501784FF6A1
:100C5000F27000291CD19A490968012918D19949D3
:100C60000978002914D19D48006890B1838CAFF2B7
:100C7000FC220621684609F039F8A8A004F050FECD
:100C8000684604F04DFEAFF2E42004F049FE002077
:100C90001CBDA6A004F044FEA9A0F6E730B500787C
:100CA00087B018B14FF6F27007B030BD03A802F05C
:100CB000A5FEA8A004F034FE022403ADA7A255F8B7
:100CC00024300921684609F011F8684604F028FE2E
:100CD000641E64B2002CF1DA9DA004F021FE002015
:100CE000E2E710B5007810B14FF6F27010BD9DA08C
:100CF00004F016FEA0A004F013FEA3A004F010FE62
:100D0000A3A004F00DFE92A004F00AFE002010BD86
:100D100010B501784FF6F27000290FD168490A68C2
:100D2000012A0CD00A68022A0BD00A685AB1096855
:100D3000032903D198A004F0F3FD002010BD9EA06C
:100D4000F9E7A5A0F7E7AFA0F5E710B5007810B177
:100D50004FF6F27010BD5B48007808B1B3A000E018
:100D6000B7A004F0DDFD002010BD3EB5007810B145
:100D70004FF6F2703EBD07F00CFC0346B5A20B2106
:100D8000684608F0B3FFB4A004F0CAFD684604F05A
:100D9000C7FDB5A004F0C4FD07F0BEFC0346ADA23C
:100DA0000B21684608F0A2FFB0A004F0B9FD684628
:100DB00004F0B6FDACA004F0B3FD07F0F9FC034667
:100DC000A4A20B21684608F091FFA9A004F0A8FD99
:100DD000684604F0A5FDA4A004F0A2FD07F00BFDF9
:100DE00003469CA20B21684608F080FFA1A004F0F6
:100DF00097FD684604F094FD9BA004F091FD07F078
:100E000051FC034693A20B21684608F06FFF9DA09A
:100E100004F086FD684604F083FD93A004F080FD95
:100E200007F068FD04469AA004F07AFD64B107F06B
:100E300071FD034687A20B21684608F057FF97A073
:100E400004F06EFD684600E096A004F069FD86A0FF
:100E500004F066FD07F037FD044694A004F060FD41
:100E60000CB196A000E098A004F05AFD7EA004F01A
:100E700057FD07F006FD044696A004F051FD0CB1A5
:100E800096A000E096A004F04BFD77A004F048FD8A
:100E900007F0E9FCC3B26FA20B21684608F026FFF9
:100EA00090A004F03DFD684604F03AFD6EA004F009
:100EB00037FD07F07AFD034666A20B21684619E16B
:100EC000480400204D040020E41600204E6F6465A5
:100ED000733D0000253032780000000080050020BE
:100EE0004C6F726147617465576179416464723D0A
:100EF000000000004C6F7261476174655761794171
:100F00006464723D4E554C4C00000000400D0300DF
:100F10004C6F72614D79416464723D004C6F726137
:100F20004D79496E74657276616C3D004C6F7261EB
:100F3000476174655761793D4E554C4C2000000067
:100F40004C6F72614D79496E74657276616C3D309B
:100F50000D0A0000555549443D0000002530387801
:100F6000000000004669726D7761726556657273A4
:100F7000696F6E3D00000000312E342E3230313763
:100F80002E3033313300000020666F7220000000E5
:100F9000535831323736000053797374656D4F7092
:100FA00065726174696F6E4D6F64653D496E496429
:100FB0006C650D0A0000000053797374656D4F7005
:100FC00065726174696F6E4D6F64653D496E4E6FF9
:100FD000726D616C0D0A000053797374656D4F700A
:100FE00065726174696F6E4D6F64653D496E5072D4
:100FF0006F64756374566572696669636174696F5D
:101000006E0D0A0053797374656D4F70657261746B
:10101000696F6E4D6F64653D496E50696E67506FC4
:10102000676E546573740D0A000000004C6F7261A6
:101030004D6F64653D4D41535445520D0A0000000B
:101040004C6F72614D6F64653D534C4156450D0ABE
:101050000000000025640000524646726571756507
:101060006E63793D000000002020000042573D00E3
:1010700053463D004572726F72436F64696E673DFF
:10108000000000005246506F7765723D000000007E
:1010900046726571486F704F6E3D000074727565E1
:1010A0000000000066616C736500000048656164C3
:1010B00065725374617475733D000000496D706C06
:1010C00069636974000000004578706C6963697435
:1010D000000000004352433D000000004F4E00005E
:1010E0004F464600507265616D626C654C656E6777
:1010F00074683D0008F0FAFDFEA004F011FC68469B
:1011000004F00EFCAFF2A00004F00AFC07F033FC80
:101110000346AFF2C0020B21684608F0E7FDF9A0D4
:1011200004F0FEFB684604F0FBFBAFF2C40004F0E1
:10113000F7FB07F0FFFB0346AFF2E8020B2168461E
:1011400008F0D4FDF4A004F0EBFB684604F0E8FBE3
:10115000AFF2EC0004F0E4FB07F0FDFB0346AFF256
:101160000C120B21684608F0C1FDF0A004F0D8FB7A
:10117000684604F0D5FBAFF2282004F0D1FB002034
:101180003EBD10B500784FF6F27408B1204610BD90
:10119000EB48417F29B1012905D0EAA004F0C0FB4A
:1011A000F4E7EEA000E0F3A004F0BAFB002010BDCD
:1011B0000EB5007810B14FF6F2700EBD07F0E9F9E8
:1011C0000346AFF270120B21684608F08FFDAFF2B4
:1011D000781004F0A5FB684604F0A2FBAFF2902063
:1011E00004F09EFB00200EBD0EB5007810B14FF646
:1011F000F2700EBD07F0AFFB0346AFF2A8120A2152
:10120000684608F073FDC9A004F08AFB684604F044
:1012100087FBAFF2C42004F083FB00200EBD0EB5A7
:10122000007810B14FF6F2700EBD07F083FB034655
:10123000AFF2E0120A21684608F058FDB6A004F0AB
:101240006FFB684604F06CFBAFF2FC2004F068FB17
:1012500000200EBD08B5007810B14FF6F27008BD41
:1012600007F020FA0346AFF214220421684608F082
:101270003DFDAFF2F01004F053FB684604F050FB64
:10128000AFF2343004F04CFB002008BD1CB50078F0
:1012900010B14FF6F2701CBD07F0E5FAC3B2AFF221
:1012A0004C220621684608F021FDAFF2C81004F078
:1012B00037FB684604F034FBAFF26C3004F030FBCF
:1012C00000201CBD00B5007889B018B14FF6F2704F
:1012D00009B000BD07F069FB0346ABA220216846B8
:1012E00008F004FD684604F01BFB07F044FB0346CE
:1012F000AAA22021684608F0F9FC684604F010FB19
:101300000020E5E710B5007810B14FF6F27010BD7F
:1013100007F0B7FA0446AFF2442004F001FB14B121
:10132000AFF2482001E0AFF2482004F0F9FAA0A0A3
:1013300004F0F6FA002010BD10B5007810B14FF699
:10134000F27010BD07F0BFFA0446AFF2A02004F01F
:10135000E7FA14B1AFF29C2001E0AFF2942004F060
:10136000DFFA93A004F0DCFA002010BD38B5007855
:1013700010B14FF6F27038BD07F0BCFA0446AFF278
:10138000F02004F0CDFA74B107F0C4FA0346AFF2CE
:101390003C320421684608F0A9FCAFF2003004F0AA
:1013A000BFFA684601E0AFF2043004F0B9FA80A059
:1013B00004F0B6FA002038BD1CB5007810B14FF625
:1013C000F2701CBD07F017FA0346AFF2783206211F
:1013D000684608F08BFCAFF2643004F0A1FA68466E
:1013E00004F09EFA72A004F09BFA00201CBD1CB50C
:1013F000007810B14FF6F2701CBD07F0D9F9034622
:10140000AFF2B0320621684608F070FCAFF2A030AF
:1014100004F086FA684604F083FA65A004F080FAC6
:1014200000201CBD1CB5007810B14FF6F2701CBD39
:1014300007F072F90346AFF2E4320621684608F07D
:1014400055FCAFF2D83004F06BFA684604F068FA45
:1014500057A004F065FA00201CBD1CB5007810B13F
:101460004FF6F2701CBD06F0D8FD0346AFF21C42E9
:101470000621684608F03AFC4EA004F051FA68468E
:1014800004F04EFA4AA004F04BFA00201CBD1CB533
:10149000007810B14FF6F2701CBD06F0C1FD034696
:1014A000AFF250420521684608F020FC43A004F04A
:1014B00037FA684604F034FA3DA004F031FA00200F
:1014C0001CBD1FB5007818B14FF6F27004B010BD06
:1014D00006F0AAFD8DED000B3AA2082102A808F043
:1014E00005FC3AA004F01CFA02A804F019FA30A096
:1014F00070E000005061796C6F61644C656E6774D8
:10150000683D00004D61785061796C6F61644C6595
:101510006E6774683D00000054785061636B6574B9
:1015200054696D656F75743D00000000527850611C
:10153000636B657454696D656F75743D00000000E0
:10154000EC19002052464F7363696C6C61746F72C2
:101550003D556E4B6E6F776E0000000052464F7324
:1015600063696C6C61746F723D4372797374616C02
:101570000000000052464F7363696C6C61746F72B7
:101580003D5443584F0000005061796C6F61644CCA
:10159000656E6774683D2025642C20004D6178508D
:1015A00061796C6F61644C656E6774683D20256479
:1015B0000D0A000052784761696E3D00534E523D5E
:1015C0000000000025332E326600000052535349BC
:1015D0003D00000004F0A4F9002077E710B5007882
:1015E00010B14FF6F27010BDFDF748FF2DE9F0473E
:1015F000044600784FF6F279012818D1F5A1601C55
:1016000007F0B5FEF64EF74DA0B1F7A1601C07F04C
:10161000AEFE4FF000080927D8B1F5A1601C07F015
:10162000A6FE00B3F4A1601C07F0A1FE60B348461B
:10163000BDE8F08701203060FF202876F048007870
:1016400010B103F0ECF817E003F098F803F090F90C
:1016500010E0FDF7EAFEFDF7D8FE022030602F769D
:1016600085F80B8006E0FDF7E0FEFDF7CEFEC6F83C
:1016700000802F7604F03AFAFDF70EFFD948FDF707
:10168000A8FD6861286107E0FDF7CFFEFDF7BDFE0C
:101690000320306004F02AFA0020C9E770B5044640
:1016A00000784FF6F275012809D1D6A1601C07F029
:1016B0005EFE30B1D5A1601C07F059FE10B128467E
:1016C00070BD0120FDF724FF02F057FF02F042FF3A
:1016D000002070BD70B5044600784FF6F275012801
:1016E00009D1C8A1601C07F042FE30B1C7A1601C3F
:1016F00007F03DFE10B1284670BD0120FDF72BFF1D
:1017000002F03BFF02F026FF002070BD70B50446DA
:1017100000784FF6F275012809D1BAA1601C07F0D4
:1017200026FE30B1B9A1601C07F021FE10B1284699
:1017300070BD0120FDF7A6FF02F01FFF02F00AFFB7
:10174000002070BD70B5044600784FF6F275012890
:1017500009D1ACA1601C07F00AFE30B1ABA1601C3E
:1017600007F005FE10B1284670BD0120FDF7ADFF62
:1017700002F003FF02F0EEFE002070BD70B50446DB
:1017800000784FF6F275012809D19EA1601C07F080
:10179000EEFD30B19DA1601C07F0E9FD10B12846B7
:1017A00070BD0120FDF7B4FF02F0E7FE02F0D2FEAB
:1017B000002070BD70B5044600784FF6F275012820
:1017C00009D190A1601C07F0D2FD30B18FA1601C3F
:1017D00007F0CDFD10B1284670BD0120FDF7BBFF1D
:1017E00002F0CBFE02F0B6FE002070BD70B50446DC
:1017F00000784FF6F275012809D182A1601C07F02C
:10180000B6FD30B181A1601C07F0B1FD10B12846D2
:1018100070BD0120FDF7C2FF02F0AFFE02F09AFE9C
:10182000002070BD70B5044600784FF6F2750128AF
:1018300009D174A1601C07F09AFD30B173A1601C3E
:1018400007F095FD10B1284670BD0120FDF7C9FFD6
:1018500002F093FE02F07EFE002070BD70B50446DB
:1018600000784FF6F275012809D166A1601C07F0D7
:101870007EFD30B165A1601C07F079FD10B12846EE
:1018800070BD0120FDF7D0FF02F077FE02F062FE8E
:10189000002070BD70B5044600784FF6F27501283F
:1018A00009D158A1601C07F062FD30B157A1601C3E
:1018B00007F05DFD10B1284670BD0120FDF7D7FF90
:1018C00002F05BFE02F046FE002070BD70B50446DB
:1018D00000784FF6F275012809D14AA1601C07F083
:1018E00046FD30B149A1601C07F041FD10B128460A
:1018F00070BD0120FDF7DEFF02F03FFE02F02AFE80
:10190000002070BD70B5044600784FF6F2750128CE
:1019100009D13CA1601C07F02AFD30B13BA1601C3D
:1019200007F025FD10B1284670BD0120FDF7E5FF49
:1019300002F023FE02F00EFE002070BD70B50446DA
:1019400000784FF6F275012809D12EA1601C07F02E
:101950000EFD30B12DA1601C07F009FD10B1284625
:1019600070BD0120FDF7ECFF02F007FE02F0F2FD72
:10197000002070BD70B5044600784FF6F27501285E
:1019800009D120A1601C07F0F2FC30B11FA1601C3E
:1019900007F0EDFC10B1284670BD0120FDF7F3FF04
:1019A00002F0EBFD02F0D6FD002070BD70B50446DC
:1019B00000784FF6F275012809D112A1601C07F0DA
:1019C000D6FC30B111A1601C07F0D1FC18B3284639
:1019D00070BD1FE0696E4E6F726D616C000000009B
:1019E00048040020EC190020696E505600000000E9
:1019F000696E544400000000696E49646C65000023
:101A00004D040020486F704F6E000000486F704F0B
:101A1000666600000120FDF7D9FF02F0AEFD02F07E
:101A200099FD0020D4E770B501784FF6F2750129D1
:101A300008D1401C07F006FD0446FB48FB49204442
:101A4000884201D32846C3E7012006F01DFA20464C
:101A500006F084FDF6480068806880470020B7E7FC
:101A600010B50178012902D04FF6F27010BD401C6C
:101A700007F0E8FCC4B2092C00D90924012006F0C3
:101A800003FA204606F034FEEA48FDF7A2FBE949D6
:101A900048610861E648006880688047002010BD02
:101AA00010B50178012902D04FF6F27010BD401C2C
:101AB00007F0C8FCC4B20C2C01D90C2402E0062C9F
:101AC00000D20624012006F0DFF9204606F045FE8C
