:020000040800F2
:10000000600900209D010008170A00089D060008ED
:10001000150A000809020008351100080000000058
:10002000000000000000000000000000590C000863
:100030004D02000800000000190A0008B90F00086E
:10004000B7010008B7010008B7010008B7010008B0
:10005000B7010008B7010008B7010008B7010008A0
:10006000B7010008B7010008B7010008B701000890
:10007000B7010008B7010008B7010008B701000880
:10008000B7010008B7010008B7010008B701000870
:10009000B7010008B7010008B7010008B701000860
:1000A000B7010008B7010008B7010008B701000850
:1000B000B7010008B7010008B7010008B701000840
:1000C000B7010008B7010008B7010008B701000830
:1000D000B7010008B7010008B7010008B701000820
:1000E000B7010008B7010008B7010008B701000810
:1000F000B7010008B7010008B7010008B701000800
:10010000B7010008B7010008B7010008B7010008EF
:10011000B7010008B7010008B7010008B7010008DF
:10012000B7010008B7010008B7010008B7010008CF
:10013000B7010008B7010008B7010008B7010008BF
:10014000B7010008B7010008B7010008B7010008AF
:10015000B7010008B7010008B7010008B70100089F
:10016000B7010008B7010008B7010008B70100088F
:10017000B7010008B7010008B7010008B70100087F
:10018000B7010008B7010008DFF80CD000F02AF82A
:1001900000480047A5150008600900200648804770
:1001A00006480047FEE7FEE7FEE7FEE7FEE7FEE75C
:1001B000FEE7FEE7FEE7FEE7C90F00088901000839
:1001C00040EA01039B0703D009E008C9121F08C0D9
:1001D000042AFAD203E011F8013B00F8013B521E59
:1001E000F9D27047064C074D06E0E06840F0010385
:1001F00094E8070098471034AC42F6D3FFF7C8FFE5
:100200007C1900089C190008FEE700000022014448
:1002100003E000BF10F8013B1A448842FAD3D0B281
:100220007047000030B504460020651804E000BFA8
:1002300014F8011B00F06EFFAC42F9D3002100F06E
:1002400069FFBDE83040002100F064BF7047000046
:1002500001490860704700000C3C024070B506463A
:10026000002529B1012927D0022928D04FF4407553
:1002700000F026F908281ED1124C206820F44070A6
:100280002060206828432060206820F0F80020606B
:10029000206846F0020108432060206840F4803066
:1002A000206000F00DF9216821F002012160216831
:1002B00021F0F801216070BD4FF48075D8E74FF44C
:1002C0000075D5E7103C02400B4908200A68D203AC
:1002D00001D5012070470A68D20601D50520704774
:1002E0000A6812F0EF0F01D00620704709688907ED
:1002F000FBD50720704700000C3C02401CB50820CD
:100300000190022000900D4800F056F901900198EC
:10031000C10801208840401E40F6FF71081A009075
:1003200000F07AF80021009800F088F800F06AF8F0
:10033000082801D002201CBD0120FCE700C00008F5
:1003400070B50646094800F037F905462C4608E026
:1003500002212046FFF782FF082801D0204670BD09
:100360000834202CF4D90020F9E7000000C0000870
:1003700010B50824084800F01FF9044600F03CF8C6
:10038000E1080841E20840F6FF711141884201D1BD
:10039000012010BD0020FCE700C0000810B500F0EF
:1003A0007DF8F320FFF754FF10BD00002DE9F04762
:1003B00005468846914600272C6800BF12E058F891
:1003C00027603146204600F04BF8082802D0012073
:1003D000BDE8F0872068B04201D00220F8E7241D74
:1003E0002C607F1C4F4502D202488442E7D900208E
:1003F000EEE70000FBFF010801480088704700009D
:10040000163C02400348017841F00201017000F0FF
:1004100057B80000143C024005480068C00705D0EA
:10042000034804490C38016003490160704700002B
:10043000143C02403B2A19087F6E5D4C30B50D46D6
:10044000044600F03DF8082806D1044801880DB1A3
:10045000A14300E02143018030BD0000163C024072
:1004600070B50D46064600F02BF8082813D10A4C4B
:10047000206820F440702060206840F40070206004
:10048000206840F001002060356000F019F8216814
:1004900021F00101216070BD103C02400548006858
:1004A000002805DA034804490C380160034901605B
:1004B00070470000103C024023016745AB89EFCD37
:1004C00008B508208DF80000FFF7FEFE8DF800004B
:1004D0009DF800000128F7D09DF8000008BDF0B598
:1004E0000023012403270D6804FA03F21540954206
:1004F00042D1D0F800C05E0007FA06F52CEA050CE0
:10050000C0F800C091F804C0D0F800E00CFA06FC76
:100510004CEA0E0CC0F800C091F804C0BCF1010F09
:1005200002D0BCF1020F1FD1D0F808C02CEA050C94
:10053000C0F808C091F805C0D0F808E00CFA06FC35
:100540004CEA0E0CC0F808C0D0F804C02CEA020C2B
:10055000C0F804C0426891F806C00CFA03FC1FFA08
:100560008CFC42EA0C024260C268AA43C260CA79AB
:10057000C568B2402A43C2605B1C102BB3D3F0BDE8
:100580004B07DB0E9A40C90810B500EB8100016AE9
:100590000F249C40A1430162016A1143016210BD16
:1005A00008B500208DF80000684600F021FC002806
:1005B000FAD09DF8000008BD014600202C4A914267
:1005C00003D2B1F1006F00D350E02A4A914204D225
:1005D000274A914201D3082048E0274A914204D299
:1005E000244A914201D3102040E0244A914204D28F
:1005F000214A914201D3182038E0214A914204D285
:100600001E4A914201D3202030E01E4A914204D27A
:100610001B4A914201D3282028E01B4A914204D270
:10062000184A914201D3302020E0184A914204D266
:10063000154A914201D3382018E0154A914204D25C
:10064000124A914201D3402010E0124A914204D252
:100650000F4A914201D3482008E00F4A914204D248
:100660000C4A914201D3502000E05820704700000E
:10067000004000080080000800C0000800000108D9
:100680000000020800000408000006080000080836
:1006900000000A0800000C0800000E08FEE7000039
:1006A000F0B500220D4B154614460A27B1FBF3F6B0
:1006B00030368654B1FBF3F603FB1611B3FBF7F3A8
:1006C000521C861816F8016C302E00D125B16D1C15
:1006D000641C0A2CEAD3F0BD0022F9E700CA9A3B59
:1006E000324800F0FFFB324800F0FCFB314800F0DC
:1006F000F9FB314800F0F6FB2E4800F0F3FB2B48E5
:1007000000F0F0FB2DA000F0EDFBFFF731FE2D4CCB
:10071000002510B90120206000E025602AA000F02B
:10072000E1FB39A000F0DEFB47A000F0DBFB56A0A8
:1007300000F0D8FB206810B163A000F0D3FB72A0DA
:1007400000F0D0FBFFF72CFF312806D0322807D06D
:10075000332808D034280FD011E000F07FFADDE70D
:1007600000F066FBDAE778494868A06060600968D5
:1007700081F308888047D1E72068012807D02068E6
:10078000002810D071A000BF00F0ACFBC6E7FFF757
:10079000B5FD012803D00228C0D17CA0F4E786A0D3
:1007A00000F0A0FBB9E78CA0EEE7000030190008CC
:1007B000981800084C180008E41800080D0A0D0AE3
:1007C00000000000000000200D0A3D3D3D3D3D3D84
:1007D0003D3D3D3D3D3D3D3D3D3D3D3D204D616906
:1007E0006E204D656E75203D3D3D3D3D3D3D3D3DA1
:1007F0003D3D3D3D3D3D3D3D3D3D3D3D3D3D3D3D29
:100800003D3D3D0D0A0A000020446F776E6C6F611C
:100810006420496D61676520546F207468652053BA
:10082000544D33324634303120496E7465726E61F6
:100830006C20466C617368202D2D2D2D2D2D2D20C3
:10084000310D0A0A000000002055706C6F616420B1
:10085000496D6167652046726F6D2074686520532D
:10086000544D33324634303120496E7465726E61B6
:100870006C20466C617368202D2D2D2D2D2D2D2083
:10088000320D0A0A00000000204578656375746522
:1008900020546865204E65772050726F6772616DD5
:1008A000202D2D2D2D2D2D2D2D2D2D2D2D2D2D2D85
:1008B0002D2D2D2D2D2D2D2D2D2D2D2D2D2D2D2075
:1008C000330D0A0A000000002044697361626C6500
:1008D000207468652077726974652070726F746522
:1008E0006374696F6E202D2D2D2D2D2D2D2D2D2D09
:1008F0002D2D2D2D2D2D2D2D2D2D2D2D2D2D2D2035
:10090000340D0A0A000000003D3D3D3D3D3D3D3DAA
:100910003D3D3D3D3D3D3D3D3D3D3D3D3D3D3D3D07
:100920003D3D3D3D3D3D3D3D3D3D3D3D3D3D3D3DF7
:100930003D3D3D3D3D3D3D3D3D3D3D3D3D3D3D3DE7
:100940003D3D0D0A0A00000000C00008496E7661B6
:100950006C6964204E756D6265722021203D3D3EBC
:1009600020546865206E756D6265722073686F75BE
:100970006C642062652065697468657220312C2082
:10098000322C2033206F7220340D00004572726FBC
:10099000723A20466C6173682077726974652075BD
:1009A0006E70726F74656374696F6E206661696CD6
:1009B00065642E2E2E0D0A005772697465205072E0
:1009C0006F74656374696F6E2064697361626C65CE
:1009D000642E2E2E0D0A0000496E76616C6964202B
:1009E0004E756D6265722021203D3D3E2054686544
:1009F000206E756D6265722073686F756C6420621D
:100A0000652065697468657220312C2032206F7210
:100A100020330D00FEE7704770470000044A0029AC
:100A2000116801D0014300E081431160704700006C
:100A300030380240044A0029116801D0014300E027
:100A400081431160704700004038024070B5204A71
:100A50001168204C11F00C0104D01F4E042903D062
:100A6000082903D004601BE0066019E01849091F3B
:100A70000B68C3F380550B6803F03F0315B1B6FB59
:100A8000F3F301E0B4FBF3F30C680968C4F38814D2
:100A90006343C1F30141491C4900B3FBF1F101601B
:100AA00011680F2303EA11110C4B5C5C0168E140F3
:100AB00041601468072505EA94241C5D21FA04F4BA
:100AC0008460126805EA52329A5CD140C16070BD00
:100AD000083802400024F40040787D013C000020EA
:100AE00070B50C46054604E0284600F081F901285F
:100AF00004D0641EF8D24FF0FF3070BD002070BDEE
:100B00002DE9F84F884600210646C8F800109246A5
:100B100011466846FFF7E4FF4FF0FF39B0BB9DF880
:100B20000000182814D006DC012809D0022809D0BA
:100B300004282BD12EE0412816D0612826D113E0BD
:100B4000802401E04FF4806401253070671D15E0BA
:100B500051466846FFF7C4FFC0B99DF80000182849
:100B600014D1C8F8009015E00120BDE8F88F701985
:100B70005146FFF7B5FF48B96D1CADB2BD42F6D383
:100B8000B178707881F0FF01884201D04846ECE7E7
:100B9000C8F800400020E8E72DE9FC4188460446FB
:100BA0002B492B48091D50F8240051F82410084304
:100BB0000121FFF733FF2CB925480121001F0068F0
:100BC000FFF738FF2248234E083810F81420001F82
:100BD00030F8141056F82400FFF7D2FC1C48371DDB
:100BE000801F10F81420001F30F8141057F824004C
:100BF000FFF7C6FC00208DF8060001208DF80700E5
:100C00001348022510388DF8045030F81400009075
:100C10008DF8055056F824006946FFF760FC0C4833
:100C20008DF804500E38694630F81400009057F8DB
:100C30002400FFF754FC351F414655F8240000F00E
:100C40000FFA55F82400012100F0F8F9BDE8FC8105
:100C5000C816000814000020704700003EB518A216
:100C600007CA8DE8070019A000F03CF9264800F0FB
:100C7000B9FA041E14DD254800F034F9244800F0C8
:100C800031F921466846FFF70BFD22A000F02AF952
:100C9000684600F027F922A000F024F923A008E01C
:100CA000601C05D0A01C07D0E41C07D02BA000E0DE
:100CB00032A000F017F93EBD40A0FAE746A0F8E7E1
:100CC000202020202020202020200000576169744F
:100CD000696E6720666F72207468652066696C654E
:100CE00020746F2062652073656E74202E2E2E2076
:100CF0002870726573732027612720746F206162EA
:100D00006F7274290A0D000060000020EC170008C3
:100D1000600400200A0D2053697A653A2000000023
:100D20002042797465730D0A000000002D2D2D2DD1
:100D30002D2D2D2D2D2D2D2D2D2D2D2D2D2D2D2DE3
:100D40002D2D2D2D2D2D2D2D2D2D2D2D2D2D2D2DD3
:100D50002D2D2D2D2D2D2D2D2D0A00000A0D466136
:100D6000696C656420746F207265636569766520BF
:100D70007468652066696C65210A0D000A0A0D54C5
:100D8000686520696D6167652073697A652069739C
:100D900020686967686572207468616E2074686590
:100DA00020616C6C6F776564207370616365206D82
:100DB000656D6F7279210A0D000000000A0A0D5658
:100DC0006572696669636174696F6E206661696CDA
:100DD0006564210A0D0000000D0A0A41626F7274F9
:100DE000656420627920757365722E0A0D0000001B
:100DF00010B504462021054800F02AF9002804D047
:100E00000248001D00882070012010BD00440040F1
:100E100010B5064C0146204600F078F980212046A6
:100E200000F016F90028F9D010BD00000044004081
:100E300010B50BA000F056F8FFF7B2FB43280DD118
:100E40004FF4A0320DA1134800F098FA08B112A097
:100E500000E01CA0BDE8104000F044B810BD000048
:100E60000A0A0D53656C6563742052656365697683
:100E7000652046696C650A0D0000000055706C6FB6
:100E800061646564466C617368496D6167652E6273
:100E9000696E000000C000080A0D4572726F722072
:100EA0004F63637572726564207768696C6520545E
:100EB00072616E736D697474696E672046696C65E2
:100EC0000A0D00000A0D46696C652075706C6F6133
:100ED000646564207375636365737366756C6C79A0
:100EE000200A0D0010B5044603E000BFFFF790FF95
:100EF000641C20780028F9D110BD70B50022047858
:100F00001346302C04D14478782C0AD0582C08D0C1
:100F10006FF02F05845C74B36B2C2ED04B2C2CD02F
:100F200030E082780AB30224025D5AB1A2F1410591
:100F3000052D0AD9A2F16106052E06D91135092D14
:100F400007D913E001200B6011E0A2F13006092E51
:100F500001D8303A04E0052D01D8373A00E0573A7D
:100F6000641C02EB03130B2CDED302E000200B2CDD
:100F700000D3002070BD0B6002E01AB1980207E0B8
:100F8000012015E06D2C01D04D2C03D112B11805B4
:100F90000860F5E7A4F13006092E08D803EB8303B7
:100FA00005EB4303521C23440B2AB3D3E1E7002093
:100FB0000B2ADED270BD000002480168491C0160A6
:100FC000704700000C000020174810B5016841F47C
:100FD000700101601549086840F00100086013487D
:100FE0000022083002600B68114C23400B60041F84
:100FF000104B23600B6823F480230B60011D0A60F3
:101000000D4A4FF4C0611160016841F08001016038
:1010100001680160016841F48051016002490006E5
:101020008039086010BD000088ED00E00038024003
:10103000FFFFF6FE10300024003C024000298189A9
:1010400002D041F4005101E021F400518181704748
:101050000246002012880A4200D00120704700009A
:101060007FB50446008A0D4620F44051E8880843C5
:101070002082A08941F20C618843A9882A89114302
:101080006A8902431143A181A08A20F44071A88992
:101090000843A0826846FFF7D9FC1A48844202D070
:1010A0001948844201D1039800E00298A1890904FB
:1010B00000EBC00101EB0010296801D5490000E0F8
:1010C0008900B0FBF1F26420B2FBF0F109010B09D9
:1010D0006FF018056B4302EB8302A3891D044FF0E8
:1010E000320306D503EBC202B2FBF0F000F00700BA
:1010F00005E003EB0212B2FBF0F000F00F00084332
:1011000020817FBD0010014000140140C1F308019F
:101110008180704741F4807141F221024000490012
:10112000CB0500D5401CC30300D55040CB03F5D5FB
:1011300080B27047FEE7FEB5054601200026287004
:101140006E70FF20A870344603E02B19641CD87021
:10115000A4B2085D08B1FF2CF7D92819C6706846FB
:101160001168FFF79DFA0020241DA1B26B4604E030
:10117000401C6A54491C80B289B21A5C002AF7D11B
:1011800002E06E54491C89B28329FAD3FEBD70B5C2
:101190004FF48066B34201D3344600E08024A3427A
:1011A00000D323469DB2B44201D1022300E00123C3
:1011B0000B704A70D2438A700322EB1C04E010F8D3
:1011C000016B8E54521C92B29A42F8D3A54208D8B1
:1011D0001A2298B2E41C02E00A54401C80B2A042D9
:1011E000FAD370BD2DE9F04FADF22C4D4FF0000A4F
:1011F000DFF864B10446CDF808A45546D0464FF454
:1012000080174FF0FF39CDF810B4CDF814A40026A4
:101210003A460DF20C416846FFF772FC98B101287E
:1012200075D0B8F1000F00DD6D1C052D71DD1820A3
:10123000FFF7EEFD5FF01800FFF7EAFD00200DF26A
:101240002C4DBDE8F08FDDF80C2400254A4507D071
:1012500042B19DF80100F1B288420BD0152078E030
:101260000620E9E70620FFF7D3FDDDF81404002887
:10127000CDD05AE0BEB120460DF10301FEF7A0FF2C
:10128000DDF80C042146C0F38D020DF58260FFF7F6
:101290008DF8D8B31820FFF7BBFD1820FFF7B8FD75
:1012A0006FF00100CBE79DF8030088B300212B4AC3
:1012B0000DF1030002E05354401C491C03780BB1AC
:1012C000FF29F8DD02F801A000210DF58362401C22
:1012D00002E05354401C491C0378202B01D01029F4
:1012E000F7DB02F801A00DF581611046FFF705FE5E
:1012F000DDF808046FF4A031C8420BD91820FFF7BD
:1013000087FD1820FFF784FD484698E710E016E0B7
:1013100008E01DE05846FFF713F80620FFF778FDB8
:10132000432006E00620FFF773FDDDF8080486E79A
:101330000620FFF76DFD4FF00108761C68E71820C6
:10134000FFF766FD1820FFF763FD6FF0020076E7F8
:101350004320FFF75DFD5BE700C00008600400204C
:1013600070B50D460646002404E0305DFFF750FDE1
:10137000641CA4B2AC42F8D370BD00002DE9F74F55
:10138000ADF5A26D8146002420460DF581620B5C0F
:101390001354401CC0B2FF28F9D301270DF5A362F6
:1013A0000DF581616846FFF7C6FE83216846FFF7A9
:1013B000D7FF6D4642F2107A04E083216846FFF7BA
:1013C000CFFF67B18021E81CFEF72CFF0646000A1C
:1013D000FFF71EFDF0B2FFF71BFDA84606E08021D7
:1013E00008F10300FEF712FFFFF712FD51460DF55D
:1013F000A160FFF775FB18B1641C0A2CDDD3B7E0C0
:101400009DF808050628F8D10A2C6BD2CDF80C956A
:101410004FF0010BDDF818554EE000BF0BF0FF0256
:101420002B466946DDF80C05FFF7B1FE00208DF86C
:10143000080506464FF48064A54200D28024E11CD2
:101440006846FFF78DFF214608F1030047B1FEF71C
:10145000E9FE8146000AFFF7DBFC09F0FF0001E02E
:10146000FEF7D4FEFFF7D4FC45490DF5A160FFF768
:1014700037FB18B99DF80805062803D0761C0A2EFC
:10148000D8D317E0DDF80C05A5422044CDF80C05B3
:101490000DD92D1BBBF1500F04D00BF101001FFA29
:1014A00080FB05E0FF200DF21C5DBDE8F08F0025FC
:1014B0000A2E01D3F0B2F6E7002DAFD18DF8085512
:1014C0002C4657460420FFF7A3FC39460DF5A160D2
:1014D000FFF706FB18B99DF80805062803D0641C21
:1014E0000A2CEFD344E00A2C42D201208DF80000F0
:1014F0008DF80150FF2000248DF802008DF808556A
:10150000032046463554401CC0B28328FAD38321B9
:101510006846FFF725FF8021F01CFEF783FE054695
:10152000000AFFF775FCE8B2FFF772FC39460DF5CB
:10153000A160FFF7D5FA18B1641C0A2CE7D317E0B5
:101540009DF808050628F8D101250A2C10D20420A0
:10155000FFF75EFC39460DF5A160FFF7C1FA18B937
:101560009DF80805062801D0641C1DB10A2C04D37F
:10157000E0B298E70A2CEAD3FAE7002093E70000EC
:10158000A086010002E008C8121F08C1002AFAD193
:1015900070477047002001E001C1121F002AFBD1F3
:1015A0007047000086B02F4800218DF800100068B9
:1015B0004FF47A72B0FBF2F0401EB0F1807F2FD270
:1015C0004FF0E0225061284BF02083F8140D916118
:1015D000072010614FF416400190ADF80C10ADF8E3
:1015E00008100C20ADF80A10ADF81010ADF80E0080
:1015F00001A90020FFF7D0FA1C48FFF773FC1C4834
:10160000FFF770FC1B48FFF76DFC1848FFF76AFCFA
:1016100019A0FFF767FC1A4E356805F5FA6505E075
:10162000FEE76846FFF7E4FB040002D13068A842F9
:10163000F7D39DF80000502806D12CB1FEF7AEFE7E
:10164000FFF74EF8002CFBD10EA0FFF74BFC17491B
:101650004868174A1060174A1060096881F30888C3
:101660008047FEE74C0000200FE000E0A4170008D0
:10167000141700085C1700080D0A0D0A000000008E
:101680000C0000200D0A426F6F74204C6F6164657E
:1016900072204279652D427965202E2E2E2E2E2E17
:1016A000200D0A200D0A200D0A00000000C00008CD
:1016B00008000020040000200400080002000300CD
:1016C0000700070000000200010000000100000008
:1016D00001000020008001000020008000000200C6
:1016E000060000000D000F00060028002800400042
:1016F00000010002800000004000000040000000E7
:1017000000010000040000000100000004000000CF
:10171000400000000D0A3D202028432920323031AE
:101720003620416353695020546563686E6F6C6F57
:10173000677920436F72702E2020202020426F6F27
:1017400074204C6F6164657220285665722E2031BA
:101750002E312E30292020203D0000000D0A3D2092
:101760002020496E7075742073796D626F6C20272C
:101770005027284153434949203078353029206982
:101780006E2032207365636F6E647320746F206502
:101790006E74657220494150206D6F646520202071
:1017A0003D0000000D0A3D3D3D3D3D3D3D3D3D3D83
:1017B0003D3D3D3D3D3D3D3D3D3D3D3D3D3D3D3D59
:1017C0003D3D3D3D3D3D3D3D3D3D3D3D3D3D3D3D49
:1017D0003D3D3D3D3D3D3D3D3D3D3D3D3D3D3D3D39
:1017E0003D3D3D3D3D3D3D3D3D0000000A0A0D2093
:1017F00050726F6772616D6D696E6720436F6D70B7
:101800006C65746564205375636365737366756C8A
:101810006C79210A0D2D2D2D2D2D2D2D2D2D2D2DBC
:101820002D2D2D2D2D2D2D2D2D2D2D2D2D2D2D2DE8
:101830002D2D2D2D2D2D2D2D2D2D2D2D2D2D2D2DD8
:101840002D2D0D0A204E616D653A20000D0A3D20B8
:101850002020202020202020202020202020202088
:101860002020202020202020202020202020202078
:101870002020202020202020202020202020202068
:101880002020202020202020202020202020202058
:101890002020203D000000000D0A3D2020202020B7
:1018A00020202020202020202028432920434F5082
:1018B00059524947485420323031362041635369E8
:1018C0005020546563686E6F6C6F677920436F7248
:1018D000702E202020202020202020202020203D8D
:1018E000000000000D0A3D202053544D3332463491
:1018F000303120496E2D4170706C69636174696F7D
:101900006E2050726F6772616D6D696E67204170F5
:10191000706C69636174696F6E20202856657273FC
:10192000696F6E20312E312E3029203D00000000DD
:101930000D0A3D3D3D3D3D3D3D3D3D3D3D3D3D3D3A
:101940003D3D3D3D3D3D3D3D3D3D3D3D3D3D3D3DC7
:101950003D3D3D3D3D3D3D3D3D3D3D3D3D3D3D3DB7
:101960003D3D3D3D3D3D3D3D3D3D3D3D3D3D3D3DA7
:101970003D3D3D3D3D3D3D3D000000009C190008C2
:10198000000000206000000084150008FC19000819
:10199000600000200009000094150008000000000D
:1019A00000000000000000000000000000440040B3
:1019B0000000024000000240000000000018024049
:1019C00000180240002002400008024000000240CF
:1019D0000008024000180240000000000102030459
:1019E000010203040607080900127A000000000043
:0C19F000000000000102030406070809C3
:040000050800018965
:00000001FF
